{
	"compilerInput": "{\"language\":\"Solidity\",\"sources\":{\"NFT_FCS.sol\":{\"content\":\"// SPDX-License-Identifier: MIT\\n\\npragma solidity 0.8.22;\\n\\n// code snippet from https://github.com/nibbstack/erc721/tree/master\\nimport \\\"https://github.com/0xcert/ethereum-erc721/src/contracts/tokens/nf-token-metadata.sol\\\";\\nimport \\\"https://github.com/0xcert/ethereum-erc721/src/contracts/ownership/ownable.sol\\\";\\n\\n\\n\\ncontract fcsNFT is \\n    NFTokenMetadata, \\n    Ownable {\\n \\n  /**\\n   * @dev Contract constructor. Sets metadata extension `name` and `symbol`.\\n   */\\n\\n  constructor() {\\n    nftName = \\\"fcs_class\\\";\\n    nftSymbol = \\\"INR\\\";\\n  }\\n \\n\\n  function metamask(address myaddress, uint256 tokenID, string calldata uri) external onlyOwner {\\n    super._mint(myaddress, tokenID);\\n    super._setTokenUri(tokenID, uri);\\n  }\\n\\n}\\n\"},\"https://github.com/0xcert/ethereum-erc721/src/contracts/ownership/ownable.sol\":{\"content\":\"// SPDX-License-Identifier: MIT\\npragma solidity ^0.8.0;\\n\\n/**\\n * @dev The contract has an owner address, and provides basic authorization control whitch\\n * simplifies the implementation of user permissions. This contract is based on the source code at:\\n * https://github.com/OpenZeppelin/openzeppelin-solidity/blob/master/contracts/ownership/Ownable.sol\\n */\\ncontract Ownable\\n{\\n\\n  /**\\n   * @dev Error constants.\\n   */\\n  string public constant NOT_CURRENT_OWNER = \\\"018001\\\";\\n  string public constant CANNOT_TRANSFER_TO_ZERO_ADDRESS = \\\"018002\\\";\\n\\n  /**\\n   * @dev Current owner address.\\n   */\\n  address public owner;\\n\\n  /**\\n   * @dev An event which is triggered when the owner is changed.\\n   * @param previousOwner The address of the previous owner.\\n   * @param newOwner The address of the new owner.\\n   */\\n  event OwnershipTransferred(\\n    address indexed previousOwner,\\n    address indexed newOwner\\n  );\\n\\n  /**\\n   * @dev The constructor sets the original `owner` of the contract to the sender account.\\n   */\\n  constructor()\\n  {\\n    owner = msg.sender;\\n  }\\n\\n  /**\\n   * @dev Throws if called by any account other than the owner.\\n   */\\n  modifier onlyOwner()\\n  {\\n    require(msg.sender == owner, NOT_CURRENT_OWNER);\\n    _;\\n  }\\n\\n  /**\\n   * @dev Allows the current owner to transfer control of the contract to a newOwner.\\n   * @param _newOwner The address to transfer ownership to.\\n   */\\n  function transferOwnership(\\n    address _newOwner\\n  )\\n    public\\n    onlyOwner\\n  {\\n    require(_newOwner != address(0), CANNOT_TRANSFER_TO_ZERO_ADDRESS);\\n    emit OwnershipTransferred(owner, _newOwner);\\n    owner = _newOwner;\\n  }\\n\\n}\\n\"},\"https://github.com/0xcert/ethereum-erc721/src/contracts/tokens/nf-token-metadata.sol\":{\"content\":\"// SPDX-License-Identifier: MIT\\npragma solidity ^0.8.0;\\n\\nimport \\\"./nf-token.sol\\\";\\nimport \\\"./erc721-metadata.sol\\\";\\n\\n/**\\n * @dev Optional metadata implementation for ERC-721 non-fungible token standard.\\n */\\ncontract NFTokenMetadata is\\n  NFToken,\\n  ERC721Metadata\\n{\\n\\n  /**\\n   * @dev A descriptive name for a collection of NFTs.\\n   */\\n  string internal nftName;\\n\\n  /**\\n   * @dev An abbreviated name for NFTokens.\\n   */\\n  string internal nftSymbol;\\n\\n  /**\\n   * @dev Mapping from NFT ID to metadata uri.\\n   */\\n  mapping (uint256 => string) internal idToUri;\\n\\n  /**\\n   * @notice When implementing this contract don't forget to set nftName and nftSymbol.\\n   * @dev Contract constructor.\\n   */\\n  constructor()\\n  {\\n    supportedInterfaces[0x5b5e139f] = true; // ERC721Metadata\\n  }\\n\\n  /**\\n   * @dev Returns a descriptive name for a collection of NFTokens.\\n   * @return _name Representing name.\\n   */\\n  function name()\\n    external\\n    override\\n    view\\n    returns (string memory _name)\\n  {\\n    _name = nftName;\\n  }\\n\\n  /**\\n   * @dev Returns an abbreviated name for NFTokens.\\n   * @return _symbol Representing symbol.\\n   */\\n  function symbol()\\n    external\\n    override\\n    view\\n    returns (string memory _symbol)\\n  {\\n    _symbol = nftSymbol;\\n  }\\n\\n  /**\\n   * @dev A distinct URI (RFC 3986) for a given NFT.\\n   * @param _tokenId Id for which we want uri.\\n   * @return URI of _tokenId.\\n   */\\n  function tokenURI(\\n    uint256 _tokenId\\n  )\\n    external\\n    override\\n    view\\n    validNFToken(_tokenId)\\n    returns (string memory)\\n  {\\n    return _tokenURI(_tokenId);\\n  }\\n\\n  /**\\n   * @notice This is an internal function that can be overriden if you want to implement a different\\n   * way to generate token URI.\\n   * @param _tokenId Id for which we want uri.\\n   * @return URI of _tokenId.\\n   */\\n  function _tokenURI(\\n    uint256 _tokenId\\n  )\\n    internal\\n    virtual\\n    view\\n    returns (string memory)\\n  {\\n    return idToUri[_tokenId];\\n  }\\n\\n  /**\\n   * @notice This is an internal function which should be called from user-implemented external\\n   * burn function. Its purpose is to show and properly initialize data structures when using this\\n   * implementation. Also, note that this burn implementation allows the minter to re-mint a burned\\n   * NFT.\\n   * @dev Burns a NFT.\\n   * @param _tokenId ID of the NFT to be burned.\\n   */\\n  function _burn(\\n    uint256 _tokenId\\n  )\\n    internal\\n    override\\n    virtual\\n  {\\n    super._burn(_tokenId);\\n\\n    delete idToUri[_tokenId];\\n  }\\n\\n  /**\\n   * @notice This is an internal function which should be called from user-implemented external\\n   * function. Its purpose is to show and properly initialize data structures when using this\\n   * implementation.\\n   * @dev Set a distinct URI (RFC 3986) for a given NFT ID.\\n   * @param _tokenId Id for which we want URI.\\n   * @param _uri String representing RFC 3986 URI.\\n   */\\n  function _setTokenUri(\\n    uint256 _tokenId,\\n    string memory _uri\\n  )\\n    internal\\n    validNFToken(_tokenId)\\n  {\\n    idToUri[_tokenId] = _uri;\\n  }\\n\\n}\\n\"},\"https://github.com/0xcert/ethereum-erc721/src/contracts/tokens/erc721-metadata.sol\":{\"content\":\"// SPDX-License-Identifier: MIT\\npragma solidity ^0.8.0;\\n\\n/**\\n * @dev Optional metadata extension for ERC-721 non-fungible token standard.\\n * See https://github.com/ethereum/EIPs/blob/master/EIPS/eip-721.md.\\n */\\ninterface ERC721Metadata\\n{\\n\\n  /**\\n   * @dev Returns a descriptive name for a collection of NFTs in this contract.\\n   * @return _name Representing name.\\n   */\\n  function name()\\n    external\\n    view\\n    returns (string memory _name);\\n\\n  /**\\n   * @dev Returns a abbreviated name for a collection of NFTs in this contract.\\n   * @return _symbol Representing symbol.\\n   */\\n  function symbol()\\n    external\\n    view\\n    returns (string memory _symbol);\\n\\n  /**\\n   * @dev Returns a distinct Uniform Resource Identifier (URI) for a given asset. It Throws if\\n   * `_tokenId` is not a valid NFT. URIs are defined in RFC3986. The URI may point to a JSON file\\n   * that conforms to the \\\"ERC721 Metadata JSON Schema\\\".\\n   * @return URI of _tokenId.\\n   */\\n  function tokenURI(uint256 _tokenId)\\n    external\\n    view\\n    returns (string memory);\\n\\n}\\n\"},\"https://github.com/0xcert/ethereum-erc721/src/contracts/tokens/nf-token.sol\":{\"content\":\"// SPDX-License-Identifier: MIT\\npragma solidity ^0.8.0;\\n\\nimport \\\"./erc721.sol\\\";\\nimport \\\"./erc721-token-receiver.sol\\\";\\nimport \\\"../utils/supports-interface.sol\\\";\\nimport \\\"../utils/address-utils.sol\\\";\\n\\n/**\\n * @dev Implementation of ERC-721 non-fungible token standard.\\n */\\ncontract NFToken is\\n  ERC721,\\n  SupportsInterface\\n{\\n  using AddressUtils for address;\\n\\n  /**\\n   * @dev List of revert message codes. Implementing dApp should handle showing the correct message.\\n   * Based on 0xcert framework error codes.\\n   */\\n  string constant ZERO_ADDRESS = \\\"003001\\\";\\n  string constant NOT_VALID_NFT = \\\"003002\\\";\\n  string constant NOT_OWNER_OR_OPERATOR = \\\"003003\\\";\\n  string constant NOT_OWNER_APPROVED_OR_OPERATOR = \\\"003004\\\";\\n  string constant NOT_ABLE_TO_RECEIVE_NFT = \\\"003005\\\";\\n  string constant NFT_ALREADY_EXISTS = \\\"003006\\\";\\n  string constant NOT_OWNER = \\\"003007\\\";\\n  string constant IS_OWNER = \\\"003008\\\";\\n\\n  /**\\n   * @dev Magic value of a smart contract that can receive NFT.\\n   * Equal to: bytes4(keccak256(\\\"onERC721Received(address,address,uint256,bytes)\\\")).\\n   */\\n  bytes4 internal constant MAGIC_ON_ERC721_RECEIVED = 0x150b7a02;\\n\\n  /**\\n   * @dev A mapping from NFT ID to the address that owns it.\\n   */\\n  mapping (uint256 => address) internal idToOwner;\\n\\n  /**\\n   * @dev Mapping from NFT ID to approved address.\\n   */\\n  mapping (uint256 => address) internal idToApproval;\\n\\n   /**\\n   * @dev Mapping from owner address to count of their tokens.\\n   */\\n  mapping (address => uint256) private ownerToNFTokenCount;\\n\\n  /**\\n   * @dev Mapping from owner address to mapping of operator addresses.\\n   */\\n  mapping (address => mapping (address => bool)) internal ownerToOperators;\\n\\n  /**\\n   * @dev Guarantees that the msg.sender is an owner or operator of the given NFT.\\n   * @param _tokenId ID of the NFT to validate.\\n   */\\n  modifier canOperate(\\n    uint256 _tokenId\\n  )\\n  {\\n    address tokenOwner = idToOwner[_tokenId];\\n    require(\\n      tokenOwner == msg.sender || ownerToOperators[tokenOwner][msg.sender],\\n      NOT_OWNER_OR_OPERATOR\\n    );\\n    _;\\n  }\\n\\n  /**\\n   * @dev Guarantees that the msg.sender is allowed to transfer NFT.\\n   * @param _tokenId ID of the NFT to transfer.\\n   */\\n  modifier canTransfer(\\n    uint256 _tokenId\\n  )\\n  {\\n    address tokenOwner = idToOwner[_tokenId];\\n    require(\\n      tokenOwner == msg.sender\\n      || idToApproval[_tokenId] == msg.sender\\n      || ownerToOperators[tokenOwner][msg.sender],\\n      NOT_OWNER_APPROVED_OR_OPERATOR\\n    );\\n    _;\\n  }\\n\\n  /**\\n   * @dev Guarantees that _tokenId is a valid Token.\\n   * @param _tokenId ID of the NFT to validate.\\n   */\\n  modifier validNFToken(\\n    uint256 _tokenId\\n  )\\n  {\\n    require(idToOwner[_tokenId] != address(0), NOT_VALID_NFT);\\n    _;\\n  }\\n\\n  /**\\n   * @dev Contract constructor.\\n   */\\n  constructor()\\n  {\\n    supportedInterfaces[0x80ac58cd] = true; // ERC721\\n  }\\n\\n  /**\\n   * @notice Throws unless `msg.sender` is the current owner, an authorized operator, or the\\n   * approved address for this NFT. Throws if `_from` is not the current owner. Throws if `_to` is\\n   * the zero address. Throws if `_tokenId` is not a valid NFT. When transfer is complete, this\\n   * function checks if `_to` is a smart contract (code size > 0). If so, it calls\\n   * `onERC721Received` on `_to` and throws if the return value is not\\n   * `bytes4(keccak256(\\\"onERC721Received(address,uint256,bytes)\\\"))`.\\n   * @dev Transfers the ownership of an NFT from one address to another address. This function can\\n   * be changed to payable.\\n   * @param _from The current owner of the NFT.\\n   * @param _to The new owner.\\n   * @param _tokenId The NFT to transfer.\\n   * @param _data Additional data with no specified format, sent in call to `_to`.\\n   */\\n  function safeTransferFrom(\\n    address _from,\\n    address _to,\\n    uint256 _tokenId,\\n    bytes calldata _data\\n  )\\n    external\\n    override\\n  {\\n    _safeTransferFrom(_from, _to, _tokenId, _data);\\n  }\\n\\n  /**\\n   * @notice This works identically to the other function with an extra data parameter, except this\\n   * function just sets data to \\\"\\\".\\n   * @dev Transfers the ownership of an NFT from one address to another address. This function can\\n   * be changed to payable.\\n   * @param _from The current owner of the NFT.\\n   * @param _to The new owner.\\n   * @param _tokenId The NFT to transfer.\\n   */\\n  function safeTransferFrom(\\n    address _from,\\n    address _to,\\n    uint256 _tokenId\\n  )\\n    external\\n    override\\n  {\\n    _safeTransferFrom(_from, _to, _tokenId, \\\"\\\");\\n  }\\n\\n  /**\\n   * @notice The caller is responsible to confirm that `_to` is capable of receiving NFTs or else\\n   * they may be permanently lost.\\n   * @dev Throws unless `msg.sender` is the current owner, an authorized operator, or the approved\\n   * address for this NFT. Throws if `_from` is not the current owner. Throws if `_to` is the zero\\n   * address. Throws if `_tokenId` is not a valid NFT. This function can be changed to payable.\\n   * @param _from The current owner of the NFT.\\n   * @param _to The new owner.\\n   * @param _tokenId The NFT to transfer.\\n   */\\n  function transferFrom(\\n    address _from,\\n    address _to,\\n    uint256 _tokenId\\n  )\\n    external\\n    override\\n    canTransfer(_tokenId)\\n    validNFToken(_tokenId)\\n  {\\n    address tokenOwner = idToOwner[_tokenId];\\n    require(tokenOwner == _from, NOT_OWNER);\\n    require(_to != address(0), ZERO_ADDRESS);\\n\\n    _transfer(_to, _tokenId);\\n  }\\n\\n  /**\\n   * @notice The zero address indicates there is no approved address. Throws unless `msg.sender` is\\n   * the current NFT owner, or an authorized operator of the current owner.\\n   * @dev Set or reaffirm the approved address for an NFT. This function can be changed to payable.\\n   * @param _approved Address to be approved for the given NFT ID.\\n   * @param _tokenId ID of the token to be approved.\\n   */\\n  function approve(\\n    address _approved,\\n    uint256 _tokenId\\n  )\\n    external\\n    override\\n    canOperate(_tokenId)\\n    validNFToken(_tokenId)\\n  {\\n    address tokenOwner = idToOwner[_tokenId];\\n    require(_approved != tokenOwner, IS_OWNER);\\n\\n    idToApproval[_tokenId] = _approved;\\n    emit Approval(tokenOwner, _approved, _tokenId);\\n  }\\n\\n  /**\\n   * @notice This works even if sender doesn't own any tokens at the time.\\n   * @dev Enables or disables approval for a third party (\\\"operator\\\") to manage all of\\n   * `msg.sender`'s assets. It also emits the ApprovalForAll event.\\n   * @param _operator Address to add to the set of authorized operators.\\n   * @param _approved True if the operators is approved, false to revoke approval.\\n   */\\n  function setApprovalForAll(\\n    address _operator,\\n    bool _approved\\n  )\\n    external\\n    override\\n  {\\n    ownerToOperators[msg.sender][_operator] = _approved;\\n    emit ApprovalForAll(msg.sender, _operator, _approved);\\n  }\\n\\n  /**\\n   * @dev Returns the number of NFTs owned by `_owner`. NFTs assigned to the zero address are\\n   * considered invalid, and this function throws for queries about the zero address.\\n   * @param _owner Address for whom to query the balance.\\n   * @return Balance of _owner.\\n   */\\n  function balanceOf(\\n    address _owner\\n  )\\n    external\\n    override\\n    view\\n    returns (uint256)\\n  {\\n    require(_owner != address(0), ZERO_ADDRESS);\\n    return _getOwnerNFTCount(_owner);\\n  }\\n\\n  /**\\n   * @dev Returns the address of the owner of the NFT. NFTs assigned to the zero address are\\n   * considered invalid, and queries about them do throw.\\n   * @param _tokenId The identifier for an NFT.\\n   * @return _owner Address of _tokenId owner.\\n   */\\n  function ownerOf(\\n    uint256 _tokenId\\n  )\\n    external\\n    override\\n    view\\n    returns (address _owner)\\n  {\\n    _owner = idToOwner[_tokenId];\\n    require(_owner != address(0), NOT_VALID_NFT);\\n  }\\n\\n  /**\\n   * @notice Throws if `_tokenId` is not a valid NFT.\\n   * @dev Get the approved address for a single NFT.\\n   * @param _tokenId ID of the NFT to query the approval of.\\n   * @return Address that _tokenId is approved for.\\n   */\\n  function getApproved(\\n    uint256 _tokenId\\n  )\\n    external\\n    override\\n    view\\n    validNFToken(_tokenId)\\n    returns (address)\\n  {\\n    return idToApproval[_tokenId];\\n  }\\n\\n  /**\\n   * @dev Checks if `_operator` is an approved operator for `_owner`.\\n   * @param _owner The address that owns the NFTs.\\n   * @param _operator The address that acts on behalf of the owner.\\n   * @return True if approved for all, false otherwise.\\n   */\\n  function isApprovedForAll(\\n    address _owner,\\n    address _operator\\n  )\\n    external\\n    override\\n    view\\n    returns (bool)\\n  {\\n    return ownerToOperators[_owner][_operator];\\n  }\\n\\n  /**\\n   * @notice Does NO checks.\\n   * @dev Actually performs the transfer.\\n   * @param _to Address of a new owner.\\n   * @param _tokenId The NFT that is being transferred.\\n   */\\n  function _transfer(\\n    address _to,\\n    uint256 _tokenId\\n  )\\n    internal\\n    virtual\\n  {\\n    address from = idToOwner[_tokenId];\\n    _clearApproval(_tokenId);\\n\\n    _removeNFToken(from, _tokenId);\\n    _addNFToken(_to, _tokenId);\\n\\n    emit Transfer(from, _to, _tokenId);\\n  }\\n\\n  /**\\n   * @notice This is an internal function which should be called from user-implemented external\\n   * mint function. Its purpose is to show and properly initialize data structures when using this\\n   * implementation.\\n   * @dev Mints a new NFT.\\n   * @param _to The address that will own the minted NFT.\\n   * @param _tokenId of the NFT to be minted by the msg.sender.\\n   */\\n  function _mint(\\n    address _to,\\n    uint256 _tokenId\\n  )\\n    internal\\n    virtual\\n  {\\n    require(_to != address(0), ZERO_ADDRESS);\\n    require(idToOwner[_tokenId] == address(0), NFT_ALREADY_EXISTS);\\n\\n    _addNFToken(_to, _tokenId);\\n\\n    emit Transfer(address(0), _to, _tokenId);\\n  }\\n\\n  /**\\n   * @notice This is an internal function which should be called from user-implemented external burn\\n   * function. Its purpose is to show and properly initialize data structures when using this\\n   * implementation. Also, note that this burn implementation allows the minter to re-mint a burned\\n   * NFT.\\n   * @dev Burns a NFT.\\n   * @param _tokenId ID of the NFT to be burned.\\n   */\\n  function _burn(\\n    uint256 _tokenId\\n  )\\n    internal\\n    virtual\\n    validNFToken(_tokenId)\\n  {\\n    address tokenOwner = idToOwner[_tokenId];\\n    _clearApproval(_tokenId);\\n    _removeNFToken(tokenOwner, _tokenId);\\n    emit Transfer(tokenOwner, address(0), _tokenId);\\n  }\\n\\n  /**\\n   * @notice Use and override this function with caution. Wrong usage can have serious consequences.\\n   * @dev Removes a NFT from owner.\\n   * @param _from Address from which we want to remove the NFT.\\n   * @param _tokenId Which NFT we want to remove.\\n   */\\n  function _removeNFToken(\\n    address _from,\\n    uint256 _tokenId\\n  )\\n    internal\\n    virtual\\n  {\\n    require(idToOwner[_tokenId] == _from, NOT_OWNER);\\n    ownerToNFTokenCount[_from] -= 1;\\n    delete idToOwner[_tokenId];\\n  }\\n\\n  /**\\n   * @notice Use and override this function with caution. Wrong usage can have serious consequences.\\n   * @dev Assigns a new NFT to owner.\\n   * @param _to Address to which we want to add the NFT.\\n   * @param _tokenId Which NFT we want to add.\\n   */\\n  function _addNFToken(\\n    address _to,\\n    uint256 _tokenId\\n  )\\n    internal\\n    virtual\\n  {\\n    require(idToOwner[_tokenId] == address(0), NFT_ALREADY_EXISTS);\\n\\n    idToOwner[_tokenId] = _to;\\n    ownerToNFTokenCount[_to] += 1;\\n  }\\n\\n  /**\\n   * @dev Helper function that gets NFT count of owner. This is needed for overriding in enumerable\\n   * extension to remove double storage (gas optimization) of owner NFT count.\\n   * @param _owner Address for whom to query the count.\\n   * @return Number of _owner NFTs.\\n   */\\n  function _getOwnerNFTCount(\\n    address _owner\\n  )\\n    internal\\n    virtual\\n    view\\n    returns (uint256)\\n  {\\n    return ownerToNFTokenCount[_owner];\\n  }\\n\\n  /**\\n   * @dev Actually perform the safeTransferFrom.\\n   * @param _from The current owner of the NFT.\\n   * @param _to The new owner.\\n   * @param _tokenId The NFT to transfer.\\n   * @param _data Additional data with no specified format, sent in call to `_to`.\\n   */\\n  function _safeTransferFrom(\\n    address _from,\\n    address _to,\\n    uint256 _tokenId,\\n    bytes memory _data\\n  )\\n    private\\n    canTransfer(_tokenId)\\n    validNFToken(_tokenId)\\n  {\\n    address tokenOwner = idToOwner[_tokenId];\\n    require(tokenOwner == _from, NOT_OWNER);\\n    require(_to != address(0), ZERO_ADDRESS);\\n\\n    _transfer(_to, _tokenId);\\n\\n    if (_to.isContract())\\n    {\\n      bytes4 retval = ERC721TokenReceiver(_to).onERC721Received(msg.sender, _from, _tokenId, _data);\\n      require(retval == MAGIC_ON_ERC721_RECEIVED, NOT_ABLE_TO_RECEIVE_NFT);\\n    }\\n  }\\n\\n  /**\\n   * @dev Clears the current approval of a given NFT ID.\\n   * @param _tokenId ID of the NFT to be transferred.\\n   */\\n  function _clearApproval(\\n    uint256 _tokenId\\n  )\\n    private\\n  {\\n    delete idToApproval[_tokenId];\\n  }\\n\\n}\\n\"},\"https://github.com/0xcert/ethereum-erc721/src/contracts/utils/address-utils.sol\":{\"content\":\"// SPDX-License-Identifier: MIT\\npragma solidity ^0.8.0;\\n\\n/**\\n * @notice Based on:\\n * https://github.com/OpenZeppelin/openzeppelin-contracts/blob/master/contracts/utils/Address.sol\\n * Requires EIP-1052.\\n * @dev Utility library of inline functions on addresses.\\n */\\nlibrary AddressUtils\\n{\\n\\n  /**\\n   * @dev Returns whether the target address is a contract.\\n   * @param _addr Address to check.\\n   * @return addressCheck True if _addr is a contract, false if not.\\n   */\\n  function isContract(\\n    address _addr\\n  )\\n    internal\\n    view\\n    returns (bool addressCheck)\\n  {\\n    // This method relies in extcodesize, which returns 0 for contracts in\\n    // construction, since the code is only stored at the end of the\\n    // constructor execution.\\n\\n    // According to EIP-1052, 0x0 is the value returned for not-yet created accounts\\n    // and 0xc5d2460186f7233c927e7db2dcc703c0e500b653ca82273b7bfad8045d85a470 is returned\\n    // for accounts without code, i.e. `keccak256('')`\\n    bytes32 codehash;\\n    bytes32 accountHash = 0xc5d2460186f7233c927e7db2dcc703c0e500b653ca82273b7bfad8045d85a470;\\n    assembly { codehash := extcodehash(_addr) } // solhint-disable-line\\n    addressCheck = (codehash != 0x0 && codehash != accountHash);\\n  }\\n\\n}\\n\"},\"https://github.com/0xcert/ethereum-erc721/src/contracts/utils/supports-interface.sol\":{\"content\":\"// SPDX-License-Identifier: MIT\\npragma solidity ^0.8.0;\\n\\nimport \\\"./erc165.sol\\\";\\n\\n/**\\n * @dev Implementation of standard for detect smart contract interfaces.\\n */\\ncontract SupportsInterface is\\n  ERC165\\n{\\n\\n  /**\\n   * @dev Mapping of supported intefraces. You must not set element 0xffffffff to true.\\n   */\\n  mapping(bytes4 => bool) internal supportedInterfaces;\\n\\n  /**\\n   * @dev Contract constructor.\\n   */\\n  constructor()\\n  {\\n    supportedInterfaces[0x01ffc9a7] = true; // ERC165\\n  }\\n\\n  /**\\n   * @dev Function to check which interfaces are suported by this contract.\\n   * @param _interfaceID Id of the interface.\\n   * @return True if _interfaceID is supported, false otherwise.\\n   */\\n  function supportsInterface(\\n    bytes4 _interfaceID\\n  )\\n    external\\n    override\\n    view\\n    returns (bool)\\n  {\\n    return supportedInterfaces[_interfaceID];\\n  }\\n\\n}\\n\"},\"https://github.com/0xcert/ethereum-erc721/src/contracts/tokens/erc721-token-receiver.sol\":{\"content\":\"// SPDX-License-Identifier: MIT\\npragma solidity ^0.8.0;\\n\\n/**\\n * @dev ERC-721 interface for accepting safe transfers.\\n * See https://github.com/ethereum/EIPs/blob/master/EIPS/eip-721.md.\\n */\\ninterface ERC721TokenReceiver\\n{\\n\\n  /**\\n   * @notice The contract address is always the message sender. A wallet/broker/auction application\\n   * MUST implement the wallet interface if it will accept safe transfers.\\n   * @dev Handle the receipt of a NFT. The ERC721 smart contract calls this function on the\\n   * recipient after a `transfer`. This function MAY throw to revert and reject the transfer. Return\\n   * of other than the magic value MUST result in the transaction being reverted.\\n   * Returns `bytes4(keccak256(\\\"onERC721Received(address,address,uint256,bytes)\\\"))` unless throwing.\\n   * @param _operator The address which called `safeTransferFrom` function.\\n   * @param _from The address which previously owned the token.\\n   * @param _tokenId The NFT identifier which is being transferred.\\n   * @param _data Additional data with no specified format.\\n   * @return Returns `bytes4(keccak256(\\\"onERC721Received(address,address,uint256,bytes)\\\"))`.\\n   */\\n  function onERC721Received(\\n    address _operator,\\n    address _from,\\n    uint256 _tokenId,\\n    bytes calldata _data\\n  )\\n    external\\n    returns(bytes4);\\n\\n}\\n\"},\"https://github.com/0xcert/ethereum-erc721/src/contracts/tokens/erc721.sol\":{\"content\":\"// SPDX-License-Identifier: MIT\\npragma solidity ^0.8.0;\\n\\n/**\\n * @dev ERC-721 non-fungible token standard.\\n * See https://github.com/ethereum/EIPs/blob/master/EIPS/eip-721.md.\\n */\\ninterface ERC721\\n{\\n\\n  /**\\n   * @dev Emits when ownership of any NFT changes by any mechanism. This event emits when NFTs are\\n   * created (`from` == 0) and destroyed (`to` == 0). Exception: during contract creation, any\\n   * number of NFTs may be created and assigned without emitting Transfer. At the time of any\\n   * transfer, the approved address for that NFT (if any) is reset to none.\\n   */\\n  event Transfer(\\n    address indexed _from,\\n    address indexed _to,\\n    uint256 indexed _tokenId\\n  );\\n\\n  /**\\n   * @dev This emits when the approved address for an NFT is changed or reaffirmed. The zero\\n   * address indicates there is no approved address. When a Transfer event emits, this also\\n   * indicates that the approved address for that NFT (if any) is reset to none.\\n   */\\n  event Approval(\\n    address indexed _owner,\\n    address indexed _approved,\\n    uint256 indexed _tokenId\\n  );\\n\\n  /**\\n   * @dev This emits when an operator is enabled or disabled for an owner. The operator can manage\\n   * all NFTs of the owner.\\n   */\\n  event ApprovalForAll(\\n    address indexed _owner,\\n    address indexed _operator,\\n    bool _approved\\n  );\\n\\n  /**\\n   * @notice Throws unless `msg.sender` is the current owner, an authorized operator, or the\\n   * approved address for this NFT. Throws if `_from` is not the current owner. Throws if `_to` is\\n   * the zero address. Throws if `_tokenId` is not a valid NFT. When transfer is complete, this\\n   * function checks if `_to` is a smart contract (code size > 0). If so, it calls\\n   * `onERC721Received` on `_to` and throws if the return value is not\\n   * `bytes4(keccak256(\\\"onERC721Received(address,uint256,bytes)\\\"))`.\\n   * @dev Transfers the ownership of an NFT from one address to another address. This function can\\n   * be changed to payable.\\n   * @param _from The current owner of the NFT.\\n   * @param _to The new owner.\\n   * @param _tokenId The NFT to transfer.\\n   * @param _data Additional data with no specified format, sent in call to `_to`.\\n   */\\n  function safeTransferFrom(\\n    address _from,\\n    address _to,\\n    uint256 _tokenId,\\n    bytes calldata _data\\n  )\\n    external;\\n\\n  /**\\n   * @notice This works identically to the other function with an extra data parameter, except this\\n   * function just sets data to \\\"\\\"\\n   * @dev Transfers the ownership of an NFT from one address to another address. This function can\\n   * be changed to payable.\\n   * @param _from The current owner of the NFT.\\n   * @param _to The new owner.\\n   * @param _tokenId The NFT to transfer.\\n   */\\n  function safeTransferFrom(\\n    address _from,\\n    address _to,\\n    uint256 _tokenId\\n  )\\n    external;\\n\\n  /**\\n   * @notice The caller is responsible to confirm that `_to` is capable of receiving NFTs or else\\n   * they may be permanently lost.\\n   * @dev Throws unless `msg.sender` is the current owner, an authorized operator, or the approved\\n   * address for this NFT. Throws if `_from` is not the current owner. Throws if `_to` is the zero\\n   * address. Throws if `_tokenId` is not a valid NFT.  This function can be changed to payable.\\n   * @param _from The current owner of the NFT.\\n   * @param _to The new owner.\\n   * @param _tokenId The NFT to transfer.\\n   */\\n  function transferFrom(\\n    address _from,\\n    address _to,\\n    uint256 _tokenId\\n  )\\n    external;\\n\\n  /**\\n   * @notice The zero address indicates there is no approved address. Throws unless `msg.sender` is\\n   * the current NFT owner, or an authorized operator of the current owner.\\n   * @param _approved The new approved NFT controller.\\n   * @dev Set or reaffirm the approved address for an NFT. This function can be changed to payable.\\n   * @param _tokenId The NFT to approve.\\n   */\\n  function approve(\\n    address _approved,\\n    uint256 _tokenId\\n  )\\n    external;\\n\\n  /**\\n   * @notice The contract MUST allow multiple operators per owner.\\n   * @dev Enables or disables approval for a third party (\\\"operator\\\") to manage all of\\n   * `msg.sender`'s assets. It also emits the ApprovalForAll event.\\n   * @param _operator Address to add to the set of authorized operators.\\n   * @param _approved True if the operators is approved, false to revoke approval.\\n   */\\n  function setApprovalForAll(\\n    address _operator,\\n    bool _approved\\n  )\\n    external;\\n\\n  /**\\n   * @dev Returns the number of NFTs owned by `_owner`. NFTs assigned to the zero address are\\n   * considered invalid, and this function throws for queries about the zero address.\\n   * @notice Count all NFTs assigned to an owner.\\n   * @param _owner Address for whom to query the balance.\\n   * @return Balance of _owner.\\n   */\\n  function balanceOf(\\n    address _owner\\n  )\\n    external\\n    view\\n    returns (uint256);\\n\\n  /**\\n   * @notice Find the owner of an NFT.\\n   * @dev Returns the address of the owner of the NFT. NFTs assigned to the zero address are\\n   * considered invalid, and queries about them do throw.\\n   * @param _tokenId The identifier for an NFT.\\n   * @return Address of _tokenId owner.\\n   */\\n  function ownerOf(\\n    uint256 _tokenId\\n  )\\n    external\\n    view\\n    returns (address);\\n\\n  /**\\n   * @notice Throws if `_tokenId` is not a valid NFT.\\n   * @dev Get the approved address for a single NFT.\\n   * @param _tokenId The NFT to find the approved address for.\\n   * @return Address that _tokenId is approved for.\\n   */\\n  function getApproved(\\n    uint256 _tokenId\\n  )\\n    external\\n    view\\n    returns (address);\\n\\n  /**\\n   * @notice Query if an address is an authorized operator for another address.\\n   * @dev Returns true if `_operator` is an approved operator for `_owner`, false otherwise.\\n   * @param _owner The address that owns the NFTs.\\n   * @param _operator The address that acts on behalf of the owner.\\n   * @return True if approved for all, false otherwise.\\n   */\\n  function isApprovedForAll(\\n    address _owner,\\n    address _operator\\n  )\\n    external\\n    view\\n    returns (bool);\\n\\n}\\n\"},\"https://github.com/0xcert/ethereum-erc721/src/contracts/utils/erc165.sol\":{\"content\":\"// SPDX-License-Identifier: MIT\\npragma solidity ^0.8.0;\\n\\n/**\\n * @dev A standard for detecting smart contract interfaces. \\n * See: https://eips.ethereum.org/EIPS/eip-165.\\n */\\ninterface ERC165\\n{\\n\\n  /**\\n   * @dev Checks if the smart contract includes a specific interface.\\n   * This function uses less than 30,000 gas.\\n   * @param _interfaceID The interface identifier, as specified in ERC-165.\\n   * @return True if _interfaceID is supported, false otherwise.\\n   */\\n  function supportsInterface(\\n    bytes4 _interfaceID\\n  )\\n    external\\n    view\\n    returns (bool);\\n    \\n}\\n\"}},\"settings\":{\"optimizer\":{\"enabled\":false,\"runs\":200},\"outputSelection\":{\"*\":{\"\":[\"ast\"],\"*\":[\"abi\",\"metadata\",\"devdoc\",\"userdoc\",\"storageLayout\",\"evm.legacyAssembly\",\"evm.bytecode\",\"evm.deployedBytecode\",\"evm.methodIdentifiers\",\"evm.gasEstimates\",\"evm.assembly\"]}}}}",
	"name": "fcsNFT",
	"bytecode": {
		"linkReferences": {},
		"object": "608060405234801562000010575f80fd5b5060015f806301ffc9a760e01b7bffffffffffffffffffffffffffffffffffffffffffffffffffffffff191681526020019081526020015f205f6101000a81548160ff02191690831515021790555060015f806380ac58cd60e01b7bffffffffffffffffffffffffffffffffffffffffffffffffffffffff191681526020019081526020015f205f6101000a81548160ff02191690831515021790555060015f80635b5e139f60e01b7bffffffffffffffffffffffffffffffffffffffffffffffffffffffff191681526020019081526020015f205f6101000a81548160ff0219169083151502179055503360085f6101000a81548173ffffffffffffffffffffffffffffffffffffffff021916908373ffffffffffffffffffffffffffffffffffffffff1602179055506040518060400160405280600981526020017f6663735f636c61737300000000000000000000000000000000000000000000008152506005908162000181919062000433565b506040518060400160405280600381526020017f494e52000000000000000000000000000000000000000000000000000000000081525060069081620001c8919062000433565b5062000517565b5f81519050919050565b7f4e487b71000000000000000000000000000000000000000000000000000000005f52604160045260245ffd5b7f4e487b71000000000000000000000000000000000000000000000000000000005f52602260045260245ffd5b5f60028204905060018216806200024b57607f821691505b60208210810362000261576200026062000206565b5b50919050565b5f819050815f5260205f209050919050565b5f6020601f8301049050919050565b5f82821b905092915050565b5f60088302620002c57fffffffffffffffffffffffffffffffffffffffffffffffffffffffffffffffff8262000288565b620002d1868362000288565b95508019841693508086168417925050509392505050565b5f819050919050565b5f819050919050565b5f6200031b620003156200030f84620002e9565b620002f2565b620002e9565b9050919050565b5f819050919050565b6200033683620002fb565b6200034e620003458262000322565b84845462000294565b825550505050565b5f90565b6200036462000356565b620003718184846200032b565b505050565b5b8181101562000398576200038c5f826200035a565b60018101905062000377565b5050565b601f821115620003e757620003b18162000267565b620003bc8462000279565b81016020851015620003cc578190505b620003e4620003db8562000279565b83018262000376565b50505b505050565b5f82821c905092915050565b5f620004095f1984600802620003ec565b1980831691505092915050565b5f620004238383620003f8565b9150826002028217905092915050565b6200043e82620001cf565b67ffffffffffffffff8111156200045a5762000459620001d9565b5b62000466825462000233565b620004738282856200039c565b5f60209050601f831160018114620004a9575f841562000494578287015190505b620004a0858262000416565b8655506200050f565b601f198416620004b98662000267565b5f5b82811015620004e257848901518255600182019150602085019450602081019050620004bb565b86831015620005025784890151620004fe601f891682620003f8565b8355505b6001600288020188555050505b505050505050565b612e3080620005255f395ff3fe608060405234801561000f575f80fd5b5060043610610114575f3560e01c80638da5cb5b116100a0578063c87b56dd1161006f578063c87b56dd146102dc578063e985e9c51461030c578063f2fde38b1461033c578063f384a82614610358578063f3fe3bc31461037457610114565b80638da5cb5b1461026857806395d89b4114610286578063a22cb465146102a4578063b88d4fde146102c057610114565b806323b872dd116100e757806323b872dd146101b257806342842e0e146101ce5780636352211e146101ea57806370a082311461021a578063860d248a1461024a57610114565b806301ffc9a71461011857806306fdde0314610148578063081812fc14610166578063095ea7b314610196575b5f80fd5b610132600480360381019061012d919061247c565b610392565b60405161013f91906124c1565b60405180910390f35b6101506103f5565b60405161015d9190612564565b60405180910390f35b610180600480360381019061017b91906125b7565b610485565b60405161018d9190612621565b60405180910390f35b6101b060048036038101906101ab9190612664565b610598565b005b6101cc60048036038101906101c791906126a2565b610967565b005b6101e860048036038101906101e391906126a2565b610da4565b005b61020460048036038101906101ff91906125b7565b610dc3565b6040516102119190612621565b60405180910390f35b610234600480360381019061022f91906126f2565b610ea4565b604051610241919061272c565b60405180910390f35b610252610f5d565b60405161025f9190612564565b60405180910390f35b610270610f96565b60405161027d9190612621565b60405180910390f35b61028e610fbb565b60405161029b9190612564565b60405180910390f35b6102be60048036038101906102b9919061276f565b61104b565b005b6102da60048036038101906102d5919061280e565b611143565b005b6102f660048036038101906102f191906125b7565b611199565b6040516103039190612564565b60405180910390f35b61032660048036038101906103219190612892565b611285565b60405161033391906124c1565b60405180910390f35b610356600480360381019061035191906126f2565b611313565b005b610372600480360381019061036d9190612925565b611541565b005b61037c611666565b6040516103899190612564565b60405180910390f35b5f805f837bffffffffffffffffffffffffffffffffffffffffffffffffffffffff19167bffffffffffffffffffffffffffffffffffffffffffffffffffffffff191681526020019081526020015f205f9054906101000a900460ff169050919050565b606060058054610404906129c3565b80601f0160208091040260200160405190810160405280929190818152602001828054610430906129c3565b801561047b5780601f106104525761010080835404028352916020019161047b565b820191905f5260205f20905b81548152906001019060200180831161045e57829003601f168201915b5050505050905090565b5f815f73ffffffffffffffffffffffffffffffffffffffff1660015f8381526020019081526020015f205f9054906101000a900473ffffffffffffffffffffffffffffffffffffffff1673ffffffffffffffffffffffffffffffffffffffff1614156040518060400160405280600681526020017f30303330303200000000000000000000000000000000000000000000000000008152509061055e576040517f08c379a00000000000000000000000000000000000000000000000000000000081526004016105559190612564565b60405180910390fd5b5060025f8481526020019081526020015f205f9054906101000a900473ffffffffffffffffffffffffffffffffffffffff16915050919050565b805f60015f8381526020019081526020015f205f9054906101000a900473ffffffffffffffffffffffffffffffffffffffff1690503373ffffffffffffffffffffffffffffffffffffffff168173ffffffffffffffffffffffffffffffffffffffff161480610688575060045f8273ffffffffffffffffffffffffffffffffffffffff1673ffffffffffffffffffffffffffffffffffffffff1681526020019081526020015f205f3373ffffffffffffffffffffffffffffffffffffffff1673ffffffffffffffffffffffffffffffffffffffff1681526020019081526020015f205f9054906101000a900460ff165b6040518060400160405280600681526020017f3030333030330000000000000000000000000000000000000000000000000000815250906106ff576040517f08c379a00000000000000000000000000000000000000000000000000000000081526004016106f69190612564565b60405180910390fd5b50825f73ffffffffffffffffffffffffffffffffffffffff1660015f8381526020019081526020015f205f9054906101000a900473ffffffffffffffffffffffffffffffffffffffff1673ffffffffffffffffffffffffffffffffffffffff1614156040518060400160405280600681526020017f3030333030320000000000000000000000000000000000000000000000000000815250906107d8576040517f08c379a00000000000000000000000000000000000000000000000000000000081526004016107cf9190612564565b60405180910390fd5b505f60015f8681526020019081526020015f205f9054906101000a900473ffffffffffffffffffffffffffffffffffffffff1690508073ffffffffffffffffffffffffffffffffffffffff168673ffffffffffffffffffffffffffffffffffffffff1614156040518060400160405280600681526020017f3030333030380000000000000000000000000000000000000000000000000000815250906108b4576040517f08c379a00000000000000000000000000000000000000000000000000000000081526004016108ab9190612564565b60405180910390fd5b508560025f8781526020019081526020015f205f6101000a81548173ffffffffffffffffffffffffffffffffffffffff021916908373ffffffffffffffffffffffffffffffffffffffff160217905550848673ffffffffffffffffffffffffffffffffffffffff168273ffffffffffffffffffffffffffffffffffffffff167f8c5be1e5ebec7d5bd14f71427d1e84f3dd0314c0f7b2291e5b200ac8c7c3b92560405160405180910390a4505050505050565b805f60015f8381526020019081526020015f205f9054906101000a900473ffffffffffffffffffffffffffffffffffffffff1690503373ffffffffffffffffffffffffffffffffffffffff168173ffffffffffffffffffffffffffffffffffffffff161480610a3157503373ffffffffffffffffffffffffffffffffffffffff1660025f8481526020019081526020015f205f9054906101000a900473ffffffffffffffffffffffffffffffffffffffff1673ffffffffffffffffffffffffffffffffffffffff16145b80610abd575060045f8273ffffffffffffffffffffffffffffffffffffffff1673ffffffffffffffffffffffffffffffffffffffff1681526020019081526020015f205f3373ffffffffffffffffffffffffffffffffffffffff1673ffffffffffffffffffffffffffffffffffffffff1681526020019081526020015f205f9054906101000a900460ff165b6040518060400160405280600681526020017f303033303034000000000000000000000000000000000000000000000000000081525090610b34576040517f08c379a0000000000000000000000000000000000000000000000000000000008152600401610b2b9190612564565b60405180910390fd5b50825f73ffffffffffffffffffffffffffffffffffffffff1660015f8381526020019081526020015f205f9054906101000a900473ffffffffffffffffffffffffffffffffffffffff1673ffffffffffffffffffffffffffffffffffffffff1614156040518060400160405280600681526020017f303033303032000000000000000000000000000000000000000000000000000081525090610c0d576040517f08c379a0000000000000000000000000000000000000000000000000000000008152600401610c049190612564565b60405180910390fd5b505f60015f8681526020019081526020015f205f9054906101000a900473ffffffffffffffffffffffffffffffffffffffff1690508673ffffffffffffffffffffffffffffffffffffffff168173ffffffffffffffffffffffffffffffffffffffff16146040518060400160405280600681526020017f303033303037000000000000000000000000000000000000000000000000000081525090610ce8576040517f08c379a0000000000000000000000000000000000000000000000000000000008152600401610cdf9190612564565b60405180910390fd5b505f73ffffffffffffffffffffffffffffffffffffffff168673ffffffffffffffffffffffffffffffffffffffff1614156040518060400160405280600681526020017f303033303031000000000000000000000000000000000000000000000000000081525090610d90576040517f08c379a0000000000000000000000000000000000000000000000000000000008152600401610d879190612564565b60405180910390fd5b50610d9b868661169f565b50505050505050565b610dbe83838360405180602001604052805f815250611750565b505050565b5f60015f8381526020019081526020015f205f9054906101000a900473ffffffffffffffffffffffffffffffffffffffff1690505f73ffffffffffffffffffffffffffffffffffffffff168173ffffffffffffffffffffffffffffffffffffffff1614156040518060400160405280600681526020017f303033303032000000000000000000000000000000000000000000000000000081525090610e9e576040517f08c379a0000000000000000000000000000000000000000000000000000000008152600401610e959190612564565b60405180910390fd5b50919050565b5f8073ffffffffffffffffffffffffffffffffffffffff168273ffffffffffffffffffffffffffffffffffffffff1614156040518060400160405280600681526020017f303033303031000000000000000000000000000000000000000000000000000081525090610f4c576040517f08c379a0000000000000000000000000000000000000000000000000000000008152600401610f439190612564565b60405180910390fd5b50610f5682611cf6565b9050919050565b6040518060400160405280600681526020017f303138303032000000000000000000000000000000000000000000000000000081525081565b60085f9054906101000a900473ffffffffffffffffffffffffffffffffffffffff1681565b606060068054610fca906129c3565b80601f0160208091040260200160405190810160405280929190818152602001828054610ff6906129c3565b80156110415780601f1061101857610100808354040283529160200191611041565b820191905f5260205f20905b81548152906001019060200180831161102457829003601f168201915b5050505050905090565b8060045f3373ffffffffffffffffffffffffffffffffffffffff1673ffffffffffffffffffffffffffffffffffffffff1681526020019081526020015f205f8473ffffffffffffffffffffffffffffffffffffffff1673ffffffffffffffffffffffffffffffffffffffff1681526020019081526020015f205f6101000a81548160ff0219169083151502179055508173ffffffffffffffffffffffffffffffffffffffff163373ffffffffffffffffffffffffffffffffffffffff167f17307eab39ab6107e8899845ad3d59bd9653f200f220920489ca2b5937696c318360405161113791906124c1565b60405180910390a35050565b61119285858585858080601f0160208091040260200160405190810160405280939291908181526020018383808284375f81840152601f19601f82011690508083019250505050505050611750565b5050505050565b6060815f73ffffffffffffffffffffffffffffffffffffffff1660015f8381526020019081526020015f205f9054906101000a900473ffffffffffffffffffffffffffffffffffffffff1673ffffffffffffffffffffffffffffffffffffffff1614156040518060400160405280600681526020017f303033303032000000000000000000000000000000000000000000000000000081525090611273576040517f08c379a000000000000000000000000000000000000000000000000000000000815260040161126a9190612564565b60405180910390fd5b5061127d83611d3c565b915050919050565b5f60045f8473ffffffffffffffffffffffffffffffffffffffff1673ffffffffffffffffffffffffffffffffffffffff1681526020019081526020015f205f8373ffffffffffffffffffffffffffffffffffffffff1673ffffffffffffffffffffffffffffffffffffffff1681526020019081526020015f205f9054906101000a900460ff16905092915050565b60085f9054906101000a900473ffffffffffffffffffffffffffffffffffffffff1673ffffffffffffffffffffffffffffffffffffffff163373ffffffffffffffffffffffffffffffffffffffff16146040518060400160405280600681526020017f3031383030310000000000000000000000000000000000000000000000000000815250906113da576040517f08c379a00000000000000000000000000000000000000000000000000000000081526004016113d19190612564565b60405180910390fd5b505f73ffffffffffffffffffffffffffffffffffffffff168173ffffffffffffffffffffffffffffffffffffffff1614156040518060400160405280600681526020017f303138303032000000000000000000000000000000000000000000000000000081525090611482576040517f08c379a00000000000000000000000000000000000000000000000000000000081526004016114799190612564565b60405180910390fd5b508073ffffffffffffffffffffffffffffffffffffffff1660085f9054906101000a900473ffffffffffffffffffffffffffffffffffffffff1673ffffffffffffffffffffffffffffffffffffffff167f8be0079c531659141344cd1fd0a4f28419497f9722a3daafe3b4186f6b6457e060405160405180910390a38060085f6101000a81548173ffffffffffffffffffffffffffffffffffffffff021916908373ffffffffffffffffffffffffffffffffffffffff16021790555050565b60085f9054906101000a900473ffffffffffffffffffffffffffffffffffffffff1673ffffffffffffffffffffffffffffffffffffffff163373ffffffffffffffffffffffffffffffffffffffff16146040518060400160405280600681526020017f303138303031000000000000000000000000000000000000000000000000000081525090611608576040517f08c379a00000000000000000000000000000000000000000000000000000000081526004016115ff9190612564565b60405180910390fd5b506116138484611ddd565b6116608383838080601f0160208091040260200160405190810160405280939291908181526020018383808284375f81840152601f19601f82011690508083019250505050505050611fc5565b50505050565b6040518060400160405280600681526020017f303138303031000000000000000000000000000000000000000000000000000081525081565b5f60015f8381526020019081526020015f205f9054906101000a900473ffffffffffffffffffffffffffffffffffffffff1690506116dc826120c2565b6116e681836120f8565b6116f0838361225a565b818373ffffffffffffffffffffffffffffffffffffffff168273ffffffffffffffffffffffffffffffffffffffff167fddf252ad1be2c89b69c2b068fc378daa952ba7f163c4a11628f55a4df523b3ef60405160405180910390a4505050565b815f60015f8381526020019081526020015f205f9054906101000a900473ffffffffffffffffffffffffffffffffffffffff1690503373ffffffffffffffffffffffffffffffffffffffff168173ffffffffffffffffffffffffffffffffffffffff16148061181a57503373ffffffffffffffffffffffffffffffffffffffff1660025f8481526020019081526020015f205f9054906101000a900473ffffffffffffffffffffffffffffffffffffffff1673ffffffffffffffffffffffffffffffffffffffff16145b806118a6575060045f8273ffffffffffffffffffffffffffffffffffffffff1673ffffffffffffffffffffffffffffffffffffffff1681526020019081526020015f205f3373ffffffffffffffffffffffffffffffffffffffff1673ffffffffffffffffffffffffffffffffffffffff1681526020019081526020015f205f9054906101000a900460ff165b6040518060400160405280600681526020017f30303330303400000000000000000000000000000000000000000000000000008152509061191d576040517f08c379a00000000000000000000000000000000000000000000000000000000081526004016119149190612564565b60405180910390fd5b50835f73ffffffffffffffffffffffffffffffffffffffff1660015f8381526020019081526020015f205f9054906101000a900473ffffffffffffffffffffffffffffffffffffffff1673ffffffffffffffffffffffffffffffffffffffff1614156040518060400160405280600681526020017f3030333030320000000000000000000000000000000000000000000000000000815250906119f6576040517f08c379a00000000000000000000000000000000000000000000000000000000081526004016119ed9190612564565b60405180910390fd5b505f60015f8781526020019081526020015f205f9054906101000a900473ffffffffffffffffffffffffffffffffffffffff1690508773ffffffffffffffffffffffffffffffffffffffff168173ffffffffffffffffffffffffffffffffffffffff16146040518060400160405280600681526020017f303033303037000000000000000000000000000000000000000000000000000081525090611ad1576040517f08c379a0000000000000000000000000000000000000000000000000000000008152600401611ac89190612564565b60405180910390fd5b505f73ffffffffffffffffffffffffffffffffffffffff168773ffffffffffffffffffffffffffffffffffffffff1614156040518060400160405280600681526020017f303033303031000000000000000000000000000000000000000000000000000081525090611b79576040517f08c379a0000000000000000000000000000000000000000000000000000000008152600401611b709190612564565b60405180910390fd5b50611b84878761169f565b611ba38773ffffffffffffffffffffffffffffffffffffffff166123d8565b15611cec575f8773ffffffffffffffffffffffffffffffffffffffff1663150b7a02338b8a8a6040518563ffffffff1660e01b8152600401611be89493929190612a45565b6020604051808303815f875af1158015611c04573d5f803e3d5ffd5b505050506040513d601f19601f82011682018060405250810190611c289190612aa3565b905063150b7a0260e01b7bffffffffffffffffffffffffffffffffffffffffffffffffffffffff1916817bffffffffffffffffffffffffffffffffffffffffffffffffffffffff1916146040518060400160405280600681526020017f303033303035000000000000000000000000000000000000000000000000000081525090611ce9576040517f08c379a0000000000000000000000000000000000000000000000000000000008152600401611ce09190612564565b60405180910390fd5b50505b5050505050505050565b5f60035f8373ffffffffffffffffffffffffffffffffffffffff1673ffffffffffffffffffffffffffffffffffffffff1681526020019081526020015f20549050919050565b606060075f8381526020019081526020015f208054611d5a906129c3565b80601f0160208091040260200160405190810160405280929190818152602001828054611d86906129c3565b8015611dd15780601f10611da857610100808354040283529160200191611dd1565b820191905f5260205f20905b815481529060010190602001808311611db457829003601f168201915b50505050509050919050565b5f73ffffffffffffffffffffffffffffffffffffffff168273ffffffffffffffffffffffffffffffffffffffff1614156040518060400160405280600681526020017f303033303031000000000000000000000000000000000000000000000000000081525090611e84576040517f08c379a0000000000000000000000000000000000000000000000000000000008152600401611e7b9190612564565b60405180910390fd5b505f73ffffffffffffffffffffffffffffffffffffffff1660015f8381526020019081526020015f205f9054906101000a900473ffffffffffffffffffffffffffffffffffffffff1673ffffffffffffffffffffffffffffffffffffffff16146040518060400160405280600681526020017f303033303036000000000000000000000000000000000000000000000000000081525090611f5b576040517f08c379a0000000000000000000000000000000000000000000000000000000008152600401611f529190612564565b60405180910390fd5b50611f66828261225a565b808273ffffffffffffffffffffffffffffffffffffffff165f73ffffffffffffffffffffffffffffffffffffffff167fddf252ad1be2c89b69c2b068fc378daa952ba7f163c4a11628f55a4df523b3ef60405160405180910390a45050565b815f73ffffffffffffffffffffffffffffffffffffffff1660015f8381526020019081526020015f205f9054906101000a900473ffffffffffffffffffffffffffffffffffffffff1673ffffffffffffffffffffffffffffffffffffffff1614156040518060400160405280600681526020017f30303330303200000000000000000000000000000000000000000000000000008152509061209d576040517f08c379a00000000000000000000000000000000000000000000000000000000081526004016120949190612564565b60405180910390fd5b508160075f8581526020019081526020015f2090816120bc9190612c98565b50505050565b60025f8281526020019081526020015f205f6101000a81549073ffffffffffffffffffffffffffffffffffffffff021916905550565b8173ffffffffffffffffffffffffffffffffffffffff1660015f8381526020019081526020015f205f9054906101000a900473ffffffffffffffffffffffffffffffffffffffff1673ffffffffffffffffffffffffffffffffffffffff16146040518060400160405280600681526020017f3030333030370000000000000000000000000000000000000000000000000000815250906121ce576040517f08c379a00000000000000000000000000000000000000000000000000000000081526004016121c59190612564565b60405180910390fd5b50600160035f8473ffffffffffffffffffffffffffffffffffffffff1673ffffffffffffffffffffffffffffffffffffffff1681526020019081526020015f205f82825461221c9190612d94565b9250508190555060015f8281526020019081526020015f205f6101000a81549073ffffffffffffffffffffffffffffffffffffffff02191690555050565b5f73ffffffffffffffffffffffffffffffffffffffff1660015f8381526020019081526020015f205f9054906101000a900473ffffffffffffffffffffffffffffffffffffffff1673ffffffffffffffffffffffffffffffffffffffff16146040518060400160405280600681526020017f303033303036000000000000000000000000000000000000000000000000000081525090612330576040517f08c379a00000000000000000000000000000000000000000000000000000000081526004016123279190612564565b60405180910390fd5b508160015f8381526020019081526020015f205f6101000a81548173ffffffffffffffffffffffffffffffffffffffff021916908373ffffffffffffffffffffffffffffffffffffffff160217905550600160035f8473ffffffffffffffffffffffffffffffffffffffff1673ffffffffffffffffffffffffffffffffffffffff1681526020019081526020015f205f8282546123cd9190612dc7565b925050819055505050565b5f805f7fc5d2460186f7233c927e7db2dcc703c0e500b653ca82273b7bfad8045d85a4705f1b9050833f91505f801b82141580156124165750808214155b92505050919050565b5f80fd5b5f80fd5b5f7fffffffff0000000000000000000000000000000000000000000000000000000082169050919050565b61245b81612427565b8114612465575f80fd5b50565b5f8135905061247681612452565b92915050565b5f602082840312156124915761249061241f565b5b5f61249e84828501612468565b91505092915050565b5f8115159050919050565b6124bb816124a7565b82525050565b5f6020820190506124d45f8301846124b2565b92915050565b5f81519050919050565b5f82825260208201905092915050565b5f5b838110156125115780820151818401526020810190506124f6565b5f8484015250505050565b5f601f19601f8301169050919050565b5f612536826124da565b61254081856124e4565b93506125508185602086016124f4565b6125598161251c565b840191505092915050565b5f6020820190508181035f83015261257c818461252c565b905092915050565b5f819050919050565b61259681612584565b81146125a0575f80fd5b50565b5f813590506125b18161258d565b92915050565b5f602082840312156125cc576125cb61241f565b5b5f6125d9848285016125a3565b91505092915050565b5f73ffffffffffffffffffffffffffffffffffffffff82169050919050565b5f61260b826125e2565b9050919050565b61261b81612601565b82525050565b5f6020820190506126345f830184612612565b92915050565b61264381612601565b811461264d575f80fd5b50565b5f8135905061265e8161263a565b92915050565b5f806040838503121561267a5761267961241f565b5b5f61268785828601612650565b9250506020612698858286016125a3565b9150509250929050565b5f805f606084860312156126b9576126b861241f565b5b5f6126c686828701612650565b93505060206126d786828701612650565b92505060406126e8868287016125a3565b9150509250925092565b5f602082840312156127075761270661241f565b5b5f61271484828501612650565b91505092915050565b61272681612584565b82525050565b5f60208201905061273f5f83018461271d565b92915050565b61274e816124a7565b8114612758575f80fd5b50565b5f8135905061276981612745565b92915050565b5f80604083850312156127855761278461241f565b5b5f61279285828601612650565b92505060206127a38582860161275b565b9150509250929050565b5f80fd5b5f80fd5b5f80fd5b5f8083601f8401126127ce576127cd6127ad565b5b8235905067ffffffffffffffff8111156127eb576127ea6127b1565b5b602083019150836001820283011115612807576128066127b5565b5b9250929050565b5f805f805f608086880312156128275761282661241f565b5b5f61283488828901612650565b955050602061284588828901612650565b9450506040612856888289016125a3565b935050606086013567ffffffffffffffff81111561287757612876612423565b5b612883888289016127b9565b92509250509295509295909350565b5f80604083850312156128a8576128a761241f565b5b5f6128b585828601612650565b92505060206128c685828601612650565b9150509250929050565b5f8083601f8401126128e5576128e46127ad565b5b8235905067ffffffffffffffff811115612902576129016127b1565b5b60208301915083600182028301111561291e5761291d6127b5565b5b9250929050565b5f805f806060858703121561293d5761293c61241f565b5b5f61294a87828801612650565b945050602061295b878288016125a3565b935050604085013567ffffffffffffffff81111561297c5761297b612423565b5b612988878288016128d0565b925092505092959194509250565b7f4e487b71000000000000000000000000000000000000000000000000000000005f52602260045260245ffd5b5f60028204905060018216806129da57607f821691505b6020821081036129ed576129ec612996565b5b50919050565b5f81519050919050565b5f82825260208201905092915050565b5f612a17826129f3565b612a2181856129fd565b9350612a318185602086016124f4565b612a3a8161251c565b840191505092915050565b5f608082019050612a585f830187612612565b612a656020830186612612565b612a72604083018561271d565b8181036060830152612a848184612a0d565b905095945050505050565b5f81519050612a9d81612452565b92915050565b5f60208284031215612ab857612ab761241f565b5b5f612ac584828501612a8f565b91505092915050565b7f4e487b71000000000000000000000000000000000000000000000000000000005f52604160045260245ffd5b5f819050815f5260205f209050919050565b5f6020601f8301049050919050565b5f82821b905092915050565b5f60088302612b577fffffffffffffffffffffffffffffffffffffffffffffffffffffffffffffffff82612b1c565b612b618683612b1c565b95508019841693508086168417925050509392505050565b5f819050919050565b5f612b9c612b97612b9284612584565b612b79565b612584565b9050919050565b5f819050919050565b612bb583612b82565b612bc9612bc182612ba3565b848454612b28565b825550505050565b5f90565b612bdd612bd1565b612be8818484612bac565b505050565b5b81811015612c0b57612c005f82612bd5565b600181019050612bee565b5050565b601f821115612c5057612c2181612afb565b612c2a84612b0d565b81016020851015612c39578190505b612c4d612c4585612b0d565b830182612bed565b50505b505050565b5f82821c905092915050565b5f612c705f1984600802612c55565b1980831691505092915050565b5f612c888383612c61565b9150826002028217905092915050565b612ca1826124da565b67ffffffffffffffff811115612cba57612cb9612ace565b5b612cc482546129c3565b612ccf828285612c0f565b5f60209050601f831160018114612d00575f8415612cee578287015190505b612cf88582612c7d565b865550612d5f565b601f198416612d0e86612afb565b5f5b82811015612d3557848901518255600182019150602085019450602081019050612d10565b86831015612d525784890151612d4e601f891682612c61565b8355505b6001600288020188555050505b505050505050565b7f4e487b71000000000000000000000000000000000000000000000000000000005f52601160045260245ffd5b5f612d9e82612584565b9150612da983612584565b9250828203905081811115612dc157612dc0612d67565b5b92915050565b5f612dd182612584565b9150612ddc83612584565b9250828201905080821115612df457612df3612d67565b5b9291505056fea264697066735822122095095f3836aa13f5b42478d93baabe7c43ca8a4683287d475965a22b758b863664736f6c63430008160033",
		"opcodes": "PUSH1 0x80 PUSH1 0x40 MSTORE CALLVALUE DUP1 ISZERO PUSH3 0x10 JUMPI PUSH0 DUP1 REVERT JUMPDEST POP PUSH1 0x1 PUSH0 DUP1 PUSH4 0x1FFC9A7 PUSH1 0xE0 SHL PUSH28 0xFFFFFFFFFFFFFFFFFFFFFFFFFFFFFFFFFFFFFFFFFFFFFFFFFFFFFFFF NOT AND DUP2 MSTORE PUSH1 0x20 ADD SWAP1 DUP2 MSTORE PUSH1 0x20 ADD PUSH0 KECCAK256 PUSH0 PUSH2 0x100 EXP DUP2 SLOAD DUP2 PUSH1 0xFF MUL NOT AND SWAP1 DUP4 ISZERO ISZERO MUL OR SWAP1 SSTORE POP PUSH1 0x1 PUSH0 DUP1 PUSH4 0x80AC58CD PUSH1 0xE0 SHL PUSH28 0xFFFFFFFFFFFFFFFFFFFFFFFFFFFFFFFFFFFFFFFFFFFFFFFFFFFFFFFF NOT AND DUP2 MSTORE PUSH1 0x20 ADD SWAP1 DUP2 MSTORE PUSH1 0x20 ADD PUSH0 KECCAK256 PUSH0 PUSH2 0x100 EXP DUP2 SLOAD DUP2 PUSH1 0xFF MUL NOT AND SWAP1 DUP4 ISZERO ISZERO MUL OR SWAP1 SSTORE POP PUSH1 0x1 PUSH0 DUP1 PUSH4 0x5B5E139F PUSH1 0xE0 SHL PUSH28 0xFFFFFFFFFFFFFFFFFFFFFFFFFFFFFFFFFFFFFFFFFFFFFFFFFFFFFFFF NOT AND DUP2 MSTORE PUSH1 0x20 ADD SWAP1 DUP2 MSTORE PUSH1 0x20 ADD PUSH0 KECCAK256 PUSH0 PUSH2 0x100 EXP DUP2 SLOAD DUP2 PUSH1 0xFF MUL NOT AND SWAP1 DUP4 ISZERO ISZERO MUL OR SWAP1 SSTORE POP CALLER PUSH1 0x8 PUSH0 PUSH2 0x100 EXP DUP2 SLOAD DUP2 PUSH20 0xFFFFFFFFFFFFFFFFFFFFFFFFFFFFFFFFFFFFFFFF MUL NOT AND SWAP1 DUP4 PUSH20 0xFFFFFFFFFFFFFFFFFFFFFFFFFFFFFFFFFFFFFFFF AND MUL OR SWAP1 SSTORE POP PUSH1 0x40 MLOAD DUP1 PUSH1 0x40 ADD PUSH1 0x40 MSTORE DUP1 PUSH1 0x9 DUP2 MSTORE PUSH1 0x20 ADD PUSH32 0x6663735F636C6173730000000000000000000000000000000000000000000000 DUP2 MSTORE POP PUSH1 0x5 SWAP1 DUP2 PUSH3 0x181 SWAP2 SWAP1 PUSH3 0x433 JUMP JUMPDEST POP PUSH1 0x40 MLOAD DUP1 PUSH1 0x40 ADD PUSH1 0x40 MSTORE DUP1 PUSH1 0x3 DUP2 MSTORE PUSH1 0x20 ADD PUSH32 0x494E520000000000000000000000000000000000000000000000000000000000 DUP2 MSTORE POP PUSH1 0x6 SWAP1 DUP2 PUSH3 0x1C8 SWAP2 SWAP1 PUSH3 0x433 JUMP JUMPDEST POP PUSH3 0x517 JUMP JUMPDEST PUSH0 DUP2 MLOAD SWAP1 POP SWAP2 SWAP1 POP JUMP JUMPDEST PUSH32 0x4E487B7100000000000000000000000000000000000000000000000000000000 PUSH0 MSTORE PUSH1 0x41 PUSH1 0x4 MSTORE PUSH1 0x24 PUSH0 REVERT JUMPDEST PUSH32 0x4E487B7100000000000000000000000000000000000000000000000000000000 PUSH0 MSTORE PUSH1 0x22 PUSH1 0x4 MSTORE PUSH1 0x24 PUSH0 REVERT JUMPDEST PUSH0 PUSH1 0x2 DUP3 DIV SWAP1 POP PUSH1 0x1 DUP3 AND DUP1 PUSH3 0x24B JUMPI PUSH1 0x7F DUP3 AND SWAP2 POP JUMPDEST PUSH1 0x20 DUP3 LT DUP2 SUB PUSH3 0x261 JUMPI PUSH3 0x260 PUSH3 0x206 JUMP JUMPDEST JUMPDEST POP SWAP2 SWAP1 POP JUMP JUMPDEST PUSH0 DUP2 SWAP1 POP DUP2 PUSH0 MSTORE PUSH1 0x20 PUSH0 KECCAK256 SWAP1 POP SWAP2 SWAP1 POP JUMP JUMPDEST PUSH0 PUSH1 0x20 PUSH1 0x1F DUP4 ADD DIV SWAP1 POP SWAP2 SWAP1 POP JUMP JUMPDEST PUSH0 DUP3 DUP3 SHL SWAP1 POP SWAP3 SWAP2 POP POP JUMP JUMPDEST PUSH0 PUSH1 0x8 DUP4 MUL PUSH3 0x2C5 PUSH32 0xFFFFFFFFFFFFFFFFFFFFFFFFFFFFFFFFFFFFFFFFFFFFFFFFFFFFFFFFFFFFFFFF DUP3 PUSH3 0x288 JUMP JUMPDEST PUSH3 0x2D1 DUP7 DUP4 PUSH3 0x288 JUMP JUMPDEST SWAP6 POP DUP1 NOT DUP5 AND SWAP4 POP DUP1 DUP7 AND DUP5 OR SWAP3 POP POP POP SWAP4 SWAP3 POP POP POP JUMP JUMPDEST PUSH0 DUP2 SWAP1 POP SWAP2 SWAP1 POP JUMP JUMPDEST PUSH0 DUP2 SWAP1 POP SWAP2 SWAP1 POP JUMP JUMPDEST PUSH0 PUSH3 0x31B PUSH3 0x315 PUSH3 0x30F DUP5 PUSH3 0x2E9 JUMP JUMPDEST PUSH3 0x2F2 JUMP JUMPDEST PUSH3 0x2E9 JUMP JUMPDEST SWAP1 POP SWAP2 SWAP1 POP JUMP JUMPDEST PUSH0 DUP2 SWAP1 POP SWAP2 SWAP1 POP JUMP JUMPDEST PUSH3 0x336 DUP4 PUSH3 0x2FB JUMP JUMPDEST PUSH3 0x34E PUSH3 0x345 DUP3 PUSH3 0x322 JUMP JUMPDEST DUP5 DUP5 SLOAD PUSH3 0x294 JUMP JUMPDEST DUP3 SSTORE POP POP POP POP JUMP JUMPDEST PUSH0 SWAP1 JUMP JUMPDEST PUSH3 0x364 PUSH3 0x356 JUMP JUMPDEST PUSH3 0x371 DUP2 DUP5 DUP5 PUSH3 0x32B JUMP JUMPDEST POP POP POP JUMP JUMPDEST JUMPDEST DUP2 DUP2 LT ISZERO PUSH3 0x398 JUMPI PUSH3 0x38C PUSH0 DUP3 PUSH3 0x35A JUMP JUMPDEST PUSH1 0x1 DUP2 ADD SWAP1 POP PUSH3 0x377 JUMP JUMPDEST POP POP JUMP JUMPDEST PUSH1 0x1F DUP3 GT ISZERO PUSH3 0x3E7 JUMPI PUSH3 0x3B1 DUP2 PUSH3 0x267 JUMP JUMPDEST PUSH3 0x3BC DUP5 PUSH3 0x279 JUMP JUMPDEST DUP2 ADD PUSH1 0x20 DUP6 LT ISZERO PUSH3 0x3CC JUMPI DUP2 SWAP1 POP JUMPDEST PUSH3 0x3E4 PUSH3 0x3DB DUP6 PUSH3 0x279 JUMP JUMPDEST DUP4 ADD DUP3 PUSH3 0x376 JUMP JUMPDEST POP POP JUMPDEST POP POP POP JUMP JUMPDEST PUSH0 DUP3 DUP3 SHR SWAP1 POP SWAP3 SWAP2 POP POP JUMP JUMPDEST PUSH0 PUSH3 0x409 PUSH0 NOT DUP5 PUSH1 0x8 MUL PUSH3 0x3EC JUMP JUMPDEST NOT DUP1 DUP4 AND SWAP2 POP POP SWAP3 SWAP2 POP POP JUMP JUMPDEST PUSH0 PUSH3 0x423 DUP4 DUP4 PUSH3 0x3F8 JUMP JUMPDEST SWAP2 POP DUP3 PUSH1 0x2 MUL DUP3 OR SWAP1 POP SWAP3 SWAP2 POP POP JUMP JUMPDEST PUSH3 0x43E DUP3 PUSH3 0x1CF JUMP JUMPDEST PUSH8 0xFFFFFFFFFFFFFFFF DUP2 GT ISZERO PUSH3 0x45A JUMPI PUSH3 0x459 PUSH3 0x1D9 JUMP JUMPDEST JUMPDEST PUSH3 0x466 DUP3 SLOAD PUSH3 0x233 JUMP JUMPDEST PUSH3 0x473 DUP3 DUP3 DUP6 PUSH3 0x39C JUMP JUMPDEST PUSH0 PUSH1 0x20 SWAP1 POP PUSH1 0x1F DUP4 GT PUSH1 0x1 DUP2 EQ PUSH3 0x4A9 JUMPI PUSH0 DUP5 ISZERO PUSH3 0x494 JUMPI DUP3 DUP8 ADD MLOAD SWAP1 POP JUMPDEST PUSH3 0x4A0 DUP6 DUP3 PUSH3 0x416 JUMP JUMPDEST DUP7 SSTORE POP PUSH3 0x50F JUMP JUMPDEST PUSH1 0x1F NOT DUP5 AND PUSH3 0x4B9 DUP7 PUSH3 0x267 JUMP JUMPDEST PUSH0 JUMPDEST DUP3 DUP2 LT ISZERO PUSH3 0x4E2 JUMPI DUP5 DUP10 ADD MLOAD DUP3 SSTORE PUSH1 0x1 DUP3 ADD SWAP2 POP PUSH1 0x20 DUP6 ADD SWAP5 POP PUSH1 0x20 DUP2 ADD SWAP1 POP PUSH3 0x4BB JUMP JUMPDEST DUP7 DUP4 LT ISZERO PUSH3 0x502 JUMPI DUP5 DUP10 ADD MLOAD PUSH3 0x4FE PUSH1 0x1F DUP10 AND DUP3 PUSH3 0x3F8 JUMP JUMPDEST DUP4 SSTORE POP JUMPDEST PUSH1 0x1 PUSH1 0x2 DUP9 MUL ADD DUP9 SSTORE POP POP POP JUMPDEST POP POP POP POP POP POP JUMP JUMPDEST PUSH2 0x2E30 DUP1 PUSH3 0x525 PUSH0 CODECOPY PUSH0 RETURN INVALID PUSH1 0x80 PUSH1 0x40 MSTORE CALLVALUE DUP1 ISZERO PUSH2 0xF JUMPI PUSH0 DUP1 REVERT JUMPDEST POP PUSH1 0x4 CALLDATASIZE LT PUSH2 0x114 JUMPI PUSH0 CALLDATALOAD PUSH1 0xE0 SHR DUP1 PUSH4 0x8DA5CB5B GT PUSH2 0xA0 JUMPI DUP1 PUSH4 0xC87B56DD GT PUSH2 0x6F JUMPI DUP1 PUSH4 0xC87B56DD EQ PUSH2 0x2DC JUMPI DUP1 PUSH4 0xE985E9C5 EQ PUSH2 0x30C JUMPI DUP1 PUSH4 0xF2FDE38B EQ PUSH2 0x33C JUMPI DUP1 PUSH4 0xF384A826 EQ PUSH2 0x358 JUMPI DUP1 PUSH4 0xF3FE3BC3 EQ PUSH2 0x374 JUMPI PUSH2 0x114 JUMP JUMPDEST DUP1 PUSH4 0x8DA5CB5B EQ PUSH2 0x268 JUMPI DUP1 PUSH4 0x95D89B41 EQ PUSH2 0x286 JUMPI DUP1 PUSH4 0xA22CB465 EQ PUSH2 0x2A4 JUMPI DUP1 PUSH4 0xB88D4FDE EQ PUSH2 0x2C0 JUMPI PUSH2 0x114 JUMP JUMPDEST DUP1 PUSH4 0x23B872DD GT PUSH2 0xE7 JUMPI DUP1 PUSH4 0x23B872DD EQ PUSH2 0x1B2 JUMPI DUP1 PUSH4 0x42842E0E EQ PUSH2 0x1CE JUMPI DUP1 PUSH4 0x6352211E EQ PUSH2 0x1EA JUMPI DUP1 PUSH4 0x70A08231 EQ PUSH2 0x21A JUMPI DUP1 PUSH4 0x860D248A EQ PUSH2 0x24A JUMPI PUSH2 0x114 JUMP JUMPDEST DUP1 PUSH4 0x1FFC9A7 EQ PUSH2 0x118 JUMPI DUP1 PUSH4 0x6FDDE03 EQ PUSH2 0x148 JUMPI DUP1 PUSH4 0x81812FC EQ PUSH2 0x166 JUMPI DUP1 PUSH4 0x95EA7B3 EQ PUSH2 0x196 JUMPI JUMPDEST PUSH0 DUP1 REVERT JUMPDEST PUSH2 0x132 PUSH1 0x4 DUP1 CALLDATASIZE SUB DUP2 ADD SWAP1 PUSH2 0x12D SWAP2 SWAP1 PUSH2 0x247C JUMP JUMPDEST PUSH2 0x392 JUMP JUMPDEST PUSH1 0x40 MLOAD PUSH2 0x13F SWAP2 SWAP1 PUSH2 0x24C1 JUMP JUMPDEST PUSH1 0x40 MLOAD DUP1 SWAP2 SUB SWAP1 RETURN JUMPDEST PUSH2 0x150 PUSH2 0x3F5 JUMP JUMPDEST PUSH1 0x40 MLOAD PUSH2 0x15D SWAP2 SWAP1 PUSH2 0x2564 JUMP JUMPDEST PUSH1 0x40 MLOAD DUP1 SWAP2 SUB SWAP1 RETURN JUMPDEST PUSH2 0x180 PUSH1 0x4 DUP1 CALLDATASIZE SUB DUP2 ADD SWAP1 PUSH2 0x17B SWAP2 SWAP1 PUSH2 0x25B7 JUMP JUMPDEST PUSH2 0x485 JUMP JUMPDEST PUSH1 0x40 MLOAD PUSH2 0x18D SWAP2 SWAP1 PUSH2 0x2621 JUMP JUMPDEST PUSH1 0x40 MLOAD DUP1 SWAP2 SUB SWAP1 RETURN JUMPDEST PUSH2 0x1B0 PUSH1 0x4 DUP1 CALLDATASIZE SUB DUP2 ADD SWAP1 PUSH2 0x1AB SWAP2 SWAP1 PUSH2 0x2664 JUMP JUMPDEST PUSH2 0x598 JUMP JUMPDEST STOP JUMPDEST PUSH2 0x1CC PUSH1 0x4 DUP1 CALLDATASIZE SUB DUP2 ADD SWAP1 PUSH2 0x1C7 SWAP2 SWAP1 PUSH2 0x26A2 JUMP JUMPDEST PUSH2 0x967 JUMP JUMPDEST STOP JUMPDEST PUSH2 0x1E8 PUSH1 0x4 DUP1 CALLDATASIZE SUB DUP2 ADD SWAP1 PUSH2 0x1E3 SWAP2 SWAP1 PUSH2 0x26A2 JUMP JUMPDEST PUSH2 0xDA4 JUMP JUMPDEST STOP JUMPDEST PUSH2 0x204 PUSH1 0x4 DUP1 CALLDATASIZE SUB DUP2 ADD SWAP1 PUSH2 0x1FF SWAP2 SWAP1 PUSH2 0x25B7 JUMP JUMPDEST PUSH2 0xDC3 JUMP JUMPDEST PUSH1 0x40 MLOAD PUSH2 0x211 SWAP2 SWAP1 PUSH2 0x2621 JUMP JUMPDEST PUSH1 0x40 MLOAD DUP1 SWAP2 SUB SWAP1 RETURN JUMPDEST PUSH2 0x234 PUSH1 0x4 DUP1 CALLDATASIZE SUB DUP2 ADD SWAP1 PUSH2 0x22F SWAP2 SWAP1 PUSH2 0x26F2 JUMP JUMPDEST PUSH2 0xEA4 JUMP JUMPDEST PUSH1 0x40 MLOAD PUSH2 0x241 SWAP2 SWAP1 PUSH2 0x272C JUMP JUMPDEST PUSH1 0x40 MLOAD DUP1 SWAP2 SUB SWAP1 RETURN JUMPDEST PUSH2 0x252 PUSH2 0xF5D JUMP JUMPDEST PUSH1 0x40 MLOAD PUSH2 0x25F SWAP2 SWAP1 PUSH2 0x2564 JUMP JUMPDEST PUSH1 0x40 MLOAD DUP1 SWAP2 SUB SWAP1 RETURN JUMPDEST PUSH2 0x270 PUSH2 0xF96 JUMP JUMPDEST PUSH1 0x40 MLOAD PUSH2 0x27D SWAP2 SWAP1 PUSH2 0x2621 JUMP JUMPDEST PUSH1 0x40 MLOAD DUP1 SWAP2 SUB SWAP1 RETURN JUMPDEST PUSH2 0x28E PUSH2 0xFBB JUMP JUMPDEST PUSH1 0x40 MLOAD PUSH2 0x29B SWAP2 SWAP1 PUSH2 0x2564 JUMP JUMPDEST PUSH1 0x40 MLOAD DUP1 SWAP2 SUB SWAP1 RETURN JUMPDEST PUSH2 0x2BE PUSH1 0x4 DUP1 CALLDATASIZE SUB DUP2 ADD SWAP1 PUSH2 0x2B9 SWAP2 SWAP1 PUSH2 0x276F JUMP JUMPDEST PUSH2 0x104B JUMP JUMPDEST STOP JUMPDEST PUSH2 0x2DA PUSH1 0x4 DUP1 CALLDATASIZE SUB DUP2 ADD SWAP1 PUSH2 0x2D5 SWAP2 SWAP1 PUSH2 0x280E JUMP JUMPDEST PUSH2 0x1143 JUMP JUMPDEST STOP JUMPDEST PUSH2 0x2F6 PUSH1 0x4 DUP1 CALLDATASIZE SUB DUP2 ADD SWAP1 PUSH2 0x2F1 SWAP2 SWAP1 PUSH2 0x25B7 JUMP JUMPDEST PUSH2 0x1199 JUMP JUMPDEST PUSH1 0x40 MLOAD PUSH2 0x303 SWAP2 SWAP1 PUSH2 0x2564 JUMP JUMPDEST PUSH1 0x40 MLOAD DUP1 SWAP2 SUB SWAP1 RETURN JUMPDEST PUSH2 0x326 PUSH1 0x4 DUP1 CALLDATASIZE SUB DUP2 ADD SWAP1 PUSH2 0x321 SWAP2 SWAP1 PUSH2 0x2892 JUMP JUMPDEST PUSH2 0x1285 JUMP JUMPDEST PUSH1 0x40 MLOAD PUSH2 0x333 SWAP2 SWAP1 PUSH2 0x24C1 JUMP JUMPDEST PUSH1 0x40 MLOAD DUP1 SWAP2 SUB SWAP1 RETURN JUMPDEST PUSH2 0x356 PUSH1 0x4 DUP1 CALLDATASIZE SUB DUP2 ADD SWAP1 PUSH2 0x351 SWAP2 SWAP1 PUSH2 0x26F2 JUMP JUMPDEST PUSH2 0x1313 JUMP JUMPDEST STOP JUMPDEST PUSH2 0x372 PUSH1 0x4 DUP1 CALLDATASIZE SUB DUP2 ADD SWAP1 PUSH2 0x36D SWAP2 SWAP1 PUSH2 0x2925 JUMP JUMPDEST PUSH2 0x1541 JUMP JUMPDEST STOP JUMPDEST PUSH2 0x37C PUSH2 0x1666 JUMP JUMPDEST PUSH1 0x40 MLOAD PUSH2 0x389 SWAP2 SWAP1 PUSH2 0x2564 JUMP JUMPDEST PUSH1 0x40 MLOAD DUP1 SWAP2 SUB SWAP1 RETURN JUMPDEST PUSH0 DUP1 PUSH0 DUP4 PUSH28 0xFFFFFFFFFFFFFFFFFFFFFFFFFFFFFFFFFFFFFFFFFFFFFFFFFFFFFFFF NOT AND PUSH28 0xFFFFFFFFFFFFFFFFFFFFFFFFFFFFFFFFFFFFFFFFFFFFFFFFFFFFFFFF NOT AND DUP2 MSTORE PUSH1 0x20 ADD SWAP1 DUP2 MSTORE PUSH1 0x20 ADD PUSH0 KECCAK256 PUSH0 SWAP1 SLOAD SWAP1 PUSH2 0x100 EXP SWAP1 DIV PUSH1 0xFF AND SWAP1 POP SWAP2 SWAP1 POP JUMP JUMPDEST PUSH1 0x60 PUSH1 0x5 DUP1 SLOAD PUSH2 0x404 SWAP1 PUSH2 0x29C3 JUMP JUMPDEST DUP1 PUSH1 0x1F ADD PUSH1 0x20 DUP1 SWAP2 DIV MUL PUSH1 0x20 ADD PUSH1 0x40 MLOAD SWAP1 DUP2 ADD PUSH1 0x40 MSTORE DUP1 SWAP3 SWAP2 SWAP1 DUP2 DUP2 MSTORE PUSH1 0x20 ADD DUP3 DUP1 SLOAD PUSH2 0x430 SWAP1 PUSH2 0x29C3 JUMP JUMPDEST DUP1 ISZERO PUSH2 0x47B JUMPI DUP1 PUSH1 0x1F LT PUSH2 0x452 JUMPI PUSH2 0x100 DUP1 DUP4 SLOAD DIV MUL DUP4 MSTORE SWAP2 PUSH1 0x20 ADD SWAP2 PUSH2 0x47B JUMP JUMPDEST DUP3 ADD SWAP2 SWAP1 PUSH0 MSTORE PUSH1 0x20 PUSH0 KECCAK256 SWAP1 JUMPDEST DUP2 SLOAD DUP2 MSTORE SWAP1 PUSH1 0x1 ADD SWAP1 PUSH1 0x20 ADD DUP1 DUP4 GT PUSH2 0x45E JUMPI DUP3 SWAP1 SUB PUSH1 0x1F AND DUP3 ADD SWAP2 JUMPDEST POP POP POP POP POP SWAP1 POP SWAP1 JUMP JUMPDEST PUSH0 DUP2 PUSH0 PUSH20 0xFFFFFFFFFFFFFFFFFFFFFFFFFFFFFFFFFFFFFFFF AND PUSH1 0x1 PUSH0 DUP4 DUP2 MSTORE PUSH1 0x20 ADD SWAP1 DUP2 MSTORE PUSH1 0x20 ADD PUSH0 KECCAK256 PUSH0 SWAP1 SLOAD SWAP1 PUSH2 0x100 EXP SWAP1 DIV PUSH20 0xFFFFFFFFFFFFFFFFFFFFFFFFFFFFFFFFFFFFFFFF AND PUSH20 0xFFFFFFFFFFFFFFFFFFFFFFFFFFFFFFFFFFFFFFFF AND EQ ISZERO PUSH1 0x40 MLOAD DUP1 PUSH1 0x40 ADD PUSH1 0x40 MSTORE DUP1 PUSH1 0x6 DUP2 MSTORE PUSH1 0x20 ADD PUSH32 0x3030333030320000000000000000000000000000000000000000000000000000 DUP2 MSTORE POP SWAP1 PUSH2 0x55E JUMPI PUSH1 0x40 MLOAD PUSH32 0x8C379A000000000000000000000000000000000000000000000000000000000 DUP2 MSTORE PUSH1 0x4 ADD PUSH2 0x555 SWAP2 SWAP1 PUSH2 0x2564 JUMP JUMPDEST PUSH1 0x40 MLOAD DUP1 SWAP2 SUB SWAP1 REVERT JUMPDEST POP PUSH1 0x2 PUSH0 DUP5 DUP2 MSTORE PUSH1 0x20 ADD SWAP1 DUP2 MSTORE PUSH1 0x20 ADD PUSH0 KECCAK256 PUSH0 SWAP1 SLOAD SWAP1 PUSH2 0x100 EXP SWAP1 DIV PUSH20 0xFFFFFFFFFFFFFFFFFFFFFFFFFFFFFFFFFFFFFFFF AND SWAP2 POP POP SWAP2 SWAP1 POP JUMP JUMPDEST DUP1 PUSH0 PUSH1 0x1 PUSH0 DUP4 DUP2 MSTORE PUSH1 0x20 ADD SWAP1 DUP2 MSTORE PUSH1 0x20 ADD PUSH0 KECCAK256 PUSH0 SWAP1 SLOAD SWAP1 PUSH2 0x100 EXP SWAP1 DIV PUSH20 0xFFFFFFFFFFFFFFFFFFFFFFFFFFFFFFFFFFFFFFFF AND SWAP1 POP CALLER PUSH20 0xFFFFFFFFFFFFFFFFFFFFFFFFFFFFFFFFFFFFFFFF AND DUP2 PUSH20 0xFFFFFFFFFFFFFFFFFFFFFFFFFFFFFFFFFFFFFFFF AND EQ DUP1 PUSH2 0x688 JUMPI POP PUSH1 0x4 PUSH0 DUP3 PUSH20 0xFFFFFFFFFFFFFFFFFFFFFFFFFFFFFFFFFFFFFFFF AND PUSH20 0xFFFFFFFFFFFFFFFFFFFFFFFFFFFFFFFFFFFFFFFF AND DUP2 MSTORE PUSH1 0x20 ADD SWAP1 DUP2 MSTORE PUSH1 0x20 ADD PUSH0 KECCAK256 PUSH0 CALLER PUSH20 0xFFFFFFFFFFFFFFFFFFFFFFFFFFFFFFFFFFFFFFFF AND PUSH20 0xFFFFFFFFFFFFFFFFFFFFFFFFFFFFFFFFFFFFFFFF AND DUP2 MSTORE PUSH1 0x20 ADD SWAP1 DUP2 MSTORE PUSH1 0x20 ADD PUSH0 KECCAK256 PUSH0 SWAP1 SLOAD SWAP1 PUSH2 0x100 EXP SWAP1 DIV PUSH1 0xFF AND JUMPDEST PUSH1 0x40 MLOAD DUP1 PUSH1 0x40 ADD PUSH1 0x40 MSTORE DUP1 PUSH1 0x6 DUP2 MSTORE PUSH1 0x20 ADD PUSH32 0x3030333030330000000000000000000000000000000000000000000000000000 DUP2 MSTORE POP SWAP1 PUSH2 0x6FF JUMPI PUSH1 0x40 MLOAD PUSH32 0x8C379A000000000000000000000000000000000000000000000000000000000 DUP2 MSTORE PUSH1 0x4 ADD PUSH2 0x6F6 SWAP2 SWAP1 PUSH2 0x2564 JUMP JUMPDEST PUSH1 0x40 MLOAD DUP1 SWAP2 SUB SWAP1 REVERT JUMPDEST POP DUP3 PUSH0 PUSH20 0xFFFFFFFFFFFFFFFFFFFFFFFFFFFFFFFFFFFFFFFF AND PUSH1 0x1 PUSH0 DUP4 DUP2 MSTORE PUSH1 0x20 ADD SWAP1 DUP2 MSTORE PUSH1 0x20 ADD PUSH0 KECCAK256 PUSH0 SWAP1 SLOAD SWAP1 PUSH2 0x100 EXP SWAP1 DIV PUSH20 0xFFFFFFFFFFFFFFFFFFFFFFFFFFFFFFFFFFFFFFFF AND PUSH20 0xFFFFFFFFFFFFFFFFFFFFFFFFFFFFFFFFFFFFFFFF AND EQ ISZERO PUSH1 0x40 MLOAD DUP1 PUSH1 0x40 ADD PUSH1 0x40 MSTORE DUP1 PUSH1 0x6 DUP2 MSTORE PUSH1 0x20 ADD PUSH32 0x3030333030320000000000000000000000000000000000000000000000000000 DUP2 MSTORE POP SWAP1 PUSH2 0x7D8 JUMPI PUSH1 0x40 MLOAD PUSH32 0x8C379A000000000000000000000000000000000000000000000000000000000 DUP2 MSTORE PUSH1 0x4 ADD PUSH2 0x7CF SWAP2 SWAP1 PUSH2 0x2564 JUMP JUMPDEST PUSH1 0x40 MLOAD DUP1 SWAP2 SUB SWAP1 REVERT JUMPDEST POP PUSH0 PUSH1 0x1 PUSH0 DUP7 DUP2 MSTORE PUSH1 0x20 ADD SWAP1 DUP2 MSTORE PUSH1 0x20 ADD PUSH0 KECCAK256 PUSH0 SWAP1 SLOAD SWAP1 PUSH2 0x100 EXP SWAP1 DIV PUSH20 0xFFFFFFFFFFFFFFFFFFFFFFFFFFFFFFFFFFFFFFFF AND SWAP1 POP DUP1 PUSH20 0xFFFFFFFFFFFFFFFFFFFFFFFFFFFFFFFFFFFFFFFF AND DUP7 PUSH20 0xFFFFFFFFFFFFFFFFFFFFFFFFFFFFFFFFFFFFFFFF AND EQ ISZERO PUSH1 0x40 MLOAD DUP1 PUSH1 0x40 ADD PUSH1 0x40 MSTORE DUP1 PUSH1 0x6 DUP2 MSTORE PUSH1 0x20 ADD PUSH32 0x3030333030380000000000000000000000000000000000000000000000000000 DUP2 MSTORE POP SWAP1 PUSH2 0x8B4 JUMPI PUSH1 0x40 MLOAD PUSH32 0x8C379A000000000000000000000000000000000000000000000000000000000 DUP2 MSTORE PUSH1 0x4 ADD PUSH2 0x8AB SWAP2 SWAP1 PUSH2 0x2564 JUMP JUMPDEST PUSH1 0x40 MLOAD DUP1 SWAP2 SUB SWAP1 REVERT JUMPDEST POP DUP6 PUSH1 0x2 PUSH0 DUP8 DUP2 MSTORE PUSH1 0x20 ADD SWAP1 DUP2 MSTORE PUSH1 0x20 ADD PUSH0 KECCAK256 PUSH0 PUSH2 0x100 EXP DUP2 SLOAD DUP2 PUSH20 0xFFFFFFFFFFFFFFFFFFFFFFFFFFFFFFFFFFFFFFFF MUL NOT AND SWAP1 DUP4 PUSH20 0xFFFFFFFFFFFFFFFFFFFFFFFFFFFFFFFFFFFFFFFF AND MUL OR SWAP1 SSTORE POP DUP5 DUP7 PUSH20 0xFFFFFFFFFFFFFFFFFFFFFFFFFFFFFFFFFFFFFFFF AND DUP3 PUSH20 0xFFFFFFFFFFFFFFFFFFFFFFFFFFFFFFFFFFFFFFFF AND PUSH32 0x8C5BE1E5EBEC7D5BD14F71427D1E84F3DD0314C0F7B2291E5B200AC8C7C3B925 PUSH1 0x40 MLOAD PUSH1 0x40 MLOAD DUP1 SWAP2 SUB SWAP1 LOG4 POP POP POP POP POP POP JUMP JUMPDEST DUP1 PUSH0 PUSH1 0x1 PUSH0 DUP4 DUP2 MSTORE PUSH1 0x20 ADD SWAP1 DUP2 MSTORE PUSH1 0x20 ADD PUSH0 KECCAK256 PUSH0 SWAP1 SLOAD SWAP1 PUSH2 0x100 EXP SWAP1 DIV PUSH20 0xFFFFFFFFFFFFFFFFFFFFFFFFFFFFFFFFFFFFFFFF AND SWAP1 POP CALLER PUSH20 0xFFFFFFFFFFFFFFFFFFFFFFFFFFFFFFFFFFFFFFFF AND DUP2 PUSH20 0xFFFFFFFFFFFFFFFFFFFFFFFFFFFFFFFFFFFFFFFF AND EQ DUP1 PUSH2 0xA31 JUMPI POP CALLER PUSH20 0xFFFFFFFFFFFFFFFFFFFFFFFFFFFFFFFFFFFFFFFF AND PUSH1 0x2 PUSH0 DUP5 DUP2 MSTORE PUSH1 0x20 ADD SWAP1 DUP2 MSTORE PUSH1 0x20 ADD PUSH0 KECCAK256 PUSH0 SWAP1 SLOAD SWAP1 PUSH2 0x100 EXP SWAP1 DIV PUSH20 0xFFFFFFFFFFFFFFFFFFFFFFFFFFFFFFFFFFFFFFFF AND PUSH20 0xFFFFFFFFFFFFFFFFFFFFFFFFFFFFFFFFFFFFFFFF AND EQ JUMPDEST DUP1 PUSH2 0xABD JUMPI POP PUSH1 0x4 PUSH0 DUP3 PUSH20 0xFFFFFFFFFFFFFFFFFFFFFFFFFFFFFFFFFFFFFFFF AND PUSH20 0xFFFFFFFFFFFFFFFFFFFFFFFFFFFFFFFFFFFFFFFF AND DUP2 MSTORE PUSH1 0x20 ADD SWAP1 DUP2 MSTORE PUSH1 0x20 ADD PUSH0 KECCAK256 PUSH0 CALLER PUSH20 0xFFFFFFFFFFFFFFFFFFFFFFFFFFFFFFFFFFFFFFFF AND PUSH20 0xFFFFFFFFFFFFFFFFFFFFFFFFFFFFFFFFFFFFFFFF AND DUP2 MSTORE PUSH1 0x20 ADD SWAP1 DUP2 MSTORE PUSH1 0x20 ADD PUSH0 KECCAK256 PUSH0 SWAP1 SLOAD SWAP1 PUSH2 0x100 EXP SWAP1 DIV PUSH1 0xFF AND JUMPDEST PUSH1 0x40 MLOAD DUP1 PUSH1 0x40 ADD PUSH1 0x40 MSTORE DUP1 PUSH1 0x6 DUP2 MSTORE PUSH1 0x20 ADD PUSH32 0x3030333030340000000000000000000000000000000000000000000000000000 DUP2 MSTORE POP SWAP1 PUSH2 0xB34 JUMPI PUSH1 0x40 MLOAD PUSH32 0x8C379A000000000000000000000000000000000000000000000000000000000 DUP2 MSTORE PUSH1 0x4 ADD PUSH2 0xB2B SWAP2 SWAP1 PUSH2 0x2564 JUMP JUMPDEST PUSH1 0x40 MLOAD DUP1 SWAP2 SUB SWAP1 REVERT JUMPDEST POP DUP3 PUSH0 PUSH20 0xFFFFFFFFFFFFFFFFFFFFFFFFFFFFFFFFFFFFFFFF AND PUSH1 0x1 PUSH0 DUP4 DUP2 MSTORE PUSH1 0x20 ADD SWAP1 DUP2 MSTORE PUSH1 0x20 ADD PUSH0 KECCAK256 PUSH0 SWAP1 SLOAD SWAP1 PUSH2 0x100 EXP SWAP1 DIV PUSH20 0xFFFFFFFFFFFFFFFFFFFFFFFFFFFFFFFFFFFFFFFF AND PUSH20 0xFFFFFFFFFFFFFFFFFFFFFFFFFFFFFFFFFFFFFFFF AND EQ ISZERO PUSH1 0x40 MLOAD DUP1 PUSH1 0x40 ADD PUSH1 0x40 MSTORE DUP1 PUSH1 0x6 DUP2 MSTORE PUSH1 0x20 ADD PUSH32 0x3030333030320000000000000000000000000000000000000000000000000000 DUP2 MSTORE POP SWAP1 PUSH2 0xC0D JUMPI PUSH1 0x40 MLOAD PUSH32 0x8C379A000000000000000000000000000000000000000000000000000000000 DUP2 MSTORE PUSH1 0x4 ADD PUSH2 0xC04 SWAP2 SWAP1 PUSH2 0x2564 JUMP JUMPDEST PUSH1 0x40 MLOAD DUP1 SWAP2 SUB SWAP1 REVERT JUMPDEST POP PUSH0 PUSH1 0x1 PUSH0 DUP7 DUP2 MSTORE PUSH1 0x20 ADD SWAP1 DUP2 MSTORE PUSH1 0x20 ADD PUSH0 KECCAK256 PUSH0 SWAP1 SLOAD SWAP1 PUSH2 0x100 EXP SWAP1 DIV PUSH20 0xFFFFFFFFFFFFFFFFFFFFFFFFFFFFFFFFFFFFFFFF AND SWAP1 POP DUP7 PUSH20 0xFFFFFFFFFFFFFFFFFFFFFFFFFFFFFFFFFFFFFFFF AND DUP2 PUSH20 0xFFFFFFFFFFFFFFFFFFFFFFFFFFFFFFFFFFFFFFFF AND EQ PUSH1 0x40 MLOAD DUP1 PUSH1 0x40 ADD PUSH1 0x40 MSTORE DUP1 PUSH1 0x6 DUP2 MSTORE PUSH1 0x20 ADD PUSH32 0x3030333030370000000000000000000000000000000000000000000000000000 DUP2 MSTORE POP SWAP1 PUSH2 0xCE8 JUMPI PUSH1 0x40 MLOAD PUSH32 0x8C379A000000000000000000000000000000000000000000000000000000000 DUP2 MSTORE PUSH1 0x4 ADD PUSH2 0xCDF SWAP2 SWAP1 PUSH2 0x2564 JUMP JUMPDEST PUSH1 0x40 MLOAD DUP1 SWAP2 SUB SWAP1 REVERT JUMPDEST POP PUSH0 PUSH20 0xFFFFFFFFFFFFFFFFFFFFFFFFFFFFFFFFFFFFFFFF AND DUP7 PUSH20 0xFFFFFFFFFFFFFFFFFFFFFFFFFFFFFFFFFFFFFFFF AND EQ ISZERO PUSH1 0x40 MLOAD DUP1 PUSH1 0x40 ADD PUSH1 0x40 MSTORE DUP1 PUSH1 0x6 DUP2 MSTORE PUSH1 0x20 ADD PUSH32 0x3030333030310000000000000000000000000000000000000000000000000000 DUP2 MSTORE POP SWAP1 PUSH2 0xD90 JUMPI PUSH1 0x40 MLOAD PUSH32 0x8C379A000000000000000000000000000000000000000000000000000000000 DUP2 MSTORE PUSH1 0x4 ADD PUSH2 0xD87 SWAP2 SWAP1 PUSH2 0x2564 JUMP JUMPDEST PUSH1 0x40 MLOAD DUP1 SWAP2 SUB SWAP1 REVERT JUMPDEST POP PUSH2 0xD9B DUP7 DUP7 PUSH2 0x169F JUMP JUMPDEST POP POP POP POP POP POP POP JUMP JUMPDEST PUSH2 0xDBE DUP4 DUP4 DUP4 PUSH1 0x40 MLOAD DUP1 PUSH1 0x20 ADD PUSH1 0x40 MSTORE DUP1 PUSH0 DUP2 MSTORE POP PUSH2 0x1750 JUMP JUMPDEST POP POP POP JUMP JUMPDEST PUSH0 PUSH1 0x1 PUSH0 DUP4 DUP2 MSTORE PUSH1 0x20 ADD SWAP1 DUP2 MSTORE PUSH1 0x20 ADD PUSH0 KECCAK256 PUSH0 SWAP1 SLOAD SWAP1 PUSH2 0x100 EXP SWAP1 DIV PUSH20 0xFFFFFFFFFFFFFFFFFFFFFFFFFFFFFFFFFFFFFFFF AND SWAP1 POP PUSH0 PUSH20 0xFFFFFFFFFFFFFFFFFFFFFFFFFFFFFFFFFFFFFFFF AND DUP2 PUSH20 0xFFFFFFFFFFFFFFFFFFFFFFFFFFFFFFFFFFFFFFFF AND EQ ISZERO PUSH1 0x40 MLOAD DUP1 PUSH1 0x40 ADD PUSH1 0x40 MSTORE DUP1 PUSH1 0x6 DUP2 MSTORE PUSH1 0x20 ADD PUSH32 0x3030333030320000000000000000000000000000000000000000000000000000 DUP2 MSTORE POP SWAP1 PUSH2 0xE9E JUMPI PUSH1 0x40 MLOAD PUSH32 0x8C379A000000000000000000000000000000000000000000000000000000000 DUP2 MSTORE PUSH1 0x4 ADD PUSH2 0xE95 SWAP2 SWAP1 PUSH2 0x2564 JUMP JUMPDEST PUSH1 0x40 MLOAD DUP1 SWAP2 SUB SWAP1 REVERT JUMPDEST POP SWAP2 SWAP1 POP JUMP JUMPDEST PUSH0 DUP1 PUSH20 0xFFFFFFFFFFFFFFFFFFFFFFFFFFFFFFFFFFFFFFFF AND DUP3 PUSH20 0xFFFFFFFFFFFFFFFFFFFFFFFFFFFFFFFFFFFFFFFF AND EQ ISZERO PUSH1 0x40 MLOAD DUP1 PUSH1 0x40 ADD PUSH1 0x40 MSTORE DUP1 PUSH1 0x6 DUP2 MSTORE PUSH1 0x20 ADD PUSH32 0x3030333030310000000000000000000000000000000000000000000000000000 DUP2 MSTORE POP SWAP1 PUSH2 0xF4C JUMPI PUSH1 0x40 MLOAD PUSH32 0x8C379A000000000000000000000000000000000000000000000000000000000 DUP2 MSTORE PUSH1 0x4 ADD PUSH2 0xF43 SWAP2 SWAP1 PUSH2 0x2564 JUMP JUMPDEST PUSH1 0x40 MLOAD DUP1 SWAP2 SUB SWAP1 REVERT JUMPDEST POP PUSH2 0xF56 DUP3 PUSH2 0x1CF6 JUMP JUMPDEST SWAP1 POP SWAP2 SWAP1 POP JUMP JUMPDEST PUSH1 0x40 MLOAD DUP1 PUSH1 0x40 ADD PUSH1 0x40 MSTORE DUP1 PUSH1 0x6 DUP2 MSTORE PUSH1 0x20 ADD PUSH32 0x3031383030320000000000000000000000000000000000000000000000000000 DUP2 MSTORE POP DUP2 JUMP JUMPDEST PUSH1 0x8 PUSH0 SWAP1 SLOAD SWAP1 PUSH2 0x100 EXP SWAP1 DIV PUSH20 0xFFFFFFFFFFFFFFFFFFFFFFFFFFFFFFFFFFFFFFFF AND DUP2 JUMP JUMPDEST PUSH1 0x60 PUSH1 0x6 DUP1 SLOAD PUSH2 0xFCA SWAP1 PUSH2 0x29C3 JUMP JUMPDEST DUP1 PUSH1 0x1F ADD PUSH1 0x20 DUP1 SWAP2 DIV MUL PUSH1 0x20 ADD PUSH1 0x40 MLOAD SWAP1 DUP2 ADD PUSH1 0x40 MSTORE DUP1 SWAP3 SWAP2 SWAP1 DUP2 DUP2 MSTORE PUSH1 0x20 ADD DUP3 DUP1 SLOAD PUSH2 0xFF6 SWAP1 PUSH2 0x29C3 JUMP JUMPDEST DUP1 ISZERO PUSH2 0x1041 JUMPI DUP1 PUSH1 0x1F LT PUSH2 0x1018 JUMPI PUSH2 0x100 DUP1 DUP4 SLOAD DIV MUL DUP4 MSTORE SWAP2 PUSH1 0x20 ADD SWAP2 PUSH2 0x1041 JUMP JUMPDEST DUP3 ADD SWAP2 SWAP1 PUSH0 MSTORE PUSH1 0x20 PUSH0 KECCAK256 SWAP1 JUMPDEST DUP2 SLOAD DUP2 MSTORE SWAP1 PUSH1 0x1 ADD SWAP1 PUSH1 0x20 ADD DUP1 DUP4 GT PUSH2 0x1024 JUMPI DUP3 SWAP1 SUB PUSH1 0x1F AND DUP3 ADD SWAP2 JUMPDEST POP POP POP POP POP SWAP1 POP SWAP1 JUMP JUMPDEST DUP1 PUSH1 0x4 PUSH0 CALLER PUSH20 0xFFFFFFFFFFFFFFFFFFFFFFFFFFFFFFFFFFFFFFFF AND PUSH20 0xFFFFFFFFFFFFFFFFFFFFFFFFFFFFFFFFFFFFFFFF AND DUP2 MSTORE PUSH1 0x20 ADD SWAP1 DUP2 MSTORE PUSH1 0x20 ADD PUSH0 KECCAK256 PUSH0 DUP5 PUSH20 0xFFFFFFFFFFFFFFFFFFFFFFFFFFFFFFFFFFFFFFFF AND PUSH20 0xFFFFFFFFFFFFFFFFFFFFFFFFFFFFFFFFFFFFFFFF AND DUP2 MSTORE PUSH1 0x20 ADD SWAP1 DUP2 MSTORE PUSH1 0x20 ADD PUSH0 KECCAK256 PUSH0 PUSH2 0x100 EXP DUP2 SLOAD DUP2 PUSH1 0xFF MUL NOT AND SWAP1 DUP4 ISZERO ISZERO MUL OR SWAP1 SSTORE POP DUP2 PUSH20 0xFFFFFFFFFFFFFFFFFFFFFFFFFFFFFFFFFFFFFFFF AND CALLER PUSH20 0xFFFFFFFFFFFFFFFFFFFFFFFFFFFFFFFFFFFFFFFF AND PUSH32 0x17307EAB39AB6107E8899845AD3D59BD9653F200F220920489CA2B5937696C31 DUP4 PUSH1 0x40 MLOAD PUSH2 0x1137 SWAP2 SWAP1 PUSH2 0x24C1 JUMP JUMPDEST PUSH1 0x40 MLOAD DUP1 SWAP2 SUB SWAP1 LOG3 POP POP JUMP JUMPDEST PUSH2 0x1192 DUP6 DUP6 DUP6 DUP6 DUP6 DUP1 DUP1 PUSH1 0x1F ADD PUSH1 0x20 DUP1 SWAP2 DIV MUL PUSH1 0x20 ADD PUSH1 0x40 MLOAD SWAP1 DUP2 ADD PUSH1 0x40 MSTORE DUP1 SWAP4 SWAP3 SWAP2 SWAP1 DUP2 DUP2 MSTORE PUSH1 0x20 ADD DUP4 DUP4 DUP1 DUP3 DUP5 CALLDATACOPY PUSH0 DUP2 DUP5 ADD MSTORE PUSH1 0x1F NOT PUSH1 0x1F DUP3 ADD AND SWAP1 POP DUP1 DUP4 ADD SWAP3 POP POP POP POP POP POP POP PUSH2 0x1750 JUMP JUMPDEST POP POP POP POP POP JUMP JUMPDEST PUSH1 0x60 DUP2 PUSH0 PUSH20 0xFFFFFFFFFFFFFFFFFFFFFFFFFFFFFFFFFFFFFFFF AND PUSH1 0x1 PUSH0 DUP4 DUP2 MSTORE PUSH1 0x20 ADD SWAP1 DUP2 MSTORE PUSH1 0x20 ADD PUSH0 KECCAK256 PUSH0 SWAP1 SLOAD SWAP1 PUSH2 0x100 EXP SWAP1 DIV PUSH20 0xFFFFFFFFFFFFFFFFFFFFFFFFFFFFFFFFFFFFFFFF AND PUSH20 0xFFFFFFFFFFFFFFFFFFFFFFFFFFFFFFFFFFFFFFFF AND EQ ISZERO PUSH1 0x40 MLOAD DUP1 PUSH1 0x40 ADD PUSH1 0x40 MSTORE DUP1 PUSH1 0x6 DUP2 MSTORE PUSH1 0x20 ADD PUSH32 0x3030333030320000000000000000000000000000000000000000000000000000 DUP2 MSTORE POP SWAP1 PUSH2 0x1273 JUMPI PUSH1 0x40 MLOAD PUSH32 0x8C379A000000000000000000000000000000000000000000000000000000000 DUP2 MSTORE PUSH1 0x4 ADD PUSH2 0x126A SWAP2 SWAP1 PUSH2 0x2564 JUMP JUMPDEST PUSH1 0x40 MLOAD DUP1 SWAP2 SUB SWAP1 REVERT JUMPDEST POP PUSH2 0x127D DUP4 PUSH2 0x1D3C JUMP JUMPDEST SWAP2 POP POP SWAP2 SWAP1 POP JUMP JUMPDEST PUSH0 PUSH1 0x4 PUSH0 DUP5 PUSH20 0xFFFFFFFFFFFFFFFFFFFFFFFFFFFFFFFFFFFFFFFF AND PUSH20 0xFFFFFFFFFFFFFFFFFFFFFFFFFFFFFFFFFFFFFFFF AND DUP2 MSTORE PUSH1 0x20 ADD SWAP1 DUP2 MSTORE PUSH1 0x20 ADD PUSH0 KECCAK256 PUSH0 DUP4 PUSH20 0xFFFFFFFFFFFFFFFFFFFFFFFFFFFFFFFFFFFFFFFF AND PUSH20 0xFFFFFFFFFFFFFFFFFFFFFFFFFFFFFFFFFFFFFFFF AND DUP2 MSTORE PUSH1 0x20 ADD SWAP1 DUP2 MSTORE PUSH1 0x20 ADD PUSH0 KECCAK256 PUSH0 SWAP1 SLOAD SWAP1 PUSH2 0x100 EXP SWAP1 DIV PUSH1 0xFF AND SWAP1 POP SWAP3 SWAP2 POP POP JUMP JUMPDEST PUSH1 0x8 PUSH0 SWAP1 SLOAD SWAP1 PUSH2 0x100 EXP SWAP1 DIV PUSH20 0xFFFFFFFFFFFFFFFFFFFFFFFFFFFFFFFFFFFFFFFF AND PUSH20 0xFFFFFFFFFFFFFFFFFFFFFFFFFFFFFFFFFFFFFFFF AND CALLER PUSH20 0xFFFFFFFFFFFFFFFFFFFFFFFFFFFFFFFFFFFFFFFF AND EQ PUSH1 0x40 MLOAD DUP1 PUSH1 0x40 ADD PUSH1 0x40 MSTORE DUP1 PUSH1 0x6 DUP2 MSTORE PUSH1 0x20 ADD PUSH32 0x3031383030310000000000000000000000000000000000000000000000000000 DUP2 MSTORE POP SWAP1 PUSH2 0x13DA JUMPI PUSH1 0x40 MLOAD PUSH32 0x8C379A000000000000000000000000000000000000000000000000000000000 DUP2 MSTORE PUSH1 0x4 ADD PUSH2 0x13D1 SWAP2 SWAP1 PUSH2 0x2564 JUMP JUMPDEST PUSH1 0x40 MLOAD DUP1 SWAP2 SUB SWAP1 REVERT JUMPDEST POP PUSH0 PUSH20 0xFFFFFFFFFFFFFFFFFFFFFFFFFFFFFFFFFFFFFFFF AND DUP2 PUSH20 0xFFFFFFFFFFFFFFFFFFFFFFFFFFFFFFFFFFFFFFFF AND EQ ISZERO PUSH1 0x40 MLOAD DUP1 PUSH1 0x40 ADD PUSH1 0x40 MSTORE DUP1 PUSH1 0x6 DUP2 MSTORE PUSH1 0x20 ADD PUSH32 0x3031383030320000000000000000000000000000000000000000000000000000 DUP2 MSTORE POP SWAP1 PUSH2 0x1482 JUMPI PUSH1 0x40 MLOAD PUSH32 0x8C379A000000000000000000000000000000000000000000000000000000000 DUP2 MSTORE PUSH1 0x4 ADD PUSH2 0x1479 SWAP2 SWAP1 PUSH2 0x2564 JUMP JUMPDEST PUSH1 0x40 MLOAD DUP1 SWAP2 SUB SWAP1 REVERT JUMPDEST POP DUP1 PUSH20 0xFFFFFFFFFFFFFFFFFFFFFFFFFFFFFFFFFFFFFFFF AND PUSH1 0x8 PUSH0 SWAP1 SLOAD SWAP1 PUSH2 0x100 EXP SWAP1 DIV PUSH20 0xFFFFFFFFFFFFFFFFFFFFFFFFFFFFFFFFFFFFFFFF AND PUSH20 0xFFFFFFFFFFFFFFFFFFFFFFFFFFFFFFFFFFFFFFFF AND PUSH32 0x8BE0079C531659141344CD1FD0A4F28419497F9722A3DAAFE3B4186F6B6457E0 PUSH1 0x40 MLOAD PUSH1 0x40 MLOAD DUP1 SWAP2 SUB SWAP1 LOG3 DUP1 PUSH1 0x8 PUSH0 PUSH2 0x100 EXP DUP2 SLOAD DUP2 PUSH20 0xFFFFFFFFFFFFFFFFFFFFFFFFFFFFFFFFFFFFFFFF MUL NOT AND SWAP1 DUP4 PUSH20 0xFFFFFFFFFFFFFFFFFFFFFFFFFFFFFFFFFFFFFFFF AND MUL OR SWAP1 SSTORE POP POP JUMP JUMPDEST PUSH1 0x8 PUSH0 SWAP1 SLOAD SWAP1 PUSH2 0x100 EXP SWAP1 DIV PUSH20 0xFFFFFFFFFFFFFFFFFFFFFFFFFFFFFFFFFFFFFFFF AND PUSH20 0xFFFFFFFFFFFFFFFFFFFFFFFFFFFFFFFFFFFFFFFF AND CALLER PUSH20 0xFFFFFFFFFFFFFFFFFFFFFFFFFFFFFFFFFFFFFFFF AND EQ PUSH1 0x40 MLOAD DUP1 PUSH1 0x40 ADD PUSH1 0x40 MSTORE DUP1 PUSH1 0x6 DUP2 MSTORE PUSH1 0x20 ADD PUSH32 0x3031383030310000000000000000000000000000000000000000000000000000 DUP2 MSTORE POP SWAP1 PUSH2 0x1608 JUMPI PUSH1 0x40 MLOAD PUSH32 0x8C379A000000000000000000000000000000000000000000000000000000000 DUP2 MSTORE PUSH1 0x4 ADD PUSH2 0x15FF SWAP2 SWAP1 PUSH2 0x2564 JUMP JUMPDEST PUSH1 0x40 MLOAD DUP1 SWAP2 SUB SWAP1 REVERT JUMPDEST POP PUSH2 0x1613 DUP5 DUP5 PUSH2 0x1DDD JUMP JUMPDEST PUSH2 0x1660 DUP4 DUP4 DUP4 DUP1 DUP1 PUSH1 0x1F ADD PUSH1 0x20 DUP1 SWAP2 DIV MUL PUSH1 0x20 ADD PUSH1 0x40 MLOAD SWAP1 DUP2 ADD PUSH1 0x40 MSTORE DUP1 SWAP4 SWAP3 SWAP2 SWAP1 DUP2 DUP2 MSTORE PUSH1 0x20 ADD DUP4 DUP4 DUP1 DUP3 DUP5 CALLDATACOPY PUSH0 DUP2 DUP5 ADD MSTORE PUSH1 0x1F NOT PUSH1 0x1F DUP3 ADD AND SWAP1 POP DUP1 DUP4 ADD SWAP3 POP POP POP POP POP POP POP PUSH2 0x1FC5 JUMP JUMPDEST POP POP POP POP JUMP JUMPDEST PUSH1 0x40 MLOAD DUP1 PUSH1 0x40 ADD PUSH1 0x40 MSTORE DUP1 PUSH1 0x6 DUP2 MSTORE PUSH1 0x20 ADD PUSH32 0x3031383030310000000000000000000000000000000000000000000000000000 DUP2 MSTORE POP DUP2 JUMP JUMPDEST PUSH0 PUSH1 0x1 PUSH0 DUP4 DUP2 MSTORE PUSH1 0x20 ADD SWAP1 DUP2 MSTORE PUSH1 0x20 ADD PUSH0 KECCAK256 PUSH0 SWAP1 SLOAD SWAP1 PUSH2 0x100 EXP SWAP1 DIV PUSH20 0xFFFFFFFFFFFFFFFFFFFFFFFFFFFFFFFFFFFFFFFF AND SWAP1 POP PUSH2 0x16DC DUP3 PUSH2 0x20C2 JUMP JUMPDEST PUSH2 0x16E6 DUP2 DUP4 PUSH2 0x20F8 JUMP JUMPDEST PUSH2 0x16F0 DUP4 DUP4 PUSH2 0x225A JUMP JUMPDEST DUP2 DUP4 PUSH20 0xFFFFFFFFFFFFFFFFFFFFFFFFFFFFFFFFFFFFFFFF AND DUP3 PUSH20 0xFFFFFFFFFFFFFFFFFFFFFFFFFFFFFFFFFFFFFFFF AND PUSH32 0xDDF252AD1BE2C89B69C2B068FC378DAA952BA7F163C4A11628F55A4DF523B3EF PUSH1 0x40 MLOAD PUSH1 0x40 MLOAD DUP1 SWAP2 SUB SWAP1 LOG4 POP POP POP JUMP JUMPDEST DUP2 PUSH0 PUSH1 0x1 PUSH0 DUP4 DUP2 MSTORE PUSH1 0x20 ADD SWAP1 DUP2 MSTORE PUSH1 0x20 ADD PUSH0 KECCAK256 PUSH0 SWAP1 SLOAD SWAP1 PUSH2 0x100 EXP SWAP1 DIV PUSH20 0xFFFFFFFFFFFFFFFFFFFFFFFFFFFFFFFFFFFFFFFF AND SWAP1 POP CALLER PUSH20 0xFFFFFFFFFFFFFFFFFFFFFFFFFFFFFFFFFFFFFFFF AND DUP2 PUSH20 0xFFFFFFFFFFFFFFFFFFFFFFFFFFFFFFFFFFFFFFFF AND EQ DUP1 PUSH2 0x181A JUMPI POP CALLER PUSH20 0xFFFFFFFFFFFFFFFFFFFFFFFFFFFFFFFFFFFFFFFF AND PUSH1 0x2 PUSH0 DUP5 DUP2 MSTORE PUSH1 0x20 ADD SWAP1 DUP2 MSTORE PUSH1 0x20 ADD PUSH0 KECCAK256 PUSH0 SWAP1 SLOAD SWAP1 PUSH2 0x100 EXP SWAP1 DIV PUSH20 0xFFFFFFFFFFFFFFFFFFFFFFFFFFFFFFFFFFFFFFFF AND PUSH20 0xFFFFFFFFFFFFFFFFFFFFFFFFFFFFFFFFFFFFFFFF AND EQ JUMPDEST DUP1 PUSH2 0x18A6 JUMPI POP PUSH1 0x4 PUSH0 DUP3 PUSH20 0xFFFFFFFFFFFFFFFFFFFFFFFFFFFFFFFFFFFFFFFF AND PUSH20 0xFFFFFFFFFFFFFFFFFFFFFFFFFFFFFFFFFFFFFFFF AND DUP2 MSTORE PUSH1 0x20 ADD SWAP1 DUP2 MSTORE PUSH1 0x20 ADD PUSH0 KECCAK256 PUSH0 CALLER PUSH20 0xFFFFFFFFFFFFFFFFFFFFFFFFFFFFFFFFFFFFFFFF AND PUSH20 0xFFFFFFFFFFFFFFFFFFFFFFFFFFFFFFFFFFFFFFFF AND DUP2 MSTORE PUSH1 0x20 ADD SWAP1 DUP2 MSTORE PUSH1 0x20 ADD PUSH0 KECCAK256 PUSH0 SWAP1 SLOAD SWAP1 PUSH2 0x100 EXP SWAP1 DIV PUSH1 0xFF AND JUMPDEST PUSH1 0x40 MLOAD DUP1 PUSH1 0x40 ADD PUSH1 0x40 MSTORE DUP1 PUSH1 0x6 DUP2 MSTORE PUSH1 0x20 ADD PUSH32 0x3030333030340000000000000000000000000000000000000000000000000000 DUP2 MSTORE POP SWAP1 PUSH2 0x191D JUMPI PUSH1 0x40 MLOAD PUSH32 0x8C379A000000000000000000000000000000000000000000000000000000000 DUP2 MSTORE PUSH1 0x4 ADD PUSH2 0x1914 SWAP2 SWAP1 PUSH2 0x2564 JUMP JUMPDEST PUSH1 0x40 MLOAD DUP1 SWAP2 SUB SWAP1 REVERT JUMPDEST POP DUP4 PUSH0 PUSH20 0xFFFFFFFFFFFFFFFFFFFFFFFFFFFFFFFFFFFFFFFF AND PUSH1 0x1 PUSH0 DUP4 DUP2 MSTORE PUSH1 0x20 ADD SWAP1 DUP2 MSTORE PUSH1 0x20 ADD PUSH0 KECCAK256 PUSH0 SWAP1 SLOAD SWAP1 PUSH2 0x100 EXP SWAP1 DIV PUSH20 0xFFFFFFFFFFFFFFFFFFFFFFFFFFFFFFFFFFFFFFFF AND PUSH20 0xFFFFFFFFFFFFFFFFFFFFFFFFFFFFFFFFFFFFFFFF AND EQ ISZERO PUSH1 0x40 MLOAD DUP1 PUSH1 0x40 ADD PUSH1 0x40 MSTORE DUP1 PUSH1 0x6 DUP2 MSTORE PUSH1 0x20 ADD PUSH32 0x3030333030320000000000000000000000000000000000000000000000000000 DUP2 MSTORE POP SWAP1 PUSH2 0x19F6 JUMPI PUSH1 0x40 MLOAD PUSH32 0x8C379A000000000000000000000000000000000000000000000000000000000 DUP2 MSTORE PUSH1 0x4 ADD PUSH2 0x19ED SWAP2 SWAP1 PUSH2 0x2564 JUMP JUMPDEST PUSH1 0x40 MLOAD DUP1 SWAP2 SUB SWAP1 REVERT JUMPDEST POP PUSH0 PUSH1 0x1 PUSH0 DUP8 DUP2 MSTORE PUSH1 0x20 ADD SWAP1 DUP2 MSTORE PUSH1 0x20 ADD PUSH0 KECCAK256 PUSH0 SWAP1 SLOAD SWAP1 PUSH2 0x100 EXP SWAP1 DIV PUSH20 0xFFFFFFFFFFFFFFFFFFFFFFFFFFFFFFFFFFFFFFFF AND SWAP1 POP DUP8 PUSH20 0xFFFFFFFFFFFFFFFFFFFFFFFFFFFFFFFFFFFFFFFF AND DUP2 PUSH20 0xFFFFFFFFFFFFFFFFFFFFFFFFFFFFFFFFFFFFFFFF AND EQ PUSH1 0x40 MLOAD DUP1 PUSH1 0x40 ADD PUSH1 0x40 MSTORE DUP1 PUSH1 0x6 DUP2 MSTORE PUSH1 0x20 ADD PUSH32 0x3030333030370000000000000000000000000000000000000000000000000000 DUP2 MSTORE POP SWAP1 PUSH2 0x1AD1 JUMPI PUSH1 0x40 MLOAD PUSH32 0x8C379A000000000000000000000000000000000000000000000000000000000 DUP2 MSTORE PUSH1 0x4 ADD PUSH2 0x1AC8 SWAP2 SWAP1 PUSH2 0x2564 JUMP JUMPDEST PUSH1 0x40 MLOAD DUP1 SWAP2 SUB SWAP1 REVERT JUMPDEST POP PUSH0 PUSH20 0xFFFFFFFFFFFFFFFFFFFFFFFFFFFFFFFFFFFFFFFF AND DUP8 PUSH20 0xFFFFFFFFFFFFFFFFFFFFFFFFFFFFFFFFFFFFFFFF AND EQ ISZERO PUSH1 0x40 MLOAD DUP1 PUSH1 0x40 ADD PUSH1 0x40 MSTORE DUP1 PUSH1 0x6 DUP2 MSTORE PUSH1 0x20 ADD PUSH32 0x3030333030310000000000000000000000000000000000000000000000000000 DUP2 MSTORE POP SWAP1 PUSH2 0x1B79 JUMPI PUSH1 0x40 MLOAD PUSH32 0x8C379A000000000000000000000000000000000000000000000000000000000 DUP2 MSTORE PUSH1 0x4 ADD PUSH2 0x1B70 SWAP2 SWAP1 PUSH2 0x2564 JUMP JUMPDEST PUSH1 0x40 MLOAD DUP1 SWAP2 SUB SWAP1 REVERT JUMPDEST POP PUSH2 0x1B84 DUP8 DUP8 PUSH2 0x169F JUMP JUMPDEST PUSH2 0x1BA3 DUP8 PUSH20 0xFFFFFFFFFFFFFFFFFFFFFFFFFFFFFFFFFFFFFFFF AND PUSH2 0x23D8 JUMP JUMPDEST ISZERO PUSH2 0x1CEC JUMPI PUSH0 DUP8 PUSH20 0xFFFFFFFFFFFFFFFFFFFFFFFFFFFFFFFFFFFFFFFF AND PUSH4 0x150B7A02 CALLER DUP12 DUP11 DUP11 PUSH1 0x40 MLOAD DUP6 PUSH4 0xFFFFFFFF AND PUSH1 0xE0 SHL DUP2 MSTORE PUSH1 0x4 ADD PUSH2 0x1BE8 SWAP5 SWAP4 SWAP3 SWAP2 SWAP1 PUSH2 0x2A45 JUMP JUMPDEST PUSH1 0x20 PUSH1 0x40 MLOAD DUP1 DUP4 SUB DUP2 PUSH0 DUP8 GAS CALL ISZERO DUP1 ISZERO PUSH2 0x1C04 JUMPI RETURNDATASIZE PUSH0 DUP1 RETURNDATACOPY RETURNDATASIZE PUSH0 REVERT JUMPDEST POP POP POP POP PUSH1 0x40 MLOAD RETURNDATASIZE PUSH1 0x1F NOT PUSH1 0x1F DUP3 ADD AND DUP3 ADD DUP1 PUSH1 0x40 MSTORE POP DUP2 ADD SWAP1 PUSH2 0x1C28 SWAP2 SWAP1 PUSH2 0x2AA3 JUMP JUMPDEST SWAP1 POP PUSH4 0x150B7A02 PUSH1 0xE0 SHL PUSH28 0xFFFFFFFFFFFFFFFFFFFFFFFFFFFFFFFFFFFFFFFFFFFFFFFFFFFFFFFF NOT AND DUP2 PUSH28 0xFFFFFFFFFFFFFFFFFFFFFFFFFFFFFFFFFFFFFFFFFFFFFFFFFFFFFFFF NOT AND EQ PUSH1 0x40 MLOAD DUP1 PUSH1 0x40 ADD PUSH1 0x40 MSTORE DUP1 PUSH1 0x6 DUP2 MSTORE PUSH1 0x20 ADD PUSH32 0x3030333030350000000000000000000000000000000000000000000000000000 DUP2 MSTORE POP SWAP1 PUSH2 0x1CE9 JUMPI PUSH1 0x40 MLOAD PUSH32 0x8C379A000000000000000000000000000000000000000000000000000000000 DUP2 MSTORE PUSH1 0x4 ADD PUSH2 0x1CE0 SWAP2 SWAP1 PUSH2 0x2564 JUMP JUMPDEST PUSH1 0x40 MLOAD DUP1 SWAP2 SUB SWAP1 REVERT JUMPDEST POP POP JUMPDEST POP POP POP POP POP POP POP POP JUMP JUMPDEST PUSH0 PUSH1 0x3 PUSH0 DUP4 PUSH20 0xFFFFFFFFFFFFFFFFFFFFFFFFFFFFFFFFFFFFFFFF AND PUSH20 0xFFFFFFFFFFFFFFFFFFFFFFFFFFFFFFFFFFFFFFFF AND DUP2 MSTORE PUSH1 0x20 ADD SWAP1 DUP2 MSTORE PUSH1 0x20 ADD PUSH0 KECCAK256 SLOAD SWAP1 POP SWAP2 SWAP1 POP JUMP JUMPDEST PUSH1 0x60 PUSH1 0x7 PUSH0 DUP4 DUP2 MSTORE PUSH1 0x20 ADD SWAP1 DUP2 MSTORE PUSH1 0x20 ADD PUSH0 KECCAK256 DUP1 SLOAD PUSH2 0x1D5A SWAP1 PUSH2 0x29C3 JUMP JUMPDEST DUP1 PUSH1 0x1F ADD PUSH1 0x20 DUP1 SWAP2 DIV MUL PUSH1 0x20 ADD PUSH1 0x40 MLOAD SWAP1 DUP2 ADD PUSH1 0x40 MSTORE DUP1 SWAP3 SWAP2 SWAP1 DUP2 DUP2 MSTORE PUSH1 0x20 ADD DUP3 DUP1 SLOAD PUSH2 0x1D86 SWAP1 PUSH2 0x29C3 JUMP JUMPDEST DUP1 ISZERO PUSH2 0x1DD1 JUMPI DUP1 PUSH1 0x1F LT PUSH2 0x1DA8 JUMPI PUSH2 0x100 DUP1 DUP4 SLOAD DIV MUL DUP4 MSTORE SWAP2 PUSH1 0x20 ADD SWAP2 PUSH2 0x1DD1 JUMP JUMPDEST DUP3 ADD SWAP2 SWAP1 PUSH0 MSTORE PUSH1 0x20 PUSH0 KECCAK256 SWAP1 JUMPDEST DUP2 SLOAD DUP2 MSTORE SWAP1 PUSH1 0x1 ADD SWAP1 PUSH1 0x20 ADD DUP1 DUP4 GT PUSH2 0x1DB4 JUMPI DUP3 SWAP1 SUB PUSH1 0x1F AND DUP3 ADD SWAP2 JUMPDEST POP POP POP POP POP SWAP1 POP SWAP2 SWAP1 POP JUMP JUMPDEST PUSH0 PUSH20 0xFFFFFFFFFFFFFFFFFFFFFFFFFFFFFFFFFFFFFFFF AND DUP3 PUSH20 0xFFFFFFFFFFFFFFFFFFFFFFFFFFFFFFFFFFFFFFFF AND EQ ISZERO PUSH1 0x40 MLOAD DUP1 PUSH1 0x40 ADD PUSH1 0x40 MSTORE DUP1 PUSH1 0x6 DUP2 MSTORE PUSH1 0x20 ADD PUSH32 0x3030333030310000000000000000000000000000000000000000000000000000 DUP2 MSTORE POP SWAP1 PUSH2 0x1E84 JUMPI PUSH1 0x40 MLOAD PUSH32 0x8C379A000000000000000000000000000000000000000000000000000000000 DUP2 MSTORE PUSH1 0x4 ADD PUSH2 0x1E7B SWAP2 SWAP1 PUSH2 0x2564 JUMP JUMPDEST PUSH1 0x40 MLOAD DUP1 SWAP2 SUB SWAP1 REVERT JUMPDEST POP PUSH0 PUSH20 0xFFFFFFFFFFFFFFFFFFFFFFFFFFFFFFFFFFFFFFFF AND PUSH1 0x1 PUSH0 DUP4 DUP2 MSTORE PUSH1 0x20 ADD SWAP1 DUP2 MSTORE PUSH1 0x20 ADD PUSH0 KECCAK256 PUSH0 SWAP1 SLOAD SWAP1 PUSH2 0x100 EXP SWAP1 DIV PUSH20 0xFFFFFFFFFFFFFFFFFFFFFFFFFFFFFFFFFFFFFFFF AND PUSH20 0xFFFFFFFFFFFFFFFFFFFFFFFFFFFFFFFFFFFFFFFF AND EQ PUSH1 0x40 MLOAD DUP1 PUSH1 0x40 ADD PUSH1 0x40 MSTORE DUP1 PUSH1 0x6 DUP2 MSTORE PUSH1 0x20 ADD PUSH32 0x3030333030360000000000000000000000000000000000000000000000000000 DUP2 MSTORE POP SWAP1 PUSH2 0x1F5B JUMPI PUSH1 0x40 MLOAD PUSH32 0x8C379A000000000000000000000000000000000000000000000000000000000 DUP2 MSTORE PUSH1 0x4 ADD PUSH2 0x1F52 SWAP2 SWAP1 PUSH2 0x2564 JUMP JUMPDEST PUSH1 0x40 MLOAD DUP1 SWAP2 SUB SWAP1 REVERT JUMPDEST POP PUSH2 0x1F66 DUP3 DUP3 PUSH2 0x225A JUMP JUMPDEST DUP1 DUP3 PUSH20 0xFFFFFFFFFFFFFFFFFFFFFFFFFFFFFFFFFFFFFFFF AND PUSH0 PUSH20 0xFFFFFFFFFFFFFFFFFFFFFFFFFFFFFFFFFFFFFFFF AND PUSH32 0xDDF252AD1BE2C89B69C2B068FC378DAA952BA7F163C4A11628F55A4DF523B3EF PUSH1 0x40 MLOAD PUSH1 0x40 MLOAD DUP1 SWAP2 SUB SWAP1 LOG4 POP POP JUMP JUMPDEST DUP2 PUSH0 PUSH20 0xFFFFFFFFFFFFFFFFFFFFFFFFFFFFFFFFFFFFFFFF AND PUSH1 0x1 PUSH0 DUP4 DUP2 MSTORE PUSH1 0x20 ADD SWAP1 DUP2 MSTORE PUSH1 0x20 ADD PUSH0 KECCAK256 PUSH0 SWAP1 SLOAD SWAP1 PUSH2 0x100 EXP SWAP1 DIV PUSH20 0xFFFFFFFFFFFFFFFFFFFFFFFFFFFFFFFFFFFFFFFF AND PUSH20 0xFFFFFFFFFFFFFFFFFFFFFFFFFFFFFFFFFFFFFFFF AND EQ ISZERO PUSH1 0x40 MLOAD DUP1 PUSH1 0x40 ADD PUSH1 0x40 MSTORE DUP1 PUSH1 0x6 DUP2 MSTORE PUSH1 0x20 ADD PUSH32 0x3030333030320000000000000000000000000000000000000000000000000000 DUP2 MSTORE POP SWAP1 PUSH2 0x209D JUMPI PUSH1 0x40 MLOAD PUSH32 0x8C379A000000000000000000000000000000000000000000000000000000000 DUP2 MSTORE PUSH1 0x4 ADD PUSH2 0x2094 SWAP2 SWAP1 PUSH2 0x2564 JUMP JUMPDEST PUSH1 0x40 MLOAD DUP1 SWAP2 SUB SWAP1 REVERT JUMPDEST POP DUP2 PUSH1 0x7 PUSH0 DUP6 DUP2 MSTORE PUSH1 0x20 ADD SWAP1 DUP2 MSTORE PUSH1 0x20 ADD PUSH0 KECCAK256 SWAP1 DUP2 PUSH2 0x20BC SWAP2 SWAP1 PUSH2 0x2C98 JUMP JUMPDEST POP POP POP POP JUMP JUMPDEST PUSH1 0x2 PUSH0 DUP3 DUP2 MSTORE PUSH1 0x20 ADD SWAP1 DUP2 MSTORE PUSH1 0x20 ADD PUSH0 KECCAK256 PUSH0 PUSH2 0x100 EXP DUP2 SLOAD SWAP1 PUSH20 0xFFFFFFFFFFFFFFFFFFFFFFFFFFFFFFFFFFFFFFFF MUL NOT AND SWAP1 SSTORE POP JUMP JUMPDEST DUP2 PUSH20 0xFFFFFFFFFFFFFFFFFFFFFFFFFFFFFFFFFFFFFFFF AND PUSH1 0x1 PUSH0 DUP4 DUP2 MSTORE PUSH1 0x20 ADD SWAP1 DUP2 MSTORE PUSH1 0x20 ADD PUSH0 KECCAK256 PUSH0 SWAP1 SLOAD SWAP1 PUSH2 0x100 EXP SWAP1 DIV PUSH20 0xFFFFFFFFFFFFFFFFFFFFFFFFFFFFFFFFFFFFFFFF AND PUSH20 0xFFFFFFFFFFFFFFFFFFFFFFFFFFFFFFFFFFFFFFFF AND EQ PUSH1 0x40 MLOAD DUP1 PUSH1 0x40 ADD PUSH1 0x40 MSTORE DUP1 PUSH1 0x6 DUP2 MSTORE PUSH1 0x20 ADD PUSH32 0x3030333030370000000000000000000000000000000000000000000000000000 DUP2 MSTORE POP SWAP1 PUSH2 0x21CE JUMPI PUSH1 0x40 MLOAD PUSH32 0x8C379A000000000000000000000000000000000000000000000000000000000 DUP2 MSTORE PUSH1 0x4 ADD PUSH2 0x21C5 SWAP2 SWAP1 PUSH2 0x2564 JUMP JUMPDEST PUSH1 0x40 MLOAD DUP1 SWAP2 SUB SWAP1 REVERT JUMPDEST POP PUSH1 0x1 PUSH1 0x3 PUSH0 DUP5 PUSH20 0xFFFFFFFFFFFFFFFFFFFFFFFFFFFFFFFFFFFFFFFF AND PUSH20 0xFFFFFFFFFFFFFFFFFFFFFFFFFFFFFFFFFFFFFFFF AND DUP2 MSTORE PUSH1 0x20 ADD SWAP1 DUP2 MSTORE PUSH1 0x20 ADD PUSH0 KECCAK256 PUSH0 DUP3 DUP3 SLOAD PUSH2 0x221C SWAP2 SWAP1 PUSH2 0x2D94 JUMP JUMPDEST SWAP3 POP POP DUP2 SWAP1 SSTORE POP PUSH1 0x1 PUSH0 DUP3 DUP2 MSTORE PUSH1 0x20 ADD SWAP1 DUP2 MSTORE PUSH1 0x20 ADD PUSH0 KECCAK256 PUSH0 PUSH2 0x100 EXP DUP2 SLOAD SWAP1 PUSH20 0xFFFFFFFFFFFFFFFFFFFFFFFFFFFFFFFFFFFFFFFF MUL NOT AND SWAP1 SSTORE POP POP JUMP JUMPDEST PUSH0 PUSH20 0xFFFFFFFFFFFFFFFFFFFFFFFFFFFFFFFFFFFFFFFF AND PUSH1 0x1 PUSH0 DUP4 DUP2 MSTORE PUSH1 0x20 ADD SWAP1 DUP2 MSTORE PUSH1 0x20 ADD PUSH0 KECCAK256 PUSH0 SWAP1 SLOAD SWAP1 PUSH2 0x100 EXP SWAP1 DIV PUSH20 0xFFFFFFFFFFFFFFFFFFFFFFFFFFFFFFFFFFFFFFFF AND PUSH20 0xFFFFFFFFFFFFFFFFFFFFFFFFFFFFFFFFFFFFFFFF AND EQ PUSH1 0x40 MLOAD DUP1 PUSH1 0x40 ADD PUSH1 0x40 MSTORE DUP1 PUSH1 0x6 DUP2 MSTORE PUSH1 0x20 ADD PUSH32 0x3030333030360000000000000000000000000000000000000000000000000000 DUP2 MSTORE POP SWAP1 PUSH2 0x2330 JUMPI PUSH1 0x40 MLOAD PUSH32 0x8C379A000000000000000000000000000000000000000000000000000000000 DUP2 MSTORE PUSH1 0x4 ADD PUSH2 0x2327 SWAP2 SWAP1 PUSH2 0x2564 JUMP JUMPDEST PUSH1 0x40 MLOAD DUP1 SWAP2 SUB SWAP1 REVERT JUMPDEST POP DUP2 PUSH1 0x1 PUSH0 DUP4 DUP2 MSTORE PUSH1 0x20 ADD SWAP1 DUP2 MSTORE PUSH1 0x20 ADD PUSH0 KECCAK256 PUSH0 PUSH2 0x100 EXP DUP2 SLOAD DUP2 PUSH20 0xFFFFFFFFFFFFFFFFFFFFFFFFFFFFFFFFFFFFFFFF MUL NOT AND SWAP1 DUP4 PUSH20 0xFFFFFFFFFFFFFFFFFFFFFFFFFFFFFFFFFFFFFFFF AND MUL OR SWAP1 SSTORE POP PUSH1 0x1 PUSH1 0x3 PUSH0 DUP5 PUSH20 0xFFFFFFFFFFFFFFFFFFFFFFFFFFFFFFFFFFFFFFFF AND PUSH20 0xFFFFFFFFFFFFFFFFFFFFFFFFFFFFFFFFFFFFFFFF AND DUP2 MSTORE PUSH1 0x20 ADD SWAP1 DUP2 MSTORE PUSH1 0x20 ADD PUSH0 KECCAK256 PUSH0 DUP3 DUP3 SLOAD PUSH2 0x23CD SWAP2 SWAP1 PUSH2 0x2DC7 JUMP JUMPDEST SWAP3 POP POP DUP2 SWAP1 SSTORE POP POP POP JUMP JUMPDEST PUSH0 DUP1 PUSH0 PUSH32 0xC5D2460186F7233C927E7DB2DCC703C0E500B653CA82273B7BFAD8045D85A470 PUSH0 SHL SWAP1 POP DUP4 EXTCODEHASH SWAP2 POP PUSH0 DUP1 SHL DUP3 EQ ISZERO DUP1 ISZERO PUSH2 0x2416 JUMPI POP DUP1 DUP3 EQ ISZERO JUMPDEST SWAP3 POP POP POP SWAP2 SWAP1 POP JUMP JUMPDEST PUSH0 DUP1 REVERT JUMPDEST PUSH0 DUP1 REVERT JUMPDEST PUSH0 PUSH32 0xFFFFFFFF00000000000000000000000000000000000000000000000000000000 DUP3 AND SWAP1 POP SWAP2 SWAP1 POP JUMP JUMPDEST PUSH2 0x245B DUP2 PUSH2 0x2427 JUMP JUMPDEST DUP2 EQ PUSH2 0x2465 JUMPI PUSH0 DUP1 REVERT JUMPDEST POP JUMP JUMPDEST PUSH0 DUP2 CALLDATALOAD SWAP1 POP PUSH2 0x2476 DUP2 PUSH2 0x2452 JUMP JUMPDEST SWAP3 SWAP2 POP POP JUMP JUMPDEST PUSH0 PUSH1 0x20 DUP3 DUP5 SUB SLT ISZERO PUSH2 0x2491 JUMPI PUSH2 0x2490 PUSH2 0x241F JUMP JUMPDEST JUMPDEST PUSH0 PUSH2 0x249E DUP5 DUP3 DUP6 ADD PUSH2 0x2468 JUMP JUMPDEST SWAP2 POP POP SWAP3 SWAP2 POP POP JUMP JUMPDEST PUSH0 DUP2 ISZERO ISZERO SWAP1 POP SWAP2 SWAP1 POP JUMP JUMPDEST PUSH2 0x24BB DUP2 PUSH2 0x24A7 JUMP JUMPDEST DUP3 MSTORE POP POP JUMP JUMPDEST PUSH0 PUSH1 0x20 DUP3 ADD SWAP1 POP PUSH2 0x24D4 PUSH0 DUP4 ADD DUP5 PUSH2 0x24B2 JUMP JUMPDEST SWAP3 SWAP2 POP POP JUMP JUMPDEST PUSH0 DUP2 MLOAD SWAP1 POP SWAP2 SWAP1 POP JUMP JUMPDEST PUSH0 DUP3 DUP3 MSTORE PUSH1 0x20 DUP3 ADD SWAP1 POP SWAP3 SWAP2 POP POP JUMP JUMPDEST PUSH0 JUMPDEST DUP4 DUP2 LT ISZERO PUSH2 0x2511 JUMPI DUP1 DUP3 ADD MLOAD DUP2 DUP5 ADD MSTORE PUSH1 0x20 DUP2 ADD SWAP1 POP PUSH2 0x24F6 JUMP JUMPDEST PUSH0 DUP5 DUP5 ADD MSTORE POP POP POP POP JUMP JUMPDEST PUSH0 PUSH1 0x1F NOT PUSH1 0x1F DUP4 ADD AND SWAP1 POP SWAP2 SWAP1 POP JUMP JUMPDEST PUSH0 PUSH2 0x2536 DUP3 PUSH2 0x24DA JUMP JUMPDEST PUSH2 0x2540 DUP2 DUP6 PUSH2 0x24E4 JUMP JUMPDEST SWAP4 POP PUSH2 0x2550 DUP2 DUP6 PUSH1 0x20 DUP7 ADD PUSH2 0x24F4 JUMP JUMPDEST PUSH2 0x2559 DUP2 PUSH2 0x251C JUMP JUMPDEST DUP5 ADD SWAP2 POP POP SWAP3 SWAP2 POP POP JUMP JUMPDEST PUSH0 PUSH1 0x20 DUP3 ADD SWAP1 POP DUP2 DUP2 SUB PUSH0 DUP4 ADD MSTORE PUSH2 0x257C DUP2 DUP5 PUSH2 0x252C JUMP JUMPDEST SWAP1 POP SWAP3 SWAP2 POP POP JUMP JUMPDEST PUSH0 DUP2 SWAP1 POP SWAP2 SWAP1 POP JUMP JUMPDEST PUSH2 0x2596 DUP2 PUSH2 0x2584 JUMP JUMPDEST DUP2 EQ PUSH2 0x25A0 JUMPI PUSH0 DUP1 REVERT JUMPDEST POP JUMP JUMPDEST PUSH0 DUP2 CALLDATALOAD SWAP1 POP PUSH2 0x25B1 DUP2 PUSH2 0x258D JUMP JUMPDEST SWAP3 SWAP2 POP POP JUMP JUMPDEST PUSH0 PUSH1 0x20 DUP3 DUP5 SUB SLT ISZERO PUSH2 0x25CC JUMPI PUSH2 0x25CB PUSH2 0x241F JUMP JUMPDEST JUMPDEST PUSH0 PUSH2 0x25D9 DUP5 DUP3 DUP6 ADD PUSH2 0x25A3 JUMP JUMPDEST SWAP2 POP POP SWAP3 SWAP2 POP POP JUMP JUMPDEST PUSH0 PUSH20 0xFFFFFFFFFFFFFFFFFFFFFFFFFFFFFFFFFFFFFFFF DUP3 AND SWAP1 POP SWAP2 SWAP1 POP JUMP JUMPDEST PUSH0 PUSH2 0x260B DUP3 PUSH2 0x25E2 JUMP JUMPDEST SWAP1 POP SWAP2 SWAP1 POP JUMP JUMPDEST PUSH2 0x261B DUP2 PUSH2 0x2601 JUMP JUMPDEST DUP3 MSTORE POP POP JUMP JUMPDEST PUSH0 PUSH1 0x20 DUP3 ADD SWAP1 POP PUSH2 0x2634 PUSH0 DUP4 ADD DUP5 PUSH2 0x2612 JUMP JUMPDEST SWAP3 SWAP2 POP POP JUMP JUMPDEST PUSH2 0x2643 DUP2 PUSH2 0x2601 JUMP JUMPDEST DUP2 EQ PUSH2 0x264D JUMPI PUSH0 DUP1 REVERT JUMPDEST POP JUMP JUMPDEST PUSH0 DUP2 CALLDATALOAD SWAP1 POP PUSH2 0x265E DUP2 PUSH2 0x263A JUMP JUMPDEST SWAP3 SWAP2 POP POP JUMP JUMPDEST PUSH0 DUP1 PUSH1 0x40 DUP4 DUP6 SUB SLT ISZERO PUSH2 0x267A JUMPI PUSH2 0x2679 PUSH2 0x241F JUMP JUMPDEST JUMPDEST PUSH0 PUSH2 0x2687 DUP6 DUP3 DUP7 ADD PUSH2 0x2650 JUMP JUMPDEST SWAP3 POP POP PUSH1 0x20 PUSH2 0x2698 DUP6 DUP3 DUP7 ADD PUSH2 0x25A3 JUMP JUMPDEST SWAP2 POP POP SWAP3 POP SWAP3 SWAP1 POP JUMP JUMPDEST PUSH0 DUP1 PUSH0 PUSH1 0x60 DUP5 DUP7 SUB SLT ISZERO PUSH2 0x26B9 JUMPI PUSH2 0x26B8 PUSH2 0x241F JUMP JUMPDEST JUMPDEST PUSH0 PUSH2 0x26C6 DUP7 DUP3 DUP8 ADD PUSH2 0x2650 JUMP JUMPDEST SWAP4 POP POP PUSH1 0x20 PUSH2 0x26D7 DUP7 DUP3 DUP8 ADD PUSH2 0x2650 JUMP JUMPDEST SWAP3 POP POP PUSH1 0x40 PUSH2 0x26E8 DUP7 DUP3 DUP8 ADD PUSH2 0x25A3 JUMP JUMPDEST SWAP2 POP POP SWAP3 POP SWAP3 POP SWAP3 JUMP JUMPDEST PUSH0 PUSH1 0x20 DUP3 DUP5 SUB SLT ISZERO PUSH2 0x2707 JUMPI PUSH2 0x2706 PUSH2 0x241F JUMP JUMPDEST JUMPDEST PUSH0 PUSH2 0x2714 DUP5 DUP3 DUP6 ADD PUSH2 0x2650 JUMP JUMPDEST SWAP2 POP POP SWAP3 SWAP2 POP POP JUMP JUMPDEST PUSH2 0x2726 DUP2 PUSH2 0x2584 JUMP JUMPDEST DUP3 MSTORE POP POP JUMP JUMPDEST PUSH0 PUSH1 0x20 DUP3 ADD SWAP1 POP PUSH2 0x273F PUSH0 DUP4 ADD DUP5 PUSH2 0x271D JUMP JUMPDEST SWAP3 SWAP2 POP POP JUMP JUMPDEST PUSH2 0x274E DUP2 PUSH2 0x24A7 JUMP JUMPDEST DUP2 EQ PUSH2 0x2758 JUMPI PUSH0 DUP1 REVERT JUMPDEST POP JUMP JUMPDEST PUSH0 DUP2 CALLDATALOAD SWAP1 POP PUSH2 0x2769 DUP2 PUSH2 0x2745 JUMP JUMPDEST SWAP3 SWAP2 POP POP JUMP JUMPDEST PUSH0 DUP1 PUSH1 0x40 DUP4 DUP6 SUB SLT ISZERO PUSH2 0x2785 JUMPI PUSH2 0x2784 PUSH2 0x241F JUMP JUMPDEST JUMPDEST PUSH0 PUSH2 0x2792 DUP6 DUP3 DUP7 ADD PUSH2 0x2650 JUMP JUMPDEST SWAP3 POP POP PUSH1 0x20 PUSH2 0x27A3 DUP6 DUP3 DUP7 ADD PUSH2 0x275B JUMP JUMPDEST SWAP2 POP POP SWAP3 POP SWAP3 SWAP1 POP JUMP JUMPDEST PUSH0 DUP1 REVERT JUMPDEST PUSH0 DUP1 REVERT JUMPDEST PUSH0 DUP1 REVERT JUMPDEST PUSH0 DUP1 DUP4 PUSH1 0x1F DUP5 ADD SLT PUSH2 0x27CE JUMPI PUSH2 0x27CD PUSH2 0x27AD JUMP JUMPDEST JUMPDEST DUP3 CALLDATALOAD SWAP1 POP PUSH8 0xFFFFFFFFFFFFFFFF DUP2 GT ISZERO PUSH2 0x27EB JUMPI PUSH2 0x27EA PUSH2 0x27B1 JUMP JUMPDEST JUMPDEST PUSH1 0x20 DUP4 ADD SWAP2 POP DUP4 PUSH1 0x1 DUP3 MUL DUP4 ADD GT ISZERO PUSH2 0x2807 JUMPI PUSH2 0x2806 PUSH2 0x27B5 JUMP JUMPDEST JUMPDEST SWAP3 POP SWAP3 SWAP1 POP JUMP JUMPDEST PUSH0 DUP1 PUSH0 DUP1 PUSH0 PUSH1 0x80 DUP7 DUP9 SUB SLT ISZERO PUSH2 0x2827 JUMPI PUSH2 0x2826 PUSH2 0x241F JUMP JUMPDEST JUMPDEST PUSH0 PUSH2 0x2834 DUP9 DUP3 DUP10 ADD PUSH2 0x2650 JUMP JUMPDEST SWAP6 POP POP PUSH1 0x20 PUSH2 0x2845 DUP9 DUP3 DUP10 ADD PUSH2 0x2650 JUMP JUMPDEST SWAP5 POP POP PUSH1 0x40 PUSH2 0x2856 DUP9 DUP3 DUP10 ADD PUSH2 0x25A3 JUMP JUMPDEST SWAP4 POP POP PUSH1 0x60 DUP7 ADD CALLDATALOAD PUSH8 0xFFFFFFFFFFFFFFFF DUP2 GT ISZERO PUSH2 0x2877 JUMPI PUSH2 0x2876 PUSH2 0x2423 JUMP JUMPDEST JUMPDEST PUSH2 0x2883 DUP9 DUP3 DUP10 ADD PUSH2 0x27B9 JUMP JUMPDEST SWAP3 POP SWAP3 POP POP SWAP3 SWAP6 POP SWAP3 SWAP6 SWAP1 SWAP4 POP JUMP JUMPDEST PUSH0 DUP1 PUSH1 0x40 DUP4 DUP6 SUB SLT ISZERO PUSH2 0x28A8 JUMPI PUSH2 0x28A7 PUSH2 0x241F JUMP JUMPDEST JUMPDEST PUSH0 PUSH2 0x28B5 DUP6 DUP3 DUP7 ADD PUSH2 0x2650 JUMP JUMPDEST SWAP3 POP POP PUSH1 0x20 PUSH2 0x28C6 DUP6 DUP3 DUP7 ADD PUSH2 0x2650 JUMP JUMPDEST SWAP2 POP POP SWAP3 POP SWAP3 SWAP1 POP JUMP JUMPDEST PUSH0 DUP1 DUP4 PUSH1 0x1F DUP5 ADD SLT PUSH2 0x28E5 JUMPI PUSH2 0x28E4 PUSH2 0x27AD JUMP JUMPDEST JUMPDEST DUP3 CALLDATALOAD SWAP1 POP PUSH8 0xFFFFFFFFFFFFFFFF DUP2 GT ISZERO PUSH2 0x2902 JUMPI PUSH2 0x2901 PUSH2 0x27B1 JUMP JUMPDEST JUMPDEST PUSH1 0x20 DUP4 ADD SWAP2 POP DUP4 PUSH1 0x1 DUP3 MUL DUP4 ADD GT ISZERO PUSH2 0x291E JUMPI PUSH2 0x291D PUSH2 0x27B5 JUMP JUMPDEST JUMPDEST SWAP3 POP SWAP3 SWAP1 POP JUMP JUMPDEST PUSH0 DUP1 PUSH0 DUP1 PUSH1 0x60 DUP6 DUP8 SUB SLT ISZERO PUSH2 0x293D JUMPI PUSH2 0x293C PUSH2 0x241F JUMP JUMPDEST JUMPDEST PUSH0 PUSH2 0x294A DUP8 DUP3 DUP9 ADD PUSH2 0x2650 JUMP JUMPDEST SWAP5 POP POP PUSH1 0x20 PUSH2 0x295B DUP8 DUP3 DUP9 ADD PUSH2 0x25A3 JUMP JUMPDEST SWAP4 POP POP PUSH1 0x40 DUP6 ADD CALLDATALOAD PUSH8 0xFFFFFFFFFFFFFFFF DUP2 GT ISZERO PUSH2 0x297C JUMPI PUSH2 0x297B PUSH2 0x2423 JUMP JUMPDEST JUMPDEST PUSH2 0x2988 DUP8 DUP3 DUP9 ADD PUSH2 0x28D0 JUMP JUMPDEST SWAP3 POP SWAP3 POP POP SWAP3 SWAP6 SWAP2 SWAP5 POP SWAP3 POP JUMP JUMPDEST PUSH32 0x4E487B7100000000000000000000000000000000000000000000000000000000 PUSH0 MSTORE PUSH1 0x22 PUSH1 0x4 MSTORE PUSH1 0x24 PUSH0 REVERT JUMPDEST PUSH0 PUSH1 0x2 DUP3 DIV SWAP1 POP PUSH1 0x1 DUP3 AND DUP1 PUSH2 0x29DA JUMPI PUSH1 0x7F DUP3 AND SWAP2 POP JUMPDEST PUSH1 0x20 DUP3 LT DUP2 SUB PUSH2 0x29ED JUMPI PUSH2 0x29EC PUSH2 0x2996 JUMP JUMPDEST JUMPDEST POP SWAP2 SWAP1 POP JUMP JUMPDEST PUSH0 DUP2 MLOAD SWAP1 POP SWAP2 SWAP1 POP JUMP JUMPDEST PUSH0 DUP3 DUP3 MSTORE PUSH1 0x20 DUP3 ADD SWAP1 POP SWAP3 SWAP2 POP POP JUMP JUMPDEST PUSH0 PUSH2 0x2A17 DUP3 PUSH2 0x29F3 JUMP JUMPDEST PUSH2 0x2A21 DUP2 DUP6 PUSH2 0x29FD JUMP JUMPDEST SWAP4 POP PUSH2 0x2A31 DUP2 DUP6 PUSH1 0x20 DUP7 ADD PUSH2 0x24F4 JUMP JUMPDEST PUSH2 0x2A3A DUP2 PUSH2 0x251C JUMP JUMPDEST DUP5 ADD SWAP2 POP POP SWAP3 SWAP2 POP POP JUMP JUMPDEST PUSH0 PUSH1 0x80 DUP3 ADD SWAP1 POP PUSH2 0x2A58 PUSH0 DUP4 ADD DUP8 PUSH2 0x2612 JUMP JUMPDEST PUSH2 0x2A65 PUSH1 0x20 DUP4 ADD DUP7 PUSH2 0x2612 JUMP JUMPDEST PUSH2 0x2A72 PUSH1 0x40 DUP4 ADD DUP6 PUSH2 0x271D JUMP JUMPDEST DUP2 DUP2 SUB PUSH1 0x60 DUP4 ADD MSTORE PUSH2 0x2A84 DUP2 DUP5 PUSH2 0x2A0D JUMP JUMPDEST SWAP1 POP SWAP6 SWAP5 POP POP POP POP POP JUMP JUMPDEST PUSH0 DUP2 MLOAD SWAP1 POP PUSH2 0x2A9D DUP2 PUSH2 0x2452 JUMP JUMPDEST SWAP3 SWAP2 POP POP JUMP JUMPDEST PUSH0 PUSH1 0x20 DUP3 DUP5 SUB SLT ISZERO PUSH2 0x2AB8 JUMPI PUSH2 0x2AB7 PUSH2 0x241F JUMP JUMPDEST JUMPDEST PUSH0 PUSH2 0x2AC5 DUP5 DUP3 DUP6 ADD PUSH2 0x2A8F JUMP JUMPDEST SWAP2 POP POP SWAP3 SWAP2 POP POP JUMP JUMPDEST PUSH32 0x4E487B7100000000000000000000000000000000000000000000000000000000 PUSH0 MSTORE PUSH1 0x41 PUSH1 0x4 MSTORE PUSH1 0x24 PUSH0 REVERT JUMPDEST PUSH0 DUP2 SWAP1 POP DUP2 PUSH0 MSTORE PUSH1 0x20 PUSH0 KECCAK256 SWAP1 POP SWAP2 SWAP1 POP JUMP JUMPDEST PUSH0 PUSH1 0x20 PUSH1 0x1F DUP4 ADD DIV SWAP1 POP SWAP2 SWAP1 POP JUMP JUMPDEST PUSH0 DUP3 DUP3 SHL SWAP1 POP SWAP3 SWAP2 POP POP JUMP JUMPDEST PUSH0 PUSH1 0x8 DUP4 MUL PUSH2 0x2B57 PUSH32 0xFFFFFFFFFFFFFFFFFFFFFFFFFFFFFFFFFFFFFFFFFFFFFFFFFFFFFFFFFFFFFFFF DUP3 PUSH2 0x2B1C JUMP JUMPDEST PUSH2 0x2B61 DUP7 DUP4 PUSH2 0x2B1C JUMP JUMPDEST SWAP6 POP DUP1 NOT DUP5 AND SWAP4 POP DUP1 DUP7 AND DUP5 OR SWAP3 POP POP POP SWAP4 SWAP3 POP POP POP JUMP JUMPDEST PUSH0 DUP2 SWAP1 POP SWAP2 SWAP1 POP JUMP JUMPDEST PUSH0 PUSH2 0x2B9C PUSH2 0x2B97 PUSH2 0x2B92 DUP5 PUSH2 0x2584 JUMP JUMPDEST PUSH2 0x2B79 JUMP JUMPDEST PUSH2 0x2584 JUMP JUMPDEST SWAP1 POP SWAP2 SWAP1 POP JUMP JUMPDEST PUSH0 DUP2 SWAP1 POP SWAP2 SWAP1 POP JUMP JUMPDEST PUSH2 0x2BB5 DUP4 PUSH2 0x2B82 JUMP JUMPDEST PUSH2 0x2BC9 PUSH2 0x2BC1 DUP3 PUSH2 0x2BA3 JUMP JUMPDEST DUP5 DUP5 SLOAD PUSH2 0x2B28 JUMP JUMPDEST DUP3 SSTORE POP POP POP POP JUMP JUMPDEST PUSH0 SWAP1 JUMP JUMPDEST PUSH2 0x2BDD PUSH2 0x2BD1 JUMP JUMPDEST PUSH2 0x2BE8 DUP2 DUP5 DUP5 PUSH2 0x2BAC JUMP JUMPDEST POP POP POP JUMP JUMPDEST JUMPDEST DUP2 DUP2 LT ISZERO PUSH2 0x2C0B JUMPI PUSH2 0x2C00 PUSH0 DUP3 PUSH2 0x2BD5 JUMP JUMPDEST PUSH1 0x1 DUP2 ADD SWAP1 POP PUSH2 0x2BEE JUMP JUMPDEST POP POP JUMP JUMPDEST PUSH1 0x1F DUP3 GT ISZERO PUSH2 0x2C50 JUMPI PUSH2 0x2C21 DUP2 PUSH2 0x2AFB JUMP JUMPDEST PUSH2 0x2C2A DUP5 PUSH2 0x2B0D JUMP JUMPDEST DUP2 ADD PUSH1 0x20 DUP6 LT ISZERO PUSH2 0x2C39 JUMPI DUP2 SWAP1 POP JUMPDEST PUSH2 0x2C4D PUSH2 0x2C45 DUP6 PUSH2 0x2B0D JUMP JUMPDEST DUP4 ADD DUP3 PUSH2 0x2BED JUMP JUMPDEST POP POP JUMPDEST POP POP POP JUMP JUMPDEST PUSH0 DUP3 DUP3 SHR SWAP1 POP SWAP3 SWAP2 POP POP JUMP JUMPDEST PUSH0 PUSH2 0x2C70 PUSH0 NOT DUP5 PUSH1 0x8 MUL PUSH2 0x2C55 JUMP JUMPDEST NOT DUP1 DUP4 AND SWAP2 POP POP SWAP3 SWAP2 POP POP JUMP JUMPDEST PUSH0 PUSH2 0x2C88 DUP4 DUP4 PUSH2 0x2C61 JUMP JUMPDEST SWAP2 POP DUP3 PUSH1 0x2 MUL DUP3 OR SWAP1 POP SWAP3 SWAP2 POP POP JUMP JUMPDEST PUSH2 0x2CA1 DUP3 PUSH2 0x24DA JUMP JUMPDEST PUSH8 0xFFFFFFFFFFFFFFFF DUP2 GT ISZERO PUSH2 0x2CBA JUMPI PUSH2 0x2CB9 PUSH2 0x2ACE JUMP JUMPDEST JUMPDEST PUSH2 0x2CC4 DUP3 SLOAD PUSH2 0x29C3 JUMP JUMPDEST PUSH2 0x2CCF DUP3 DUP3 DUP6 PUSH2 0x2C0F JUMP JUMPDEST PUSH0 PUSH1 0x20 SWAP1 POP PUSH1 0x1F DUP4 GT PUSH1 0x1 DUP2 EQ PUSH2 0x2D00 JUMPI PUSH0 DUP5 ISZERO PUSH2 0x2CEE JUMPI DUP3 DUP8 ADD MLOAD SWAP1 POP JUMPDEST PUSH2 0x2CF8 DUP6 DUP3 PUSH2 0x2C7D JUMP JUMPDEST DUP7 SSTORE POP PUSH2 0x2D5F JUMP JUMPDEST PUSH1 0x1F NOT DUP5 AND PUSH2 0x2D0E DUP7 PUSH2 0x2AFB JUMP JUMPDEST PUSH0 JUMPDEST DUP3 DUP2 LT ISZERO PUSH2 0x2D35 JUMPI DUP5 DUP10 ADD MLOAD DUP3 SSTORE PUSH1 0x1 DUP3 ADD SWAP2 POP PUSH1 0x20 DUP6 ADD SWAP5 POP PUSH1 0x20 DUP2 ADD SWAP1 POP PUSH2 0x2D10 JUMP JUMPDEST DUP7 DUP4 LT ISZERO PUSH2 0x2D52 JUMPI DUP5 DUP10 ADD MLOAD PUSH2 0x2D4E PUSH1 0x1F DUP10 AND DUP3 PUSH2 0x2C61 JUMP JUMPDEST DUP4 SSTORE POP JUMPDEST PUSH1 0x1 PUSH1 0x2 DUP9 MUL ADD DUP9 SSTORE POP POP POP JUMPDEST POP POP POP POP POP POP JUMP JUMPDEST PUSH32 0x4E487B7100000000000000000000000000000000000000000000000000000000 PUSH0 MSTORE PUSH1 0x11 PUSH1 0x4 MSTORE PUSH1 0x24 PUSH0 REVERT JUMPDEST PUSH0 PUSH2 0x2D9E DUP3 PUSH2 0x2584 JUMP JUMPDEST SWAP2 POP PUSH2 0x2DA9 DUP4 PUSH2 0x2584 JUMP JUMPDEST SWAP3 POP DUP3 DUP3 SUB SWAP1 POP DUP2 DUP2 GT ISZERO PUSH2 0x2DC1 JUMPI PUSH2 0x2DC0 PUSH2 0x2D67 JUMP JUMPDEST JUMPDEST SWAP3 SWAP2 POP POP JUMP JUMPDEST PUSH0 PUSH2 0x2DD1 DUP3 PUSH2 0x2584 JUMP JUMPDEST SWAP2 POP PUSH2 0x2DDC DUP4 PUSH2 0x2584 JUMP JUMPDEST SWAP3 POP DUP3 DUP3 ADD SWAP1 POP DUP1 DUP3 GT ISZERO PUSH2 0x2DF4 JUMPI PUSH2 0x2DF3 PUSH2 0x2D67 JUMP JUMPDEST JUMPDEST SWAP3 SWAP2 POP POP JUMP INVALID LOG2 PUSH5 0x6970667358 0x22 SLT KECCAK256 SWAP6 MULMOD PUSH0 CODESIZE CALLDATASIZE 0xAA SGT CREATE2 0xB4 0x24 PUSH25 0xD93BAABE7C43CA8A4683287D475965A22B758B863664736F6C PUSH4 0x43000816 STOP CALLER "
	},
	"abi": [
		{
			"inputs": [],
			"stateMutability": "nonpayable",
			"type": "constructor"
		},
		{
			"anonymous": false,
			"inputs": [
				{
					"indexed": true,
					"internalType": "address",
					"name": "_owner",
					"type": "address"
				},
				{
					"indexed": true,
					"internalType": "address",
					"name": "_approved",
					"type": "address"
				},
				{
					"indexed": true,
					"internalType": "uint256",
					"name": "_tokenId",
					"type": "uint256"
				}
			],
			"name": "Approval",
			"type": "event"
		},
		{
			"anonymous": false,
			"inputs": [
				{
					"indexed": true,
					"internalType": "address",
					"name": "_owner",
					"type": "address"
				},
				{
					"indexed": true,
					"internalType": "address",
					"name": "_operator",
					"type": "address"
				},
				{
					"indexed": false,
					"internalType": "bool",
					"name": "_approved",
					"type": "bool"
				}
			],
			"name": "ApprovalForAll",
			"type": "event"
		},
		{
			"inputs": [
				{
					"internalType": "address",
					"name": "_approved",
					"type": "address"
				},
				{
					"internalType": "uint256",
					"name": "_tokenId",
					"type": "uint256"
				}
			],
			"name": "approve",
			"outputs": [],
			"stateMutability": "nonpayable",
			"type": "function"
		},
		{
			"inputs": [
				{
					"internalType": "address",
					"name": "myaddress",
					"type": "address"
				},
				{
					"internalType": "uint256",
					"name": "tokenID",
					"type": "uint256"
				},
				{
					"internalType": "string",
					"name": "uri",
					"type": "string"
				}
			],
			"name": "metamask",
			"outputs": [],
			"stateMutability": "nonpayable",
			"type": "function"
		},
		{
			"anonymous": false,
			"inputs": [
				{
					"indexed": true,
					"internalType": "address",
					"name": "previousOwner",
					"type": "address"
				},
				{
					"indexed": true,
					"internalType": "address",
					"name": "newOwner",
					"type": "address"
				}
			],
			"name": "OwnershipTransferred",
			"type": "event"
		},
		{
			"inputs": [
				{
					"internalType": "address",
					"name": "_from",
					"type": "address"
				},
				{
					"internalType": "address",
					"name": "_to",
					"type": "address"
				},
				{
					"internalType": "uint256",
					"name": "_tokenId",
					"type": "uint256"
				}
			],
			"name": "safeTransferFrom",
			"outputs": [],
			"stateMutability": "nonpayable",
			"type": "function"
		},
		{
			"inputs": [
				{
					"internalType": "address",
					"name": "_from",
					"type": "address"
				},
				{
					"internalType": "address",
					"name": "_to",
					"type": "address"
				},
				{
					"internalType": "uint256",
					"name": "_tokenId",
					"type": "uint256"
				},
				{
					"internalType": "bytes",
					"name": "_data",
					"type": "bytes"
				}
			],
			"name": "safeTransferFrom",
			"outputs": [],
			"stateMutability": "nonpayable",
			"type": "function"
		},
		{
			"inputs": [
				{
					"internalType": "address",
					"name": "_operator",
					"type": "address"
				},
				{
					"internalType": "bool",
					"name": "_approved",
					"type": "bool"
				}
			],
			"name": "setApprovalForAll",
			"outputs": [],
			"stateMutability": "nonpayable",
			"type": "function"
		},
		{
			"anonymous": false,
			"inputs": [
				{
					"indexed": true,
					"internalType": "address",
					"name": "_from",
					"type": "address"
				},
				{
					"indexed": true,
					"internalType": "address",
					"name": "_to",
					"type": "address"
				},
				{
					"indexed": true,
					"internalType": "uint256",
					"name": "_tokenId",
					"type": "uint256"
				}
			],
			"name": "Transfer",
			"type": "event"
		},
		{
			"inputs": [
				{
					"internalType": "address",
					"name": "_from",
					"type": "address"
				},
				{
					"internalType": "address",
					"name": "_to",
					"type": "address"
				},
				{
					"internalType": "uint256",
					"name": "_tokenId",
					"type": "uint256"
				}
			],
			"name": "transferFrom",
			"outputs": [],
			"stateMutability": "nonpayable",
			"type": "function"
		},
		{
			"inputs": [
				{
					"internalType": "address",
					"name": "_newOwner",
					"type": "address"
				}
			],
			"name": "transferOwnership",
			"outputs": [],
			"stateMutability": "nonpayable",
			"type": "function"
		},
		{
			"inputs": [
				{
					"internalType": "address",
					"name": "_owner",
					"type": "address"
				}
			],
			"name": "balanceOf",
			"outputs": [
				{
					"internalType": "uint256",
					"name": "",
					"type": "uint256"
				}
			],
			"stateMutability": "view",
			"type": "function"
		},
		{
			"inputs": [],
			"name": "CANNOT_TRANSFER_TO_ZERO_ADDRESS",
			"outputs": [
				{
					"internalType": "string",
					"name": "",
					"type": "string"
				}
			],
			"stateMutability": "view",
			"type": "function"
		},
		{
			"inputs": [
				{
					"internalType": "uint256",
					"name": "_tokenId",
					"type": "uint256"
				}
			],
			"name": "getApproved",
			"outputs": [
				{
					"internalType": "address",
					"name": "",
					"type": "address"
				}
			],
			"stateMutability": "view",
			"type": "function"
		},
		{
			"inputs": [
				{
					"internalType": "address",
					"name": "_owner",
					"type": "address"
				},
				{
					"internalType": "address",
					"name": "_operator",
					"type": "address"
				}
			],
			"name": "isApprovedForAll",
			"outputs": [
				{
					"internalType": "bool",
					"name": "",
					"type": "bool"
				}
			],
			"stateMutability": "view",
			"type": "function"
		},
		{
			"inputs": [],
			"name": "name",
			"outputs": [
				{
					"internalType": "string",
					"name": "_name",
					"type": "string"
				}
			],
			"stateMutability": "view",
			"type": "function"
		},
		{
			"inputs": [],
			"name": "NOT_CURRENT_OWNER",
			"outputs": [
				{
					"internalType": "string",
					"name": "",
					"type": "string"
				}
			],
			"stateMutability": "view",
			"type": "function"
		},
		{
			"inputs": [],
			"name": "owner",
			"outputs": [
				{
					"internalType": "address",
					"name": "",
					"type": "address"
				}
			],
			"stateMutability": "view",
			"type": "function"
		},
		{
			"inputs": [
				{
					"internalType": "uint256",
					"name": "_tokenId",
					"type": "uint256"
				}
			],
			"name": "ownerOf",
			"outputs": [
				{
					"internalType": "address",
					"name": "_owner",
					"type": "address"
				}
			],
			"stateMutability": "view",
			"type": "function"
		},
		{
			"inputs": [
				{
					"internalType": "bytes4",
					"name": "_interfaceID",
					"type": "bytes4"
				}
			],
			"name": "supportsInterface",
			"outputs": [
				{
					"internalType": "bool",
					"name": "",
					"type": "bool"
				}
			],
			"stateMutability": "view",
			"type": "function"
		},
		{
			"inputs": [],
			"name": "symbol",
			"outputs": [
				{
					"internalType": "string",
					"name": "_symbol",
					"type": "string"
				}
			],
			"stateMutability": "view",
			"type": "function"
		},
		{
			"inputs": [
				{
					"internalType": "uint256",
					"name": "_tokenId",
					"type": "uint256"
				}
			],
			"name": "tokenURI",
			"outputs": [
				{
					"internalType": "string",
					"name": "",
					"type": "string"
				}
			],
			"stateMutability": "view",
			"type": "function"
		}
	],
	"storageLayout": {
		"storage": [
			{
				"astId": 1122,
				"contract": "NFT_FCS.sol:fcsNFT",
				"label": "supportedInterfaces",
				"offset": 0,
				"slot": "0",
				"type": "t_mapping(t_bytes4,t_bool)"
			},
			{
				"astId": 445,
				"contract": "NFT_FCS.sol:fcsNFT",
				"label": "idToOwner",
				"offset": 0,
				"slot": "1",
				"type": "t_mapping(t_uint256,t_address)"
			},
			{
				"astId": 450,
				"contract": "NFT_FCS.sol:fcsNFT",
				"label": "idToApproval",
				"offset": 0,
				"slot": "2",
				"type": "t_mapping(t_uint256,t_address)"
			},
			{
				"astId": 455,
				"contract": "NFT_FCS.sol:fcsNFT",
				"label": "ownerToNFTokenCount",
				"offset": 0,
				"slot": "3",
				"type": "t_mapping(t_address,t_uint256)"
			},
			{
				"astId": 462,
				"contract": "NFT_FCS.sol:fcsNFT",
				"label": "ownerToOperators",
				"offset": 0,
				"slot": "4",
				"type": "t_mapping(t_address,t_mapping(t_address,t_bool))"
			},
			{
				"astId": 286,
				"contract": "NFT_FCS.sol:fcsNFT",
				"label": "nftName",
				"offset": 0,
				"slot": "5",
				"type": "t_string_storage"
			},
			{
				"astId": 289,
				"contract": "NFT_FCS.sol:fcsNFT",
				"label": "nftSymbol",
				"offset": 0,
				"slot": "6",
				"type": "t_string_storage"
			},
			{
				"astId": 294,
				"contract": "NFT_FCS.sol:fcsNFT",
				"label": "idToUri",
				"offset": 0,
				"slot": "7",
				"type": "t_mapping(t_uint256,t_string_storage)"
			},
			{
				"astId": 60,
				"contract": "NFT_FCS.sol:fcsNFT",
				"label": "owner",
				"offset": 0,
				"slot": "8",
				"type": "t_address"
			}
		],
		"types": {
			"t_address": {
				"encoding": "inplace",
				"label": "address",
				"numberOfBytes": "20"
			},
			"t_bool": {
				"encoding": "inplace",
				"label": "bool",
				"numberOfBytes": "1"
			},
			"t_bytes4": {
				"encoding": "inplace",
				"label": "bytes4",
				"numberOfBytes": "4"
			},
			"t_mapping(t_address,t_bool)": {
				"encoding": "mapping",
				"key": "t_address",
				"label": "mapping(address => bool)",
				"numberOfBytes": "32",
				"value": "t_bool"
			},
			"t_mapping(t_address,t_mapping(t_address,t_bool))": {
				"encoding": "mapping",
				"key": "t_address",
				"label": "mapping(address => mapping(address => bool))",
				"numberOfBytes": "32",
				"value": "t_mapping(t_address,t_bool)"
			},
			"t_mapping(t_address,t_uint256)": {
				"encoding": "mapping",
				"key": "t_address",
				"label": "mapping(address => uint256)",
				"numberOfBytes": "32",
				"value": "t_uint256"
			},
			"t_mapping(t_bytes4,t_bool)": {
				"encoding": "mapping",
				"key": "t_bytes4",
				"label": "mapping(bytes4 => bool)",
				"numberOfBytes": "32",
				"value": "t_bool"
			},
			"t_mapping(t_uint256,t_address)": {
				"encoding": "mapping",
				"key": "t_uint256",
				"label": "mapping(uint256 => address)",
				"numberOfBytes": "32",
				"value": "t_address"
			},
			"t_mapping(t_uint256,t_string_storage)": {
				"encoding": "mapping",
				"key": "t_uint256",
				"label": "mapping(uint256 => string)",
				"numberOfBytes": "32",
				"value": "t_string_storage"
			},
			"t_string_storage": {
				"encoding": "bytes",
				"label": "string",
				"numberOfBytes": "32"
			},
			"t_uint256": {
				"encoding": "inplace",
				"label": "uint256",
				"numberOfBytes": "32"
			}
		}
	},
	"web3Deploy": "var fcsnftContract = new web3.eth.Contract([{\"inputs\":[],\"stateMutability\":\"nonpayable\",\"type\":\"constructor\"},{\"anonymous\":false,\"inputs\":[{\"indexed\":true,\"internalType\":\"address\",\"name\":\"_owner\",\"type\":\"address\"},{\"indexed\":true,\"internalType\":\"address\",\"name\":\"_approved\",\"type\":\"address\"},{\"indexed\":true,\"internalType\":\"uint256\",\"name\":\"_tokenId\",\"type\":\"uint256\"}],\"name\":\"Approval\",\"type\":\"event\"},{\"anonymous\":false,\"inputs\":[{\"indexed\":true,\"internalType\":\"address\",\"name\":\"_owner\",\"type\":\"address\"},{\"indexed\":true,\"internalType\":\"address\",\"name\":\"_operator\",\"type\":\"address\"},{\"indexed\":false,\"internalType\":\"bool\",\"name\":\"_approved\",\"type\":\"bool\"}],\"name\":\"ApprovalForAll\",\"type\":\"event\"},{\"anonymous\":false,\"inputs\":[{\"indexed\":true,\"internalType\":\"address\",\"name\":\"previousOwner\",\"type\":\"address\"},{\"indexed\":true,\"internalType\":\"address\",\"name\":\"newOwner\",\"type\":\"address\"}],\"name\":\"OwnershipTransferred\",\"type\":\"event\"},{\"anonymous\":false,\"inputs\":[{\"indexed\":true,\"internalType\":\"address\",\"name\":\"_from\",\"type\":\"address\"},{\"indexed\":true,\"internalType\":\"address\",\"name\":\"_to\",\"type\":\"address\"},{\"indexed\":true,\"internalType\":\"uint256\",\"name\":\"_tokenId\",\"type\":\"uint256\"}],\"name\":\"Transfer\",\"type\":\"event\"},{\"inputs\":[],\"name\":\"CANNOT_TRANSFER_TO_ZERO_ADDRESS\",\"outputs\":[{\"internalType\":\"string\",\"name\":\"\",\"type\":\"string\"}],\"stateMutability\":\"view\",\"type\":\"function\"},{\"inputs\":[],\"name\":\"NOT_CURRENT_OWNER\",\"outputs\":[{\"internalType\":\"string\",\"name\":\"\",\"type\":\"string\"}],\"stateMutability\":\"view\",\"type\":\"function\"},{\"inputs\":[{\"internalType\":\"address\",\"name\":\"_approved\",\"type\":\"address\"},{\"internalType\":\"uint256\",\"name\":\"_tokenId\",\"type\":\"uint256\"}],\"name\":\"approve\",\"outputs\":[],\"stateMutability\":\"nonpayable\",\"type\":\"function\"},{\"inputs\":[{\"internalType\":\"address\",\"name\":\"_owner\",\"type\":\"address\"}],\"name\":\"balanceOf\",\"outputs\":[{\"internalType\":\"uint256\",\"name\":\"\",\"type\":\"uint256\"}],\"stateMutability\":\"view\",\"type\":\"function\"},{\"inputs\":[{\"internalType\":\"uint256\",\"name\":\"_tokenId\",\"type\":\"uint256\"}],\"name\":\"getApproved\",\"outputs\":[{\"internalType\":\"address\",\"name\":\"\",\"type\":\"address\"}],\"stateMutability\":\"view\",\"type\":\"function\"},{\"inputs\":[{\"internalType\":\"address\",\"name\":\"_owner\",\"type\":\"address\"},{\"internalType\":\"address\",\"name\":\"_operator\",\"type\":\"address\"}],\"name\":\"isApprovedForAll\",\"outputs\":[{\"internalType\":\"bool\",\"name\":\"\",\"type\":\"bool\"}],\"stateMutability\":\"view\",\"type\":\"function\"},{\"inputs\":[{\"internalType\":\"address\",\"name\":\"myaddress\",\"type\":\"address\"},{\"internalType\":\"uint256\",\"name\":\"tokenID\",\"type\":\"uint256\"},{\"internalType\":\"string\",\"name\":\"uri\",\"type\":\"string\"}],\"name\":\"metamask\",\"outputs\":[],\"stateMutability\":\"nonpayable\",\"type\":\"function\"},{\"inputs\":[],\"name\":\"name\",\"outputs\":[{\"internalType\":\"string\",\"name\":\"_name\",\"type\":\"string\"}],\"stateMutability\":\"view\",\"type\":\"function\"},{\"inputs\":[],\"name\":\"owner\",\"outputs\":[{\"internalType\":\"address\",\"name\":\"\",\"type\":\"address\"}],\"stateMutability\":\"view\",\"type\":\"function\"},{\"inputs\":[{\"internalType\":\"uint256\",\"name\":\"_tokenId\",\"type\":\"uint256\"}],\"name\":\"ownerOf\",\"outputs\":[{\"internalType\":\"address\",\"name\":\"_owner\",\"type\":\"address\"}],\"stateMutability\":\"view\",\"type\":\"function\"},{\"inputs\":[{\"internalType\":\"address\",\"name\":\"_from\",\"type\":\"address\"},{\"internalType\":\"address\",\"name\":\"_to\",\"type\":\"address\"},{\"internalType\":\"uint256\",\"name\":\"_tokenId\",\"type\":\"uint256\"}],\"name\":\"safeTransferFrom\",\"outputs\":[],\"stateMutability\":\"nonpayable\",\"type\":\"function\"},{\"inputs\":[{\"internalType\":\"address\",\"name\":\"_from\",\"type\":\"address\"},{\"internalType\":\"address\",\"name\":\"_to\",\"type\":\"address\"},{\"internalType\":\"uint256\",\"name\":\"_tokenId\",\"type\":\"uint256\"},{\"internalType\":\"bytes\",\"name\":\"_data\",\"type\":\"bytes\"}],\"name\":\"safeTransferFrom\",\"outputs\":[],\"stateMutability\":\"nonpayable\",\"type\":\"function\"},{\"inputs\":[{\"internalType\":\"address\",\"name\":\"_operator\",\"type\":\"address\"},{\"internalType\":\"bool\",\"name\":\"_approved\",\"type\":\"bool\"}],\"name\":\"setApprovalForAll\",\"outputs\":[],\"stateMutability\":\"nonpayable\",\"type\":\"function\"},{\"inputs\":[{\"internalType\":\"bytes4\",\"name\":\"_interfaceID\",\"type\":\"bytes4\"}],\"name\":\"supportsInterface\",\"outputs\":[{\"internalType\":\"bool\",\"name\":\"\",\"type\":\"bool\"}],\"stateMutability\":\"view\",\"type\":\"function\"},{\"inputs\":[],\"name\":\"symbol\",\"outputs\":[{\"internalType\":\"string\",\"name\":\"_symbol\",\"type\":\"string\"}],\"stateMutability\":\"view\",\"type\":\"function\"},{\"inputs\":[{\"internalType\":\"uint256\",\"name\":\"_tokenId\",\"type\":\"uint256\"}],\"name\":\"tokenURI\",\"outputs\":[{\"internalType\":\"string\",\"name\":\"\",\"type\":\"string\"}],\"stateMutability\":\"view\",\"type\":\"function\"},{\"inputs\":[{\"internalType\":\"address\",\"name\":\"_from\",\"type\":\"address\"},{\"internalType\":\"address\",\"name\":\"_to\",\"type\":\"address\"},{\"internalType\":\"uint256\",\"name\":\"_tokenId\",\"type\":\"uint256\"}],\"name\":\"transferFrom\",\"outputs\":[],\"stateMutability\":\"nonpayable\",\"type\":\"function\"},{\"inputs\":[{\"internalType\":\"address\",\"name\":\"_newOwner\",\"type\":\"address\"}],\"name\":\"transferOwnership\",\"outputs\":[],\"stateMutability\":\"nonpayable\",\"type\":\"function\"}]);\nvar fcsnft = fcsnftContract.deploy({\n     data: '0x608060405234801562000010575f80fd5b5060015f806301ffc9a760e01b7bffffffffffffffffffffffffffffffffffffffffffffffffffffffff191681526020019081526020015f205f6101000a81548160ff02191690831515021790555060015f806380ac58cd60e01b7bffffffffffffffffffffffffffffffffffffffffffffffffffffffff191681526020019081526020015f205f6101000a81548160ff02191690831515021790555060015f80635b5e139f60e01b7bffffffffffffffffffffffffffffffffffffffffffffffffffffffff191681526020019081526020015f205f6101000a81548160ff0219169083151502179055503360085f6101000a81548173ffffffffffffffffffffffffffffffffffffffff021916908373ffffffffffffffffffffffffffffffffffffffff1602179055506040518060400160405280600981526020017f6663735f636c61737300000000000000000000000000000000000000000000008152506005908162000181919062000433565b506040518060400160405280600381526020017f494e52000000000000000000000000000000000000000000000000000000000081525060069081620001c8919062000433565b5062000517565b5f81519050919050565b7f4e487b71000000000000000000000000000000000000000000000000000000005f52604160045260245ffd5b7f4e487b71000000000000000000000000000000000000000000000000000000005f52602260045260245ffd5b5f60028204905060018216806200024b57607f821691505b60208210810362000261576200026062000206565b5b50919050565b5f819050815f5260205f209050919050565b5f6020601f8301049050919050565b5f82821b905092915050565b5f60088302620002c57fffffffffffffffffffffffffffffffffffffffffffffffffffffffffffffffff8262000288565b620002d1868362000288565b95508019841693508086168417925050509392505050565b5f819050919050565b5f819050919050565b5f6200031b620003156200030f84620002e9565b620002f2565b620002e9565b9050919050565b5f819050919050565b6200033683620002fb565b6200034e620003458262000322565b84845462000294565b825550505050565b5f90565b6200036462000356565b620003718184846200032b565b505050565b5b8181101562000398576200038c5f826200035a565b60018101905062000377565b5050565b601f821115620003e757620003b18162000267565b620003bc8462000279565b81016020851015620003cc578190505b620003e4620003db8562000279565b83018262000376565b50505b505050565b5f82821c905092915050565b5f620004095f1984600802620003ec565b1980831691505092915050565b5f620004238383620003f8565b9150826002028217905092915050565b6200043e82620001cf565b67ffffffffffffffff8111156200045a5762000459620001d9565b5b62000466825462000233565b620004738282856200039c565b5f60209050601f831160018114620004a9575f841562000494578287015190505b620004a0858262000416565b8655506200050f565b601f198416620004b98662000267565b5f5b82811015620004e257848901518255600182019150602085019450602081019050620004bb565b86831015620005025784890151620004fe601f891682620003f8565b8355505b6001600288020188555050505b505050505050565b612e3080620005255f395ff3fe608060405234801561000f575f80fd5b5060043610610114575f3560e01c80638da5cb5b116100a0578063c87b56dd1161006f578063c87b56dd146102dc578063e985e9c51461030c578063f2fde38b1461033c578063f384a82614610358578063f3fe3bc31461037457610114565b80638da5cb5b1461026857806395d89b4114610286578063a22cb465146102a4578063b88d4fde146102c057610114565b806323b872dd116100e757806323b872dd146101b257806342842e0e146101ce5780636352211e146101ea57806370a082311461021a578063860d248a1461024a57610114565b806301ffc9a71461011857806306fdde0314610148578063081812fc14610166578063095ea7b314610196575b5f80fd5b610132600480360381019061012d919061247c565b610392565b60405161013f91906124c1565b60405180910390f35b6101506103f5565b60405161015d9190612564565b60405180910390f35b610180600480360381019061017b91906125b7565b610485565b60405161018d9190612621565b60405180910390f35b6101b060048036038101906101ab9190612664565b610598565b005b6101cc60048036038101906101c791906126a2565b610967565b005b6101e860048036038101906101e391906126a2565b610da4565b005b61020460048036038101906101ff91906125b7565b610dc3565b6040516102119190612621565b60405180910390f35b610234600480360381019061022f91906126f2565b610ea4565b604051610241919061272c565b60405180910390f35b610252610f5d565b60405161025f9190612564565b60405180910390f35b610270610f96565b60405161027d9190612621565b60405180910390f35b61028e610fbb565b60405161029b9190612564565b60405180910390f35b6102be60048036038101906102b9919061276f565b61104b565b005b6102da60048036038101906102d5919061280e565b611143565b005b6102f660048036038101906102f191906125b7565b611199565b6040516103039190612564565b60405180910390f35b61032660048036038101906103219190612892565b611285565b60405161033391906124c1565b60405180910390f35b610356600480360381019061035191906126f2565b611313565b005b610372600480360381019061036d9190612925565b611541565b005b61037c611666565b6040516103899190612564565b60405180910390f35b5f805f837bffffffffffffffffffffffffffffffffffffffffffffffffffffffff19167bffffffffffffffffffffffffffffffffffffffffffffffffffffffff191681526020019081526020015f205f9054906101000a900460ff169050919050565b606060058054610404906129c3565b80601f0160208091040260200160405190810160405280929190818152602001828054610430906129c3565b801561047b5780601f106104525761010080835404028352916020019161047b565b820191905f5260205f20905b81548152906001019060200180831161045e57829003601f168201915b5050505050905090565b5f815f73ffffffffffffffffffffffffffffffffffffffff1660015f8381526020019081526020015f205f9054906101000a900473ffffffffffffffffffffffffffffffffffffffff1673ffffffffffffffffffffffffffffffffffffffff1614156040518060400160405280600681526020017f30303330303200000000000000000000000000000000000000000000000000008152509061055e576040517f08c379a00000000000000000000000000000000000000000000000000000000081526004016105559190612564565b60405180910390fd5b5060025f8481526020019081526020015f205f9054906101000a900473ffffffffffffffffffffffffffffffffffffffff16915050919050565b805f60015f8381526020019081526020015f205f9054906101000a900473ffffffffffffffffffffffffffffffffffffffff1690503373ffffffffffffffffffffffffffffffffffffffff168173ffffffffffffffffffffffffffffffffffffffff161480610688575060045f8273ffffffffffffffffffffffffffffffffffffffff1673ffffffffffffffffffffffffffffffffffffffff1681526020019081526020015f205f3373ffffffffffffffffffffffffffffffffffffffff1673ffffffffffffffffffffffffffffffffffffffff1681526020019081526020015f205f9054906101000a900460ff165b6040518060400160405280600681526020017f3030333030330000000000000000000000000000000000000000000000000000815250906106ff576040517f08c379a00000000000000000000000000000000000000000000000000000000081526004016106f69190612564565b60405180910390fd5b50825f73ffffffffffffffffffffffffffffffffffffffff1660015f8381526020019081526020015f205f9054906101000a900473ffffffffffffffffffffffffffffffffffffffff1673ffffffffffffffffffffffffffffffffffffffff1614156040518060400160405280600681526020017f3030333030320000000000000000000000000000000000000000000000000000815250906107d8576040517f08c379a00000000000000000000000000000000000000000000000000000000081526004016107cf9190612564565b60405180910390fd5b505f60015f8681526020019081526020015f205f9054906101000a900473ffffffffffffffffffffffffffffffffffffffff1690508073ffffffffffffffffffffffffffffffffffffffff168673ffffffffffffffffffffffffffffffffffffffff1614156040518060400160405280600681526020017f3030333030380000000000000000000000000000000000000000000000000000815250906108b4576040517f08c379a00000000000000000000000000000000000000000000000000000000081526004016108ab9190612564565b60405180910390fd5b508560025f8781526020019081526020015f205f6101000a81548173ffffffffffffffffffffffffffffffffffffffff021916908373ffffffffffffffffffffffffffffffffffffffff160217905550848673ffffffffffffffffffffffffffffffffffffffff168273ffffffffffffffffffffffffffffffffffffffff167f8c5be1e5ebec7d5bd14f71427d1e84f3dd0314c0f7b2291e5b200ac8c7c3b92560405160405180910390a4505050505050565b805f60015f8381526020019081526020015f205f9054906101000a900473ffffffffffffffffffffffffffffffffffffffff1690503373ffffffffffffffffffffffffffffffffffffffff168173ffffffffffffffffffffffffffffffffffffffff161480610a3157503373ffffffffffffffffffffffffffffffffffffffff1660025f8481526020019081526020015f205f9054906101000a900473ffffffffffffffffffffffffffffffffffffffff1673ffffffffffffffffffffffffffffffffffffffff16145b80610abd575060045f8273ffffffffffffffffffffffffffffffffffffffff1673ffffffffffffffffffffffffffffffffffffffff1681526020019081526020015f205f3373ffffffffffffffffffffffffffffffffffffffff1673ffffffffffffffffffffffffffffffffffffffff1681526020019081526020015f205f9054906101000a900460ff165b6040518060400160405280600681526020017f303033303034000000000000000000000000000000000000000000000000000081525090610b34576040517f08c379a0000000000000000000000000000000000000000000000000000000008152600401610b2b9190612564565b60405180910390fd5b50825f73ffffffffffffffffffffffffffffffffffffffff1660015f8381526020019081526020015f205f9054906101000a900473ffffffffffffffffffffffffffffffffffffffff1673ffffffffffffffffffffffffffffffffffffffff1614156040518060400160405280600681526020017f303033303032000000000000000000000000000000000000000000000000000081525090610c0d576040517f08c379a0000000000000000000000000000000000000000000000000000000008152600401610c049190612564565b60405180910390fd5b505f60015f8681526020019081526020015f205f9054906101000a900473ffffffffffffffffffffffffffffffffffffffff1690508673ffffffffffffffffffffffffffffffffffffffff168173ffffffffffffffffffffffffffffffffffffffff16146040518060400160405280600681526020017f303033303037000000000000000000000000000000000000000000000000000081525090610ce8576040517f08c379a0000000000000000000000000000000000000000000000000000000008152600401610cdf9190612564565b60405180910390fd5b505f73ffffffffffffffffffffffffffffffffffffffff168673ffffffffffffffffffffffffffffffffffffffff1614156040518060400160405280600681526020017f303033303031000000000000000000000000000000000000000000000000000081525090610d90576040517f08c379a0000000000000000000000000000000000000000000000000000000008152600401610d879190612564565b60405180910390fd5b50610d9b868661169f565b50505050505050565b610dbe83838360405180602001604052805f815250611750565b505050565b5f60015f8381526020019081526020015f205f9054906101000a900473ffffffffffffffffffffffffffffffffffffffff1690505f73ffffffffffffffffffffffffffffffffffffffff168173ffffffffffffffffffffffffffffffffffffffff1614156040518060400160405280600681526020017f303033303032000000000000000000000000000000000000000000000000000081525090610e9e576040517f08c379a0000000000000000000000000000000000000000000000000000000008152600401610e959190612564565b60405180910390fd5b50919050565b5f8073ffffffffffffffffffffffffffffffffffffffff168273ffffffffffffffffffffffffffffffffffffffff1614156040518060400160405280600681526020017f303033303031000000000000000000000000000000000000000000000000000081525090610f4c576040517f08c379a0000000000000000000000000000000000000000000000000000000008152600401610f439190612564565b60405180910390fd5b50610f5682611cf6565b9050919050565b6040518060400160405280600681526020017f303138303032000000000000000000000000000000000000000000000000000081525081565b60085f9054906101000a900473ffffffffffffffffffffffffffffffffffffffff1681565b606060068054610fca906129c3565b80601f0160208091040260200160405190810160405280929190818152602001828054610ff6906129c3565b80156110415780601f1061101857610100808354040283529160200191611041565b820191905f5260205f20905b81548152906001019060200180831161102457829003601f168201915b5050505050905090565b8060045f3373ffffffffffffffffffffffffffffffffffffffff1673ffffffffffffffffffffffffffffffffffffffff1681526020019081526020015f205f8473ffffffffffffffffffffffffffffffffffffffff1673ffffffffffffffffffffffffffffffffffffffff1681526020019081526020015f205f6101000a81548160ff0219169083151502179055508173ffffffffffffffffffffffffffffffffffffffff163373ffffffffffffffffffffffffffffffffffffffff167f17307eab39ab6107e8899845ad3d59bd9653f200f220920489ca2b5937696c318360405161113791906124c1565b60405180910390a35050565b61119285858585858080601f0160208091040260200160405190810160405280939291908181526020018383808284375f81840152601f19601f82011690508083019250505050505050611750565b5050505050565b6060815f73ffffffffffffffffffffffffffffffffffffffff1660015f8381526020019081526020015f205f9054906101000a900473ffffffffffffffffffffffffffffffffffffffff1673ffffffffffffffffffffffffffffffffffffffff1614156040518060400160405280600681526020017f303033303032000000000000000000000000000000000000000000000000000081525090611273576040517f08c379a000000000000000000000000000000000000000000000000000000000815260040161126a9190612564565b60405180910390fd5b5061127d83611d3c565b915050919050565b5f60045f8473ffffffffffffffffffffffffffffffffffffffff1673ffffffffffffffffffffffffffffffffffffffff1681526020019081526020015f205f8373ffffffffffffffffffffffffffffffffffffffff1673ffffffffffffffffffffffffffffffffffffffff1681526020019081526020015f205f9054906101000a900460ff16905092915050565b60085f9054906101000a900473ffffffffffffffffffffffffffffffffffffffff1673ffffffffffffffffffffffffffffffffffffffff163373ffffffffffffffffffffffffffffffffffffffff16146040518060400160405280600681526020017f3031383030310000000000000000000000000000000000000000000000000000815250906113da576040517f08c379a00000000000000000000000000000000000000000000000000000000081526004016113d19190612564565b60405180910390fd5b505f73ffffffffffffffffffffffffffffffffffffffff168173ffffffffffffffffffffffffffffffffffffffff1614156040518060400160405280600681526020017f303138303032000000000000000000000000000000000000000000000000000081525090611482576040517f08c379a00000000000000000000000000000000000000000000000000000000081526004016114799190612564565b60405180910390fd5b508073ffffffffffffffffffffffffffffffffffffffff1660085f9054906101000a900473ffffffffffffffffffffffffffffffffffffffff1673ffffffffffffffffffffffffffffffffffffffff167f8be0079c531659141344cd1fd0a4f28419497f9722a3daafe3b4186f6b6457e060405160405180910390a38060085f6101000a81548173ffffffffffffffffffffffffffffffffffffffff021916908373ffffffffffffffffffffffffffffffffffffffff16021790555050565b60085f9054906101000a900473ffffffffffffffffffffffffffffffffffffffff1673ffffffffffffffffffffffffffffffffffffffff163373ffffffffffffffffffffffffffffffffffffffff16146040518060400160405280600681526020017f303138303031000000000000000000000000000000000000000000000000000081525090611608576040517f08c379a00000000000000000000000000000000000000000000000000000000081526004016115ff9190612564565b60405180910390fd5b506116138484611ddd565b6116608383838080601f0160208091040260200160405190810160405280939291908181526020018383808284375f81840152601f19601f82011690508083019250505050505050611fc5565b50505050565b6040518060400160405280600681526020017f303138303031000000000000000000000000000000000000000000000000000081525081565b5f60015f8381526020019081526020015f205f9054906101000a900473ffffffffffffffffffffffffffffffffffffffff1690506116dc826120c2565b6116e681836120f8565b6116f0838361225a565b818373ffffffffffffffffffffffffffffffffffffffff168273ffffffffffffffffffffffffffffffffffffffff167fddf252ad1be2c89b69c2b068fc378daa952ba7f163c4a11628f55a4df523b3ef60405160405180910390a4505050565b815f60015f8381526020019081526020015f205f9054906101000a900473ffffffffffffffffffffffffffffffffffffffff1690503373ffffffffffffffffffffffffffffffffffffffff168173ffffffffffffffffffffffffffffffffffffffff16148061181a57503373ffffffffffffffffffffffffffffffffffffffff1660025f8481526020019081526020015f205f9054906101000a900473ffffffffffffffffffffffffffffffffffffffff1673ffffffffffffffffffffffffffffffffffffffff16145b806118a6575060045f8273ffffffffffffffffffffffffffffffffffffffff1673ffffffffffffffffffffffffffffffffffffffff1681526020019081526020015f205f3373ffffffffffffffffffffffffffffffffffffffff1673ffffffffffffffffffffffffffffffffffffffff1681526020019081526020015f205f9054906101000a900460ff165b6040518060400160405280600681526020017f30303330303400000000000000000000000000000000000000000000000000008152509061191d576040517f08c379a00000000000000000000000000000000000000000000000000000000081526004016119149190612564565b60405180910390fd5b50835f73ffffffffffffffffffffffffffffffffffffffff1660015f8381526020019081526020015f205f9054906101000a900473ffffffffffffffffffffffffffffffffffffffff1673ffffffffffffffffffffffffffffffffffffffff1614156040518060400160405280600681526020017f3030333030320000000000000000000000000000000000000000000000000000815250906119f6576040517f08c379a00000000000000000000000000000000000000000000000000000000081526004016119ed9190612564565b60405180910390fd5b505f60015f8781526020019081526020015f205f9054906101000a900473ffffffffffffffffffffffffffffffffffffffff1690508773ffffffffffffffffffffffffffffffffffffffff168173ffffffffffffffffffffffffffffffffffffffff16146040518060400160405280600681526020017f303033303037000000000000000000000000000000000000000000000000000081525090611ad1576040517f08c379a0000000000000000000000000000000000000000000000000000000008152600401611ac89190612564565b60405180910390fd5b505f73ffffffffffffffffffffffffffffffffffffffff168773ffffffffffffffffffffffffffffffffffffffff1614156040518060400160405280600681526020017f303033303031000000000000000000000000000000000000000000000000000081525090611b79576040517f08c379a0000000000000000000000000000000000000000000000000000000008152600401611b709190612564565b60405180910390fd5b50611b84878761169f565b611ba38773ffffffffffffffffffffffffffffffffffffffff166123d8565b15611cec575f8773ffffffffffffffffffffffffffffffffffffffff1663150b7a02338b8a8a6040518563ffffffff1660e01b8152600401611be89493929190612a45565b6020604051808303815f875af1158015611c04573d5f803e3d5ffd5b505050506040513d601f19601f82011682018060405250810190611c289190612aa3565b905063150b7a0260e01b7bffffffffffffffffffffffffffffffffffffffffffffffffffffffff1916817bffffffffffffffffffffffffffffffffffffffffffffffffffffffff1916146040518060400160405280600681526020017f303033303035000000000000000000000000000000000000000000000000000081525090611ce9576040517f08c379a0000000000000000000000000000000000000000000000000000000008152600401611ce09190612564565b60405180910390fd5b50505b5050505050505050565b5f60035f8373ffffffffffffffffffffffffffffffffffffffff1673ffffffffffffffffffffffffffffffffffffffff1681526020019081526020015f20549050919050565b606060075f8381526020019081526020015f208054611d5a906129c3565b80601f0160208091040260200160405190810160405280929190818152602001828054611d86906129c3565b8015611dd15780601f10611da857610100808354040283529160200191611dd1565b820191905f5260205f20905b815481529060010190602001808311611db457829003601f168201915b50505050509050919050565b5f73ffffffffffffffffffffffffffffffffffffffff168273ffffffffffffffffffffffffffffffffffffffff1614156040518060400160405280600681526020017f303033303031000000000000000000000000000000000000000000000000000081525090611e84576040517f08c379a0000000000000000000000000000000000000000000000000000000008152600401611e7b9190612564565b60405180910390fd5b505f73ffffffffffffffffffffffffffffffffffffffff1660015f8381526020019081526020015f205f9054906101000a900473ffffffffffffffffffffffffffffffffffffffff1673ffffffffffffffffffffffffffffffffffffffff16146040518060400160405280600681526020017f303033303036000000000000000000000000000000000000000000000000000081525090611f5b576040517f08c379a0000000000000000000000000000000000000000000000000000000008152600401611f529190612564565b60405180910390fd5b50611f66828261225a565b808273ffffffffffffffffffffffffffffffffffffffff165f73ffffffffffffffffffffffffffffffffffffffff167fddf252ad1be2c89b69c2b068fc378daa952ba7f163c4a11628f55a4df523b3ef60405160405180910390a45050565b815f73ffffffffffffffffffffffffffffffffffffffff1660015f8381526020019081526020015f205f9054906101000a900473ffffffffffffffffffffffffffffffffffffffff1673ffffffffffffffffffffffffffffffffffffffff1614156040518060400160405280600681526020017f30303330303200000000000000000000000000000000000000000000000000008152509061209d576040517f08c379a00000000000000000000000000000000000000000000000000000000081526004016120949190612564565b60405180910390fd5b508160075f8581526020019081526020015f2090816120bc9190612c98565b50505050565b60025f8281526020019081526020015f205f6101000a81549073ffffffffffffffffffffffffffffffffffffffff021916905550565b8173ffffffffffffffffffffffffffffffffffffffff1660015f8381526020019081526020015f205f9054906101000a900473ffffffffffffffffffffffffffffffffffffffff1673ffffffffffffffffffffffffffffffffffffffff16146040518060400160405280600681526020017f3030333030370000000000000000000000000000000000000000000000000000815250906121ce576040517f08c379a00000000000000000000000000000000000000000000000000000000081526004016121c59190612564565b60405180910390fd5b50600160035f8473ffffffffffffffffffffffffffffffffffffffff1673ffffffffffffffffffffffffffffffffffffffff1681526020019081526020015f205f82825461221c9190612d94565b9250508190555060015f8281526020019081526020015f205f6101000a81549073ffffffffffffffffffffffffffffffffffffffff02191690555050565b5f73ffffffffffffffffffffffffffffffffffffffff1660015f8381526020019081526020015f205f9054906101000a900473ffffffffffffffffffffffffffffffffffffffff1673ffffffffffffffffffffffffffffffffffffffff16146040518060400160405280600681526020017f303033303036000000000000000000000000000000000000000000000000000081525090612330576040517f08c379a00000000000000000000000000000000000000000000000000000000081526004016123279190612564565b60405180910390fd5b508160015f8381526020019081526020015f205f6101000a81548173ffffffffffffffffffffffffffffffffffffffff021916908373ffffffffffffffffffffffffffffffffffffffff160217905550600160035f8473ffffffffffffffffffffffffffffffffffffffff1673ffffffffffffffffffffffffffffffffffffffff1681526020019081526020015f205f8282546123cd9190612dc7565b925050819055505050565b5f805f7fc5d2460186f7233c927e7db2dcc703c0e500b653ca82273b7bfad8045d85a4705f1b9050833f91505f801b82141580156124165750808214155b92505050919050565b5f80fd5b5f80fd5b5f7fffffffff0000000000000000000000000000000000000000000000000000000082169050919050565b61245b81612427565b8114612465575f80fd5b50565b5f8135905061247681612452565b92915050565b5f602082840312156124915761249061241f565b5b5f61249e84828501612468565b91505092915050565b5f8115159050919050565b6124bb816124a7565b82525050565b5f6020820190506124d45f8301846124b2565b92915050565b5f81519050919050565b5f82825260208201905092915050565b5f5b838110156125115780820151818401526020810190506124f6565b5f8484015250505050565b5f601f19601f8301169050919050565b5f612536826124da565b61254081856124e4565b93506125508185602086016124f4565b6125598161251c565b840191505092915050565b5f6020820190508181035f83015261257c818461252c565b905092915050565b5f819050919050565b61259681612584565b81146125a0575f80fd5b50565b5f813590506125b18161258d565b92915050565b5f602082840312156125cc576125cb61241f565b5b5f6125d9848285016125a3565b91505092915050565b5f73ffffffffffffffffffffffffffffffffffffffff82169050919050565b5f61260b826125e2565b9050919050565b61261b81612601565b82525050565b5f6020820190506126345f830184612612565b92915050565b61264381612601565b811461264d575f80fd5b50565b5f8135905061265e8161263a565b92915050565b5f806040838503121561267a5761267961241f565b5b5f61268785828601612650565b9250506020612698858286016125a3565b9150509250929050565b5f805f606084860312156126b9576126b861241f565b5b5f6126c686828701612650565b93505060206126d786828701612650565b92505060406126e8868287016125a3565b9150509250925092565b5f602082840312156127075761270661241f565b5b5f61271484828501612650565b91505092915050565b61272681612584565b82525050565b5f60208201905061273f5f83018461271d565b92915050565b61274e816124a7565b8114612758575f80fd5b50565b5f8135905061276981612745565b92915050565b5f80604083850312156127855761278461241f565b5b5f61279285828601612650565b92505060206127a38582860161275b565b9150509250929050565b5f80fd5b5f80fd5b5f80fd5b5f8083601f8401126127ce576127cd6127ad565b5b8235905067ffffffffffffffff8111156127eb576127ea6127b1565b5b602083019150836001820283011115612807576128066127b5565b5b9250929050565b5f805f805f608086880312156128275761282661241f565b5b5f61283488828901612650565b955050602061284588828901612650565b9450506040612856888289016125a3565b935050606086013567ffffffffffffffff81111561287757612876612423565b5b612883888289016127b9565b92509250509295509295909350565b5f80604083850312156128a8576128a761241f565b5b5f6128b585828601612650565b92505060206128c685828601612650565b9150509250929050565b5f8083601f8401126128e5576128e46127ad565b5b8235905067ffffffffffffffff811115612902576129016127b1565b5b60208301915083600182028301111561291e5761291d6127b5565b5b9250929050565b5f805f806060858703121561293d5761293c61241f565b5b5f61294a87828801612650565b945050602061295b878288016125a3565b935050604085013567ffffffffffffffff81111561297c5761297b612423565b5b612988878288016128d0565b925092505092959194509250565b7f4e487b71000000000000000000000000000000000000000000000000000000005f52602260045260245ffd5b5f60028204905060018216806129da57607f821691505b6020821081036129ed576129ec612996565b5b50919050565b5f81519050919050565b5f82825260208201905092915050565b5f612a17826129f3565b612a2181856129fd565b9350612a318185602086016124f4565b612a3a8161251c565b840191505092915050565b5f608082019050612a585f830187612612565b612a656020830186612612565b612a72604083018561271d565b8181036060830152612a848184612a0d565b905095945050505050565b5f81519050612a9d81612452565b92915050565b5f60208284031215612ab857612ab761241f565b5b5f612ac584828501612a8f565b91505092915050565b7f4e487b71000000000000000000000000000000000000000000000000000000005f52604160045260245ffd5b5f819050815f5260205f209050919050565b5f6020601f8301049050919050565b5f82821b905092915050565b5f60088302612b577fffffffffffffffffffffffffffffffffffffffffffffffffffffffffffffffff82612b1c565b612b618683612b1c565b95508019841693508086168417925050509392505050565b5f819050919050565b5f612b9c612b97612b9284612584565b612b79565b612584565b9050919050565b5f819050919050565b612bb583612b82565b612bc9612bc182612ba3565b848454612b28565b825550505050565b5f90565b612bdd612bd1565b612be8818484612bac565b505050565b5b81811015612c0b57612c005f82612bd5565b600181019050612bee565b5050565b601f821115612c5057612c2181612afb565b612c2a84612b0d565b81016020851015612c39578190505b612c4d612c4585612b0d565b830182612bed565b50505b505050565b5f82821c905092915050565b5f612c705f1984600802612c55565b1980831691505092915050565b5f612c888383612c61565b9150826002028217905092915050565b612ca1826124da565b67ffffffffffffffff811115612cba57612cb9612ace565b5b612cc482546129c3565b612ccf828285612c0f565b5f60209050601f831160018114612d00575f8415612cee578287015190505b612cf88582612c7d565b865550612d5f565b601f198416612d0e86612afb565b5f5b82811015612d3557848901518255600182019150602085019450602081019050612d10565b86831015612d525784890151612d4e601f891682612c61565b8355505b6001600288020188555050505b505050505050565b7f4e487b71000000000000000000000000000000000000000000000000000000005f52601160045260245ffd5b5f612d9e82612584565b9150612da983612584565b9250828203905081811115612dc157612dc0612d67565b5b92915050565b5f612dd182612584565b9150612ddc83612584565b9250828201905080821115612df457612df3612d67565b5b9291505056fea264697066735822122095095f3836aa13f5b42478d93baabe7c43ca8a4683287d475965a22b758b863664736f6c63430008160033', \n     arguments: [\n     ]\n}).send({\n     from: web3.eth.accounts[0], \n     gas: '4700000'\n   }, function (e, contract){\n    console.log(e, contract);\n    if (typeof contract.address !== 'undefined') {\n         console.log('Contract mined! address: ' + contract.address + ' transactionHash: ' + contract.transactionHash);\n    }\n })",
	"functionHashes": {
		"860d248a": "CANNOT_TRANSFER_TO_ZERO_ADDRESS()",
		"f3fe3bc3": "NOT_CURRENT_OWNER()",
		"095ea7b3": "approve(address,uint256)",
		"70a08231": "balanceOf(address)",
		"081812fc": "getApproved(uint256)",
		"e985e9c5": "isApprovedForAll(address,address)",
		"f384a826": "metamask(address,uint256,string)",
		"06fdde03": "name()",
		"8da5cb5b": "owner()",
		"6352211e": "ownerOf(uint256)",
		"42842e0e": "safeTransferFrom(address,address,uint256)",
		"b88d4fde": "safeTransferFrom(address,address,uint256,bytes)",
		"a22cb465": "setApprovalForAll(address,bool)",
		"01ffc9a7": "supportsInterface(bytes4)",
		"95d89b41": "symbol()",
		"c87b56dd": "tokenURI(uint256)",
		"23b872dd": "transferFrom(address,address,uint256)",
		"f2fde38b": "transferOwnership(address)"
	},
	"gasEstimates": {
		"Creation": {
			"codeDepositCost": "2364800",
			"executionCost": "infinite",
			"totalCost": "infinite"
		},
		"External": {
			"CANNOT_TRANSFER_TO_ZERO_ADDRESS()": "infinite",
			"NOT_CURRENT_OWNER()": "infinite",
			"approve(address,uint256)": "infinite",
			"balanceOf(address)": "infinite",
			"getApproved(uint256)": "infinite",
			"isApprovedForAll(address,address)": "infinite",
			"metamask(address,uint256,string)": "infinite",
			"name()": "infinite",
			"owner()": "2531",
			"ownerOf(uint256)": "infinite",
			"safeTransferFrom(address,address,uint256)": "infinite",
			"safeTransferFrom(address,address,uint256,bytes)": "infinite",
			"setApprovalForAll(address,bool)": "infinite",
			"supportsInterface(bytes4)": "2858",
			"symbol()": "infinite",
			"tokenURI(uint256)": "infinite",
			"transferFrom(address,address,uint256)": "infinite",
			"transferOwnership(address)": "infinite"
		}
	},
	"devdoc": {
		"events": {
			"Approval(address,address,uint256)": {
				"details": "This emits when the approved address for an NFT is changed or reaffirmed. The zero address indicates there is no approved address. When a Transfer event emits, this also indicates that the approved address for that NFT (if any) is reset to none."
			},
			"ApprovalForAll(address,address,bool)": {
				"details": "This emits when an operator is enabled or disabled for an owner. The operator can manage all NFTs of the owner."
			},
			"OwnershipTransferred(address,address)": {
				"details": "An event which is triggered when the owner is changed.",
				"params": {
					"newOwner": "The address of the new owner.",
					"previousOwner": "The address of the previous owner."
				}
			},
			"Transfer(address,address,uint256)": {
				"details": "Emits when ownership of any NFT changes by any mechanism. This event emits when NFTs are created (`from` == 0) and destroyed (`to` == 0). Exception: during contract creation, any number of NFTs may be created and assigned without emitting Transfer. At the time of any transfer, the approved address for that NFT (if any) is reset to none."
			}
		},
		"kind": "dev",
		"methods": {
			"approve(address,uint256)": {
				"details": "Set or reaffirm the approved address for an NFT. This function can be changed to payable.",
				"params": {
					"_approved": "Address to be approved for the given NFT ID.",
					"_tokenId": "ID of the token to be approved."
				}
			},
			"balanceOf(address)": {
				"details": "Returns the number of NFTs owned by `_owner`. NFTs assigned to the zero address are considered invalid, and this function throws for queries about the zero address.",
				"params": {
					"_owner": "Address for whom to query the balance."
				},
				"returns": {
					"_0": "Balance of _owner."
				}
			},
			"constructor": {
				"details": "Contract constructor. Sets metadata extension `name` and `symbol`."
			},
			"getApproved(uint256)": {
				"details": "Get the approved address for a single NFT.",
				"params": {
					"_tokenId": "ID of the NFT to query the approval of."
				},
				"returns": {
					"_0": "Address that _tokenId is approved for."
				}
			},
			"isApprovedForAll(address,address)": {
				"details": "Checks if `_operator` is an approved operator for `_owner`.",
				"params": {
					"_operator": "The address that acts on behalf of the owner.",
					"_owner": "The address that owns the NFTs."
				},
				"returns": {
					"_0": "True if approved for all, false otherwise."
				}
			},
			"name()": {
				"details": "Returns a descriptive name for a collection of NFTokens.",
				"returns": {
					"_name": "Representing name."
				}
			},
			"ownerOf(uint256)": {
				"details": "Returns the address of the owner of the NFT. NFTs assigned to the zero address are considered invalid, and queries about them do throw.",
				"params": {
					"_tokenId": "The identifier for an NFT."
				},
				"returns": {
					"_owner": "Address of _tokenId owner."
				}
			},
			"safeTransferFrom(address,address,uint256)": {
				"details": "Transfers the ownership of an NFT from one address to another address. This function can be changed to payable.",
				"params": {
					"_from": "The current owner of the NFT.",
					"_to": "The new owner.",
					"_tokenId": "The NFT to transfer."
				}
			},
			"safeTransferFrom(address,address,uint256,bytes)": {
				"details": "Transfers the ownership of an NFT from one address to another address. This function can be changed to payable.",
				"params": {
					"_data": "Additional data with no specified format, sent in call to `_to`.",
					"_from": "The current owner of the NFT.",
					"_to": "The new owner.",
					"_tokenId": "The NFT to transfer."
				}
			},
			"setApprovalForAll(address,bool)": {
				"details": "Enables or disables approval for a third party (\"operator\") to manage all of `msg.sender`'s assets. It also emits the ApprovalForAll event.",
				"params": {
					"_approved": "True if the operators is approved, false to revoke approval.",
					"_operator": "Address to add to the set of authorized operators."
				}
			},
			"supportsInterface(bytes4)": {
				"details": "Function to check which interfaces are suported by this contract.",
				"params": {
					"_interfaceID": "Id of the interface."
				},
				"returns": {
					"_0": "True if _interfaceID is supported, false otherwise."
				}
			},
			"symbol()": {
				"details": "Returns an abbreviated name for NFTokens.",
				"returns": {
					"_symbol": "Representing symbol."
				}
			},
			"tokenURI(uint256)": {
				"details": "A distinct URI (RFC 3986) for a given NFT.",
				"params": {
					"_tokenId": "Id for which we want uri."
				},
				"returns": {
					"_0": "URI of _tokenId."
				}
			},
			"transferFrom(address,address,uint256)": {
				"details": "Throws unless `msg.sender` is the current owner, an authorized operator, or the approved address for this NFT. Throws if `_from` is not the current owner. Throws if `_to` is the zero address. Throws if `_tokenId` is not a valid NFT. This function can be changed to payable.",
				"params": {
					"_from": "The current owner of the NFT.",
					"_to": "The new owner.",
					"_tokenId": "The NFT to transfer."
				}
			},
			"transferOwnership(address)": {
				"details": "Allows the current owner to transfer control of the contract to a newOwner.",
				"params": {
					"_newOwner": "The address to transfer ownership to."
				}
			}
		},
		"version": 1
	},
	"userdoc": {
		"kind": "user",
		"methods": {
			"approve(address,uint256)": {
				"notice": "The zero address indicates there is no approved address. Throws unless `msg.sender` is the current NFT owner, or an authorized operator of the current owner."
			},
			"getApproved(uint256)": {
				"notice": "Throws if `_tokenId` is not a valid NFT."
			},
			"safeTransferFrom(address,address,uint256)": {
				"notice": "This works identically to the other function with an extra data parameter, except this function just sets data to \"\"."
			},
			"safeTransferFrom(address,address,uint256,bytes)": {
				"notice": "Throws unless `msg.sender` is the current owner, an authorized operator, or the approved address for this NFT. Throws if `_from` is not the current owner. Throws if `_to` is the zero address. Throws if `_tokenId` is not a valid NFT. When transfer is complete, this function checks if `_to` is a smart contract (code size > 0). If so, it calls `onERC721Received` on `_to` and throws if the return value is not `bytes4(keccak256(\"onERC721Received(address,uint256,bytes)\"))`."
			},
			"setApprovalForAll(address,bool)": {
				"notice": "This works even if sender doesn't own any tokens at the time."
			},
			"transferFrom(address,address,uint256)": {
				"notice": "The caller is responsible to confirm that `_to` is capable of receiving NFTs or else they may be permanently lost."
			}
		},
		"version": 1
	},
	"Runtime Bytecode": {
		"immutableReferences": {},
		"linkReferences": {},
		"object": "608060405234801561000f575f80fd5b5060043610610114575f3560e01c80638da5cb5b116100a0578063c87b56dd1161006f578063c87b56dd146102dc578063e985e9c51461030c578063f2fde38b1461033c578063f384a82614610358578063f3fe3bc31461037457610114565b80638da5cb5b1461026857806395d89b4114610286578063a22cb465146102a4578063b88d4fde146102c057610114565b806323b872dd116100e757806323b872dd146101b257806342842e0e146101ce5780636352211e146101ea57806370a082311461021a578063860d248a1461024a57610114565b806301ffc9a71461011857806306fdde0314610148578063081812fc14610166578063095ea7b314610196575b5f80fd5b610132600480360381019061012d919061247c565b610392565b60405161013f91906124c1565b60405180910390f35b6101506103f5565b60405161015d9190612564565b60405180910390f35b610180600480360381019061017b91906125b7565b610485565b60405161018d9190612621565b60405180910390f35b6101b060048036038101906101ab9190612664565b610598565b005b6101cc60048036038101906101c791906126a2565b610967565b005b6101e860048036038101906101e391906126a2565b610da4565b005b61020460048036038101906101ff91906125b7565b610dc3565b6040516102119190612621565b60405180910390f35b610234600480360381019061022f91906126f2565b610ea4565b604051610241919061272c565b60405180910390f35b610252610f5d565b60405161025f9190612564565b60405180910390f35b610270610f96565b60405161027d9190612621565b60405180910390f35b61028e610fbb565b60405161029b9190612564565b60405180910390f35b6102be60048036038101906102b9919061276f565b61104b565b005b6102da60048036038101906102d5919061280e565b611143565b005b6102f660048036038101906102f191906125b7565b611199565b6040516103039190612564565b60405180910390f35b61032660048036038101906103219190612892565b611285565b60405161033391906124c1565b60405180910390f35b610356600480360381019061035191906126f2565b611313565b005b610372600480360381019061036d9190612925565b611541565b005b61037c611666565b6040516103899190612564565b60405180910390f35b5f805f837bffffffffffffffffffffffffffffffffffffffffffffffffffffffff19167bffffffffffffffffffffffffffffffffffffffffffffffffffffffff191681526020019081526020015f205f9054906101000a900460ff169050919050565b606060058054610404906129c3565b80601f0160208091040260200160405190810160405280929190818152602001828054610430906129c3565b801561047b5780601f106104525761010080835404028352916020019161047b565b820191905f5260205f20905b81548152906001019060200180831161045e57829003601f168201915b5050505050905090565b5f815f73ffffffffffffffffffffffffffffffffffffffff1660015f8381526020019081526020015f205f9054906101000a900473ffffffffffffffffffffffffffffffffffffffff1673ffffffffffffffffffffffffffffffffffffffff1614156040518060400160405280600681526020017f30303330303200000000000000000000000000000000000000000000000000008152509061055e576040517f08c379a00000000000000000000000000000000000000000000000000000000081526004016105559190612564565b60405180910390fd5b5060025f8481526020019081526020015f205f9054906101000a900473ffffffffffffffffffffffffffffffffffffffff16915050919050565b805f60015f8381526020019081526020015f205f9054906101000a900473ffffffffffffffffffffffffffffffffffffffff1690503373ffffffffffffffffffffffffffffffffffffffff168173ffffffffffffffffffffffffffffffffffffffff161480610688575060045f8273ffffffffffffffffffffffffffffffffffffffff1673ffffffffffffffffffffffffffffffffffffffff1681526020019081526020015f205f3373ffffffffffffffffffffffffffffffffffffffff1673ffffffffffffffffffffffffffffffffffffffff1681526020019081526020015f205f9054906101000a900460ff165b6040518060400160405280600681526020017f3030333030330000000000000000000000000000000000000000000000000000815250906106ff576040517f08c379a00000000000000000000000000000000000000000000000000000000081526004016106f69190612564565b60405180910390fd5b50825f73ffffffffffffffffffffffffffffffffffffffff1660015f8381526020019081526020015f205f9054906101000a900473ffffffffffffffffffffffffffffffffffffffff1673ffffffffffffffffffffffffffffffffffffffff1614156040518060400160405280600681526020017f3030333030320000000000000000000000000000000000000000000000000000815250906107d8576040517f08c379a00000000000000000000000000000000000000000000000000000000081526004016107cf9190612564565b60405180910390fd5b505f60015f8681526020019081526020015f205f9054906101000a900473ffffffffffffffffffffffffffffffffffffffff1690508073ffffffffffffffffffffffffffffffffffffffff168673ffffffffffffffffffffffffffffffffffffffff1614156040518060400160405280600681526020017f3030333030380000000000000000000000000000000000000000000000000000815250906108b4576040517f08c379a00000000000000000000000000000000000000000000000000000000081526004016108ab9190612564565b60405180910390fd5b508560025f8781526020019081526020015f205f6101000a81548173ffffffffffffffffffffffffffffffffffffffff021916908373ffffffffffffffffffffffffffffffffffffffff160217905550848673ffffffffffffffffffffffffffffffffffffffff168273ffffffffffffffffffffffffffffffffffffffff167f8c5be1e5ebec7d5bd14f71427d1e84f3dd0314c0f7b2291e5b200ac8c7c3b92560405160405180910390a4505050505050565b805f60015f8381526020019081526020015f205f9054906101000a900473ffffffffffffffffffffffffffffffffffffffff1690503373ffffffffffffffffffffffffffffffffffffffff168173ffffffffffffffffffffffffffffffffffffffff161480610a3157503373ffffffffffffffffffffffffffffffffffffffff1660025f8481526020019081526020015f205f9054906101000a900473ffffffffffffffffffffffffffffffffffffffff1673ffffffffffffffffffffffffffffffffffffffff16145b80610abd575060045f8273ffffffffffffffffffffffffffffffffffffffff1673ffffffffffffffffffffffffffffffffffffffff1681526020019081526020015f205f3373ffffffffffffffffffffffffffffffffffffffff1673ffffffffffffffffffffffffffffffffffffffff1681526020019081526020015f205f9054906101000a900460ff165b6040518060400160405280600681526020017f303033303034000000000000000000000000000000000000000000000000000081525090610b34576040517f08c379a0000000000000000000000000000000000000000000000000000000008152600401610b2b9190612564565b60405180910390fd5b50825f73ffffffffffffffffffffffffffffffffffffffff1660015f8381526020019081526020015f205f9054906101000a900473ffffffffffffffffffffffffffffffffffffffff1673ffffffffffffffffffffffffffffffffffffffff1614156040518060400160405280600681526020017f303033303032000000000000000000000000000000000000000000000000000081525090610c0d576040517f08c379a0000000000000000000000000000000000000000000000000000000008152600401610c049190612564565b60405180910390fd5b505f60015f8681526020019081526020015f205f9054906101000a900473ffffffffffffffffffffffffffffffffffffffff1690508673ffffffffffffffffffffffffffffffffffffffff168173ffffffffffffffffffffffffffffffffffffffff16146040518060400160405280600681526020017f303033303037000000000000000000000000000000000000000000000000000081525090610ce8576040517f08c379a0000000000000000000000000000000000000000000000000000000008152600401610cdf9190612564565b60405180910390fd5b505f73ffffffffffffffffffffffffffffffffffffffff168673ffffffffffffffffffffffffffffffffffffffff1614156040518060400160405280600681526020017f303033303031000000000000000000000000000000000000000000000000000081525090610d90576040517f08c379a0000000000000000000000000000000000000000000000000000000008152600401610d879190612564565b60405180910390fd5b50610d9b868661169f565b50505050505050565b610dbe83838360405180602001604052805f815250611750565b505050565b5f60015f8381526020019081526020015f205f9054906101000a900473ffffffffffffffffffffffffffffffffffffffff1690505f73ffffffffffffffffffffffffffffffffffffffff168173ffffffffffffffffffffffffffffffffffffffff1614156040518060400160405280600681526020017f303033303032000000000000000000000000000000000000000000000000000081525090610e9e576040517f08c379a0000000000000000000000000000000000000000000000000000000008152600401610e959190612564565b60405180910390fd5b50919050565b5f8073ffffffffffffffffffffffffffffffffffffffff168273ffffffffffffffffffffffffffffffffffffffff1614156040518060400160405280600681526020017f303033303031000000000000000000000000000000000000000000000000000081525090610f4c576040517f08c379a0000000000000000000000000000000000000000000000000000000008152600401610f439190612564565b60405180910390fd5b50610f5682611cf6565b9050919050565b6040518060400160405280600681526020017f303138303032000000000000000000000000000000000000000000000000000081525081565b60085f9054906101000a900473ffffffffffffffffffffffffffffffffffffffff1681565b606060068054610fca906129c3565b80601f0160208091040260200160405190810160405280929190818152602001828054610ff6906129c3565b80156110415780601f1061101857610100808354040283529160200191611041565b820191905f5260205f20905b81548152906001019060200180831161102457829003601f168201915b5050505050905090565b8060045f3373ffffffffffffffffffffffffffffffffffffffff1673ffffffffffffffffffffffffffffffffffffffff1681526020019081526020015f205f8473ffffffffffffffffffffffffffffffffffffffff1673ffffffffffffffffffffffffffffffffffffffff1681526020019081526020015f205f6101000a81548160ff0219169083151502179055508173ffffffffffffffffffffffffffffffffffffffff163373ffffffffffffffffffffffffffffffffffffffff167f17307eab39ab6107e8899845ad3d59bd9653f200f220920489ca2b5937696c318360405161113791906124c1565b60405180910390a35050565b61119285858585858080601f0160208091040260200160405190810160405280939291908181526020018383808284375f81840152601f19601f82011690508083019250505050505050611750565b5050505050565b6060815f73ffffffffffffffffffffffffffffffffffffffff1660015f8381526020019081526020015f205f9054906101000a900473ffffffffffffffffffffffffffffffffffffffff1673ffffffffffffffffffffffffffffffffffffffff1614156040518060400160405280600681526020017f303033303032000000000000000000000000000000000000000000000000000081525090611273576040517f08c379a000000000000000000000000000000000000000000000000000000000815260040161126a9190612564565b60405180910390fd5b5061127d83611d3c565b915050919050565b5f60045f8473ffffffffffffffffffffffffffffffffffffffff1673ffffffffffffffffffffffffffffffffffffffff1681526020019081526020015f205f8373ffffffffffffffffffffffffffffffffffffffff1673ffffffffffffffffffffffffffffffffffffffff1681526020019081526020015f205f9054906101000a900460ff16905092915050565b60085f9054906101000a900473ffffffffffffffffffffffffffffffffffffffff1673ffffffffffffffffffffffffffffffffffffffff163373ffffffffffffffffffffffffffffffffffffffff16146040518060400160405280600681526020017f3031383030310000000000000000000000000000000000000000000000000000815250906113da576040517f08c379a00000000000000000000000000000000000000000000000000000000081526004016113d19190612564565b60405180910390fd5b505f73ffffffffffffffffffffffffffffffffffffffff168173ffffffffffffffffffffffffffffffffffffffff1614156040518060400160405280600681526020017f303138303032000000000000000000000000000000000000000000000000000081525090611482576040517f08c379a00000000000000000000000000000000000000000000000000000000081526004016114799190612564565b60405180910390fd5b508073ffffffffffffffffffffffffffffffffffffffff1660085f9054906101000a900473ffffffffffffffffffffffffffffffffffffffff1673ffffffffffffffffffffffffffffffffffffffff167f8be0079c531659141344cd1fd0a4f28419497f9722a3daafe3b4186f6b6457e060405160405180910390a38060085f6101000a81548173ffffffffffffffffffffffffffffffffffffffff021916908373ffffffffffffffffffffffffffffffffffffffff16021790555050565b60085f9054906101000a900473ffffffffffffffffffffffffffffffffffffffff1673ffffffffffffffffffffffffffffffffffffffff163373ffffffffffffffffffffffffffffffffffffffff16146040518060400160405280600681526020017f303138303031000000000000000000000000000000000000000000000000000081525090611608576040517f08c379a00000000000000000000000000000000000000000000000000000000081526004016115ff9190612564565b60405180910390fd5b506116138484611ddd565b6116608383838080601f0160208091040260200160405190810160405280939291908181526020018383808284375f81840152601f19601f82011690508083019250505050505050611fc5565b50505050565b6040518060400160405280600681526020017f303138303031000000000000000000000000000000000000000000000000000081525081565b5f60015f8381526020019081526020015f205f9054906101000a900473ffffffffffffffffffffffffffffffffffffffff1690506116dc826120c2565b6116e681836120f8565b6116f0838361225a565b818373ffffffffffffffffffffffffffffffffffffffff168273ffffffffffffffffffffffffffffffffffffffff167fddf252ad1be2c89b69c2b068fc378daa952ba7f163c4a11628f55a4df523b3ef60405160405180910390a4505050565b815f60015f8381526020019081526020015f205f9054906101000a900473ffffffffffffffffffffffffffffffffffffffff1690503373ffffffffffffffffffffffffffffffffffffffff168173ffffffffffffffffffffffffffffffffffffffff16148061181a57503373ffffffffffffffffffffffffffffffffffffffff1660025f8481526020019081526020015f205f9054906101000a900473ffffffffffffffffffffffffffffffffffffffff1673ffffffffffffffffffffffffffffffffffffffff16145b806118a6575060045f8273ffffffffffffffffffffffffffffffffffffffff1673ffffffffffffffffffffffffffffffffffffffff1681526020019081526020015f205f3373ffffffffffffffffffffffffffffffffffffffff1673ffffffffffffffffffffffffffffffffffffffff1681526020019081526020015f205f9054906101000a900460ff165b6040518060400160405280600681526020017f30303330303400000000000000000000000000000000000000000000000000008152509061191d576040517f08c379a00000000000000000000000000000000000000000000000000000000081526004016119149190612564565b60405180910390fd5b50835f73ffffffffffffffffffffffffffffffffffffffff1660015f8381526020019081526020015f205f9054906101000a900473ffffffffffffffffffffffffffffffffffffffff1673ffffffffffffffffffffffffffffffffffffffff1614156040518060400160405280600681526020017f3030333030320000000000000000000000000000000000000000000000000000815250906119f6576040517f08c379a00000000000000000000000000000000000000000000000000000000081526004016119ed9190612564565b60405180910390fd5b505f60015f8781526020019081526020015f205f9054906101000a900473ffffffffffffffffffffffffffffffffffffffff1690508773ffffffffffffffffffffffffffffffffffffffff168173ffffffffffffffffffffffffffffffffffffffff16146040518060400160405280600681526020017f303033303037000000000000000000000000000000000000000000000000000081525090611ad1576040517f08c379a0000000000000000000000000000000000000000000000000000000008152600401611ac89190612564565b60405180910390fd5b505f73ffffffffffffffffffffffffffffffffffffffff168773ffffffffffffffffffffffffffffffffffffffff1614156040518060400160405280600681526020017f303033303031000000000000000000000000000000000000000000000000000081525090611b79576040517f08c379a0000000000000000000000000000000000000000000000000000000008152600401611b709190612564565b60405180910390fd5b50611b84878761169f565b611ba38773ffffffffffffffffffffffffffffffffffffffff166123d8565b15611cec575f8773ffffffffffffffffffffffffffffffffffffffff1663150b7a02338b8a8a6040518563ffffffff1660e01b8152600401611be89493929190612a45565b6020604051808303815f875af1158015611c04573d5f803e3d5ffd5b505050506040513d601f19601f82011682018060405250810190611c289190612aa3565b905063150b7a0260e01b7bffffffffffffffffffffffffffffffffffffffffffffffffffffffff1916817bffffffffffffffffffffffffffffffffffffffffffffffffffffffff1916146040518060400160405280600681526020017f303033303035000000000000000000000000000000000000000000000000000081525090611ce9576040517f08c379a0000000000000000000000000000000000000000000000000000000008152600401611ce09190612564565b60405180910390fd5b50505b5050505050505050565b5f60035f8373ffffffffffffffffffffffffffffffffffffffff1673ffffffffffffffffffffffffffffffffffffffff1681526020019081526020015f20549050919050565b606060075f8381526020019081526020015f208054611d5a906129c3565b80601f0160208091040260200160405190810160405280929190818152602001828054611d86906129c3565b8015611dd15780601f10611da857610100808354040283529160200191611dd1565b820191905f5260205f20905b815481529060010190602001808311611db457829003601f168201915b50505050509050919050565b5f73ffffffffffffffffffffffffffffffffffffffff168273ffffffffffffffffffffffffffffffffffffffff1614156040518060400160405280600681526020017f303033303031000000000000000000000000000000000000000000000000000081525090611e84576040517f08c379a0000000000000000000000000000000000000000000000000000000008152600401611e7b9190612564565b60405180910390fd5b505f73ffffffffffffffffffffffffffffffffffffffff1660015f8381526020019081526020015f205f9054906101000a900473ffffffffffffffffffffffffffffffffffffffff1673ffffffffffffffffffffffffffffffffffffffff16146040518060400160405280600681526020017f303033303036000000000000000000000000000000000000000000000000000081525090611f5b576040517f08c379a0000000000000000000000000000000000000000000000000000000008152600401611f529190612564565b60405180910390fd5b50611f66828261225a565b808273ffffffffffffffffffffffffffffffffffffffff165f73ffffffffffffffffffffffffffffffffffffffff167fddf252ad1be2c89b69c2b068fc378daa952ba7f163c4a11628f55a4df523b3ef60405160405180910390a45050565b815f73ffffffffffffffffffffffffffffffffffffffff1660015f8381526020019081526020015f205f9054906101000a900473ffffffffffffffffffffffffffffffffffffffff1673ffffffffffffffffffffffffffffffffffffffff1614156040518060400160405280600681526020017f30303330303200000000000000000000000000000000000000000000000000008152509061209d576040517f08c379a00000000000000000000000000000000000000000000000000000000081526004016120949190612564565b60405180910390fd5b508160075f8581526020019081526020015f2090816120bc9190612c98565b50505050565b60025f8281526020019081526020015f205f6101000a81549073ffffffffffffffffffffffffffffffffffffffff021916905550565b8173ffffffffffffffffffffffffffffffffffffffff1660015f8381526020019081526020015f205f9054906101000a900473ffffffffffffffffffffffffffffffffffffffff1673ffffffffffffffffffffffffffffffffffffffff16146040518060400160405280600681526020017f3030333030370000000000000000000000000000000000000000000000000000815250906121ce576040517f08c379a00000000000000000000000000000000000000000000000000000000081526004016121c59190612564565b60405180910390fd5b50600160035f8473ffffffffffffffffffffffffffffffffffffffff1673ffffffffffffffffffffffffffffffffffffffff1681526020019081526020015f205f82825461221c9190612d94565b9250508190555060015f8281526020019081526020015f205f6101000a81549073ffffffffffffffffffffffffffffffffffffffff02191690555050565b5f73ffffffffffffffffffffffffffffffffffffffff1660015f8381526020019081526020015f205f9054906101000a900473ffffffffffffffffffffffffffffffffffffffff1673ffffffffffffffffffffffffffffffffffffffff16146040518060400160405280600681526020017f303033303036000000000000000000000000000000000000000000000000000081525090612330576040517f08c379a00000000000000000000000000000000000000000000000000000000081526004016123279190612564565b60405180910390fd5b508160015f8381526020019081526020015f205f6101000a81548173ffffffffffffffffffffffffffffffffffffffff021916908373ffffffffffffffffffffffffffffffffffffffff160217905550600160035f8473ffffffffffffffffffffffffffffffffffffffff1673ffffffffffffffffffffffffffffffffffffffff1681526020019081526020015f205f8282546123cd9190612dc7565b925050819055505050565b5f805f7fc5d2460186f7233c927e7db2dcc703c0e500b653ca82273b7bfad8045d85a4705f1b9050833f91505f801b82141580156124165750808214155b92505050919050565b5f80fd5b5f80fd5b5f7fffffffff0000000000000000000000000000000000000000000000000000000082169050919050565b61245b81612427565b8114612465575f80fd5b50565b5f8135905061247681612452565b92915050565b5f602082840312156124915761249061241f565b5b5f61249e84828501612468565b91505092915050565b5f8115159050919050565b6124bb816124a7565b82525050565b5f6020820190506124d45f8301846124b2565b92915050565b5f81519050919050565b5f82825260208201905092915050565b5f5b838110156125115780820151818401526020810190506124f6565b5f8484015250505050565b5f601f19601f8301169050919050565b5f612536826124da565b61254081856124e4565b93506125508185602086016124f4565b6125598161251c565b840191505092915050565b5f6020820190508181035f83015261257c818461252c565b905092915050565b5f819050919050565b61259681612584565b81146125a0575f80fd5b50565b5f813590506125b18161258d565b92915050565b5f602082840312156125cc576125cb61241f565b5b5f6125d9848285016125a3565b91505092915050565b5f73ffffffffffffffffffffffffffffffffffffffff82169050919050565b5f61260b826125e2565b9050919050565b61261b81612601565b82525050565b5f6020820190506126345f830184612612565b92915050565b61264381612601565b811461264d575f80fd5b50565b5f8135905061265e8161263a565b92915050565b5f806040838503121561267a5761267961241f565b5b5f61268785828601612650565b9250506020612698858286016125a3565b9150509250929050565b5f805f606084860312156126b9576126b861241f565b5b5f6126c686828701612650565b93505060206126d786828701612650565b92505060406126e8868287016125a3565b9150509250925092565b5f602082840312156127075761270661241f565b5b5f61271484828501612650565b91505092915050565b61272681612584565b82525050565b5f60208201905061273f5f83018461271d565b92915050565b61274e816124a7565b8114612758575f80fd5b50565b5f8135905061276981612745565b92915050565b5f80604083850312156127855761278461241f565b5b5f61279285828601612650565b92505060206127a38582860161275b565b9150509250929050565b5f80fd5b5f80fd5b5f80fd5b5f8083601f8401126127ce576127cd6127ad565b5b8235905067ffffffffffffffff8111156127eb576127ea6127b1565b5b602083019150836001820283011115612807576128066127b5565b5b9250929050565b5f805f805f608086880312156128275761282661241f565b5b5f61283488828901612650565b955050602061284588828901612650565b9450506040612856888289016125a3565b935050606086013567ffffffffffffffff81111561287757612876612423565b5b612883888289016127b9565b92509250509295509295909350565b5f80604083850312156128a8576128a761241f565b5b5f6128b585828601612650565b92505060206128c685828601612650565b9150509250929050565b5f8083601f8401126128e5576128e46127ad565b5b8235905067ffffffffffffffff811115612902576129016127b1565b5b60208301915083600182028301111561291e5761291d6127b5565b5b9250929050565b5f805f806060858703121561293d5761293c61241f565b5b5f61294a87828801612650565b945050602061295b878288016125a3565b935050604085013567ffffffffffffffff81111561297c5761297b612423565b5b612988878288016128d0565b925092505092959194509250565b7f4e487b71000000000000000000000000000000000000000000000000000000005f52602260045260245ffd5b5f60028204905060018216806129da57607f821691505b6020821081036129ed576129ec612996565b5b50919050565b5f81519050919050565b5f82825260208201905092915050565b5f612a17826129f3565b612a2181856129fd565b9350612a318185602086016124f4565b612a3a8161251c565b840191505092915050565b5f608082019050612a585f830187612612565b612a656020830186612612565b612a72604083018561271d565b8181036060830152612a848184612a0d565b905095945050505050565b5f81519050612a9d81612452565b92915050565b5f60208284031215612ab857612ab761241f565b5b5f612ac584828501612a8f565b91505092915050565b7f4e487b71000000000000000000000000000000000000000000000000000000005f52604160045260245ffd5b5f819050815f5260205f209050919050565b5f6020601f8301049050919050565b5f82821b905092915050565b5f60088302612b577fffffffffffffffffffffffffffffffffffffffffffffffffffffffffffffffff82612b1c565b612b618683612b1c565b95508019841693508086168417925050509392505050565b5f819050919050565b5f612b9c612b97612b9284612584565b612b79565b612584565b9050919050565b5f819050919050565b612bb583612b82565b612bc9612bc182612ba3565b848454612b28565b825550505050565b5f90565b612bdd612bd1565b612be8818484612bac565b505050565b5b81811015612c0b57612c005f82612bd5565b600181019050612bee565b5050565b601f821115612c5057612c2181612afb565b612c2a84612b0d565b81016020851015612c39578190505b612c4d612c4585612b0d565b830182612bed565b50505b505050565b5f82821c905092915050565b5f612c705f1984600802612c55565b1980831691505092915050565b5f612c888383612c61565b9150826002028217905092915050565b612ca1826124da565b67ffffffffffffffff811115612cba57612cb9612ace565b5b612cc482546129c3565b612ccf828285612c0f565b5f60209050601f831160018114612d00575f8415612cee578287015190505b612cf88582612c7d565b865550612d5f565b601f198416612d0e86612afb565b5f5b82811015612d3557848901518255600182019150602085019450602081019050612d10565b86831015612d525784890151612d4e601f891682612c61565b8355505b6001600288020188555050505b505050505050565b7f4e487b71000000000000000000000000000000000000000000000000000000005f52601160045260245ffd5b5f612d9e82612584565b9150612da983612584565b9250828203905081811115612dc157612dc0612d67565b5b92915050565b5f612dd182612584565b9150612ddc83612584565b9250828201905080821115612df457612df3612d67565b5b9291505056fea264697066735822122095095f3836aa13f5b42478d93baabe7c43ca8a4683287d475965a22b758b863664736f6c63430008160033",
		"opcodes": "PUSH1 0x80 PUSH1 0x40 MSTORE CALLVALUE DUP1 ISZERO PUSH2 0xF JUMPI PUSH0 DUP1 REVERT JUMPDEST POP PUSH1 0x4 CALLDATASIZE LT PUSH2 0x114 JUMPI PUSH0 CALLDATALOAD PUSH1 0xE0 SHR DUP1 PUSH4 0x8DA5CB5B GT PUSH2 0xA0 JUMPI DUP1 PUSH4 0xC87B56DD GT PUSH2 0x6F JUMPI DUP1 PUSH4 0xC87B56DD EQ PUSH2 0x2DC JUMPI DUP1 PUSH4 0xE985E9C5 EQ PUSH2 0x30C JUMPI DUP1 PUSH4 0xF2FDE38B EQ PUSH2 0x33C JUMPI DUP1 PUSH4 0xF384A826 EQ PUSH2 0x358 JUMPI DUP1 PUSH4 0xF3FE3BC3 EQ PUSH2 0x374 JUMPI PUSH2 0x114 JUMP JUMPDEST DUP1 PUSH4 0x8DA5CB5B EQ PUSH2 0x268 JUMPI DUP1 PUSH4 0x95D89B41 EQ PUSH2 0x286 JUMPI DUP1 PUSH4 0xA22CB465 EQ PUSH2 0x2A4 JUMPI DUP1 PUSH4 0xB88D4FDE EQ PUSH2 0x2C0 JUMPI PUSH2 0x114 JUMP JUMPDEST DUP1 PUSH4 0x23B872DD GT PUSH2 0xE7 JUMPI DUP1 PUSH4 0x23B872DD EQ PUSH2 0x1B2 JUMPI DUP1 PUSH4 0x42842E0E EQ PUSH2 0x1CE JUMPI DUP1 PUSH4 0x6352211E EQ PUSH2 0x1EA JUMPI DUP1 PUSH4 0x70A08231 EQ PUSH2 0x21A JUMPI DUP1 PUSH4 0x860D248A EQ PUSH2 0x24A JUMPI PUSH2 0x114 JUMP JUMPDEST DUP1 PUSH4 0x1FFC9A7 EQ PUSH2 0x118 JUMPI DUP1 PUSH4 0x6FDDE03 EQ PUSH2 0x148 JUMPI DUP1 PUSH4 0x81812FC EQ PUSH2 0x166 JUMPI DUP1 PUSH4 0x95EA7B3 EQ PUSH2 0x196 JUMPI JUMPDEST PUSH0 DUP1 REVERT JUMPDEST PUSH2 0x132 PUSH1 0x4 DUP1 CALLDATASIZE SUB DUP2 ADD SWAP1 PUSH2 0x12D SWAP2 SWAP1 PUSH2 0x247C JUMP JUMPDEST PUSH2 0x392 JUMP JUMPDEST PUSH1 0x40 MLOAD PUSH2 0x13F SWAP2 SWAP1 PUSH2 0x24C1 JUMP JUMPDEST PUSH1 0x40 MLOAD DUP1 SWAP2 SUB SWAP1 RETURN JUMPDEST PUSH2 0x150 PUSH2 0x3F5 JUMP JUMPDEST PUSH1 0x40 MLOAD PUSH2 0x15D SWAP2 SWAP1 PUSH2 0x2564 JUMP JUMPDEST PUSH1 0x40 MLOAD DUP1 SWAP2 SUB SWAP1 RETURN JUMPDEST PUSH2 0x180 PUSH1 0x4 DUP1 CALLDATASIZE SUB DUP2 ADD SWAP1 PUSH2 0x17B SWAP2 SWAP1 PUSH2 0x25B7 JUMP JUMPDEST PUSH2 0x485 JUMP JUMPDEST PUSH1 0x40 MLOAD PUSH2 0x18D SWAP2 SWAP1 PUSH2 0x2621 JUMP JUMPDEST PUSH1 0x40 MLOAD DUP1 SWAP2 SUB SWAP1 RETURN JUMPDEST PUSH2 0x1B0 PUSH1 0x4 DUP1 CALLDATASIZE SUB DUP2 ADD SWAP1 PUSH2 0x1AB SWAP2 SWAP1 PUSH2 0x2664 JUMP JUMPDEST PUSH2 0x598 JUMP JUMPDEST STOP JUMPDEST PUSH2 0x1CC PUSH1 0x4 DUP1 CALLDATASIZE SUB DUP2 ADD SWAP1 PUSH2 0x1C7 SWAP2 SWAP1 PUSH2 0x26A2 JUMP JUMPDEST PUSH2 0x967 JUMP JUMPDEST STOP JUMPDEST PUSH2 0x1E8 PUSH1 0x4 DUP1 CALLDATASIZE SUB DUP2 ADD SWAP1 PUSH2 0x1E3 SWAP2 SWAP1 PUSH2 0x26A2 JUMP JUMPDEST PUSH2 0xDA4 JUMP JUMPDEST STOP JUMPDEST PUSH2 0x204 PUSH1 0x4 DUP1 CALLDATASIZE SUB DUP2 ADD SWAP1 PUSH2 0x1FF SWAP2 SWAP1 PUSH2 0x25B7 JUMP JUMPDEST PUSH2 0xDC3 JUMP JUMPDEST PUSH1 0x40 MLOAD PUSH2 0x211 SWAP2 SWAP1 PUSH2 0x2621 JUMP JUMPDEST PUSH1 0x40 MLOAD DUP1 SWAP2 SUB SWAP1 RETURN JUMPDEST PUSH2 0x234 PUSH1 0x4 DUP1 CALLDATASIZE SUB DUP2 ADD SWAP1 PUSH2 0x22F SWAP2 SWAP1 PUSH2 0x26F2 JUMP JUMPDEST PUSH2 0xEA4 JUMP JUMPDEST PUSH1 0x40 MLOAD PUSH2 0x241 SWAP2 SWAP1 PUSH2 0x272C JUMP JUMPDEST PUSH1 0x40 MLOAD DUP1 SWAP2 SUB SWAP1 RETURN JUMPDEST PUSH2 0x252 PUSH2 0xF5D JUMP JUMPDEST PUSH1 0x40 MLOAD PUSH2 0x25F SWAP2 SWAP1 PUSH2 0x2564 JUMP JUMPDEST PUSH1 0x40 MLOAD DUP1 SWAP2 SUB SWAP1 RETURN JUMPDEST PUSH2 0x270 PUSH2 0xF96 JUMP JUMPDEST PUSH1 0x40 MLOAD PUSH2 0x27D SWAP2 SWAP1 PUSH2 0x2621 JUMP JUMPDEST PUSH1 0x40 MLOAD DUP1 SWAP2 SUB SWAP1 RETURN JUMPDEST PUSH2 0x28E PUSH2 0xFBB JUMP JUMPDEST PUSH1 0x40 MLOAD PUSH2 0x29B SWAP2 SWAP1 PUSH2 0x2564 JUMP JUMPDEST PUSH1 0x40 MLOAD DUP1 SWAP2 SUB SWAP1 RETURN JUMPDEST PUSH2 0x2BE PUSH1 0x4 DUP1 CALLDATASIZE SUB DUP2 ADD SWAP1 PUSH2 0x2B9 SWAP2 SWAP1 PUSH2 0x276F JUMP JUMPDEST PUSH2 0x104B JUMP JUMPDEST STOP JUMPDEST PUSH2 0x2DA PUSH1 0x4 DUP1 CALLDATASIZE SUB DUP2 ADD SWAP1 PUSH2 0x2D5 SWAP2 SWAP1 PUSH2 0x280E JUMP JUMPDEST PUSH2 0x1143 JUMP JUMPDEST STOP JUMPDEST PUSH2 0x2F6 PUSH1 0x4 DUP1 CALLDATASIZE SUB DUP2 ADD SWAP1 PUSH2 0x2F1 SWAP2 SWAP1 PUSH2 0x25B7 JUMP JUMPDEST PUSH2 0x1199 JUMP JUMPDEST PUSH1 0x40 MLOAD PUSH2 0x303 SWAP2 SWAP1 PUSH2 0x2564 JUMP JUMPDEST PUSH1 0x40 MLOAD DUP1 SWAP2 SUB SWAP1 RETURN JUMPDEST PUSH2 0x326 PUSH1 0x4 DUP1 CALLDATASIZE SUB DUP2 ADD SWAP1 PUSH2 0x321 SWAP2 SWAP1 PUSH2 0x2892 JUMP JUMPDEST PUSH2 0x1285 JUMP JUMPDEST PUSH1 0x40 MLOAD PUSH2 0x333 SWAP2 SWAP1 PUSH2 0x24C1 JUMP JUMPDEST PUSH1 0x40 MLOAD DUP1 SWAP2 SUB SWAP1 RETURN JUMPDEST PUSH2 0x356 PUSH1 0x4 DUP1 CALLDATASIZE SUB DUP2 ADD SWAP1 PUSH2 0x351 SWAP2 SWAP1 PUSH2 0x26F2 JUMP JUMPDEST PUSH2 0x1313 JUMP JUMPDEST STOP JUMPDEST PUSH2 0x372 PUSH1 0x4 DUP1 CALLDATASIZE SUB DUP2 ADD SWAP1 PUSH2 0x36D SWAP2 SWAP1 PUSH2 0x2925 JUMP JUMPDEST PUSH2 0x1541 JUMP JUMPDEST STOP JUMPDEST PUSH2 0x37C PUSH2 0x1666 JUMP JUMPDEST PUSH1 0x40 MLOAD PUSH2 0x389 SWAP2 SWAP1 PUSH2 0x2564 JUMP JUMPDEST PUSH1 0x40 MLOAD DUP1 SWAP2 SUB SWAP1 RETURN JUMPDEST PUSH0 DUP1 PUSH0 DUP4 PUSH28 0xFFFFFFFFFFFFFFFFFFFFFFFFFFFFFFFFFFFFFFFFFFFFFFFFFFFFFFFF NOT AND PUSH28 0xFFFFFFFFFFFFFFFFFFFFFFFFFFFFFFFFFFFFFFFFFFFFFFFFFFFFFFFF NOT AND DUP2 MSTORE PUSH1 0x20 ADD SWAP1 DUP2 MSTORE PUSH1 0x20 ADD PUSH0 KECCAK256 PUSH0 SWAP1 SLOAD SWAP1 PUSH2 0x100 EXP SWAP1 DIV PUSH1 0xFF AND SWAP1 POP SWAP2 SWAP1 POP JUMP JUMPDEST PUSH1 0x60 PUSH1 0x5 DUP1 SLOAD PUSH2 0x404 SWAP1 PUSH2 0x29C3 JUMP JUMPDEST DUP1 PUSH1 0x1F ADD PUSH1 0x20 DUP1 SWAP2 DIV MUL PUSH1 0x20 ADD PUSH1 0x40 MLOAD SWAP1 DUP2 ADD PUSH1 0x40 MSTORE DUP1 SWAP3 SWAP2 SWAP1 DUP2 DUP2 MSTORE PUSH1 0x20 ADD DUP3 DUP1 SLOAD PUSH2 0x430 SWAP1 PUSH2 0x29C3 JUMP JUMPDEST DUP1 ISZERO PUSH2 0x47B JUMPI DUP1 PUSH1 0x1F LT PUSH2 0x452 JUMPI PUSH2 0x100 DUP1 DUP4 SLOAD DIV MUL DUP4 MSTORE SWAP2 PUSH1 0x20 ADD SWAP2 PUSH2 0x47B JUMP JUMPDEST DUP3 ADD SWAP2 SWAP1 PUSH0 MSTORE PUSH1 0x20 PUSH0 KECCAK256 SWAP1 JUMPDEST DUP2 SLOAD DUP2 MSTORE SWAP1 PUSH1 0x1 ADD SWAP1 PUSH1 0x20 ADD DUP1 DUP4 GT PUSH2 0x45E JUMPI DUP3 SWAP1 SUB PUSH1 0x1F AND DUP3 ADD SWAP2 JUMPDEST POP POP POP POP POP SWAP1 POP SWAP1 JUMP JUMPDEST PUSH0 DUP2 PUSH0 PUSH20 0xFFFFFFFFFFFFFFFFFFFFFFFFFFFFFFFFFFFFFFFF AND PUSH1 0x1 PUSH0 DUP4 DUP2 MSTORE PUSH1 0x20 ADD SWAP1 DUP2 MSTORE PUSH1 0x20 ADD PUSH0 KECCAK256 PUSH0 SWAP1 SLOAD SWAP1 PUSH2 0x100 EXP SWAP1 DIV PUSH20 0xFFFFFFFFFFFFFFFFFFFFFFFFFFFFFFFFFFFFFFFF AND PUSH20 0xFFFFFFFFFFFFFFFFFFFFFFFFFFFFFFFFFFFFFFFF AND EQ ISZERO PUSH1 0x40 MLOAD DUP1 PUSH1 0x40 ADD PUSH1 0x40 MSTORE DUP1 PUSH1 0x6 DUP2 MSTORE PUSH1 0x20 ADD PUSH32 0x3030333030320000000000000000000000000000000000000000000000000000 DUP2 MSTORE POP SWAP1 PUSH2 0x55E JUMPI PUSH1 0x40 MLOAD PUSH32 0x8C379A000000000000000000000000000000000000000000000000000000000 DUP2 MSTORE PUSH1 0x4 ADD PUSH2 0x555 SWAP2 SWAP1 PUSH2 0x2564 JUMP JUMPDEST PUSH1 0x40 MLOAD DUP1 SWAP2 SUB SWAP1 REVERT JUMPDEST POP PUSH1 0x2 PUSH0 DUP5 DUP2 MSTORE PUSH1 0x20 ADD SWAP1 DUP2 MSTORE PUSH1 0x20 ADD PUSH0 KECCAK256 PUSH0 SWAP1 SLOAD SWAP1 PUSH2 0x100 EXP SWAP1 DIV PUSH20 0xFFFFFFFFFFFFFFFFFFFFFFFFFFFFFFFFFFFFFFFF AND SWAP2 POP POP SWAP2 SWAP1 POP JUMP JUMPDEST DUP1 PUSH0 PUSH1 0x1 PUSH0 DUP4 DUP2 MSTORE PUSH1 0x20 ADD SWAP1 DUP2 MSTORE PUSH1 0x20 ADD PUSH0 KECCAK256 PUSH0 SWAP1 SLOAD SWAP1 PUSH2 0x100 EXP SWAP1 DIV PUSH20 0xFFFFFFFFFFFFFFFFFFFFFFFFFFFFFFFFFFFFFFFF AND SWAP1 POP CALLER PUSH20 0xFFFFFFFFFFFFFFFFFFFFFFFFFFFFFFFFFFFFFFFF AND DUP2 PUSH20 0xFFFFFFFFFFFFFFFFFFFFFFFFFFFFFFFFFFFFFFFF AND EQ DUP1 PUSH2 0x688 JUMPI POP PUSH1 0x4 PUSH0 DUP3 PUSH20 0xFFFFFFFFFFFFFFFFFFFFFFFFFFFFFFFFFFFFFFFF AND PUSH20 0xFFFFFFFFFFFFFFFFFFFFFFFFFFFFFFFFFFFFFFFF AND DUP2 MSTORE PUSH1 0x20 ADD SWAP1 DUP2 MSTORE PUSH1 0x20 ADD PUSH0 KECCAK256 PUSH0 CALLER PUSH20 0xFFFFFFFFFFFFFFFFFFFFFFFFFFFFFFFFFFFFFFFF AND PUSH20 0xFFFFFFFFFFFFFFFFFFFFFFFFFFFFFFFFFFFFFFFF AND DUP2 MSTORE PUSH1 0x20 ADD SWAP1 DUP2 MSTORE PUSH1 0x20 ADD PUSH0 KECCAK256 PUSH0 SWAP1 SLOAD SWAP1 PUSH2 0x100 EXP SWAP1 DIV PUSH1 0xFF AND JUMPDEST PUSH1 0x40 MLOAD DUP1 PUSH1 0x40 ADD PUSH1 0x40 MSTORE DUP1 PUSH1 0x6 DUP2 MSTORE PUSH1 0x20 ADD PUSH32 0x3030333030330000000000000000000000000000000000000000000000000000 DUP2 MSTORE POP SWAP1 PUSH2 0x6FF JUMPI PUSH1 0x40 MLOAD PUSH32 0x8C379A000000000000000000000000000000000000000000000000000000000 DUP2 MSTORE PUSH1 0x4 ADD PUSH2 0x6F6 SWAP2 SWAP1 PUSH2 0x2564 JUMP JUMPDEST PUSH1 0x40 MLOAD DUP1 SWAP2 SUB SWAP1 REVERT JUMPDEST POP DUP3 PUSH0 PUSH20 0xFFFFFFFFFFFFFFFFFFFFFFFFFFFFFFFFFFFFFFFF AND PUSH1 0x1 PUSH0 DUP4 DUP2 MSTORE PUSH1 0x20 ADD SWAP1 DUP2 MSTORE PUSH1 0x20 ADD PUSH0 KECCAK256 PUSH0 SWAP1 SLOAD SWAP1 PUSH2 0x100 EXP SWAP1 DIV PUSH20 0xFFFFFFFFFFFFFFFFFFFFFFFFFFFFFFFFFFFFFFFF AND PUSH20 0xFFFFFFFFFFFFFFFFFFFFFFFFFFFFFFFFFFFFFFFF AND EQ ISZERO PUSH1 0x40 MLOAD DUP1 PUSH1 0x40 ADD PUSH1 0x40 MSTORE DUP1 PUSH1 0x6 DUP2 MSTORE PUSH1 0x20 ADD PUSH32 0x3030333030320000000000000000000000000000000000000000000000000000 DUP2 MSTORE POP SWAP1 PUSH2 0x7D8 JUMPI PUSH1 0x40 MLOAD PUSH32 0x8C379A000000000000000000000000000000000000000000000000000000000 DUP2 MSTORE PUSH1 0x4 ADD PUSH2 0x7CF SWAP2 SWAP1 PUSH2 0x2564 JUMP JUMPDEST PUSH1 0x40 MLOAD DUP1 SWAP2 SUB SWAP1 REVERT JUMPDEST POP PUSH0 PUSH1 0x1 PUSH0 DUP7 DUP2 MSTORE PUSH1 0x20 ADD SWAP1 DUP2 MSTORE PUSH1 0x20 ADD PUSH0 KECCAK256 PUSH0 SWAP1 SLOAD SWAP1 PUSH2 0x100 EXP SWAP1 DIV PUSH20 0xFFFFFFFFFFFFFFFFFFFFFFFFFFFFFFFFFFFFFFFF AND SWAP1 POP DUP1 PUSH20 0xFFFFFFFFFFFFFFFFFFFFFFFFFFFFFFFFFFFFFFFF AND DUP7 PUSH20 0xFFFFFFFFFFFFFFFFFFFFFFFFFFFFFFFFFFFFFFFF AND EQ ISZERO PUSH1 0x40 MLOAD DUP1 PUSH1 0x40 ADD PUSH1 0x40 MSTORE DUP1 PUSH1 0x6 DUP2 MSTORE PUSH1 0x20 ADD PUSH32 0x3030333030380000000000000000000000000000000000000000000000000000 DUP2 MSTORE POP SWAP1 PUSH2 0x8B4 JUMPI PUSH1 0x40 MLOAD PUSH32 0x8C379A000000000000000000000000000000000000000000000000000000000 DUP2 MSTORE PUSH1 0x4 ADD PUSH2 0x8AB SWAP2 SWAP1 PUSH2 0x2564 JUMP JUMPDEST PUSH1 0x40 MLOAD DUP1 SWAP2 SUB SWAP1 REVERT JUMPDEST POP DUP6 PUSH1 0x2 PUSH0 DUP8 DUP2 MSTORE PUSH1 0x20 ADD SWAP1 DUP2 MSTORE PUSH1 0x20 ADD PUSH0 KECCAK256 PUSH0 PUSH2 0x100 EXP DUP2 SLOAD DUP2 PUSH20 0xFFFFFFFFFFFFFFFFFFFFFFFFFFFFFFFFFFFFFFFF MUL NOT AND SWAP1 DUP4 PUSH20 0xFFFFFFFFFFFFFFFFFFFFFFFFFFFFFFFFFFFFFFFF AND MUL OR SWAP1 SSTORE POP DUP5 DUP7 PUSH20 0xFFFFFFFFFFFFFFFFFFFFFFFFFFFFFFFFFFFFFFFF AND DUP3 PUSH20 0xFFFFFFFFFFFFFFFFFFFFFFFFFFFFFFFFFFFFFFFF AND PUSH32 0x8C5BE1E5EBEC7D5BD14F71427D1E84F3DD0314C0F7B2291E5B200AC8C7C3B925 PUSH1 0x40 MLOAD PUSH1 0x40 MLOAD DUP1 SWAP2 SUB SWAP1 LOG4 POP POP POP POP POP POP JUMP JUMPDEST DUP1 PUSH0 PUSH1 0x1 PUSH0 DUP4 DUP2 MSTORE PUSH1 0x20 ADD SWAP1 DUP2 MSTORE PUSH1 0x20 ADD PUSH0 KECCAK256 PUSH0 SWAP1 SLOAD SWAP1 PUSH2 0x100 EXP SWAP1 DIV PUSH20 0xFFFFFFFFFFFFFFFFFFFFFFFFFFFFFFFFFFFFFFFF AND SWAP1 POP CALLER PUSH20 0xFFFFFFFFFFFFFFFFFFFFFFFFFFFFFFFFFFFFFFFF AND DUP2 PUSH20 0xFFFFFFFFFFFFFFFFFFFFFFFFFFFFFFFFFFFFFFFF AND EQ DUP1 PUSH2 0xA31 JUMPI POP CALLER PUSH20 0xFFFFFFFFFFFFFFFFFFFFFFFFFFFFFFFFFFFFFFFF AND PUSH1 0x2 PUSH0 DUP5 DUP2 MSTORE PUSH1 0x20 ADD SWAP1 DUP2 MSTORE PUSH1 0x20 ADD PUSH0 KECCAK256 PUSH0 SWAP1 SLOAD SWAP1 PUSH2 0x100 EXP SWAP1 DIV PUSH20 0xFFFFFFFFFFFFFFFFFFFFFFFFFFFFFFFFFFFFFFFF AND PUSH20 0xFFFFFFFFFFFFFFFFFFFFFFFFFFFFFFFFFFFFFFFF AND EQ JUMPDEST DUP1 PUSH2 0xABD JUMPI POP PUSH1 0x4 PUSH0 DUP3 PUSH20 0xFFFFFFFFFFFFFFFFFFFFFFFFFFFFFFFFFFFFFFFF AND PUSH20 0xFFFFFFFFFFFFFFFFFFFFFFFFFFFFFFFFFFFFFFFF AND DUP2 MSTORE PUSH1 0x20 ADD SWAP1 DUP2 MSTORE PUSH1 0x20 ADD PUSH0 KECCAK256 PUSH0 CALLER PUSH20 0xFFFFFFFFFFFFFFFFFFFFFFFFFFFFFFFFFFFFFFFF AND PUSH20 0xFFFFFFFFFFFFFFFFFFFFFFFFFFFFFFFFFFFFFFFF AND DUP2 MSTORE PUSH1 0x20 ADD SWAP1 DUP2 MSTORE PUSH1 0x20 ADD PUSH0 KECCAK256 PUSH0 SWAP1 SLOAD SWAP1 PUSH2 0x100 EXP SWAP1 DIV PUSH1 0xFF AND JUMPDEST PUSH1 0x40 MLOAD DUP1 PUSH1 0x40 ADD PUSH1 0x40 MSTORE DUP1 PUSH1 0x6 DUP2 MSTORE PUSH1 0x20 ADD PUSH32 0x3030333030340000000000000000000000000000000000000000000000000000 DUP2 MSTORE POP SWAP1 PUSH2 0xB34 JUMPI PUSH1 0x40 MLOAD PUSH32 0x8C379A000000000000000000000000000000000000000000000000000000000 DUP2 MSTORE PUSH1 0x4 ADD PUSH2 0xB2B SWAP2 SWAP1 PUSH2 0x2564 JUMP JUMPDEST PUSH1 0x40 MLOAD DUP1 SWAP2 SUB SWAP1 REVERT JUMPDEST POP DUP3 PUSH0 PUSH20 0xFFFFFFFFFFFFFFFFFFFFFFFFFFFFFFFFFFFFFFFF AND PUSH1 0x1 PUSH0 DUP4 DUP2 MSTORE PUSH1 0x20 ADD SWAP1 DUP2 MSTORE PUSH1 0x20 ADD PUSH0 KECCAK256 PUSH0 SWAP1 SLOAD SWAP1 PUSH2 0x100 EXP SWAP1 DIV PUSH20 0xFFFFFFFFFFFFFFFFFFFFFFFFFFFFFFFFFFFFFFFF AND PUSH20 0xFFFFFFFFFFFFFFFFFFFFFFFFFFFFFFFFFFFFFFFF AND EQ ISZERO PUSH1 0x40 MLOAD DUP1 PUSH1 0x40 ADD PUSH1 0x40 MSTORE DUP1 PUSH1 0x6 DUP2 MSTORE PUSH1 0x20 ADD PUSH32 0x3030333030320000000000000000000000000000000000000000000000000000 DUP2 MSTORE POP SWAP1 PUSH2 0xC0D JUMPI PUSH1 0x40 MLOAD PUSH32 0x8C379A000000000000000000000000000000000000000000000000000000000 DUP2 MSTORE PUSH1 0x4 ADD PUSH2 0xC04 SWAP2 SWAP1 PUSH2 0x2564 JUMP JUMPDEST PUSH1 0x40 MLOAD DUP1 SWAP2 SUB SWAP1 REVERT JUMPDEST POP PUSH0 PUSH1 0x1 PUSH0 DUP7 DUP2 MSTORE PUSH1 0x20 ADD SWAP1 DUP2 MSTORE PUSH1 0x20 ADD PUSH0 KECCAK256 PUSH0 SWAP1 SLOAD SWAP1 PUSH2 0x100 EXP SWAP1 DIV PUSH20 0xFFFFFFFFFFFFFFFFFFFFFFFFFFFFFFFFFFFFFFFF AND SWAP1 POP DUP7 PUSH20 0xFFFFFFFFFFFFFFFFFFFFFFFFFFFFFFFFFFFFFFFF AND DUP2 PUSH20 0xFFFFFFFFFFFFFFFFFFFFFFFFFFFFFFFFFFFFFFFF AND EQ PUSH1 0x40 MLOAD DUP1 PUSH1 0x40 ADD PUSH1 0x40 MSTORE DUP1 PUSH1 0x6 DUP2 MSTORE PUSH1 0x20 ADD PUSH32 0x3030333030370000000000000000000000000000000000000000000000000000 DUP2 MSTORE POP SWAP1 PUSH2 0xCE8 JUMPI PUSH1 0x40 MLOAD PUSH32 0x8C379A000000000000000000000000000000000000000000000000000000000 DUP2 MSTORE PUSH1 0x4 ADD PUSH2 0xCDF SWAP2 SWAP1 PUSH2 0x2564 JUMP JUMPDEST PUSH1 0x40 MLOAD DUP1 SWAP2 SUB SWAP1 REVERT JUMPDEST POP PUSH0 PUSH20 0xFFFFFFFFFFFFFFFFFFFFFFFFFFFFFFFFFFFFFFFF AND DUP7 PUSH20 0xFFFFFFFFFFFFFFFFFFFFFFFFFFFFFFFFFFFFFFFF AND EQ ISZERO PUSH1 0x40 MLOAD DUP1 PUSH1 0x40 ADD PUSH1 0x40 MSTORE DUP1 PUSH1 0x6 DUP2 MSTORE PUSH1 0x20 ADD PUSH32 0x3030333030310000000000000000000000000000000000000000000000000000 DUP2 MSTORE POP SWAP1 PUSH2 0xD90 JUMPI PUSH1 0x40 MLOAD PUSH32 0x8C379A000000000000000000000000000000000000000000000000000000000 DUP2 MSTORE PUSH1 0x4 ADD PUSH2 0xD87 SWAP2 SWAP1 PUSH2 0x2564 JUMP JUMPDEST PUSH1 0x40 MLOAD DUP1 SWAP2 SUB SWAP1 REVERT JUMPDEST POP PUSH2 0xD9B DUP7 DUP7 PUSH2 0x169F JUMP JUMPDEST POP POP POP POP POP POP POP JUMP JUMPDEST PUSH2 0xDBE DUP4 DUP4 DUP4 PUSH1 0x40 MLOAD DUP1 PUSH1 0x20 ADD PUSH1 0x40 MSTORE DUP1 PUSH0 DUP2 MSTORE POP PUSH2 0x1750 JUMP JUMPDEST POP POP POP JUMP JUMPDEST PUSH0 PUSH1 0x1 PUSH0 DUP4 DUP2 MSTORE PUSH1 0x20 ADD SWAP1 DUP2 MSTORE PUSH1 0x20 ADD PUSH0 KECCAK256 PUSH0 SWAP1 SLOAD SWAP1 PUSH2 0x100 EXP SWAP1 DIV PUSH20 0xFFFFFFFFFFFFFFFFFFFFFFFFFFFFFFFFFFFFFFFF AND SWAP1 POP PUSH0 PUSH20 0xFFFFFFFFFFFFFFFFFFFFFFFFFFFFFFFFFFFFFFFF AND DUP2 PUSH20 0xFFFFFFFFFFFFFFFFFFFFFFFFFFFFFFFFFFFFFFFF AND EQ ISZERO PUSH1 0x40 MLOAD DUP1 PUSH1 0x40 ADD PUSH1 0x40 MSTORE DUP1 PUSH1 0x6 DUP2 MSTORE PUSH1 0x20 ADD PUSH32 0x3030333030320000000000000000000000000000000000000000000000000000 DUP2 MSTORE POP SWAP1 PUSH2 0xE9E JUMPI PUSH1 0x40 MLOAD PUSH32 0x8C379A000000000000000000000000000000000000000000000000000000000 DUP2 MSTORE PUSH1 0x4 ADD PUSH2 0xE95 SWAP2 SWAP1 PUSH2 0x2564 JUMP JUMPDEST PUSH1 0x40 MLOAD DUP1 SWAP2 SUB SWAP1 REVERT JUMPDEST POP SWAP2 SWAP1 POP JUMP JUMPDEST PUSH0 DUP1 PUSH20 0xFFFFFFFFFFFFFFFFFFFFFFFFFFFFFFFFFFFFFFFF AND DUP3 PUSH20 0xFFFFFFFFFFFFFFFFFFFFFFFFFFFFFFFFFFFFFFFF AND EQ ISZERO PUSH1 0x40 MLOAD DUP1 PUSH1 0x40 ADD PUSH1 0x40 MSTORE DUP1 PUSH1 0x6 DUP2 MSTORE PUSH1 0x20 ADD PUSH32 0x3030333030310000000000000000000000000000000000000000000000000000 DUP2 MSTORE POP SWAP1 PUSH2 0xF4C JUMPI PUSH1 0x40 MLOAD PUSH32 0x8C379A000000000000000000000000000000000000000000000000000000000 DUP2 MSTORE PUSH1 0x4 ADD PUSH2 0xF43 SWAP2 SWAP1 PUSH2 0x2564 JUMP JUMPDEST PUSH1 0x40 MLOAD DUP1 SWAP2 SUB SWAP1 REVERT JUMPDEST POP PUSH2 0xF56 DUP3 PUSH2 0x1CF6 JUMP JUMPDEST SWAP1 POP SWAP2 SWAP1 POP JUMP JUMPDEST PUSH1 0x40 MLOAD DUP1 PUSH1 0x40 ADD PUSH1 0x40 MSTORE DUP1 PUSH1 0x6 DUP2 MSTORE PUSH1 0x20 ADD PUSH32 0x3031383030320000000000000000000000000000000000000000000000000000 DUP2 MSTORE POP DUP2 JUMP JUMPDEST PUSH1 0x8 PUSH0 SWAP1 SLOAD SWAP1 PUSH2 0x100 EXP SWAP1 DIV PUSH20 0xFFFFFFFFFFFFFFFFFFFFFFFFFFFFFFFFFFFFFFFF AND DUP2 JUMP JUMPDEST PUSH1 0x60 PUSH1 0x6 DUP1 SLOAD PUSH2 0xFCA SWAP1 PUSH2 0x29C3 JUMP JUMPDEST DUP1 PUSH1 0x1F ADD PUSH1 0x20 DUP1 SWAP2 DIV MUL PUSH1 0x20 ADD PUSH1 0x40 MLOAD SWAP1 DUP2 ADD PUSH1 0x40 MSTORE DUP1 SWAP3 SWAP2 SWAP1 DUP2 DUP2 MSTORE PUSH1 0x20 ADD DUP3 DUP1 SLOAD PUSH2 0xFF6 SWAP1 PUSH2 0x29C3 JUMP JUMPDEST DUP1 ISZERO PUSH2 0x1041 JUMPI DUP1 PUSH1 0x1F LT PUSH2 0x1018 JUMPI PUSH2 0x100 DUP1 DUP4 SLOAD DIV MUL DUP4 MSTORE SWAP2 PUSH1 0x20 ADD SWAP2 PUSH2 0x1041 JUMP JUMPDEST DUP3 ADD SWAP2 SWAP1 PUSH0 MSTORE PUSH1 0x20 PUSH0 KECCAK256 SWAP1 JUMPDEST DUP2 SLOAD DUP2 MSTORE SWAP1 PUSH1 0x1 ADD SWAP1 PUSH1 0x20 ADD DUP1 DUP4 GT PUSH2 0x1024 JUMPI DUP3 SWAP1 SUB PUSH1 0x1F AND DUP3 ADD SWAP2 JUMPDEST POP POP POP POP POP SWAP1 POP SWAP1 JUMP JUMPDEST DUP1 PUSH1 0x4 PUSH0 CALLER PUSH20 0xFFFFFFFFFFFFFFFFFFFFFFFFFFFFFFFFFFFFFFFF AND PUSH20 0xFFFFFFFFFFFFFFFFFFFFFFFFFFFFFFFFFFFFFFFF AND DUP2 MSTORE PUSH1 0x20 ADD SWAP1 DUP2 MSTORE PUSH1 0x20 ADD PUSH0 KECCAK256 PUSH0 DUP5 PUSH20 0xFFFFFFFFFFFFFFFFFFFFFFFFFFFFFFFFFFFFFFFF AND PUSH20 0xFFFFFFFFFFFFFFFFFFFFFFFFFFFFFFFFFFFFFFFF AND DUP2 MSTORE PUSH1 0x20 ADD SWAP1 DUP2 MSTORE PUSH1 0x20 ADD PUSH0 KECCAK256 PUSH0 PUSH2 0x100 EXP DUP2 SLOAD DUP2 PUSH1 0xFF MUL NOT AND SWAP1 DUP4 ISZERO ISZERO MUL OR SWAP1 SSTORE POP DUP2 PUSH20 0xFFFFFFFFFFFFFFFFFFFFFFFFFFFFFFFFFFFFFFFF AND CALLER PUSH20 0xFFFFFFFFFFFFFFFFFFFFFFFFFFFFFFFFFFFFFFFF AND PUSH32 0x17307EAB39AB6107E8899845AD3D59BD9653F200F220920489CA2B5937696C31 DUP4 PUSH1 0x40 MLOAD PUSH2 0x1137 SWAP2 SWAP1 PUSH2 0x24C1 JUMP JUMPDEST PUSH1 0x40 MLOAD DUP1 SWAP2 SUB SWAP1 LOG3 POP POP JUMP JUMPDEST PUSH2 0x1192 DUP6 DUP6 DUP6 DUP6 DUP6 DUP1 DUP1 PUSH1 0x1F ADD PUSH1 0x20 DUP1 SWAP2 DIV MUL PUSH1 0x20 ADD PUSH1 0x40 MLOAD SWAP1 DUP2 ADD PUSH1 0x40 MSTORE DUP1 SWAP4 SWAP3 SWAP2 SWAP1 DUP2 DUP2 MSTORE PUSH1 0x20 ADD DUP4 DUP4 DUP1 DUP3 DUP5 CALLDATACOPY PUSH0 DUP2 DUP5 ADD MSTORE PUSH1 0x1F NOT PUSH1 0x1F DUP3 ADD AND SWAP1 POP DUP1 DUP4 ADD SWAP3 POP POP POP POP POP POP POP PUSH2 0x1750 JUMP JUMPDEST POP POP POP POP POP JUMP JUMPDEST PUSH1 0x60 DUP2 PUSH0 PUSH20 0xFFFFFFFFFFFFFFFFFFFFFFFFFFFFFFFFFFFFFFFF AND PUSH1 0x1 PUSH0 DUP4 DUP2 MSTORE PUSH1 0x20 ADD SWAP1 DUP2 MSTORE PUSH1 0x20 ADD PUSH0 KECCAK256 PUSH0 SWAP1 SLOAD SWAP1 PUSH2 0x100 EXP SWAP1 DIV PUSH20 0xFFFFFFFFFFFFFFFFFFFFFFFFFFFFFFFFFFFFFFFF AND PUSH20 0xFFFFFFFFFFFFFFFFFFFFFFFFFFFFFFFFFFFFFFFF AND EQ ISZERO PUSH1 0x40 MLOAD DUP1 PUSH1 0x40 ADD PUSH1 0x40 MSTORE DUP1 PUSH1 0x6 DUP2 MSTORE PUSH1 0x20 ADD PUSH32 0x3030333030320000000000000000000000000000000000000000000000000000 DUP2 MSTORE POP SWAP1 PUSH2 0x1273 JUMPI PUSH1 0x40 MLOAD PUSH32 0x8C379A000000000000000000000000000000000000000000000000000000000 DUP2 MSTORE PUSH1 0x4 ADD PUSH2 0x126A SWAP2 SWAP1 PUSH2 0x2564 JUMP JUMPDEST PUSH1 0x40 MLOAD DUP1 SWAP2 SUB SWAP1 REVERT JUMPDEST POP PUSH2 0x127D DUP4 PUSH2 0x1D3C JUMP JUMPDEST SWAP2 POP POP SWAP2 SWAP1 POP JUMP JUMPDEST PUSH0 PUSH1 0x4 PUSH0 DUP5 PUSH20 0xFFFFFFFFFFFFFFFFFFFFFFFFFFFFFFFFFFFFFFFF AND PUSH20 0xFFFFFFFFFFFFFFFFFFFFFFFFFFFFFFFFFFFFFFFF AND DUP2 MSTORE PUSH1 0x20 ADD SWAP1 DUP2 MSTORE PUSH1 0x20 ADD PUSH0 KECCAK256 PUSH0 DUP4 PUSH20 0xFFFFFFFFFFFFFFFFFFFFFFFFFFFFFFFFFFFFFFFF AND PUSH20 0xFFFFFFFFFFFFFFFFFFFFFFFFFFFFFFFFFFFFFFFF AND DUP2 MSTORE PUSH1 0x20 ADD SWAP1 DUP2 MSTORE PUSH1 0x20 ADD PUSH0 KECCAK256 PUSH0 SWAP1 SLOAD SWAP1 PUSH2 0x100 EXP SWAP1 DIV PUSH1 0xFF AND SWAP1 POP SWAP3 SWAP2 POP POP JUMP JUMPDEST PUSH1 0x8 PUSH0 SWAP1 SLOAD SWAP1 PUSH2 0x100 EXP SWAP1 DIV PUSH20 0xFFFFFFFFFFFFFFFFFFFFFFFFFFFFFFFFFFFFFFFF AND PUSH20 0xFFFFFFFFFFFFFFFFFFFFFFFFFFFFFFFFFFFFFFFF AND CALLER PUSH20 0xFFFFFFFFFFFFFFFFFFFFFFFFFFFFFFFFFFFFFFFF AND EQ PUSH1 0x40 MLOAD DUP1 PUSH1 0x40 ADD PUSH1 0x40 MSTORE DUP1 PUSH1 0x6 DUP2 MSTORE PUSH1 0x20 ADD PUSH32 0x3031383030310000000000000000000000000000000000000000000000000000 DUP2 MSTORE POP SWAP1 PUSH2 0x13DA JUMPI PUSH1 0x40 MLOAD PUSH32 0x8C379A000000000000000000000000000000000000000000000000000000000 DUP2 MSTORE PUSH1 0x4 ADD PUSH2 0x13D1 SWAP2 SWAP1 PUSH2 0x2564 JUMP JUMPDEST PUSH1 0x40 MLOAD DUP1 SWAP2 SUB SWAP1 REVERT JUMPDEST POP PUSH0 PUSH20 0xFFFFFFFFFFFFFFFFFFFFFFFFFFFFFFFFFFFFFFFF AND DUP2 PUSH20 0xFFFFFFFFFFFFFFFFFFFFFFFFFFFFFFFFFFFFFFFF AND EQ ISZERO PUSH1 0x40 MLOAD DUP1 PUSH1 0x40 ADD PUSH1 0x40 MSTORE DUP1 PUSH1 0x6 DUP2 MSTORE PUSH1 0x20 ADD PUSH32 0x3031383030320000000000000000000000000000000000000000000000000000 DUP2 MSTORE POP SWAP1 PUSH2 0x1482 JUMPI PUSH1 0x40 MLOAD PUSH32 0x8C379A000000000000000000000000000000000000000000000000000000000 DUP2 MSTORE PUSH1 0x4 ADD PUSH2 0x1479 SWAP2 SWAP1 PUSH2 0x2564 JUMP JUMPDEST PUSH1 0x40 MLOAD DUP1 SWAP2 SUB SWAP1 REVERT JUMPDEST POP DUP1 PUSH20 0xFFFFFFFFFFFFFFFFFFFFFFFFFFFFFFFFFFFFFFFF AND PUSH1 0x8 PUSH0 SWAP1 SLOAD SWAP1 PUSH2 0x100 EXP SWAP1 DIV PUSH20 0xFFFFFFFFFFFFFFFFFFFFFFFFFFFFFFFFFFFFFFFF AND PUSH20 0xFFFFFFFFFFFFFFFFFFFFFFFFFFFFFFFFFFFFFFFF AND PUSH32 0x8BE0079C531659141344CD1FD0A4F28419497F9722A3DAAFE3B4186F6B6457E0 PUSH1 0x40 MLOAD PUSH1 0x40 MLOAD DUP1 SWAP2 SUB SWAP1 LOG3 DUP1 PUSH1 0x8 PUSH0 PUSH2 0x100 EXP DUP2 SLOAD DUP2 PUSH20 0xFFFFFFFFFFFFFFFFFFFFFFFFFFFFFFFFFFFFFFFF MUL NOT AND SWAP1 DUP4 PUSH20 0xFFFFFFFFFFFFFFFFFFFFFFFFFFFFFFFFFFFFFFFF AND MUL OR SWAP1 SSTORE POP POP JUMP JUMPDEST PUSH1 0x8 PUSH0 SWAP1 SLOAD SWAP1 PUSH2 0x100 EXP SWAP1 DIV PUSH20 0xFFFFFFFFFFFFFFFFFFFFFFFFFFFFFFFFFFFFFFFF AND PUSH20 0xFFFFFFFFFFFFFFFFFFFFFFFFFFFFFFFFFFFFFFFF AND CALLER PUSH20 0xFFFFFFFFFFFFFFFFFFFFFFFFFFFFFFFFFFFFFFFF AND EQ PUSH1 0x40 MLOAD DUP1 PUSH1 0x40 ADD PUSH1 0x40 MSTORE DUP1 PUSH1 0x6 DUP2 MSTORE PUSH1 0x20 ADD PUSH32 0x3031383030310000000000000000000000000000000000000000000000000000 DUP2 MSTORE POP SWAP1 PUSH2 0x1608 JUMPI PUSH1 0x40 MLOAD PUSH32 0x8C379A000000000000000000000000000000000000000000000000000000000 DUP2 MSTORE PUSH1 0x4 ADD PUSH2 0x15FF SWAP2 SWAP1 PUSH2 0x2564 JUMP JUMPDEST PUSH1 0x40 MLOAD DUP1 SWAP2 SUB SWAP1 REVERT JUMPDEST POP PUSH2 0x1613 DUP5 DUP5 PUSH2 0x1DDD JUMP JUMPDEST PUSH2 0x1660 DUP4 DUP4 DUP4 DUP1 DUP1 PUSH1 0x1F ADD PUSH1 0x20 DUP1 SWAP2 DIV MUL PUSH1 0x20 ADD PUSH1 0x40 MLOAD SWAP1 DUP2 ADD PUSH1 0x40 MSTORE DUP1 SWAP4 SWAP3 SWAP2 SWAP1 DUP2 DUP2 MSTORE PUSH1 0x20 ADD DUP4 DUP4 DUP1 DUP3 DUP5 CALLDATACOPY PUSH0 DUP2 DUP5 ADD MSTORE PUSH1 0x1F NOT PUSH1 0x1F DUP3 ADD AND SWAP1 POP DUP1 DUP4 ADD SWAP3 POP POP POP POP POP POP POP PUSH2 0x1FC5 JUMP JUMPDEST POP POP POP POP JUMP JUMPDEST PUSH1 0x40 MLOAD DUP1 PUSH1 0x40 ADD PUSH1 0x40 MSTORE DUP1 PUSH1 0x6 DUP2 MSTORE PUSH1 0x20 ADD PUSH32 0x3031383030310000000000000000000000000000000000000000000000000000 DUP2 MSTORE POP DUP2 JUMP JUMPDEST PUSH0 PUSH1 0x1 PUSH0 DUP4 DUP2 MSTORE PUSH1 0x20 ADD SWAP1 DUP2 MSTORE PUSH1 0x20 ADD PUSH0 KECCAK256 PUSH0 SWAP1 SLOAD SWAP1 PUSH2 0x100 EXP SWAP1 DIV PUSH20 0xFFFFFFFFFFFFFFFFFFFFFFFFFFFFFFFFFFFFFFFF AND SWAP1 POP PUSH2 0x16DC DUP3 PUSH2 0x20C2 JUMP JUMPDEST PUSH2 0x16E6 DUP2 DUP4 PUSH2 0x20F8 JUMP JUMPDEST PUSH2 0x16F0 DUP4 DUP4 PUSH2 0x225A JUMP JUMPDEST DUP2 DUP4 PUSH20 0xFFFFFFFFFFFFFFFFFFFFFFFFFFFFFFFFFFFFFFFF AND DUP3 PUSH20 0xFFFFFFFFFFFFFFFFFFFFFFFFFFFFFFFFFFFFFFFF AND PUSH32 0xDDF252AD1BE2C89B69C2B068FC378DAA952BA7F163C4A11628F55A4DF523B3EF PUSH1 0x40 MLOAD PUSH1 0x40 MLOAD DUP1 SWAP2 SUB SWAP1 LOG4 POP POP POP JUMP JUMPDEST DUP2 PUSH0 PUSH1 0x1 PUSH0 DUP4 DUP2 MSTORE PUSH1 0x20 ADD SWAP1 DUP2 MSTORE PUSH1 0x20 ADD PUSH0 KECCAK256 PUSH0 SWAP1 SLOAD SWAP1 PUSH2 0x100 EXP SWAP1 DIV PUSH20 0xFFFFFFFFFFFFFFFFFFFFFFFFFFFFFFFFFFFFFFFF AND SWAP1 POP CALLER PUSH20 0xFFFFFFFFFFFFFFFFFFFFFFFFFFFFFFFFFFFFFFFF AND DUP2 PUSH20 0xFFFFFFFFFFFFFFFFFFFFFFFFFFFFFFFFFFFFFFFF AND EQ DUP1 PUSH2 0x181A JUMPI POP CALLER PUSH20 0xFFFFFFFFFFFFFFFFFFFFFFFFFFFFFFFFFFFFFFFF AND PUSH1 0x2 PUSH0 DUP5 DUP2 MSTORE PUSH1 0x20 ADD SWAP1 DUP2 MSTORE PUSH1 0x20 ADD PUSH0 KECCAK256 PUSH0 SWAP1 SLOAD SWAP1 PUSH2 0x100 EXP SWAP1 DIV PUSH20 0xFFFFFFFFFFFFFFFFFFFFFFFFFFFFFFFFFFFFFFFF AND PUSH20 0xFFFFFFFFFFFFFFFFFFFFFFFFFFFFFFFFFFFFFFFF AND EQ JUMPDEST DUP1 PUSH2 0x18A6 JUMPI POP PUSH1 0x4 PUSH0 DUP3 PUSH20 0xFFFFFFFFFFFFFFFFFFFFFFFFFFFFFFFFFFFFFFFF AND PUSH20 0xFFFFFFFFFFFFFFFFFFFFFFFFFFFFFFFFFFFFFFFF AND DUP2 MSTORE PUSH1 0x20 ADD SWAP1 DUP2 MSTORE PUSH1 0x20 ADD PUSH0 KECCAK256 PUSH0 CALLER PUSH20 0xFFFFFFFFFFFFFFFFFFFFFFFFFFFFFFFFFFFFFFFF AND PUSH20 0xFFFFFFFFFFFFFFFFFFFFFFFFFFFFFFFFFFFFFFFF AND DUP2 MSTORE PUSH1 0x20 ADD SWAP1 DUP2 MSTORE PUSH1 0x20 ADD PUSH0 KECCAK256 PUSH0 SWAP1 SLOAD SWAP1 PUSH2 0x100 EXP SWAP1 DIV PUSH1 0xFF AND JUMPDEST PUSH1 0x40 MLOAD DUP1 PUSH1 0x40 ADD PUSH1 0x40 MSTORE DUP1 PUSH1 0x6 DUP2 MSTORE PUSH1 0x20 ADD PUSH32 0x3030333030340000000000000000000000000000000000000000000000000000 DUP2 MSTORE POP SWAP1 PUSH2 0x191D JUMPI PUSH1 0x40 MLOAD PUSH32 0x8C379A000000000000000000000000000000000000000000000000000000000 DUP2 MSTORE PUSH1 0x4 ADD PUSH2 0x1914 SWAP2 SWAP1 PUSH2 0x2564 JUMP JUMPDEST PUSH1 0x40 MLOAD DUP1 SWAP2 SUB SWAP1 REVERT JUMPDEST POP DUP4 PUSH0 PUSH20 0xFFFFFFFFFFFFFFFFFFFFFFFFFFFFFFFFFFFFFFFF AND PUSH1 0x1 PUSH0 DUP4 DUP2 MSTORE PUSH1 0x20 ADD SWAP1 DUP2 MSTORE PUSH1 0x20 ADD PUSH0 KECCAK256 PUSH0 SWAP1 SLOAD SWAP1 PUSH2 0x100 EXP SWAP1 DIV PUSH20 0xFFFFFFFFFFFFFFFFFFFFFFFFFFFFFFFFFFFFFFFF AND PUSH20 0xFFFFFFFFFFFFFFFFFFFFFFFFFFFFFFFFFFFFFFFF AND EQ ISZERO PUSH1 0x40 MLOAD DUP1 PUSH1 0x40 ADD PUSH1 0x40 MSTORE DUP1 PUSH1 0x6 DUP2 MSTORE PUSH1 0x20 ADD PUSH32 0x3030333030320000000000000000000000000000000000000000000000000000 DUP2 MSTORE POP SWAP1 PUSH2 0x19F6 JUMPI PUSH1 0x40 MLOAD PUSH32 0x8C379A000000000000000000000000000000000000000000000000000000000 DUP2 MSTORE PUSH1 0x4 ADD PUSH2 0x19ED SWAP2 SWAP1 PUSH2 0x2564 JUMP JUMPDEST PUSH1 0x40 MLOAD DUP1 SWAP2 SUB SWAP1 REVERT JUMPDEST POP PUSH0 PUSH1 0x1 PUSH0 DUP8 DUP2 MSTORE PUSH1 0x20 ADD SWAP1 DUP2 MSTORE PUSH1 0x20 ADD PUSH0 KECCAK256 PUSH0 SWAP1 SLOAD SWAP1 PUSH2 0x100 EXP SWAP1 DIV PUSH20 0xFFFFFFFFFFFFFFFFFFFFFFFFFFFFFFFFFFFFFFFF AND SWAP1 POP DUP8 PUSH20 0xFFFFFFFFFFFFFFFFFFFFFFFFFFFFFFFFFFFFFFFF AND DUP2 PUSH20 0xFFFFFFFFFFFFFFFFFFFFFFFFFFFFFFFFFFFFFFFF AND EQ PUSH1 0x40 MLOAD DUP1 PUSH1 0x40 ADD PUSH1 0x40 MSTORE DUP1 PUSH1 0x6 DUP2 MSTORE PUSH1 0x20 ADD PUSH32 0x3030333030370000000000000000000000000000000000000000000000000000 DUP2 MSTORE POP SWAP1 PUSH2 0x1AD1 JUMPI PUSH1 0x40 MLOAD PUSH32 0x8C379A000000000000000000000000000000000000000000000000000000000 DUP2 MSTORE PUSH1 0x4 ADD PUSH2 0x1AC8 SWAP2 SWAP1 PUSH2 0x2564 JUMP JUMPDEST PUSH1 0x40 MLOAD DUP1 SWAP2 SUB SWAP1 REVERT JUMPDEST POP PUSH0 PUSH20 0xFFFFFFFFFFFFFFFFFFFFFFFFFFFFFFFFFFFFFFFF AND DUP8 PUSH20 0xFFFFFFFFFFFFFFFFFFFFFFFFFFFFFFFFFFFFFFFF AND EQ ISZERO PUSH1 0x40 MLOAD DUP1 PUSH1 0x40 ADD PUSH1 0x40 MSTORE DUP1 PUSH1 0x6 DUP2 MSTORE PUSH1 0x20 ADD PUSH32 0x3030333030310000000000000000000000000000000000000000000000000000 DUP2 MSTORE POP SWAP1 PUSH2 0x1B79 JUMPI PUSH1 0x40 MLOAD PUSH32 0x8C379A000000000000000000000000000000000000000000000000000000000 DUP2 MSTORE PUSH1 0x4 ADD PUSH2 0x1B70 SWAP2 SWAP1 PUSH2 0x2564 JUMP JUMPDEST PUSH1 0x40 MLOAD DUP1 SWAP2 SUB SWAP1 REVERT JUMPDEST POP PUSH2 0x1B84 DUP8 DUP8 PUSH2 0x169F JUMP JUMPDEST PUSH2 0x1BA3 DUP8 PUSH20 0xFFFFFFFFFFFFFFFFFFFFFFFFFFFFFFFFFFFFFFFF AND PUSH2 0x23D8 JUMP JUMPDEST ISZERO PUSH2 0x1CEC JUMPI PUSH0 DUP8 PUSH20 0xFFFFFFFFFFFFFFFFFFFFFFFFFFFFFFFFFFFFFFFF AND PUSH4 0x150B7A02 CALLER DUP12 DUP11 DUP11 PUSH1 0x40 MLOAD DUP6 PUSH4 0xFFFFFFFF AND PUSH1 0xE0 SHL DUP2 MSTORE PUSH1 0x4 ADD PUSH2 0x1BE8 SWAP5 SWAP4 SWAP3 SWAP2 SWAP1 PUSH2 0x2A45 JUMP JUMPDEST PUSH1 0x20 PUSH1 0x40 MLOAD DUP1 DUP4 SUB DUP2 PUSH0 DUP8 GAS CALL ISZERO DUP1 ISZERO PUSH2 0x1C04 JUMPI RETURNDATASIZE PUSH0 DUP1 RETURNDATACOPY RETURNDATASIZE PUSH0 REVERT JUMPDEST POP POP POP POP PUSH1 0x40 MLOAD RETURNDATASIZE PUSH1 0x1F NOT PUSH1 0x1F DUP3 ADD AND DUP3 ADD DUP1 PUSH1 0x40 MSTORE POP DUP2 ADD SWAP1 PUSH2 0x1C28 SWAP2 SWAP1 PUSH2 0x2AA3 JUMP JUMPDEST SWAP1 POP PUSH4 0x150B7A02 PUSH1 0xE0 SHL PUSH28 0xFFFFFFFFFFFFFFFFFFFFFFFFFFFFFFFFFFFFFFFFFFFFFFFFFFFFFFFF NOT AND DUP2 PUSH28 0xFFFFFFFFFFFFFFFFFFFFFFFFFFFFFFFFFFFFFFFFFFFFFFFFFFFFFFFF NOT AND EQ PUSH1 0x40 MLOAD DUP1 PUSH1 0x40 ADD PUSH1 0x40 MSTORE DUP1 PUSH1 0x6 DUP2 MSTORE PUSH1 0x20 ADD PUSH32 0x3030333030350000000000000000000000000000000000000000000000000000 DUP2 MSTORE POP SWAP1 PUSH2 0x1CE9 JUMPI PUSH1 0x40 MLOAD PUSH32 0x8C379A000000000000000000000000000000000000000000000000000000000 DUP2 MSTORE PUSH1 0x4 ADD PUSH2 0x1CE0 SWAP2 SWAP1 PUSH2 0x2564 JUMP JUMPDEST PUSH1 0x40 MLOAD DUP1 SWAP2 SUB SWAP1 REVERT JUMPDEST POP POP JUMPDEST POP POP POP POP POP POP POP POP JUMP JUMPDEST PUSH0 PUSH1 0x3 PUSH0 DUP4 PUSH20 0xFFFFFFFFFFFFFFFFFFFFFFFFFFFFFFFFFFFFFFFF AND PUSH20 0xFFFFFFFFFFFFFFFFFFFFFFFFFFFFFFFFFFFFFFFF AND DUP2 MSTORE PUSH1 0x20 ADD SWAP1 DUP2 MSTORE PUSH1 0x20 ADD PUSH0 KECCAK256 SLOAD SWAP1 POP SWAP2 SWAP1 POP JUMP JUMPDEST PUSH1 0x60 PUSH1 0x7 PUSH0 DUP4 DUP2 MSTORE PUSH1 0x20 ADD SWAP1 DUP2 MSTORE PUSH1 0x20 ADD PUSH0 KECCAK256 DUP1 SLOAD PUSH2 0x1D5A SWAP1 PUSH2 0x29C3 JUMP JUMPDEST DUP1 PUSH1 0x1F ADD PUSH1 0x20 DUP1 SWAP2 DIV MUL PUSH1 0x20 ADD PUSH1 0x40 MLOAD SWAP1 DUP2 ADD PUSH1 0x40 MSTORE DUP1 SWAP3 SWAP2 SWAP1 DUP2 DUP2 MSTORE PUSH1 0x20 ADD DUP3 DUP1 SLOAD PUSH2 0x1D86 SWAP1 PUSH2 0x29C3 JUMP JUMPDEST DUP1 ISZERO PUSH2 0x1DD1 JUMPI DUP1 PUSH1 0x1F LT PUSH2 0x1DA8 JUMPI PUSH2 0x100 DUP1 DUP4 SLOAD DIV MUL DUP4 MSTORE SWAP2 PUSH1 0x20 ADD SWAP2 PUSH2 0x1DD1 JUMP JUMPDEST DUP3 ADD SWAP2 SWAP1 PUSH0 MSTORE PUSH1 0x20 PUSH0 KECCAK256 SWAP1 JUMPDEST DUP2 SLOAD DUP2 MSTORE SWAP1 PUSH1 0x1 ADD SWAP1 PUSH1 0x20 ADD DUP1 DUP4 GT PUSH2 0x1DB4 JUMPI DUP3 SWAP1 SUB PUSH1 0x1F AND DUP3 ADD SWAP2 JUMPDEST POP POP POP POP POP SWAP1 POP SWAP2 SWAP1 POP JUMP JUMPDEST PUSH0 PUSH20 0xFFFFFFFFFFFFFFFFFFFFFFFFFFFFFFFFFFFFFFFF AND DUP3 PUSH20 0xFFFFFFFFFFFFFFFFFFFFFFFFFFFFFFFFFFFFFFFF AND EQ ISZERO PUSH1 0x40 MLOAD DUP1 PUSH1 0x40 ADD PUSH1 0x40 MSTORE DUP1 PUSH1 0x6 DUP2 MSTORE PUSH1 0x20 ADD PUSH32 0x3030333030310000000000000000000000000000000000000000000000000000 DUP2 MSTORE POP SWAP1 PUSH2 0x1E84 JUMPI PUSH1 0x40 MLOAD PUSH32 0x8C379A000000000000000000000000000000000000000000000000000000000 DUP2 MSTORE PUSH1 0x4 ADD PUSH2 0x1E7B SWAP2 SWAP1 PUSH2 0x2564 JUMP JUMPDEST PUSH1 0x40 MLOAD DUP1 SWAP2 SUB SWAP1 REVERT JUMPDEST POP PUSH0 PUSH20 0xFFFFFFFFFFFFFFFFFFFFFFFFFFFFFFFFFFFFFFFF AND PUSH1 0x1 PUSH0 DUP4 DUP2 MSTORE PUSH1 0x20 ADD SWAP1 DUP2 MSTORE PUSH1 0x20 ADD PUSH0 KECCAK256 PUSH0 SWAP1 SLOAD SWAP1 PUSH2 0x100 EXP SWAP1 DIV PUSH20 0xFFFFFFFFFFFFFFFFFFFFFFFFFFFFFFFFFFFFFFFF AND PUSH20 0xFFFFFFFFFFFFFFFFFFFFFFFFFFFFFFFFFFFFFFFF AND EQ PUSH1 0x40 MLOAD DUP1 PUSH1 0x40 ADD PUSH1 0x40 MSTORE DUP1 PUSH1 0x6 DUP2 MSTORE PUSH1 0x20 ADD PUSH32 0x3030333030360000000000000000000000000000000000000000000000000000 DUP2 MSTORE POP SWAP1 PUSH2 0x1F5B JUMPI PUSH1 0x40 MLOAD PUSH32 0x8C379A000000000000000000000000000000000000000000000000000000000 DUP2 MSTORE PUSH1 0x4 ADD PUSH2 0x1F52 SWAP2 SWAP1 PUSH2 0x2564 JUMP JUMPDEST PUSH1 0x40 MLOAD DUP1 SWAP2 SUB SWAP1 REVERT JUMPDEST POP PUSH2 0x1F66 DUP3 DUP3 PUSH2 0x225A JUMP JUMPDEST DUP1 DUP3 PUSH20 0xFFFFFFFFFFFFFFFFFFFFFFFFFFFFFFFFFFFFFFFF AND PUSH0 PUSH20 0xFFFFFFFFFFFFFFFFFFFFFFFFFFFFFFFFFFFFFFFF AND PUSH32 0xDDF252AD1BE2C89B69C2B068FC378DAA952BA7F163C4A11628F55A4DF523B3EF PUSH1 0x40 MLOAD PUSH1 0x40 MLOAD DUP1 SWAP2 SUB SWAP1 LOG4 POP POP JUMP JUMPDEST DUP2 PUSH0 PUSH20 0xFFFFFFFFFFFFFFFFFFFFFFFFFFFFFFFFFFFFFFFF AND PUSH1 0x1 PUSH0 DUP4 DUP2 MSTORE PUSH1 0x20 ADD SWAP1 DUP2 MSTORE PUSH1 0x20 ADD PUSH0 KECCAK256 PUSH0 SWAP1 SLOAD SWAP1 PUSH2 0x100 EXP SWAP1 DIV PUSH20 0xFFFFFFFFFFFFFFFFFFFFFFFFFFFFFFFFFFFFFFFF AND PUSH20 0xFFFFFFFFFFFFFFFFFFFFFFFFFFFFFFFFFFFFFFFF AND EQ ISZERO PUSH1 0x40 MLOAD DUP1 PUSH1 0x40 ADD PUSH1 0x40 MSTORE DUP1 PUSH1 0x6 DUP2 MSTORE PUSH1 0x20 ADD PUSH32 0x3030333030320000000000000000000000000000000000000000000000000000 DUP2 MSTORE POP SWAP1 PUSH2 0x209D JUMPI PUSH1 0x40 MLOAD PUSH32 0x8C379A000000000000000000000000000000000000000000000000000000000 DUP2 MSTORE PUSH1 0x4 ADD PUSH2 0x2094 SWAP2 SWAP1 PUSH2 0x2564 JUMP JUMPDEST PUSH1 0x40 MLOAD DUP1 SWAP2 SUB SWAP1 REVERT JUMPDEST POP DUP2 PUSH1 0x7 PUSH0 DUP6 DUP2 MSTORE PUSH1 0x20 ADD SWAP1 DUP2 MSTORE PUSH1 0x20 ADD PUSH0 KECCAK256 SWAP1 DUP2 PUSH2 0x20BC SWAP2 SWAP1 PUSH2 0x2C98 JUMP JUMPDEST POP POP POP POP JUMP JUMPDEST PUSH1 0x2 PUSH0 DUP3 DUP2 MSTORE PUSH1 0x20 ADD SWAP1 DUP2 MSTORE PUSH1 0x20 ADD PUSH0 KECCAK256 PUSH0 PUSH2 0x100 EXP DUP2 SLOAD SWAP1 PUSH20 0xFFFFFFFFFFFFFFFFFFFFFFFFFFFFFFFFFFFFFFFF MUL NOT AND SWAP1 SSTORE POP JUMP JUMPDEST DUP2 PUSH20 0xFFFFFFFFFFFFFFFFFFFFFFFFFFFFFFFFFFFFFFFF AND PUSH1 0x1 PUSH0 DUP4 DUP2 MSTORE PUSH1 0x20 ADD SWAP1 DUP2 MSTORE PUSH1 0x20 ADD PUSH0 KECCAK256 PUSH0 SWAP1 SLOAD SWAP1 PUSH2 0x100 EXP SWAP1 DIV PUSH20 0xFFFFFFFFFFFFFFFFFFFFFFFFFFFFFFFFFFFFFFFF AND PUSH20 0xFFFFFFFFFFFFFFFFFFFFFFFFFFFFFFFFFFFFFFFF AND EQ PUSH1 0x40 MLOAD DUP1 PUSH1 0x40 ADD PUSH1 0x40 MSTORE DUP1 PUSH1 0x6 DUP2 MSTORE PUSH1 0x20 ADD PUSH32 0x3030333030370000000000000000000000000000000000000000000000000000 DUP2 MSTORE POP SWAP1 PUSH2 0x21CE JUMPI PUSH1 0x40 MLOAD PUSH32 0x8C379A000000000000000000000000000000000000000000000000000000000 DUP2 MSTORE PUSH1 0x4 ADD PUSH2 0x21C5 SWAP2 SWAP1 PUSH2 0x2564 JUMP JUMPDEST PUSH1 0x40 MLOAD DUP1 SWAP2 SUB SWAP1 REVERT JUMPDEST POP PUSH1 0x1 PUSH1 0x3 PUSH0 DUP5 PUSH20 0xFFFFFFFFFFFFFFFFFFFFFFFFFFFFFFFFFFFFFFFF AND PUSH20 0xFFFFFFFFFFFFFFFFFFFFFFFFFFFFFFFFFFFFFFFF AND DUP2 MSTORE PUSH1 0x20 ADD SWAP1 DUP2 MSTORE PUSH1 0x20 ADD PUSH0 KECCAK256 PUSH0 DUP3 DUP3 SLOAD PUSH2 0x221C SWAP2 SWAP1 PUSH2 0x2D94 JUMP JUMPDEST SWAP3 POP POP DUP2 SWAP1 SSTORE POP PUSH1 0x1 PUSH0 DUP3 DUP2 MSTORE PUSH1 0x20 ADD SWAP1 DUP2 MSTORE PUSH1 0x20 ADD PUSH0 KECCAK256 PUSH0 PUSH2 0x100 EXP DUP2 SLOAD SWAP1 PUSH20 0xFFFFFFFFFFFFFFFFFFFFFFFFFFFFFFFFFFFFFFFF MUL NOT AND SWAP1 SSTORE POP POP JUMP JUMPDEST PUSH0 PUSH20 0xFFFFFFFFFFFFFFFFFFFFFFFFFFFFFFFFFFFFFFFF AND PUSH1 0x1 PUSH0 DUP4 DUP2 MSTORE PUSH1 0x20 ADD SWAP1 DUP2 MSTORE PUSH1 0x20 ADD PUSH0 KECCAK256 PUSH0 SWAP1 SLOAD SWAP1 PUSH2 0x100 EXP SWAP1 DIV PUSH20 0xFFFFFFFFFFFFFFFFFFFFFFFFFFFFFFFFFFFFFFFF AND PUSH20 0xFFFFFFFFFFFFFFFFFFFFFFFFFFFFFFFFFFFFFFFF AND EQ PUSH1 0x40 MLOAD DUP1 PUSH1 0x40 ADD PUSH1 0x40 MSTORE DUP1 PUSH1 0x6 DUP2 MSTORE PUSH1 0x20 ADD PUSH32 0x3030333030360000000000000000000000000000000000000000000000000000 DUP2 MSTORE POP SWAP1 PUSH2 0x2330 JUMPI PUSH1 0x40 MLOAD PUSH32 0x8C379A000000000000000000000000000000000000000000000000000000000 DUP2 MSTORE PUSH1 0x4 ADD PUSH2 0x2327 SWAP2 SWAP1 PUSH2 0x2564 JUMP JUMPDEST PUSH1 0x40 MLOAD DUP1 SWAP2 SUB SWAP1 REVERT JUMPDEST POP DUP2 PUSH1 0x1 PUSH0 DUP4 DUP2 MSTORE PUSH1 0x20 ADD SWAP1 DUP2 MSTORE PUSH1 0x20 ADD PUSH0 KECCAK256 PUSH0 PUSH2 0x100 EXP DUP2 SLOAD DUP2 PUSH20 0xFFFFFFFFFFFFFFFFFFFFFFFFFFFFFFFFFFFFFFFF MUL NOT AND SWAP1 DUP4 PUSH20 0xFFFFFFFFFFFFFFFFFFFFFFFFFFFFFFFFFFFFFFFF AND MUL OR SWAP1 SSTORE POP PUSH1 0x1 PUSH1 0x3 PUSH0 DUP5 PUSH20 0xFFFFFFFFFFFFFFFFFFFFFFFFFFFFFFFFFFFFFFFF AND PUSH20 0xFFFFFFFFFFFFFFFFFFFFFFFFFFFFFFFFFFFFFFFF AND DUP2 MSTORE PUSH1 0x20 ADD SWAP1 DUP2 MSTORE PUSH1 0x20 ADD PUSH0 KECCAK256 PUSH0 DUP3 DUP3 SLOAD PUSH2 0x23CD SWAP2 SWAP1 PUSH2 0x2DC7 JUMP JUMPDEST SWAP3 POP POP DUP2 SWAP1 SSTORE POP POP POP JUMP JUMPDEST PUSH0 DUP1 PUSH0 PUSH32 0xC5D2460186F7233C927E7DB2DCC703C0E500B653CA82273B7BFAD8045D85A470 PUSH0 SHL SWAP1 POP DUP4 EXTCODEHASH SWAP2 POP PUSH0 DUP1 SHL DUP3 EQ ISZERO DUP1 ISZERO PUSH2 0x2416 JUMPI POP DUP1 DUP3 EQ ISZERO JUMPDEST SWAP3 POP POP POP SWAP2 SWAP1 POP JUMP JUMPDEST PUSH0 DUP1 REVERT JUMPDEST PUSH0 DUP1 REVERT JUMPDEST PUSH0 PUSH32 0xFFFFFFFF00000000000000000000000000000000000000000000000000000000 DUP3 AND SWAP1 POP SWAP2 SWAP1 POP JUMP JUMPDEST PUSH2 0x245B DUP2 PUSH2 0x2427 JUMP JUMPDEST DUP2 EQ PUSH2 0x2465 JUMPI PUSH0 DUP1 REVERT JUMPDEST POP JUMP JUMPDEST PUSH0 DUP2 CALLDATALOAD SWAP1 POP PUSH2 0x2476 DUP2 PUSH2 0x2452 JUMP JUMPDEST SWAP3 SWAP2 POP POP JUMP JUMPDEST PUSH0 PUSH1 0x20 DUP3 DUP5 SUB SLT ISZERO PUSH2 0x2491 JUMPI PUSH2 0x2490 PUSH2 0x241F JUMP JUMPDEST JUMPDEST PUSH0 PUSH2 0x249E DUP5 DUP3 DUP6 ADD PUSH2 0x2468 JUMP JUMPDEST SWAP2 POP POP SWAP3 SWAP2 POP POP JUMP JUMPDEST PUSH0 DUP2 ISZERO ISZERO SWAP1 POP SWAP2 SWAP1 POP JUMP JUMPDEST PUSH2 0x24BB DUP2 PUSH2 0x24A7 JUMP JUMPDEST DUP3 MSTORE POP POP JUMP JUMPDEST PUSH0 PUSH1 0x20 DUP3 ADD SWAP1 POP PUSH2 0x24D4 PUSH0 DUP4 ADD DUP5 PUSH2 0x24B2 JUMP JUMPDEST SWAP3 SWAP2 POP POP JUMP JUMPDEST PUSH0 DUP2 MLOAD SWAP1 POP SWAP2 SWAP1 POP JUMP JUMPDEST PUSH0 DUP3 DUP3 MSTORE PUSH1 0x20 DUP3 ADD SWAP1 POP SWAP3 SWAP2 POP POP JUMP JUMPDEST PUSH0 JUMPDEST DUP4 DUP2 LT ISZERO PUSH2 0x2511 JUMPI DUP1 DUP3 ADD MLOAD DUP2 DUP5 ADD MSTORE PUSH1 0x20 DUP2 ADD SWAP1 POP PUSH2 0x24F6 JUMP JUMPDEST PUSH0 DUP5 DUP5 ADD MSTORE POP POP POP POP JUMP JUMPDEST PUSH0 PUSH1 0x1F NOT PUSH1 0x1F DUP4 ADD AND SWAP1 POP SWAP2 SWAP1 POP JUMP JUMPDEST PUSH0 PUSH2 0x2536 DUP3 PUSH2 0x24DA JUMP JUMPDEST PUSH2 0x2540 DUP2 DUP6 PUSH2 0x24E4 JUMP JUMPDEST SWAP4 POP PUSH2 0x2550 DUP2 DUP6 PUSH1 0x20 DUP7 ADD PUSH2 0x24F4 JUMP JUMPDEST PUSH2 0x2559 DUP2 PUSH2 0x251C JUMP JUMPDEST DUP5 ADD SWAP2 POP POP SWAP3 SWAP2 POP POP JUMP JUMPDEST PUSH0 PUSH1 0x20 DUP3 ADD SWAP1 POP DUP2 DUP2 SUB PUSH0 DUP4 ADD MSTORE PUSH2 0x257C DUP2 DUP5 PUSH2 0x252C JUMP JUMPDEST SWAP1 POP SWAP3 SWAP2 POP POP JUMP JUMPDEST PUSH0 DUP2 SWAP1 POP SWAP2 SWAP1 POP JUMP JUMPDEST PUSH2 0x2596 DUP2 PUSH2 0x2584 JUMP JUMPDEST DUP2 EQ PUSH2 0x25A0 JUMPI PUSH0 DUP1 REVERT JUMPDEST POP JUMP JUMPDEST PUSH0 DUP2 CALLDATALOAD SWAP1 POP PUSH2 0x25B1 DUP2 PUSH2 0x258D JUMP JUMPDEST SWAP3 SWAP2 POP POP JUMP JUMPDEST PUSH0 PUSH1 0x20 DUP3 DUP5 SUB SLT ISZERO PUSH2 0x25CC JUMPI PUSH2 0x25CB PUSH2 0x241F JUMP JUMPDEST JUMPDEST PUSH0 PUSH2 0x25D9 DUP5 DUP3 DUP6 ADD PUSH2 0x25A3 JUMP JUMPDEST SWAP2 POP POP SWAP3 SWAP2 POP POP JUMP JUMPDEST PUSH0 PUSH20 0xFFFFFFFFFFFFFFFFFFFFFFFFFFFFFFFFFFFFFFFF DUP3 AND SWAP1 POP SWAP2 SWAP1 POP JUMP JUMPDEST PUSH0 PUSH2 0x260B DUP3 PUSH2 0x25E2 JUMP JUMPDEST SWAP1 POP SWAP2 SWAP1 POP JUMP JUMPDEST PUSH2 0x261B DUP2 PUSH2 0x2601 JUMP JUMPDEST DUP3 MSTORE POP POP JUMP JUMPDEST PUSH0 PUSH1 0x20 DUP3 ADD SWAP1 POP PUSH2 0x2634 PUSH0 DUP4 ADD DUP5 PUSH2 0x2612 JUMP JUMPDEST SWAP3 SWAP2 POP POP JUMP JUMPDEST PUSH2 0x2643 DUP2 PUSH2 0x2601 JUMP JUMPDEST DUP2 EQ PUSH2 0x264D JUMPI PUSH0 DUP1 REVERT JUMPDEST POP JUMP JUMPDEST PUSH0 DUP2 CALLDATALOAD SWAP1 POP PUSH2 0x265E DUP2 PUSH2 0x263A JUMP JUMPDEST SWAP3 SWAP2 POP POP JUMP JUMPDEST PUSH0 DUP1 PUSH1 0x40 DUP4 DUP6 SUB SLT ISZERO PUSH2 0x267A JUMPI PUSH2 0x2679 PUSH2 0x241F JUMP JUMPDEST JUMPDEST PUSH0 PUSH2 0x2687 DUP6 DUP3 DUP7 ADD PUSH2 0x2650 JUMP JUMPDEST SWAP3 POP POP PUSH1 0x20 PUSH2 0x2698 DUP6 DUP3 DUP7 ADD PUSH2 0x25A3 JUMP JUMPDEST SWAP2 POP POP SWAP3 POP SWAP3 SWAP1 POP JUMP JUMPDEST PUSH0 DUP1 PUSH0 PUSH1 0x60 DUP5 DUP7 SUB SLT ISZERO PUSH2 0x26B9 JUMPI PUSH2 0x26B8 PUSH2 0x241F JUMP JUMPDEST JUMPDEST PUSH0 PUSH2 0x26C6 DUP7 DUP3 DUP8 ADD PUSH2 0x2650 JUMP JUMPDEST SWAP4 POP POP PUSH1 0x20 PUSH2 0x26D7 DUP7 DUP3 DUP8 ADD PUSH2 0x2650 JUMP JUMPDEST SWAP3 POP POP PUSH1 0x40 PUSH2 0x26E8 DUP7 DUP3 DUP8 ADD PUSH2 0x25A3 JUMP JUMPDEST SWAP2 POP POP SWAP3 POP SWAP3 POP SWAP3 JUMP JUMPDEST PUSH0 PUSH1 0x20 DUP3 DUP5 SUB SLT ISZERO PUSH2 0x2707 JUMPI PUSH2 0x2706 PUSH2 0x241F JUMP JUMPDEST JUMPDEST PUSH0 PUSH2 0x2714 DUP5 DUP3 DUP6 ADD PUSH2 0x2650 JUMP JUMPDEST SWAP2 POP POP SWAP3 SWAP2 POP POP JUMP JUMPDEST PUSH2 0x2726 DUP2 PUSH2 0x2584 JUMP JUMPDEST DUP3 MSTORE POP POP JUMP JUMPDEST PUSH0 PUSH1 0x20 DUP3 ADD SWAP1 POP PUSH2 0x273F PUSH0 DUP4 ADD DUP5 PUSH2 0x271D JUMP JUMPDEST SWAP3 SWAP2 POP POP JUMP JUMPDEST PUSH2 0x274E DUP2 PUSH2 0x24A7 JUMP JUMPDEST DUP2 EQ PUSH2 0x2758 JUMPI PUSH0 DUP1 REVERT JUMPDEST POP JUMP JUMPDEST PUSH0 DUP2 CALLDATALOAD SWAP1 POP PUSH2 0x2769 DUP2 PUSH2 0x2745 JUMP JUMPDEST SWAP3 SWAP2 POP POP JUMP JUMPDEST PUSH0 DUP1 PUSH1 0x40 DUP4 DUP6 SUB SLT ISZERO PUSH2 0x2785 JUMPI PUSH2 0x2784 PUSH2 0x241F JUMP JUMPDEST JUMPDEST PUSH0 PUSH2 0x2792 DUP6 DUP3 DUP7 ADD PUSH2 0x2650 JUMP JUMPDEST SWAP3 POP POP PUSH1 0x20 PUSH2 0x27A3 DUP6 DUP3 DUP7 ADD PUSH2 0x275B JUMP JUMPDEST SWAP2 POP POP SWAP3 POP SWAP3 SWAP1 POP JUMP JUMPDEST PUSH0 DUP1 REVERT JUMPDEST PUSH0 DUP1 REVERT JUMPDEST PUSH0 DUP1 REVERT JUMPDEST PUSH0 DUP1 DUP4 PUSH1 0x1F DUP5 ADD SLT PUSH2 0x27CE JUMPI PUSH2 0x27CD PUSH2 0x27AD JUMP JUMPDEST JUMPDEST DUP3 CALLDATALOAD SWAP1 POP PUSH8 0xFFFFFFFFFFFFFFFF DUP2 GT ISZERO PUSH2 0x27EB JUMPI PUSH2 0x27EA PUSH2 0x27B1 JUMP JUMPDEST JUMPDEST PUSH1 0x20 DUP4 ADD SWAP2 POP DUP4 PUSH1 0x1 DUP3 MUL DUP4 ADD GT ISZERO PUSH2 0x2807 JUMPI PUSH2 0x2806 PUSH2 0x27B5 JUMP JUMPDEST JUMPDEST SWAP3 POP SWAP3 SWAP1 POP JUMP JUMPDEST PUSH0 DUP1 PUSH0 DUP1 PUSH0 PUSH1 0x80 DUP7 DUP9 SUB SLT ISZERO PUSH2 0x2827 JUMPI PUSH2 0x2826 PUSH2 0x241F JUMP JUMPDEST JUMPDEST PUSH0 PUSH2 0x2834 DUP9 DUP3 DUP10 ADD PUSH2 0x2650 JUMP JUMPDEST SWAP6 POP POP PUSH1 0x20 PUSH2 0x2845 DUP9 DUP3 DUP10 ADD PUSH2 0x2650 JUMP JUMPDEST SWAP5 POP POP PUSH1 0x40 PUSH2 0x2856 DUP9 DUP3 DUP10 ADD PUSH2 0x25A3 JUMP JUMPDEST SWAP4 POP POP PUSH1 0x60 DUP7 ADD CALLDATALOAD PUSH8 0xFFFFFFFFFFFFFFFF DUP2 GT ISZERO PUSH2 0x2877 JUMPI PUSH2 0x2876 PUSH2 0x2423 JUMP JUMPDEST JUMPDEST PUSH2 0x2883 DUP9 DUP3 DUP10 ADD PUSH2 0x27B9 JUMP JUMPDEST SWAP3 POP SWAP3 POP POP SWAP3 SWAP6 POP SWAP3 SWAP6 SWAP1 SWAP4 POP JUMP JUMPDEST PUSH0 DUP1 PUSH1 0x40 DUP4 DUP6 SUB SLT ISZERO PUSH2 0x28A8 JUMPI PUSH2 0x28A7 PUSH2 0x241F JUMP JUMPDEST JUMPDEST PUSH0 PUSH2 0x28B5 DUP6 DUP3 DUP7 ADD PUSH2 0x2650 JUMP JUMPDEST SWAP3 POP POP PUSH1 0x20 PUSH2 0x28C6 DUP6 DUP3 DUP7 ADD PUSH2 0x2650 JUMP JUMPDEST SWAP2 POP POP SWAP3 POP SWAP3 SWAP1 POP JUMP JUMPDEST PUSH0 DUP1 DUP4 PUSH1 0x1F DUP5 ADD SLT PUSH2 0x28E5 JUMPI PUSH2 0x28E4 PUSH2 0x27AD JUMP JUMPDEST JUMPDEST DUP3 CALLDATALOAD SWAP1 POP PUSH8 0xFFFFFFFFFFFFFFFF DUP2 GT ISZERO PUSH2 0x2902 JUMPI PUSH2 0x2901 PUSH2 0x27B1 JUMP JUMPDEST JUMPDEST PUSH1 0x20 DUP4 ADD SWAP2 POP DUP4 PUSH1 0x1 DUP3 MUL DUP4 ADD GT ISZERO PUSH2 0x291E JUMPI PUSH2 0x291D PUSH2 0x27B5 JUMP JUMPDEST JUMPDEST SWAP3 POP SWAP3 SWAP1 POP JUMP JUMPDEST PUSH0 DUP1 PUSH0 DUP1 PUSH1 0x60 DUP6 DUP8 SUB SLT ISZERO PUSH2 0x293D JUMPI PUSH2 0x293C PUSH2 0x241F JUMP JUMPDEST JUMPDEST PUSH0 PUSH2 0x294A DUP8 DUP3 DUP9 ADD PUSH2 0x2650 JUMP JUMPDEST SWAP5 POP POP PUSH1 0x20 PUSH2 0x295B DUP8 DUP3 DUP9 ADD PUSH2 0x25A3 JUMP JUMPDEST SWAP4 POP POP PUSH1 0x40 DUP6 ADD CALLDATALOAD PUSH8 0xFFFFFFFFFFFFFFFF DUP2 GT ISZERO PUSH2 0x297C JUMPI PUSH2 0x297B PUSH2 0x2423 JUMP JUMPDEST JUMPDEST PUSH2 0x2988 DUP8 DUP3 DUP9 ADD PUSH2 0x28D0 JUMP JUMPDEST SWAP3 POP SWAP3 POP POP SWAP3 SWAP6 SWAP2 SWAP5 POP SWAP3 POP JUMP JUMPDEST PUSH32 0x4E487B7100000000000000000000000000000000000000000000000000000000 PUSH0 MSTORE PUSH1 0x22 PUSH1 0x4 MSTORE PUSH1 0x24 PUSH0 REVERT JUMPDEST PUSH0 PUSH1 0x2 DUP3 DIV SWAP1 POP PUSH1 0x1 DUP3 AND DUP1 PUSH2 0x29DA JUMPI PUSH1 0x7F DUP3 AND SWAP2 POP JUMPDEST PUSH1 0x20 DUP3 LT DUP2 SUB PUSH2 0x29ED JUMPI PUSH2 0x29EC PUSH2 0x2996 JUMP JUMPDEST JUMPDEST POP SWAP2 SWAP1 POP JUMP JUMPDEST PUSH0 DUP2 MLOAD SWAP1 POP SWAP2 SWAP1 POP JUMP JUMPDEST PUSH0 DUP3 DUP3 MSTORE PUSH1 0x20 DUP3 ADD SWAP1 POP SWAP3 SWAP2 POP POP JUMP JUMPDEST PUSH0 PUSH2 0x2A17 DUP3 PUSH2 0x29F3 JUMP JUMPDEST PUSH2 0x2A21 DUP2 DUP6 PUSH2 0x29FD JUMP JUMPDEST SWAP4 POP PUSH2 0x2A31 DUP2 DUP6 PUSH1 0x20 DUP7 ADD PUSH2 0x24F4 JUMP JUMPDEST PUSH2 0x2A3A DUP2 PUSH2 0x251C JUMP JUMPDEST DUP5 ADD SWAP2 POP POP SWAP3 SWAP2 POP POP JUMP JUMPDEST PUSH0 PUSH1 0x80 DUP3 ADD SWAP1 POP PUSH2 0x2A58 PUSH0 DUP4 ADD DUP8 PUSH2 0x2612 JUMP JUMPDEST PUSH2 0x2A65 PUSH1 0x20 DUP4 ADD DUP7 PUSH2 0x2612 JUMP JUMPDEST PUSH2 0x2A72 PUSH1 0x40 DUP4 ADD DUP6 PUSH2 0x271D JUMP JUMPDEST DUP2 DUP2 SUB PUSH1 0x60 DUP4 ADD MSTORE PUSH2 0x2A84 DUP2 DUP5 PUSH2 0x2A0D JUMP JUMPDEST SWAP1 POP SWAP6 SWAP5 POP POP POP POP POP JUMP JUMPDEST PUSH0 DUP2 MLOAD SWAP1 POP PUSH2 0x2A9D DUP2 PUSH2 0x2452 JUMP JUMPDEST SWAP3 SWAP2 POP POP JUMP JUMPDEST PUSH0 PUSH1 0x20 DUP3 DUP5 SUB SLT ISZERO PUSH2 0x2AB8 JUMPI PUSH2 0x2AB7 PUSH2 0x241F JUMP JUMPDEST JUMPDEST PUSH0 PUSH2 0x2AC5 DUP5 DUP3 DUP6 ADD PUSH2 0x2A8F JUMP JUMPDEST SWAP2 POP POP SWAP3 SWAP2 POP POP JUMP JUMPDEST PUSH32 0x4E487B7100000000000000000000000000000000000000000000000000000000 PUSH0 MSTORE PUSH1 0x41 PUSH1 0x4 MSTORE PUSH1 0x24 PUSH0 REVERT JUMPDEST PUSH0 DUP2 SWAP1 POP DUP2 PUSH0 MSTORE PUSH1 0x20 PUSH0 KECCAK256 SWAP1 POP SWAP2 SWAP1 POP JUMP JUMPDEST PUSH0 PUSH1 0x20 PUSH1 0x1F DUP4 ADD DIV SWAP1 POP SWAP2 SWAP1 POP JUMP JUMPDEST PUSH0 DUP3 DUP3 SHL SWAP1 POP SWAP3 SWAP2 POP POP JUMP JUMPDEST PUSH0 PUSH1 0x8 DUP4 MUL PUSH2 0x2B57 PUSH32 0xFFFFFFFFFFFFFFFFFFFFFFFFFFFFFFFFFFFFFFFFFFFFFFFFFFFFFFFFFFFFFFFF DUP3 PUSH2 0x2B1C JUMP JUMPDEST PUSH2 0x2B61 DUP7 DUP4 PUSH2 0x2B1C JUMP JUMPDEST SWAP6 POP DUP1 NOT DUP5 AND SWAP4 POP DUP1 DUP7 AND DUP5 OR SWAP3 POP POP POP SWAP4 SWAP3 POP POP POP JUMP JUMPDEST PUSH0 DUP2 SWAP1 POP SWAP2 SWAP1 POP JUMP JUMPDEST PUSH0 PUSH2 0x2B9C PUSH2 0x2B97 PUSH2 0x2B92 DUP5 PUSH2 0x2584 JUMP JUMPDEST PUSH2 0x2B79 JUMP JUMPDEST PUSH2 0x2584 JUMP JUMPDEST SWAP1 POP SWAP2 SWAP1 POP JUMP JUMPDEST PUSH0 DUP2 SWAP1 POP SWAP2 SWAP1 POP JUMP JUMPDEST PUSH2 0x2BB5 DUP4 PUSH2 0x2B82 JUMP JUMPDEST PUSH2 0x2BC9 PUSH2 0x2BC1 DUP3 PUSH2 0x2BA3 JUMP JUMPDEST DUP5 DUP5 SLOAD PUSH2 0x2B28 JUMP JUMPDEST DUP3 SSTORE POP POP POP POP JUMP JUMPDEST PUSH0 SWAP1 JUMP JUMPDEST PUSH2 0x2BDD PUSH2 0x2BD1 JUMP JUMPDEST PUSH2 0x2BE8 DUP2 DUP5 DUP5 PUSH2 0x2BAC JUMP JUMPDEST POP POP POP JUMP JUMPDEST JUMPDEST DUP2 DUP2 LT ISZERO PUSH2 0x2C0B JUMPI PUSH2 0x2C00 PUSH0 DUP3 PUSH2 0x2BD5 JUMP JUMPDEST PUSH1 0x1 DUP2 ADD SWAP1 POP PUSH2 0x2BEE JUMP JUMPDEST POP POP JUMP JUMPDEST PUSH1 0x1F DUP3 GT ISZERO PUSH2 0x2C50 JUMPI PUSH2 0x2C21 DUP2 PUSH2 0x2AFB JUMP JUMPDEST PUSH2 0x2C2A DUP5 PUSH2 0x2B0D JUMP JUMPDEST DUP2 ADD PUSH1 0x20 DUP6 LT ISZERO PUSH2 0x2C39 JUMPI DUP2 SWAP1 POP JUMPDEST PUSH2 0x2C4D PUSH2 0x2C45 DUP6 PUSH2 0x2B0D JUMP JUMPDEST DUP4 ADD DUP3 PUSH2 0x2BED JUMP JUMPDEST POP POP JUMPDEST POP POP POP JUMP JUMPDEST PUSH0 DUP3 DUP3 SHR SWAP1 POP SWAP3 SWAP2 POP POP JUMP JUMPDEST PUSH0 PUSH2 0x2C70 PUSH0 NOT DUP5 PUSH1 0x8 MUL PUSH2 0x2C55 JUMP JUMPDEST NOT DUP1 DUP4 AND SWAP2 POP POP SWAP3 SWAP2 POP POP JUMP JUMPDEST PUSH0 PUSH2 0x2C88 DUP4 DUP4 PUSH2 0x2C61 JUMP JUMPDEST SWAP2 POP DUP3 PUSH1 0x2 MUL DUP3 OR SWAP1 POP SWAP3 SWAP2 POP POP JUMP JUMPDEST PUSH2 0x2CA1 DUP3 PUSH2 0x24DA JUMP JUMPDEST PUSH8 0xFFFFFFFFFFFFFFFF DUP2 GT ISZERO PUSH2 0x2CBA JUMPI PUSH2 0x2CB9 PUSH2 0x2ACE JUMP JUMPDEST JUMPDEST PUSH2 0x2CC4 DUP3 SLOAD PUSH2 0x29C3 JUMP JUMPDEST PUSH2 0x2CCF DUP3 DUP3 DUP6 PUSH2 0x2C0F JUMP JUMPDEST PUSH0 PUSH1 0x20 SWAP1 POP PUSH1 0x1F DUP4 GT PUSH1 0x1 DUP2 EQ PUSH2 0x2D00 JUMPI PUSH0 DUP5 ISZERO PUSH2 0x2CEE JUMPI DUP3 DUP8 ADD MLOAD SWAP1 POP JUMPDEST PUSH2 0x2CF8 DUP6 DUP3 PUSH2 0x2C7D JUMP JUMPDEST DUP7 SSTORE POP PUSH2 0x2D5F JUMP JUMPDEST PUSH1 0x1F NOT DUP5 AND PUSH2 0x2D0E DUP7 PUSH2 0x2AFB JUMP JUMPDEST PUSH0 JUMPDEST DUP3 DUP2 LT ISZERO PUSH2 0x2D35 JUMPI DUP5 DUP10 ADD MLOAD DUP3 SSTORE PUSH1 0x1 DUP3 ADD SWAP2 POP PUSH1 0x20 DUP6 ADD SWAP5 POP PUSH1 0x20 DUP2 ADD SWAP1 POP PUSH2 0x2D10 JUMP JUMPDEST DUP7 DUP4 LT ISZERO PUSH2 0x2D52 JUMPI DUP5 DUP10 ADD MLOAD PUSH2 0x2D4E PUSH1 0x1F DUP10 AND DUP3 PUSH2 0x2C61 JUMP JUMPDEST DUP4 SSTORE POP JUMPDEST PUSH1 0x1 PUSH1 0x2 DUP9 MUL ADD DUP9 SSTORE POP POP POP JUMPDEST POP POP POP POP POP POP JUMP JUMPDEST PUSH32 0x4E487B7100000000000000000000000000000000000000000000000000000000 PUSH0 MSTORE PUSH1 0x11 PUSH1 0x4 MSTORE PUSH1 0x24 PUSH0 REVERT JUMPDEST PUSH0 PUSH2 0x2D9E DUP3 PUSH2 0x2584 JUMP JUMPDEST SWAP2 POP PUSH2 0x2DA9 DUP4 PUSH2 0x2584 JUMP JUMPDEST SWAP3 POP DUP3 DUP3 SUB SWAP1 POP DUP2 DUP2 GT ISZERO PUSH2 0x2DC1 JUMPI PUSH2 0x2DC0 PUSH2 0x2D67 JUMP JUMPDEST JUMPDEST SWAP3 SWAP2 POP POP JUMP JUMPDEST PUSH0 PUSH2 0x2DD1 DUP3 PUSH2 0x2584 JUMP JUMPDEST SWAP2 POP PUSH2 0x2DDC DUP4 PUSH2 0x2584 JUMP JUMPDEST SWAP3 POP DUP3 DUP3 ADD SWAP1 POP DUP1 DUP3 GT ISZERO PUSH2 0x2DF4 JUMPI PUSH2 0x2DF3 PUSH2 0x2D67 JUMP JUMPDEST JUMPDEST SWAP3 SWAP2 POP POP JUMP INVALID LOG2 PUSH5 0x6970667358 0x22 SLT KECCAK256 SWAP6 MULMOD PUSH0 CODESIZE CALLDATASIZE 0xAA SGT CREATE2 0xB4 0x24 PUSH25 0xD93BAABE7C43CA8A4683287D475965A22B758B863664736F6C PUSH4 0x43000816 STOP CALLER "
	},
	"Assembly": ".code\n  PUSH 80\t\t\tcontract fcsNFT is \\n    NFTok...\n  PUSH 40\t\t\tcontract fcsNFT is \\n    NFTok...\n  MSTORE \t\t\tcontract fcsNFT is \\n    NFTok...\n  CALLVALUE \t\t\tconstructor() {\\n    nftName =...\n  DUP1 \t\t\tconstructor() {\\n    nftName =...\n  ISZERO \t\t\tconstructor() {\\n    nftName =...\n  PUSH [tag] 1\t\t\tconstructor() {\\n    nftName =...\n  JUMPI \t\t\tconstructor() {\\n    nftName =...\n  PUSH 0\t\t\tconstructor() {\\n    nftName =...\n  DUP1 \t\t\tconstructor() {\\n    nftName =...\n  REVERT \t\t\tconstructor() {\\n    nftName =...\ntag 1\t\t\tconstructor() {\\n    nftName =...\n  JUMPDEST \t\t\tconstructor() {\\n    nftName =...\n  POP \t\t\tconstructor() {\\n    nftName =...\n  PUSH 1\t\t\tcons\n  PUSH 0\t\t\tion `name` and `sym\n  DUP1 \t\t\tion `name` and `symbol`.\\n   *...\n  PUSH 1FFC9A7\t\t\tol`.\\n   */\n  PUSH E0\t\t\tion `name` and `symbol`.\\n   *...\n  SHL \t\t\tion `name` and `symbol`.\\n   *...\n  PUSH FFFFFFFFFFFFFFFFFFFFFFFFFFFFFFFFFFFFFFFFFFFFFFFFFFFFFFFF\t\t\tion `name` and `symbol`.\\n   *...\n  NOT \t\t\tion `name` and `symbol`.\\n   *...\n  AND \t\t\tion `name` and `symbol`.\\n   *...\n  DUP2 \t\t\tion `name` and `symbol`.\\n   *...\n  MSTORE \t\t\tion `name` and `symbol`.\\n   *...\n  PUSH 20\t\t\tion `name` and `symbol`.\\n   *...\n  ADD \t\t\tion `name` and `symbol`.\\n   *...\n  SWAP1 \t\t\tion `name` and `symbol`.\\n   *...\n  DUP2 \t\t\tion `name` and `symbol`.\\n   *...\n  MSTORE \t\t\tion `name` and `symbol`.\\n   *...\n  PUSH 20\t\t\tion `name` and `symbol`.\\n   *...\n  ADD \t\t\tion `name` and `symbol`.\\n   *...\n  PUSH 0\t\t\tion `name` and `symbol`.\\n   *...\n  KECCAK256 \t\t\tion `name` and `symbol`.\\n   *...\n  PUSH 0\t\t\tion `name` and `symbol`.\\n   *...\n  PUSH 100\t\t\tion `name` and `symbol`.\\n   *...\n  EXP \t\t\tion `name` and `symbol`.\\n   *...\n  DUP2 \t\t\tion `name` and `symbol`.\\n   *...\n  SLOAD \t\t\tion `name` and `symbol`.\\n   *...\n  DUP2 \t\t\tion `name` and `symbol`.\\n   *...\n  PUSH FF\t\t\tion `name` and `symbol`.\\n   *...\n  MUL \t\t\tion `name` and `symbol`.\\n   *...\n  NOT \t\t\tion `name` and `symbol`.\\n   *...\n  AND \t\t\tion `name` and `symbol`.\\n   *...\n  SWAP1 \t\t\tion `name` and `symbol`.\\n   *...\n  DUP4 \t\t\tion `name` and `symbol`.\\n   *...\n  ISZERO \t\t\tion `name` and `symbol`.\\n   *...\n  ISZERO \t\t\tion `name` and `symbol`.\\n   *...\n  MUL \t\t\tion `name` and `symbol`.\\n   *...\n  OR \t\t\tion `name` and `symbol`.\\n   *...\n  SWAP1 \t\t\tion `name` and `symbol`.\\n   *...\n  SSTORE \t\t\tion `name` and `symbol`.\\n   *...\n  POP \t\t\tion `name` and `symbol`.\\n   *...\n  PUSH 1\t\t\t\n  PUSH 0\t\t\t\n  DUP1 \t\t\t\n  PUSH 80AC58CD\t\t\t\n  PUSH E0\t\t\t\n  SHL \t\t\t\n  PUSH FFFFFFFFFFFFFFFFFFFFFFFFFFFFFFFFFFFFFFFFFFFFFFFFFFFFFFFF\t\t\t\n  NOT \t\t\t\n  AND \t\t\t\n  DUP2 \t\t\t\n  MSTORE \t\t\t\n  PUSH 20\t\t\t\n  ADD \t\t\t\n  SWAP1 \t\t\t\n  DUP2 \t\t\t\n  MSTORE \t\t\t\n  PUSH 20\t\t\t\n  ADD \t\t\t\n  PUSH 0\t\t\t\n  KECCAK256 \t\t\t\n  PUSH 0\t\t\t\n  PUSH 100\t\t\t\n  EXP \t\t\t\n  DUP2 \t\t\t\n  SLOAD \t\t\t\n  DUP2 \t\t\t\n  PUSH FF\t\t\t\n  MUL \t\t\t\n  NOT \t\t\t\n  AND \t\t\t\n  SWAP1 \t\t\t\n  DUP4 \t\t\t\n  ISZERO \t\t\t\n  ISZERO \t\t\t\n  MUL \t\t\t\n  OR \t\t\t\n  SWAP1 \t\t\t\n  SSTORE \t\t\t\n  POP \t\t\t\n  PUSH 1\t\t\t\n  PUSH 0\t\t\t  }\\n\\n}\\n\n  DUP1 \t\t\t  }\\n\\n}\\n\n  PUSH 5B5E139F\t\t\t\n  PUSH E0\t\t\t  }\\n\\n}\\n\n  SHL \t\t\t  }\\n\\n}\\n\n  PUSH FFFFFFFFFFFFFFFFFFFFFFFFFFFFFFFFFFFFFFFFFFFFFFFFFFFFFFFF\t\t\t  }\\n\\n}\\n\n  NOT \t\t\t  }\\n\\n}\\n\n  AND \t\t\t  }\\n\\n}\\n\n  DUP2 \t\t\t  }\\n\\n}\\n\n  MSTORE \t\t\t  }\\n\\n}\\n\n  PUSH 20\t\t\t  }\\n\\n}\\n\n  ADD \t\t\t  }\\n\\n}\\n\n  SWAP1 \t\t\t  }\\n\\n}\\n\n  DUP2 \t\t\t  }\\n\\n}\\n\n  MSTORE \t\t\t  }\\n\\n}\\n\n  PUSH 20\t\t\t  }\\n\\n}\\n\n  ADD \t\t\t  }\\n\\n}\\n\n  PUSH 0\t\t\t  }\\n\\n}\\n\n  KECCAK256 \t\t\t  }\\n\\n}\\n\n  PUSH 0\t\t\t  }\\n\\n}\\n\n  PUSH 100\t\t\t  }\\n\\n}\\n\n  EXP \t\t\t  }\\n\\n}\\n\n  DUP2 \t\t\t  }\\n\\n}\\n\n  SLOAD \t\t\t  }\\n\\n}\\n\n  DUP2 \t\t\t  }\\n\\n}\\n\n  PUSH FF\t\t\t  }\\n\\n}\\n\n  MUL \t\t\t  }\\n\\n}\\n\n  NOT \t\t\t  }\\n\\n}\\n\n  AND \t\t\t  }\\n\\n}\\n\n  SWAP1 \t\t\t  }\\n\\n}\\n\n  DUP4 \t\t\t  }\\n\\n}\\n\n  ISZERO \t\t\t  }\\n\\n}\\n\n  ISZERO \t\t\t  }\\n\\n}\\n\n  MUL \t\t\t  }\\n\\n}\\n\n  OR \t\t\t  }\\n\\n}\\n\n  SWAP1 \t\t\t  }\\n\\n}\\n\n  SSTORE \t\t\t  }\\n\\n}\\n\n  POP \t\t\t  }\\n\\n}\\n\n  CALLER \t\t\t\n  PUSH 8\t\t\t\n  PUSH 0\t\t\t\n  PUSH 100\t\t\t\n  EXP \t\t\t\n  DUP2 \t\t\t\n  SLOAD \t\t\t\n  DUP2 \t\t\t\n  PUSH FFFFFFFFFFFFFFFFFFFFFFFFFFFFFFFFFFFFFFFF\t\t\t\n  MUL \t\t\t\n  NOT \t\t\t\n  AND \t\t\t\n  SWAP1 \t\t\t\n  DUP4 \t\t\t\n  PUSH FFFFFFFFFFFFFFFFFFFFFFFFFFFFFFFFFFFFFFFF\t\t\t\n  AND \t\t\t\n  MUL \t\t\t\n  OR \t\t\t\n  SWAP1 \t\t\t\n  SSTORE \t\t\t\n  POP \t\t\t\n  PUSH 40\t\t\tnftName = \"fcs_class\"\n  MLOAD \t\t\tnftName = \"fcs_class\"\n  DUP1 \t\t\tnftName = \"fcs_class\"\n  PUSH 40\t\t\tnftName = \"fcs_class\"\n  ADD \t\t\tnftName = \"fcs_class\"\n  PUSH 40\t\t\tnftName = \"fcs_class\"\n  MSTORE \t\t\tnftName = \"fcs_class\"\n  DUP1 \t\t\tnftName = \"fcs_class\"\n  PUSH 9\t\t\tnftName = \"fcs_class\"\n  DUP2 \t\t\tnftName = \"fcs_class\"\n  MSTORE \t\t\tnftName = \"fcs_class\"\n  PUSH 20\t\t\tnftName = \"fcs_class\"\n  ADD \t\t\tnftName = \"fcs_class\"\n  PUSH 6663735F636C6173730000000000000000000000000000000000000000000000\t\t\tnftName = \"fcs_class\"\n  DUP2 \t\t\tnftName = \"fcs_class\"\n  MSTORE \t\t\tnftName = \"fcs_class\"\n  POP \t\t\tnftName = \"fcs_class\"\n  PUSH 5\t\t\tnftName\n  SWAP1 \t\t\tnftName = \"fcs_class\"\n  DUP2 \t\t\tnftName = \"fcs_class\"\n  PUSH [tag] 12\t\t\tnftName = \"fcs_class\"\n  SWAP2 \t\t\tnftName = \"fcs_class\"\n  SWAP1 \t\t\tnftName = \"fcs_class\"\n  PUSH [tag] 13\t\t\tnftName = \"fcs_class\"\n  JUMP \t\t\tnftName = \"fcs_class\"\ntag 12\t\t\tnftName = \"fcs_class\"\n  JUMPDEST \t\t\tnftName = \"fcs_class\"\n  POP \t\t\tnftName = \"fcs_class\"\n  PUSH 40\t\t\tnftSymbol = \"INR\"\n  MLOAD \t\t\tnftSymbol = \"INR\"\n  DUP1 \t\t\tnftSymbol = \"INR\"\n  PUSH 40\t\t\tnftSymbol = \"INR\"\n  ADD \t\t\tnftSymbol = \"INR\"\n  PUSH 40\t\t\tnftSymbol = \"INR\"\n  MSTORE \t\t\tnftSymbol = \"INR\"\n  DUP1 \t\t\tnftSymbol = \"INR\"\n  PUSH 3\t\t\tnftSymbol = \"INR\"\n  DUP2 \t\t\tnftSymbol = \"INR\"\n  MSTORE \t\t\tnftSymbol = \"INR\"\n  PUSH 20\t\t\tnftSymbol = \"INR\"\n  ADD \t\t\tnftSymbol = \"INR\"\n  PUSH 494E520000000000000000000000000000000000000000000000000000000000\t\t\tnftSymbol = \"INR\"\n  DUP2 \t\t\tnftSymbol = \"INR\"\n  MSTORE \t\t\tnftSymbol = \"INR\"\n  POP \t\t\tnftSymbol = \"INR\"\n  PUSH 6\t\t\tnftSymbol\n  SWAP1 \t\t\tnftSymbol = \"INR\"\n  DUP2 \t\t\tnftSymbol = \"INR\"\n  PUSH [tag] 14\t\t\tnftSymbol = \"INR\"\n  SWAP2 \t\t\tnftSymbol = \"INR\"\n  SWAP1 \t\t\tnftSymbol = \"INR\"\n  PUSH [tag] 13\t\t\tnftSymbol = \"INR\"\n  JUMP \t\t\tnftSymbol = \"INR\"\ntag 14\t\t\tnftSymbol = \"INR\"\n  JUMPDEST \t\t\tnftSymbol = \"INR\"\n  POP \t\t\tnftSymbol = \"INR\"\n  PUSH [tag] 15\t\t\tcontract fcsNFT is \\n    NFTok...\n  JUMP \t\t\tcontract fcsNFT is \\n    NFTok...\ntag 16\t\t\t-License-Identifier: MIT\\n\\npr...\n  JUMPDEST \t\t\t-License-Identifier: MIT\\n\\npr...\n  PUSH 0\t\t\t/ code\n  DUP2 \t\t\t.com/\n  MLOAD \t\t\tgithub.com/n\n  SWAP1 \t\t\tm https://github.com/n\n  POP \t\t\tm https://github.com/n\n  SWAP2 \t\t\t-License-Identifier: MIT\\n\\npr...\n  SWAP1 \t\t\t-License-Identifier: MIT\\n\\npr...\n  POP \t\t\t-License-Identifier: MIT\\n\\npr...\n  JUMP \t\t\t-License-Identifier: MIT\\n\\npr...\ntag 17\t\t\t21/tree/master\\nimport \"https:...\n  JUMPDEST \t\t\t21/tree/master\\nimport \"https:...\n  PUSH 4E487B7100000000000000000000000000000000000000000000000000000000\t\t\t/ethereum-erc721/src/contracts...\n  PUSH 0\t\t\te\n  MSTORE \t\t\tcom/0xcert/ethereum-erc721/src...\n  PUSH 41\t\t\tther\n  PUSH 4\t\t\tt\n  MSTORE \t\t\tm/0xcert/ethere\n  PUSH 24\t\t\tacts\n  PUSH 0\t\t\tn\n  REVERT \t\t\t/src/contracts/\ntag 18\t\t\tnable.sol\";\\n\\n\\n\\ncontract fc...\n  JUMPDEST \t\t\tnable.sol\";\\n\\n\\n\\ncontract fc...\n  PUSH 4E487B7100000000000000000000000000000000000000000000000000000000\t\t\ttadata, \\n    Ownable {\\n \\n  ...\n  PUSH 0\t\t\tn\n  MSTORE \t\t\t NFTokenMetadata, \\n    Ownabl...\n  PUSH 22\t\t\t `sy\n  PUSH 4\t\t\ta\n  MSTORE \t\t\t`name` and `sym\n  PUSH 24\t\t\ttruc\n  PUSH 0\t\t\to\n  REVERT \t\t\t*/\\n\\n  construct\ntag 19\t\t\tftName = \"fcs_class\";\\n    nft...\n  JUMPDEST \t\t\tftName = \"fcs_class\";\\n    nft...\n  PUSH 0\t\t\t\\n  }\\n \n  PUSH 2\t\t\ty\n  DUP3 \t\t\tress\n  DIV \t\t\t(address mya\n  SWAP1 \t\t\tn metamask(address mya\n  POP \t\t\tn metamask(address mya\n  PUSH 1\t\t\t \n  DUP3 \t\t\ta ur\n  AND \t\t\tldata uri) e\n  DUP1 \t\t\t\\n    super._mint(m\n  PUSH [tag] 41\t\t\tnlyOwner {\\n    super._mint(my...\n  JUMPI \t\t\tnlyOwner {\\n    super._mint(my...\n  PUSH 7F\t\t\tnUri\n  DUP3 \t\t\t_setTo\n  AND \t\t\tper._setTokenUri(\n  SWAP2 \t\t\tD);\\n    super._setTokenUri(\n  POP \t\t\tD);\\n    super._setTokenUri(\ntag 41\t\t\tnlyOwner {\\n    super._mint(my...\n  JUMPDEST \t\t\tnlyOwner {\\n    super._mint(my...\n  PUSH 20\t\t\t\n  DUP3 \t\t\t\n  LT \t\t\t\n  DUP2 \t\t\t\n  SUB \t\t\t\n  PUSH [tag] 42\t\t\t}\\n\n  JUMPI \t\t\t}\\n\n  PUSH [tag] 43\t\t\t\n  PUSH [tag] 18\t\t\t\n  JUMP \t\t\t\ntag 43\t\t\t\n  JUMPDEST \t\t\t\ntag 42\t\t\t}\\n\n  JUMPDEST \t\t\t}\\n\n  POP \t\t\t\\n  function metamask(address ...\n  SWAP2 \t\t\tftName = \"fcs_class\";\\n    nft...\n  SWAP1 \t\t\tftName = \"fcs_class\";\\n    nft...\n  POP \t\t\tftName = \"fcs_class\";\\n    nft...\n  JUMP \t\t\tftName = \"fcs_class\";\\n    nft...\ntag 20\t\t\t\n  JUMPDEST \t\t\t\n  PUSH 0\t\t\t\n  DUP2 \t\t\t\n  SWAP1 \t\t\t\n  POP \t\t\t\n  DUP2 \t\t\t\n  PUSH 0\t\t\t\n  MSTORE \t\t\t\n  PUSH 20\t\t\t\n  PUSH 0\t\t\t\n  KECCAK256 \t\t\t\n  SWAP1 \t\t\t\n  POP \t\t\t\n  SWAP2 \t\t\t\n  SWAP1 \t\t\t\n  POP \t\t\t\n  JUMP \t\t\t\ntag 21\t\t\t\n  JUMPDEST \t\t\t\n  PUSH 0\t\t\t\n  PUSH 20\t\t\t\n  PUSH 1F\t\t\t\n  DUP4 \t\t\t\n  ADD \t\t\t\n  DIV \t\t\t\n  SWAP1 \t\t\t\n  POP \t\t\t\n  SWAP2 \t\t\t\n  SWAP1 \t\t\t\n  POP \t\t\t\n  JUMP \t\t\t\ntag 22\t\t\t\n  JUMPDEST \t\t\t\n  PUSH 0\t\t\t\n  DUP3 \t\t\t\n  DUP3 \t\t\t\n  SHL \t\t\t\n  SWAP1 \t\t\t\n  POP \t\t\t\n  SWAP3 \t\t\t\n  SWAP2 \t\t\t\n  POP \t\t\t\n  POP \t\t\t\n  JUMP \t\t\t\ntag 23\t\t\t\n  JUMPDEST \t\t\t\n  PUSH 0\t\t\t\n  PUSH 8\t\t\t\n  DUP4 \t\t\t\n  MUL \t\t\t\n  PUSH [tag] 48\t\t\t\n  PUSH FFFFFFFFFFFFFFFFFFFFFFFFFFFFFFFFFFFFFFFFFFFFFFFFFFFFFFFFFFFFFFFF\t\t\t\n  DUP3 \t\t\t\n  PUSH [tag] 22\t\t\t\n  JUMP \t\t\t\ntag 48\t\t\t\n  JUMPDEST \t\t\t\n  PUSH [tag] 49\t\t\t\n  DUP7 \t\t\t\n  DUP4 \t\t\t\n  PUSH [tag] 22\t\t\t\n  JUMP \t\t\t\ntag 49\t\t\t\n  JUMPDEST \t\t\t\n  SWAP6 \t\t\t\n  POP \t\t\t\n  DUP1 \t\t\t\n  NOT \t\t\t\n  DUP5 \t\t\t\n  AND \t\t\t\n  SWAP4 \t\t\t\n  POP \t\t\t\n  DUP1 \t\t\t\n  DUP7 \t\t\t\n  AND \t\t\t\n  DUP5 \t\t\t\n  OR \t\t\t\n  SWAP3 \t\t\t\n  POP \t\t\t\n  POP \t\t\t\n  POP \t\t\t\n  SWAP4 \t\t\t\n  SWAP3 \t\t\t\n  POP \t\t\t\n  POP \t\t\t\n  POP \t\t\t\n  JUMP \t\t\t\ntag 24\t\t\t\n  JUMPDEST \t\t\t\n  PUSH 0\t\t\t\n  DUP2 \t\t\t\n  SWAP1 \t\t\t\n  POP \t\t\t\n  SWAP2 \t\t\t\n  SWAP1 \t\t\t\n  POP \t\t\t\n  JUMP \t\t\t\ntag 25\t\t\t\n  JUMPDEST \t\t\t\n  PUSH 0\t\t\t\n  DUP2 \t\t\t\n  SWAP1 \t\t\t\n  POP \t\t\t\n  SWAP2 \t\t\t\n  SWAP1 \t\t\t\n  POP \t\t\t\n  JUMP \t\t\t\ntag 26\t\t\t\n  JUMPDEST \t\t\t\n  PUSH 0\t\t\t\n  PUSH [tag] 53\t\t\t\n  PUSH [tag] 54\t\t\t\n  PUSH [tag] 55\t\t\t\n  DUP5 \t\t\t\n  PUSH [tag] 24\t\t\t\n  JUMP \t\t\t\ntag 55\t\t\t\n  JUMPDEST \t\t\t\n  PUSH [tag] 25\t\t\t\n  JUMP \t\t\t\ntag 54\t\t\t\n  JUMPDEST \t\t\t\n  PUSH [tag] 24\t\t\t\n  JUMP \t\t\t\ntag 53\t\t\t\n  JUMPDEST \t\t\t\n  SWAP1 \t\t\t\n  POP \t\t\t\n  SWAP2 \t\t\t\n  SWAP1 \t\t\t\n  POP \t\t\t\n  JUMP \t\t\t\ntag 27\t\t\t\n  JUMPDEST \t\t\t\n  PUSH 0\t\t\t\n  DUP2 \t\t\t\n  SWAP1 \t\t\t\n  POP \t\t\t\n  SWAP2 \t\t\t\n  SWAP1 \t\t\t\n  POP \t\t\t\n  JUMP \t\t\t\ntag 28\t\t\t\n  JUMPDEST \t\t\t\n  PUSH [tag] 58\t\t\t\n  DUP4 \t\t\t\n  PUSH [tag] 26\t\t\t\n  JUMP \t\t\t\ntag 58\t\t\t\n  JUMPDEST \t\t\t\n  PUSH [tag] 59\t\t\t\n  PUSH [tag] 60\t\t\t\n  DUP3 \t\t\t\n  PUSH [tag] 27\t\t\t\n  JUMP \t\t\t\ntag 60\t\t\t\n  JUMPDEST \t\t\t\n  DUP5 \t\t\t\n  DUP5 \t\t\t\n  SLOAD \t\t\t\n  PUSH [tag] 23\t\t\t\n  JUMP \t\t\t\ntag 59\t\t\t\n  JUMPDEST \t\t\t\n  DUP3 \t\t\t\n  SSTORE \t\t\t\n  POP \t\t\t\n  POP \t\t\t\n  POP \t\t\t\n  POP \t\t\t\n  JUMP \t\t\t\ntag 29\t\t\t\n  JUMPDEST \t\t\t\n  PUSH 0\t\t\t\n  SWAP1 \t\t\t\n  JUMP \t\t\t\ntag 30\t\t\t\n  JUMPDEST \t\t\t\n  PUSH [tag] 63\t\t\t\n  PUSH [tag] 29\t\t\t\n  JUMP \t\t\t\ntag 63\t\t\t\n  JUMPDEST \t\t\t\n  PUSH [tag] 64\t\t\t\n  DUP2 \t\t\t\n  DUP5 \t\t\t\n  DUP5 \t\t\t\n  PUSH [tag] 28\t\t\t\n  JUMP \t\t\t\ntag 64\t\t\t\n  JUMPDEST \t\t\t\n  POP \t\t\t\n  POP \t\t\t\n  POP \t\t\t\n  JUMP \t\t\t\ntag 31\t\t\t\n  JUMPDEST \t\t\t\ntag 66\t\t\t\n  JUMPDEST \t\t\t\n  DUP2 \t\t\t\n  DUP2 \t\t\t\n  LT \t\t\t\n  ISZERO \t\t\t\n  PUSH [tag] 68\t\t\t\n  JUMPI \t\t\t\n  PUSH [tag] 69\t\t\t\n  PUSH 0\t\t\t\n  DUP3 \t\t\t\n  PUSH [tag] 30\t\t\t\n  JUMP \t\t\t\ntag 69\t\t\t\n  JUMPDEST \t\t\t\n  PUSH 1\t\t\t\n  DUP2 \t\t\t\n  ADD \t\t\t\n  SWAP1 \t\t\t\n  POP \t\t\t\n  PUSH [tag] 66\t\t\t\n  JUMP \t\t\t\ntag 68\t\t\t\n  JUMPDEST \t\t\t\n  POP \t\t\t\n  POP \t\t\t\n  JUMP \t\t\t\ntag 32\t\t\t\n  JUMPDEST \t\t\t\n  PUSH 1F\t\t\t\n  DUP3 \t\t\t\n  GT \t\t\t\n  ISZERO \t\t\t\n  PUSH [tag] 71\t\t\t\n  JUMPI \t\t\t\n  PUSH [tag] 72\t\t\t\n  DUP2 \t\t\t\n  PUSH [tag] 20\t\t\t\n  JUMP \t\t\t\ntag 72\t\t\t\n  JUMPDEST \t\t\t\n  PUSH [tag] 73\t\t\t\n  DUP5 \t\t\t\n  PUSH [tag] 21\t\t\t\n  JUMP \t\t\t\ntag 73\t\t\t\n  JUMPDEST \t\t\t\n  DUP2 \t\t\t\n  ADD \t\t\t\n  PUSH 20\t\t\t\n  DUP6 \t\t\t\n  LT \t\t\t\n  ISZERO \t\t\t\n  PUSH [tag] 74\t\t\t\n  JUMPI \t\t\t\n  DUP2 \t\t\t\n  SWAP1 \t\t\t\n  POP \t\t\t\ntag 74\t\t\t\n  JUMPDEST \t\t\t\n  PUSH [tag] 75\t\t\t\n  PUSH [tag] 76\t\t\t\n  DUP6 \t\t\t\n  PUSH [tag] 21\t\t\t\n  JUMP \t\t\t\ntag 76\t\t\t\n  JUMPDEST \t\t\t\n  DUP4 \t\t\t\n  ADD \t\t\t\n  DUP3 \t\t\t\n  PUSH [tag] 31\t\t\t\n  JUMP \t\t\t\ntag 75\t\t\t\n  JUMPDEST \t\t\t\n  POP \t\t\t\n  POP \t\t\t\ntag 71\t\t\t\n  JUMPDEST \t\t\t\n  POP \t\t\t\n  POP \t\t\t\n  POP \t\t\t\n  JUMP \t\t\t\ntag 33\t\t\t\n  JUMPDEST \t\t\t\n  PUSH 0\t\t\t\n  DUP3 \t\t\t\n  DUP3 \t\t\t\n  SHR \t\t\t\n  SWAP1 \t\t\t\n  POP \t\t\t\n  SWAP3 \t\t\t\n  SWAP2 \t\t\t\n  POP \t\t\t\n  POP \t\t\t\n  JUMP \t\t\t\ntag 34\t\t\t\n  JUMPDEST \t\t\t\n  PUSH 0\t\t\t\n  PUSH [tag] 79\t\t\t\n  PUSH 0\t\t\t\n  NOT \t\t\t\n  DUP5 \t\t\t\n  PUSH 8\t\t\t\n  MUL \t\t\t\n  PUSH [tag] 33\t\t\t\n  JUMP \t\t\t\ntag 79\t\t\t\n  JUMPDEST \t\t\t\n  NOT \t\t\t\n  DUP1 \t\t\t\n  DUP4 \t\t\t\n  AND \t\t\t\n  SWAP2 \t\t\t\n  POP \t\t\t\n  POP \t\t\t\n  SWAP3 \t\t\t\n  SWAP2 \t\t\t\n  POP \t\t\t\n  POP \t\t\t\n  JUMP \t\t\t\ntag 35\t\t\t\n  JUMPDEST \t\t\t\n  PUSH 0\t\t\t\n  PUSH [tag] 81\t\t\t\n  DUP4 \t\t\t\n  DUP4 \t\t\t\n  PUSH [tag] 34\t\t\t\n  JUMP \t\t\t\ntag 81\t\t\t\n  JUMPDEST \t\t\t\n  SWAP2 \t\t\t\n  POP \t\t\t\n  DUP3 \t\t\t\n  PUSH 2\t\t\t\n  MUL \t\t\t\n  DUP3 \t\t\t\n  OR \t\t\t\n  SWAP1 \t\t\t\n  POP \t\t\t\n  SWAP3 \t\t\t\n  SWAP2 \t\t\t\n  POP \t\t\t\n  POP \t\t\t\n  JUMP \t\t\t\ntag 13\t\t\t\n  JUMPDEST \t\t\t\n  PUSH [tag] 83\t\t\t\n  DUP3 \t\t\t\n  PUSH [tag] 16\t\t\t\n  JUMP \t\t\t\ntag 83\t\t\t\n  JUMPDEST \t\t\t\n  PUSH FFFFFFFFFFFFFFFF\t\t\t\n  DUP2 \t\t\t\n  GT \t\t\t\n  ISZERO \t\t\t\n  PUSH [tag] 84\t\t\t\n  JUMPI \t\t\t\n  PUSH [tag] 85\t\t\t\n  PUSH [tag] 17\t\t\t\n  JUMP \t\t\t\ntag 85\t\t\t\n  JUMPDEST \t\t\t\ntag 84\t\t\t\n  JUMPDEST \t\t\t\n  PUSH [tag] 86\t\t\t\n  DUP3 \t\t\t\n  SLOAD \t\t\t\n  PUSH [tag] 19\t\t\t\n  JUMP \t\t\t\ntag 86\t\t\t\n  JUMPDEST \t\t\t\n  PUSH [tag] 87\t\t\t\n  DUP3 \t\t\t\n  DUP3 \t\t\t\n  DUP6 \t\t\t\n  PUSH [tag] 32\t\t\t\n  JUMP \t\t\t\ntag 87\t\t\t\n  JUMPDEST \t\t\t\n  PUSH 0\t\t\t\n  PUSH 20\t\t\t\n  SWAP1 \t\t\t\n  POP \t\t\t\n  PUSH 1F\t\t\t\n  DUP4 \t\t\t\n  GT \t\t\t\n  PUSH 1\t\t\t\n  DUP2 \t\t\t\n  EQ \t\t\t\n  PUSH [tag] 89\t\t\t\n  JUMPI \t\t\t\n  PUSH 0\t\t\t\n  DUP5 \t\t\t\n  ISZERO \t\t\t\n  PUSH [tag] 90\t\t\t\n  JUMPI \t\t\t\n  DUP3 \t\t\t\n  DUP8 \t\t\t\n  ADD \t\t\t\n  MLOAD \t\t\t\n  SWAP1 \t\t\t\n  POP \t\t\t\ntag 90\t\t\t\n  JUMPDEST \t\t\t\n  PUSH [tag] 91\t\t\t\n  DUP6 \t\t\t\n  DUP3 \t\t\t\n  PUSH [tag] 35\t\t\t\n  JUMP \t\t\t\ntag 91\t\t\t\n  JUMPDEST \t\t\t\n  DUP7 \t\t\t\n  SSTORE \t\t\t\n  POP \t\t\t\n  PUSH [tag] 88\t\t\t\n  JUMP \t\t\t\ntag 89\t\t\t\n  JUMPDEST \t\t\t\n  PUSH 1F\t\t\t\n  NOT \t\t\t\n  DUP5 \t\t\t\n  AND \t\t\t\n  PUSH [tag] 92\t\t\t\n  DUP7 \t\t\t\n  PUSH [tag] 20\t\t\t\n  JUMP \t\t\t\ntag 92\t\t\t\n  JUMPDEST \t\t\t\n  PUSH 0\t\t\t\ntag 93\t\t\t\n  JUMPDEST \t\t\t\n  DUP3 \t\t\t\n  DUP2 \t\t\t\n  LT \t\t\t\n  ISZERO \t\t\t\n  PUSH [tag] 95\t\t\t\n  JUMPI \t\t\t\n  DUP5 \t\t\t\n  DUP10 \t\t\t\n  ADD \t\t\t\n  MLOAD \t\t\t\n  DUP3 \t\t\t\n  SSTORE \t\t\t\n  PUSH 1\t\t\t\n  DUP3 \t\t\t\n  ADD \t\t\t\n  SWAP2 \t\t\t\n  POP \t\t\t\n  PUSH 20\t\t\t\n  DUP6 \t\t\t\n  ADD \t\t\t\n  SWAP5 \t\t\t\n  POP \t\t\t\n  PUSH 20\t\t\t\n  DUP2 \t\t\t\n  ADD \t\t\t\n  SWAP1 \t\t\t\n  POP \t\t\t\n  PUSH [tag] 93\t\t\t\n  JUMP \t\t\t\ntag 95\t\t\t\n  JUMPDEST \t\t\t\n  DUP7 \t\t\t\n  DUP4 \t\t\t\n  LT \t\t\t\n  ISZERO \t\t\t\n  PUSH [tag] 96\t\t\t\n  JUMPI \t\t\t\n  DUP5 \t\t\t\n  DUP10 \t\t\t\n  ADD \t\t\t\n  MLOAD \t\t\t\n  PUSH [tag] 97\t\t\t\n  PUSH 1F\t\t\t\n  DUP10 \t\t\t\n  AND \t\t\t\n  DUP3 \t\t\t\n  PUSH [tag] 34\t\t\t\n  JUMP \t\t\t\ntag 97\t\t\t\n  JUMPDEST \t\t\t\n  DUP4 \t\t\t\n  SSTORE \t\t\t\n  POP \t\t\t\ntag 96\t\t\t\n  JUMPDEST \t\t\t\n  PUSH 1\t\t\t\n  PUSH 2\t\t\t\n  DUP9 \t\t\t\n  MUL \t\t\t\n  ADD \t\t\t\n  DUP9 \t\t\t\n  SSTORE \t\t\t\n  POP \t\t\t\n  POP \t\t\t\n  POP \t\t\t\ntag 88\t\t\t\n  JUMPDEST \t\t\t\n  POP \t\t\t\n  POP \t\t\t\n  POP \t\t\t\n  POP \t\t\t\n  POP \t\t\t\n  POP \t\t\t\n  JUMP \t\t\t\ntag 15\t\t\tcontract fcsNFT is \\n    NFTok...\n  JUMPDEST \t\t\tcontract fcsNFT is \\n    NFTok...\n  PUSH #[$] 0000000000000000000000000000000000000000000000000000000000000000\t\t\tcontract fcsNFT is \\n    NFTok...\n  DUP1 \t\t\tcontract fcsNFT is \\n    NFTok...\n  PUSH [$] 0000000000000000000000000000000000000000000000000000000000000000\t\t\tcontract fcsNFT is \\n    NFTok...\n  PUSH 0\t\t\tcontract fcsNFT is \\n    NFTok...\n  CODECOPY \t\t\tcontract fcsNFT is \\n    NFTok...\n  PUSH 0\t\t\tcontract fcsNFT is \\n    NFTok...\n  RETURN \t\t\tcontract fcsNFT is \\n    NFTok...\n.data\n  0:\n    .code\n      PUSH 80\t\t\tcontract fcsNFT is \\n    NFTok...\n      PUSH 40\t\t\tcontract fcsNFT is \\n    NFTok...\n      MSTORE \t\t\tcontract fcsNFT is \\n    NFTok...\n      CALLVALUE \t\t\tcontract fcsNFT is \\n    NFTok...\n      DUP1 \t\t\tcontract fcsNFT is \\n    NFTok...\n      ISZERO \t\t\tcontract fcsNFT is \\n    NFTok...\n      PUSH [tag] 1\t\t\tcontract fcsNFT is \\n    NFTok...\n      JUMPI \t\t\tcontract fcsNFT is \\n    NFTok...\n      PUSH 0\t\t\tcontract fcsNFT is \\n    NFTok...\n      DUP1 \t\t\tcontract fcsNFT is \\n    NFTok...\n      REVERT \t\t\tcontract fcsNFT is \\n    NFTok...\n    tag 1\t\t\tcontract fcsNFT is \\n    NFTok...\n      JUMPDEST \t\t\tcontract fcsNFT is \\n    NFTok...\n      POP \t\t\tcontract fcsNFT is \\n    NFTok...\n      PUSH 4\t\t\tcontract fcsNFT is \\n    NFTok...\n      CALLDATASIZE \t\t\tcontract fcsNFT is \\n    NFTok...\n      LT \t\t\tcontract fcsNFT is \\n    NFTok...\n      PUSH [tag] 2\t\t\tcontract fcsNFT is \\n    NFTok...\n      JUMPI \t\t\tcontract fcsNFT is \\n    NFTok...\n      PUSH 0\t\t\tcontract fcsNFT is \\n    NFTok...\n      CALLDATALOAD \t\t\tcontract fcsNFT is \\n    NFTok...\n      PUSH E0\t\t\tcontract fcsNFT is \\n    NFTok...\n      SHR \t\t\tcontract fcsNFT is \\n    NFTok...\n      DUP1 \t\t\tcontract fcsNFT is \\n    NFTok...\n      PUSH 8DA5CB5B\t\t\tcontract fcsNFT is \\n    NFTok...\n      GT \t\t\tcontract fcsNFT is \\n    NFTok...\n      PUSH [tag] 21\t\t\tcontract fcsNFT is \\n    NFTok...\n      JUMPI \t\t\tcontract fcsNFT is \\n    NFTok...\n      DUP1 \t\t\tcontract fcsNFT is \\n    NFTok...\n      PUSH C87B56DD\t\t\tcontract fcsNFT is \\n    NFTok...\n      GT \t\t\tcontract fcsNFT is \\n    NFTok...\n      PUSH [tag] 22\t\t\tcontract fcsNFT is \\n    NFTok...\n      JUMPI \t\t\tcontract fcsNFT is \\n    NFTok...\n      DUP1 \t\t\tcontract fcsNFT is \\n    NFTok...\n      PUSH C87B56DD\t\t\tcontract fcsNFT is \\n    NFTok...\n      EQ \t\t\tcontract fcsNFT is \\n    NFTok...\n      PUSH [tag] 16\t\t\tcontract fcsNFT is \\n    NFTok...\n      JUMPI \t\t\tcontract fcsNFT is \\n    NFTok...\n      DUP1 \t\t\tcontract fcsNFT is \\n    NFTok...\n      PUSH E985E9C5\t\t\tcontract fcsNFT is \\n    NFTok...\n      EQ \t\t\tcontract fcsNFT is \\n    NFTok...\n      PUSH [tag] 17\t\t\tcontract fcsNFT is \\n    NFTok...\n      JUMPI \t\t\tcontract fcsNFT is \\n    NFTok...\n      DUP1 \t\t\tcontract fcsNFT is \\n    NFTok...\n      PUSH F2FDE38B\t\t\tcontract fcsNFT is \\n    NFTok...\n      EQ \t\t\tcontract fcsNFT is \\n    NFTok...\n      PUSH [tag] 18\t\t\tcontract fcsNFT is \\n    NFTok...\n      JUMPI \t\t\tcontract fcsNFT is \\n    NFTok...\n      DUP1 \t\t\tcontract fcsNFT is \\n    NFTok...\n      PUSH F384A826\t\t\tcontract fcsNFT is \\n    NFTok...\n      EQ \t\t\tcontract fcsNFT is \\n    NFTok...\n      PUSH [tag] 19\t\t\tcontract fcsNFT is \\n    NFTok...\n      JUMPI \t\t\tcontract fcsNFT is \\n    NFTok...\n      DUP1 \t\t\tcontract fcsNFT is \\n    NFTok...\n      PUSH F3FE3BC3\t\t\tcontract fcsNFT is \\n    NFTok...\n      EQ \t\t\tcontract fcsNFT is \\n    NFTok...\n      PUSH [tag] 20\t\t\tcontract fcsNFT is \\n    NFTok...\n      JUMPI \t\t\tcontract fcsNFT is \\n    NFTok...\n      PUSH [tag] 2\t\t\tcontract fcsNFT is \\n    NFTok...\n      JUMP \t\t\tcontract fcsNFT is \\n    NFTok...\n    tag 22\t\t\tcontract fcsNFT is \\n    NFTok...\n      JUMPDEST \t\t\tcontract fcsNFT is \\n    NFTok...\n      DUP1 \t\t\tcontract fcsNFT is \\n    NFTok...\n      PUSH 8DA5CB5B\t\t\tcontract fcsNFT is \\n    NFTok...\n      EQ \t\t\tcontract fcsNFT is \\n    NFTok...\n      PUSH [tag] 12\t\t\tcontract fcsNFT is \\n    NFTok...\n      JUMPI \t\t\tcontract fcsNFT is \\n    NFTok...\n      DUP1 \t\t\tcontract fcsNFT is \\n    NFTok...\n      PUSH 95D89B41\t\t\tcontract fcsNFT is \\n    NFTok...\n      EQ \t\t\tcontract fcsNFT is \\n    NFTok...\n      PUSH [tag] 13\t\t\tcontract fcsNFT is \\n    NFTok...\n      JUMPI \t\t\tcontract fcsNFT is \\n    NFTok...\n      DUP1 \t\t\tcontract fcsNFT is \\n    NFTok...\n      PUSH A22CB465\t\t\tcontract fcsNFT is \\n    NFTok...\n      EQ \t\t\tcontract fcsNFT is \\n    NFTok...\n      PUSH [tag] 14\t\t\tcontract fcsNFT is \\n    NFTok...\n      JUMPI \t\t\tcontract fcsNFT is \\n    NFTok...\n      DUP1 \t\t\tcontract fcsNFT is \\n    NFTok...\n      PUSH B88D4FDE\t\t\tcontract fcsNFT is \\n    NFTok...\n      EQ \t\t\tcontract fcsNFT is \\n    NFTok...\n      PUSH [tag] 15\t\t\tcontract fcsNFT is \\n    NFTok...\n      JUMPI \t\t\tcontract fcsNFT is \\n    NFTok...\n      PUSH [tag] 2\t\t\tcontract fcsNFT is \\n    NFTok...\n      JUMP \t\t\tcontract fcsNFT is \\n    NFTok...\n    tag 21\t\t\tcontract fcsNFT is \\n    NFTok...\n      JUMPDEST \t\t\tcontract fcsNFT is \\n    NFTok...\n      DUP1 \t\t\tcontract fcsNFT is \\n    NFTok...\n      PUSH 23B872DD\t\t\tcontract fcsNFT is \\n    NFTok...\n      GT \t\t\tcontract fcsNFT is \\n    NFTok...\n      PUSH [tag] 23\t\t\tcontract fcsNFT is \\n    NFTok...\n      JUMPI \t\t\tcontract fcsNFT is \\n    NFTok...\n      DUP1 \t\t\tcontract fcsNFT is \\n    NFTok...\n      PUSH 23B872DD\t\t\tcontract fcsNFT is \\n    NFTok...\n      EQ \t\t\tcontract fcsNFT is \\n    NFTok...\n      PUSH [tag] 7\t\t\tcontract fcsNFT is \\n    NFTok...\n      JUMPI \t\t\tcontract fcsNFT is \\n    NFTok...\n      DUP1 \t\t\tcontract fcsNFT is \\n    NFTok...\n      PUSH 42842E0E\t\t\tcontract fcsNFT is \\n    NFTok...\n      EQ \t\t\tcontract fcsNFT is \\n    NFTok...\n      PUSH [tag] 8\t\t\tcontract fcsNFT is \\n    NFTok...\n      JUMPI \t\t\tcontract fcsNFT is \\n    NFTok...\n      DUP1 \t\t\tcontract fcsNFT is \\n    NFTok...\n      PUSH 6352211E\t\t\tcontract fcsNFT is \\n    NFTok...\n      EQ \t\t\tcontract fcsNFT is \\n    NFTok...\n      PUSH [tag] 9\t\t\tcontract fcsNFT is \\n    NFTok...\n      JUMPI \t\t\tcontract fcsNFT is \\n    NFTok...\n      DUP1 \t\t\tcontract fcsNFT is \\n    NFTok...\n      PUSH 70A08231\t\t\tcontract fcsNFT is \\n    NFTok...\n      EQ \t\t\tcontract fcsNFT is \\n    NFTok...\n      PUSH [tag] 10\t\t\tcontract fcsNFT is \\n    NFTok...\n      JUMPI \t\t\tcontract fcsNFT is \\n    NFTok...\n      DUP1 \t\t\tcontract fcsNFT is \\n    NFTok...\n      PUSH 860D248A\t\t\tcontract fcsNFT is \\n    NFTok...\n      EQ \t\t\tcontract fcsNFT is \\n    NFTok...\n      PUSH [tag] 11\t\t\tcontract fcsNFT is \\n    NFTok...\n      JUMPI \t\t\tcontract fcsNFT is \\n    NFTok...\n      PUSH [tag] 2\t\t\tcontract fcsNFT is \\n    NFTok...\n      JUMP \t\t\tcontract fcsNFT is \\n    NFTok...\n    tag 23\t\t\tcontract fcsNFT is \\n    NFTok...\n      JUMPDEST \t\t\tcontract fcsNFT is \\n    NFTok...\n      DUP1 \t\t\tcontract fcsNFT is \\n    NFTok...\n      PUSH 1FFC9A7\t\t\tcontract fcsNFT is \\n    NFTok...\n      EQ \t\t\tcontract fcsNFT is \\n    NFTok...\n      PUSH [tag] 3\t\t\tcontract fcsNFT is \\n    NFTok...\n      JUMPI \t\t\tcontract fcsNFT is \\n    NFTok...\n      DUP1 \t\t\tcontract fcsNFT is \\n    NFTok...\n      PUSH 6FDDE03\t\t\tcontract fcsNFT is \\n    NFTok...\n      EQ \t\t\tcontract fcsNFT is \\n    NFTok...\n      PUSH [tag] 4\t\t\tcontract fcsNFT is \\n    NFTok...\n      JUMPI \t\t\tcontract fcsNFT is \\n    NFTok...\n      DUP1 \t\t\tcontract fcsNFT is \\n    NFTok...\n      PUSH 81812FC\t\t\tcontract fcsNFT is \\n    NFTok...\n      EQ \t\t\tcontract fcsNFT is \\n    NFTok...\n      PUSH [tag] 5\t\t\tcontract fcsNFT is \\n    NFTok...\n      JUMPI \t\t\tcontract fcsNFT is \\n    NFTok...\n      DUP1 \t\t\tcontract fcsNFT is \\n    NFTok...\n      PUSH 95EA7B3\t\t\tcontract fcsNFT is \\n    NFTok...\n      EQ \t\t\tcontract fcsNFT is \\n    NFTok...\n      PUSH [tag] 6\t\t\tcontract fcsNFT is \\n    NFTok...\n      JUMPI \t\t\tcontract fcsNFT is \\n    NFTok...\n    tag 2\t\t\tcontract fcsNFT is \\n    NFTok...\n      JUMPDEST \t\t\tcontract fcsNFT is \\n    NFTok...\n      PUSH 0\t\t\tcontract fcsNFT is \\n    NFTok...\n      DUP1 \t\t\tcontract fcsNFT is \\n    NFTok...\n      REVERT \t\t\tcontract fcsNFT is \\n    NFTok...\n    tag 3\t\t\tTokenUri(tokenID, uri);\\n  }\\n...\n      JUMPDEST \t\t\tTokenUri(tokenID, uri);\\n  }\\n...\n      PUSH [tag] 24\t\t\tTokenUri(tokenID, uri);\\n  }\\n...\n      PUSH 4\t\t\tTokenUri(tokenID, uri);\\n  }\\n...\n      DUP1 \t\t\tTokenUri(tokenID, uri);\\n  }\\n...\n      CALLDATASIZE \t\t\tTokenUri(tokenID, uri);\\n  }\\n...\n      SUB \t\t\tTokenUri(tokenID, uri);\\n  }\\n...\n      DUP2 \t\t\tTokenUri(tokenID, uri);\\n  }\\n...\n      ADD \t\t\tTokenUri(tokenID, uri);\\n  }\\n...\n      SWAP1 \t\t\tTokenUri(tokenID, uri);\\n  }\\n...\n      PUSH [tag] 25\t\t\tTokenUri(tokenID, uri);\\n  }\\n...\n      SWAP2 \t\t\tTokenUri(tokenID, uri);\\n  }\\n...\n      SWAP1 \t\t\tTokenUri(tokenID, uri);\\n  }\\n...\n      PUSH [tag] 26\t\t\tTokenUri(tokenID, uri);\\n  }\\n...\n      JUMP \t\t\tTokenUri(tokenID, uri);\\n  }\\n...\n    tag 25\t\t\tTokenUri(tokenID, uri);\\n  }\\n...\n      JUMPDEST \t\t\tTokenUri(tokenID, uri);\\n  }\\n...\n      PUSH [tag] 27\t\t\tTokenUri(tokenID, uri);\\n  }\\n...\n      JUMP \t\t\tTokenUri(tokenID, uri);\\n  }\\n...\n    tag 24\t\t\tTokenUri(tokenID, uri);\\n  }\\n...\n      JUMPDEST \t\t\tTokenUri(tokenID, uri);\\n  }\\n...\n      PUSH 40\t\t\tTokenUri(tokenID, uri);\\n  }\\n...\n      MLOAD \t\t\tTokenUri(tokenID, uri);\\n  }\\n...\n      PUSH [tag] 28\t\t\tTokenUri(tokenID, uri);\\n  }\\n...\n      SWAP2 \t\t\tTokenUri(tokenID, uri);\\n  }\\n...\n      SWAP1 \t\t\tTokenUri(tokenID, uri);\\n  }\\n...\n      PUSH [tag] 29\t\t\tTokenUri(tokenID, uri);\\n  }\\n...\n      JUMP \t\t\tTokenUri(tokenID, uri);\\n  }\\n...\n    tag 28\t\t\tTokenUri(tokenID, uri);\\n  }\\n...\n      JUMPDEST \t\t\tTokenUri(tokenID, uri);\\n  }\\n...\n      PUSH 40\t\t\tTokenUri(tokenID, uri);\\n  }\\n...\n      MLOAD \t\t\tTokenUri(tokenID, uri);\\n  }\\n...\n      DUP1 \t\t\tTokenUri(tokenID, uri);\\n  }\\n...\n      SWAP2 \t\t\tTokenUri(tokenID, uri);\\n  }\\n...\n      SUB \t\t\tTokenUri(tokenID, uri);\\n  }\\n...\n      SWAP1 \t\t\tTokenUri(tokenID, uri);\\n  }\\n...\n      RETURN \t\t\tTokenUri(tokenID, uri);\\n  }\\n...\n    tag 4\t\t\t\n      JUMPDEST \t\t\t\n      PUSH [tag] 30\t\t\t\n      PUSH [tag] 31\t\t\t\n      JUMP \t\t\t\n    tag 30\t\t\t\n      JUMPDEST \t\t\t\n      PUSH 40\t\t\t\n      MLOAD \t\t\t\n      PUSH [tag] 32\t\t\t\n      SWAP2 \t\t\t\n      SWAP1 \t\t\t\n      PUSH [tag] 33\t\t\t\n      JUMP \t\t\t\n    tag 32\t\t\t\n      JUMPDEST \t\t\t\n      PUSH 40\t\t\t\n      MLOAD \t\t\t\n      DUP1 \t\t\t\n      SWAP2 \t\t\t\n      SUB \t\t\t\n      SWAP1 \t\t\t\n      RETURN \t\t\t\n    tag 5\t\t\t\n      JUMPDEST \t\t\t\n      PUSH [tag] 34\t\t\t\n      PUSH 4\t\t\t\n      DUP1 \t\t\t\n      CALLDATASIZE \t\t\t\n      SUB \t\t\t\n      DUP2 \t\t\t\n      ADD \t\t\t\n      SWAP1 \t\t\t\n      PUSH [tag] 35\t\t\t\n      SWAP2 \t\t\t\n      SWAP1 \t\t\t\n      PUSH [tag] 36\t\t\t\n      JUMP \t\t\t\n    tag 35\t\t\t\n      JUMPDEST \t\t\t\n      PUSH [tag] 37\t\t\t\n      JUMP \t\t\t\n    tag 34\t\t\t\n      JUMPDEST \t\t\t\n      PUSH 40\t\t\t\n      MLOAD \t\t\t\n      PUSH [tag] 38\t\t\t\n      SWAP2 \t\t\t\n      SWAP1 \t\t\t\n      PUSH [tag] 39\t\t\t\n      JUMP \t\t\t\n    tag 38\t\t\t\n      JUMPDEST \t\t\t\n      PUSH 40\t\t\t\n      MLOAD \t\t\t\n      DUP1 \t\t\t\n      SWAP2 \t\t\t\n      SUB \t\t\t\n      SWAP1 \t\t\t\n      RETURN \t\t\t\n    tag 6\t\t\t\n      JUMPDEST \t\t\t\n      PUSH [tag] 40\t\t\t\n      PUSH 4\t\t\t\n      DUP1 \t\t\t\n      CALLDATASIZE \t\t\t\n      SUB \t\t\t\n      DUP2 \t\t\t\n      ADD \t\t\t\n      SWAP1 \t\t\t\n      PUSH [tag] 41\t\t\t\n      SWAP2 \t\t\t\n      SWAP1 \t\t\t\n      PUSH [tag] 42\t\t\t\n      JUMP \t\t\t\n    tag 41\t\t\t\n      JUMPDEST \t\t\t\n      PUSH [tag] 43\t\t\t\n      JUMP \t\t\t\n    tag 40\t\t\t\n      JUMPDEST \t\t\t\n      STOP \t\t\t\n    tag 7\t\t\t\n      JUMPDEST \t\t\t\n      PUSH [tag] 44\t\t\t\n      PUSH 4\t\t\t\n      DUP1 \t\t\t\n      CALLDATASIZE \t\t\t\n      SUB \t\t\t\n      DUP2 \t\t\t\n      ADD \t\t\t\n      SWAP1 \t\t\t\n      PUSH [tag] 45\t\t\t\n      SWAP2 \t\t\t\n      SWAP1 \t\t\t\n      PUSH [tag] 46\t\t\t\n      JUMP \t\t\t\n    tag 45\t\t\t\n      JUMPDEST \t\t\t\n      PUSH [tag] 47\t\t\t\n      JUMP \t\t\t\n    tag 44\t\t\t\n      JUMPDEST \t\t\t\n      STOP \t\t\t\n    tag 8\t\t\t\n      JUMPDEST \t\t\t\n      PUSH [tag] 48\t\t\t\n      PUSH 4\t\t\t\n      DUP1 \t\t\t\n      CALLDATASIZE \t\t\t\n      SUB \t\t\t\n      DUP2 \t\t\t\n      ADD \t\t\t\n      SWAP1 \t\t\t\n      PUSH [tag] 49\t\t\t\n      SWAP2 \t\t\t\n      SWAP1 \t\t\t\n      PUSH [tag] 46\t\t\t\n      JUMP \t\t\t\n    tag 49\t\t\t\n      JUMPDEST \t\t\t\n      PUSH [tag] 50\t\t\t\n      JUMP \t\t\t\n    tag 48\t\t\t\n      JUMPDEST \t\t\t\n      STOP \t\t\t\n    tag 9\t\t\t\n      JUMPDEST \t\t\t\n      PUSH [tag] 51\t\t\t\n      PUSH 4\t\t\t\n      DUP1 \t\t\t\n      CALLDATASIZE \t\t\t\n      SUB \t\t\t\n      DUP2 \t\t\t\n      ADD \t\t\t\n      SWAP1 \t\t\t\n      PUSH [tag] 52\t\t\t\n      SWAP2 \t\t\t\n      SWAP1 \t\t\t\n      PUSH [tag] 36\t\t\t\n      JUMP \t\t\t\n    tag 52\t\t\t\n      JUMPDEST \t\t\t\n      PUSH [tag] 53\t\t\t\n      JUMP \t\t\t\n    tag 51\t\t\t\n      JUMPDEST \t\t\t\n      PUSH 40\t\t\t\n      MLOAD \t\t\t\n      PUSH [tag] 54\t\t\t\n      SWAP2 \t\t\t\n      SWAP1 \t\t\t\n      PUSH [tag] 39\t\t\t\n      JUMP \t\t\t\n    tag 54\t\t\t\n      JUMPDEST \t\t\t\n      PUSH 40\t\t\t\n      MLOAD \t\t\t\n      DUP1 \t\t\t\n      SWAP2 \t\t\t\n      SUB \t\t\t\n      SWAP1 \t\t\t\n      RETURN \t\t\t\n    tag 10\t\t\t\n      JUMPDEST \t\t\t\n      PUSH [tag] 55\t\t\t\n      PUSH 4\t\t\t\n      DUP1 \t\t\t\n      CALLDATASIZE \t\t\t\n      SUB \t\t\t\n      DUP2 \t\t\t\n      ADD \t\t\t\n      SWAP1 \t\t\t\n      PUSH [tag] 56\t\t\t\n      SWAP2 \t\t\t\n      SWAP1 \t\t\t\n      PUSH [tag] 57\t\t\t\n      JUMP \t\t\t\n    tag 56\t\t\t\n      JUMPDEST \t\t\t\n      PUSH [tag] 58\t\t\t\n      JUMP \t\t\t\n    tag 55\t\t\t\n      JUMPDEST \t\t\t\n      PUSH 40\t\t\t\n      MLOAD \t\t\t\n      PUSH [tag] 59\t\t\t\n      SWAP2 \t\t\t\n      SWAP1 \t\t\t\n      PUSH [tag] 60\t\t\t\n      JUMP \t\t\t\n    tag 59\t\t\t\n      JUMPDEST \t\t\t\n      PUSH 40\t\t\t\n      MLOAD \t\t\t\n      DUP1 \t\t\t\n      SWAP2 \t\t\t\n      SUB \t\t\t\n      SWAP1 \t\t\t\n      RETURN \t\t\t\n    tag 11\t\t\tr() {\\n    nftName = \"fcs_clas...\n      JUMPDEST \t\t\tr() {\\n    nftName = \"fcs_clas...\n      PUSH [tag] 61\t\t\tr() {\\n    nftName = \"fcs_clas...\n      PUSH [tag] 62\t\t\tr() {\\n    nftName = \"fcs_clas...\n      JUMP \t\t\tr() {\\n    nftName = \"fcs_clas...\n    tag 61\t\t\tr() {\\n    nftName = \"fcs_clas...\n      JUMPDEST \t\t\tr() {\\n    nftName = \"fcs_clas...\n      PUSH 40\t\t\tr() {\\n    nftName = \"fcs_clas...\n      MLOAD \t\t\tr() {\\n    nftName = \"fcs_clas...\n      PUSH [tag] 63\t\t\tr() {\\n    nftName = \"fcs_clas...\n      SWAP2 \t\t\tr() {\\n    nftName = \"fcs_clas...\n      SWAP1 \t\t\tr() {\\n    nftName = \"fcs_clas...\n      PUSH [tag] 33\t\t\tr() {\\n    nftName = \"fcs_clas...\n      JUMP \t\t\tr() {\\n    nftName = \"fcs_clas...\n    tag 63\t\t\tr() {\\n    nftName = \"fcs_clas...\n      JUMPDEST \t\t\tr() {\\n    nftName = \"fcs_clas...\n      PUSH 40\t\t\tr() {\\n    nftName = \"fcs_clas...\n      MLOAD \t\t\tr() {\\n    nftName = \"fcs_clas...\n      DUP1 \t\t\tr() {\\n    nftName = \"fcs_clas...\n      SWAP2 \t\t\tr() {\\n    nftName = \"fcs_clas...\n      SUB \t\t\tr() {\\n    nftName = \"fcs_clas...\n      SWAP1 \t\t\tr() {\\n    nftName = \"fcs_clas...\n      RETURN \t\t\tr() {\\n    nftName = \"fcs_clas...\n    tag 12\t\t\tID, string calldata \n      JUMPDEST \t\t\tID, string calldata \n      PUSH [tag] 64\t\t\tID, string calldata \n      PUSH [tag] 65\t\t\tID, string calldata \n      JUMP \t\t\tID, string calldata \n    tag 64\t\t\tID, string calldata \n      JUMPDEST \t\t\tID, string calldata \n      PUSH 40\t\t\tID, string calldata \n      MLOAD \t\t\tID, string calldata \n      PUSH [tag] 66\t\t\tID, string calldata \n      SWAP2 \t\t\tID, string calldata \n      SWAP1 \t\t\tID, string calldata \n      PUSH [tag] 39\t\t\tID, string calldata \n      JUMP \t\t\tID, string calldata \n    tag 66\t\t\tID, string calldata \n      JUMPDEST \t\t\tID, string calldata \n      PUSH 40\t\t\tID, string calldata \n      MLOAD \t\t\tID, string calldata \n      DUP1 \t\t\tID, string calldata \n      SWAP2 \t\t\tID, string calldata \n      SUB \t\t\tID, string calldata \n      SWAP1 \t\t\tID, string calldata \n      RETURN \t\t\tID, string calldata \n    tag 13\t\t\t\n      JUMPDEST \t\t\t\n      PUSH [tag] 67\t\t\t\n      PUSH [tag] 68\t\t\t\n      JUMP \t\t\t\n    tag 67\t\t\t\n      JUMPDEST \t\t\t\n      PUSH 40\t\t\t\n      MLOAD \t\t\t\n      PUSH [tag] 69\t\t\t\n      SWAP2 \t\t\t\n      SWAP1 \t\t\t\n      PUSH [tag] 33\t\t\t\n      JUMP \t\t\t\n    tag 69\t\t\t\n      JUMPDEST \t\t\t\n      PUSH 40\t\t\t\n      MLOAD \t\t\t\n      DUP1 \t\t\t\n      SWAP2 \t\t\t\n      SUB \t\t\t\n      SWAP1 \t\t\t\n      RETURN \t\t\t\n    tag 14\t\t\t\n      JUMPDEST \t\t\t\n      PUSH [tag] 70\t\t\t\n      PUSH 4\t\t\t\n      DUP1 \t\t\t\n      CALLDATASIZE \t\t\t\n      SUB \t\t\t\n      DUP2 \t\t\t\n      ADD \t\t\t\n      SWAP1 \t\t\t\n      PUSH [tag] 71\t\t\t\n      SWAP2 \t\t\t\n      SWAP1 \t\t\t\n      PUSH [tag] 72\t\t\t\n      JUMP \t\t\t\n    tag 71\t\t\t\n      JUMPDEST \t\t\t\n      PUSH [tag] 73\t\t\t\n      JUMP \t\t\t\n    tag 70\t\t\t\n      JUMPDEST \t\t\t\n      STOP \t\t\t\n    tag 15\t\t\t\n      JUMPDEST \t\t\t\n      PUSH [tag] 74\t\t\t\n      PUSH 4\t\t\t\n      DUP1 \t\t\t\n      CALLDATASIZE \t\t\t\n      SUB \t\t\t\n      DUP2 \t\t\t\n      ADD \t\t\t\n      SWAP1 \t\t\t\n      PUSH [tag] 75\t\t\t\n      SWAP2 \t\t\t\n      SWAP1 \t\t\t\n      PUSH [tag] 76\t\t\t\n      JUMP \t\t\t\n    tag 75\t\t\t\n      JUMPDEST \t\t\t\n      PUSH [tag] 77\t\t\t\n      JUMP \t\t\t\n    tag 74\t\t\t\n      JUMPDEST \t\t\t\n      STOP \t\t\t\n    tag 16\t\t\t\n      JUMPDEST \t\t\t\n      PUSH [tag] 78\t\t\t\n      PUSH 4\t\t\t\n      DUP1 \t\t\t\n      CALLDATASIZE \t\t\t\n      SUB \t\t\t\n      DUP2 \t\t\t\n      ADD \t\t\t\n      SWAP1 \t\t\t\n      PUSH [tag] 79\t\t\t\n      SWAP2 \t\t\t\n      SWAP1 \t\t\t\n      PUSH [tag] 36\t\t\t\n      JUMP \t\t\t\n    tag 79\t\t\t\n      JUMPDEST \t\t\t\n      PUSH [tag] 80\t\t\t\n      JUMP \t\t\t\n    tag 78\t\t\t\n      JUMPDEST \t\t\t\n      PUSH 40\t\t\t\n      MLOAD \t\t\t\n      PUSH [tag] 81\t\t\t\n      SWAP2 \t\t\t\n      SWAP1 \t\t\t\n      PUSH [tag] 33\t\t\t\n      JUMP \t\t\t\n    tag 81\t\t\t\n      JUMPDEST \t\t\t\n      PUSH 40\t\t\t\n      MLOAD \t\t\t\n      DUP1 \t\t\t\n      SWAP2 \t\t\t\n      SUB \t\t\t\n      SWAP1 \t\t\t\n      RETURN \t\t\t\n    tag 17\t\t\t\n      JUMPDEST \t\t\t\n      PUSH [tag] 82\t\t\t\n      PUSH 4\t\t\t\n      DUP1 \t\t\t\n      CALLDATASIZE \t\t\t\n      SUB \t\t\t\n      DUP2 \t\t\t\n      ADD \t\t\t\n      SWAP1 \t\t\t\n      PUSH [tag] 83\t\t\t\n      SWAP2 \t\t\t\n      SWAP1 \t\t\t\n      PUSH [tag] 84\t\t\t\n      JUMP \t\t\t\n    tag 83\t\t\t\n      JUMPDEST \t\t\t\n      PUSH [tag] 85\t\t\t\n      JUMP \t\t\t\n    tag 82\t\t\t\n      JUMPDEST \t\t\t\n      PUSH 40\t\t\t\n      MLOAD \t\t\t\n      PUSH [tag] 86\t\t\t\n      SWAP2 \t\t\t\n      SWAP1 \t\t\t\n      PUSH [tag] 29\t\t\t\n      JUMP \t\t\t\n    tag 86\t\t\t\n      JUMPDEST \t\t\t\n      PUSH 40\t\t\t\n      MLOAD \t\t\t\n      DUP1 \t\t\t\n      SWAP2 \t\t\t\n      SUB \t\t\t\n      SWAP1 \t\t\t\n      RETURN \t\t\t\n    tag 18\t\t\t\n      JUMPDEST \t\t\t\n      PUSH [tag] 87\t\t\t\n      PUSH 4\t\t\t\n      DUP1 \t\t\t\n      CALLDATASIZE \t\t\t\n      SUB \t\t\t\n      DUP2 \t\t\t\n      ADD \t\t\t\n      SWAP1 \t\t\t\n      PUSH [tag] 88\t\t\t\n      SWAP2 \t\t\t\n      SWAP1 \t\t\t\n      PUSH [tag] 57\t\t\t\n      JUMP \t\t\t\n    tag 88\t\t\t\n      JUMPDEST \t\t\t\n      PUSH [tag] 89\t\t\t\n      JUMP \t\t\t\n    tag 87\t\t\t\n      JUMPDEST \t\t\t\n      STOP \t\t\t\n    tag 19\t\t\tfunction metamask(address myad...\n      JUMPDEST \t\t\tfunction metamask(address myad...\n      PUSH [tag] 90\t\t\tfunction metamask(address myad...\n      PUSH 4\t\t\tfunction metamask(address myad...\n      DUP1 \t\t\tfunction metamask(address myad...\n      CALLDATASIZE \t\t\tfunction metamask(address myad...\n      SUB \t\t\tfunction metamask(address myad...\n      DUP2 \t\t\tfunction metamask(address myad...\n      ADD \t\t\tfunction metamask(address myad...\n      SWAP1 \t\t\tfunction metamask(address myad...\n      PUSH [tag] 91\t\t\tfunction metamask(address myad...\n      SWAP2 \t\t\tfunction metamask(address myad...\n      SWAP1 \t\t\tfunction metamask(address myad...\n      PUSH [tag] 92\t\t\tfunction metamask(address myad...\n      JUMP \t\t\tfunction metamask(address myad...\n    tag 91\t\t\tfunction metamask(address myad...\n      JUMPDEST \t\t\tfunction metamask(address myad...\n      PUSH [tag] 93\t\t\tfunction metamask(address myad...\n      JUMP \t\t\tfunction metamask(address myad...\n    tag 90\t\t\tfunction metamask(address myad...\n      JUMPDEST \t\t\tfunction metamask(address myad...\n      STOP \t\t\tfunction metamask(address myad...\n    tag 20\t\t\tdata extension `name` and `sym...\n      JUMPDEST \t\t\tdata extension `name` and `sym...\n      PUSH [tag] 94\t\t\tdata extension `name` and `sym...\n      PUSH [tag] 95\t\t\tdata extension `name` and `sym...\n      JUMP \t\t\tdata extension `name` and `sym...\n    tag 94\t\t\tdata extension `name` and `sym...\n      JUMPDEST \t\t\tdata extension `name` and `sym...\n      PUSH 40\t\t\tdata extension `name` and `sym...\n      MLOAD \t\t\tdata extension `name` and `sym...\n      PUSH [tag] 96\t\t\tdata extension `name` and `sym...\n      SWAP2 \t\t\tdata extension `name` and `sym...\n      SWAP1 \t\t\tdata extension `name` and `sym...\n      PUSH [tag] 33\t\t\tdata extension `name` and `sym...\n      JUMP \t\t\tdata extension `name` and `sym...\n    tag 96\t\t\tdata extension `name` and `sym...\n      JUMPDEST \t\t\tdata extension `name` and `sym...\n      PUSH 40\t\t\tdata extension `name` and `sym...\n      MLOAD \t\t\tdata extension `name` and `sym...\n      DUP1 \t\t\tdata extension `name` and `sym...\n      SWAP2 \t\t\tdata extension `name` and `sym...\n      SUB \t\t\tdata extension `name` and `sym...\n      SWAP1 \t\t\tdata extension `name` and `sym...\n      RETURN \t\t\tdata extension `name` and `sym...\n    tag 27\t\t\tTokenUri(tokenID, uri);\\n  }\\n...\n      JUMPDEST \t\t\tTokenUri(tokenID, uri);\\n  }\\n...\n      PUSH 0\t\t\t\n      DUP1 \t\t\t\n      PUSH 0\t\t\t\n      DUP4 \t\t\t\n      PUSH FFFFFFFFFFFFFFFFFFFFFFFFFFFFFFFFFFFFFFFFFFFFFFFFFFFFFFFF\t\t\t\n      NOT \t\t\t\n      AND \t\t\t\n      PUSH FFFFFFFFFFFFFFFFFFFFFFFFFFFFFFFFFFFFFFFFFFFFFFFFFFFFFFFF\t\t\t\n      NOT \t\t\t\n      AND \t\t\t\n      DUP2 \t\t\t\n      MSTORE \t\t\t\n      PUSH 20\t\t\t\n      ADD \t\t\t\n      SWAP1 \t\t\t\n      DUP2 \t\t\t\n      MSTORE \t\t\t\n      PUSH 20\t\t\t\n      ADD \t\t\t\n      PUSH 0\t\t\t\n      KECCAK256 \t\t\t\n      PUSH 0\t\t\t\n      SWAP1 \t\t\t\n      SLOAD \t\t\t\n      SWAP1 \t\t\t\n      PUSH 100\t\t\t\n      EXP \t\t\t\n      SWAP1 \t\t\t\n      DIV \t\t\t\n      PUSH FF\t\t\t\n      AND \t\t\t\n      SWAP1 \t\t\t\n      POP \t\t\t\n      SWAP2 \t\t\tTokenUri(tokenID, uri);\\n  }\\n...\n      SWAP1 \t\t\tTokenUri(tokenID, uri);\\n  }\\n...\n      POP \t\t\tTokenUri(tokenID, uri);\\n  }\\n...\n      JUMP \t\t\tTokenUri(tokenID, uri);\\n  }\\n...\n    tag 31\t\t\t\n      JUMPDEST \t\t\t\n      PUSH 60\t\t\t\n      PUSH 5\t\t\t\n      DUP1 \t\t\t\n      SLOAD \t\t\t\n      PUSH [tag] 99\t\t\t\n      SWAP1 \t\t\t\n      PUSH [tag] 100\t\t\t\n      JUMP \t\t\t\n    tag 99\t\t\t\n      JUMPDEST \t\t\t\n      DUP1 \t\t\t\n      PUSH 1F\t\t\t\n      ADD \t\t\t\n      PUSH 20\t\t\t\n      DUP1 \t\t\t\n      SWAP2 \t\t\t\n      DIV \t\t\t\n      MUL \t\t\t\n      PUSH 20\t\t\t\n      ADD \t\t\t\n      PUSH 40\t\t\t\n      MLOAD \t\t\t\n      SWAP1 \t\t\t\n      DUP2 \t\t\t\n      ADD \t\t\t\n      PUSH 40\t\t\t\n      MSTORE \t\t\t\n      DUP1 \t\t\t\n      SWAP3 \t\t\t\n      SWAP2 \t\t\t\n      SWAP1 \t\t\t\n      DUP2 \t\t\t\n      DUP2 \t\t\t\n      MSTORE \t\t\t\n      PUSH 20\t\t\t\n      ADD \t\t\t\n      DUP3 \t\t\t\n      DUP1 \t\t\t\n      SLOAD \t\t\t\n      PUSH [tag] 101\t\t\t\n      SWAP1 \t\t\t\n      PUSH [tag] 100\t\t\t\n      JUMP \t\t\t\n    tag 101\t\t\t\n      JUMPDEST \t\t\t\n      DUP1 \t\t\t\n      ISZERO \t\t\t\n      PUSH [tag] 102\t\t\t\n      JUMPI \t\t\t\n      DUP1 \t\t\t\n      PUSH 1F\t\t\t\n      LT \t\t\t\n      PUSH [tag] 103\t\t\t\n      JUMPI \t\t\t\n      PUSH 100\t\t\t\n      DUP1 \t\t\t\n      DUP4 \t\t\t\n      SLOAD \t\t\t\n      DIV \t\t\t\n      MUL \t\t\t\n      DUP4 \t\t\t\n      MSTORE \t\t\t\n      SWAP2 \t\t\t\n      PUSH 20\t\t\t\n      ADD \t\t\t\n      SWAP2 \t\t\t\n      PUSH [tag] 102\t\t\t\n      JUMP \t\t\t\n    tag 103\t\t\t\n      JUMPDEST \t\t\t\n      DUP3 \t\t\t\n      ADD \t\t\t\n      SWAP2 \t\t\t\n      SWAP1 \t\t\t\n      PUSH 0\t\t\t\n      MSTORE \t\t\t\n      PUSH 20\t\t\t\n      PUSH 0\t\t\t\n      KECCAK256 \t\t\t\n      SWAP1 \t\t\t\n    tag 104\t\t\t\n      JUMPDEST \t\t\t\n      DUP2 \t\t\t\n      SLOAD \t\t\t\n      DUP2 \t\t\t\n      MSTORE \t\t\t\n      SWAP1 \t\t\t\n      PUSH 1\t\t\t\n      ADD \t\t\t\n      SWAP1 \t\t\t\n      PUSH 20\t\t\t\n      ADD \t\t\t\n      DUP1 \t\t\t\n      DUP4 \t\t\t\n      GT \t\t\t\n      PUSH [tag] 104\t\t\t\n      JUMPI \t\t\t\n      DUP3 \t\t\t\n      SWAP1 \t\t\t\n      SUB \t\t\t\n      PUSH 1F\t\t\t\n      AND \t\t\t\n      DUP3 \t\t\t\n      ADD \t\t\t\n      SWAP2 \t\t\t\n    tag 102\t\t\t\n      JUMPDEST \t\t\t\n      POP \t\t\t\n      POP \t\t\t\n      POP \t\t\t\n      POP \t\t\t\n      POP \t\t\t\n      SWAP1 \t\t\t\n      POP \t\t\t\n      SWAP1 \t\t\t\n      JUMP \t\t\t\n    tag 37\t\t\t\n      JUMPDEST \t\t\t\n      PUSH 0\t\t\t\n      DUP2 \t\t\t\n      PUSH 0\t\t\t\n      PUSH FFFFFFFFFFFFFFFFFFFFFFFFFFFFFFFFFFFFFFFF\t\t\t\n      AND \t\t\t\n      PUSH 1\t\t\t\n      PUSH 0\t\t\t\n      DUP4 \t\t\t\n      DUP2 \t\t\t\n      MSTORE \t\t\t\n      PUSH 20\t\t\t\n      ADD \t\t\t\n      SWAP1 \t\t\t\n      DUP2 \t\t\t\n      MSTORE \t\t\t\n      PUSH 20\t\t\t\n      ADD \t\t\t\n      PUSH 0\t\t\t\n      KECCAK256 \t\t\t\n      PUSH 0\t\t\t\n      SWAP1 \t\t\t\n      SLOAD \t\t\t\n      SWAP1 \t\t\t\n      PUSH 100\t\t\t\n      EXP \t\t\t\n      SWAP1 \t\t\t\n      DIV \t\t\t\n      PUSH FFFFFFFFFFFFFFFFFFFFFFFFFFFFFFFFFFFFFFFF\t\t\t\n      AND \t\t\t\n      PUSH FFFFFFFFFFFFFFFFFFFFFFFFFFFFFFFFFFFFFFFF\t\t\t\n      AND \t\t\t\n      EQ \t\t\t\n      ISZERO \t\t\t\n      PUSH 40\t\t\t\n      MLOAD \t\t\t\n      DUP1 \t\t\t\n      PUSH 40\t\t\t\n      ADD \t\t\t\n      PUSH 40\t\t\t\n      MSTORE \t\t\t\n      DUP1 \t\t\t\n      PUSH 6\t\t\t\n      DUP2 \t\t\t\n      MSTORE \t\t\t\n      PUSH 20\t\t\t\n      ADD \t\t\t\n      PUSH 3030333030320000000000000000000000000000000000000000000000000000\t\t\t\n      DUP2 \t\t\t\n      MSTORE \t\t\t\n      POP \t\t\t\n      SWAP1 \t\t\t\n      PUSH [tag] 106\t\t\t\n      JUMPI \t\t\t\n      PUSH 40\t\t\t\n      MLOAD \t\t\t\n      PUSH 8C379A000000000000000000000000000000000000000000000000000000000\t\t\t\n      DUP2 \t\t\t\n      MSTORE \t\t\t\n      PUSH 4\t\t\t\n      ADD \t\t\t\n      PUSH [tag] 107\t\t\t\n      SWAP2 \t\t\t\n      SWAP1 \t\t\t\n      PUSH [tag] 33\t\t\t\n      JUMP \t\t\t\n    tag 107\t\t\t\n      JUMPDEST \t\t\t\n      PUSH 40\t\t\t\n      MLOAD \t\t\t\n      DUP1 \t\t\t\n      SWAP2 \t\t\t\n      SUB \t\t\t\n      SWAP1 \t\t\t\n      REVERT \t\t\t\n    tag 106\t\t\t\n      JUMPDEST \t\t\t\n      POP \t\t\t\n      PUSH 2\t\t\t\n      PUSH 0\t\t\t\n      DUP5 \t\t\t\n      DUP2 \t\t\t\n      MSTORE \t\t\t\n      PUSH 20\t\t\t\n      ADD \t\t\t\n      SWAP1 \t\t\t\n      DUP2 \t\t\t\n      MSTORE \t\t\t\n      PUSH 20\t\t\t\n      ADD \t\t\t\n      PUSH 0\t\t\t\n      KECCAK256 \t\t\t\n      PUSH 0\t\t\t\n      SWAP1 \t\t\t\n      SLOAD \t\t\t\n      SWAP1 \t\t\t\n      PUSH 100\t\t\t\n      EXP \t\t\t\n      SWAP1 \t\t\t\n      DIV \t\t\t\n      PUSH FFFFFFFFFFFFFFFFFFFFFFFFFFFFFFFFFFFFFFFF\t\t\t\n      AND \t\t\t\n      SWAP2 \t\t\t\n      POP \t\t\t\n      POP \t\t\t\n      SWAP2 \t\t\t\n      SWAP1 \t\t\t\n      POP \t\t\t\n      JUMP \t\t\t\n    tag 43\t\t\t\n      JUMPDEST \t\t\t\n      DUP1 \t\t\t\n      PUSH 0\t\t\t\n      PUSH 1\t\t\t\n      PUSH 0\t\t\t\n      DUP4 \t\t\t\n      DUP2 \t\t\t\n      MSTORE \t\t\t\n      PUSH 20\t\t\t\n      ADD \t\t\t\n      SWAP1 \t\t\t\n      DUP2 \t\t\t\n      MSTORE \t\t\t\n      PUSH 20\t\t\t\n      ADD \t\t\t\n      PUSH 0\t\t\t\n      KECCAK256 \t\t\t\n      PUSH 0\t\t\t\n      SWAP1 \t\t\t\n      SLOAD \t\t\t\n      SWAP1 \t\t\t\n      PUSH 100\t\t\t\n      EXP \t\t\t\n      SWAP1 \t\t\t\n      DIV \t\t\t\n      PUSH FFFFFFFFFFFFFFFFFFFFFFFFFFFFFFFFFFFFFFFF\t\t\t\n      AND \t\t\t\n      SWAP1 \t\t\t\n      POP \t\t\t\n      CALLER \t\t\t\n      PUSH FFFFFFFFFFFFFFFFFFFFFFFFFFFFFFFFFFFFFFFF\t\t\t\n      AND \t\t\t\n      DUP2 \t\t\t\n      PUSH FFFFFFFFFFFFFFFFFFFFFFFFFFFFFFFFFFFFFFFF\t\t\t\n      AND \t\t\t\n      EQ \t\t\t\n      DUP1 \t\t\t\n      PUSH [tag] 110\t\t\t\n      JUMPI \t\t\t\n      POP \t\t\t\n      PUSH 4\t\t\t\n      PUSH 0\t\t\t\n      DUP3 \t\t\t\n      PUSH FFFFFFFFFFFFFFFFFFFFFFFFFFFFFFFFFFFFFFFF\t\t\t\n      AND \t\t\t\n      PUSH FFFFFFFFFFFFFFFFFFFFFFFFFFFFFFFFFFFFFFFF\t\t\t\n      AND \t\t\t\n      DUP2 \t\t\t\n      MSTORE \t\t\t\n      PUSH 20\t\t\t\n      ADD \t\t\t\n      SWAP1 \t\t\t\n      DUP2 \t\t\t\n      MSTORE \t\t\t\n      PUSH 20\t\t\t\n      ADD \t\t\t\n      PUSH 0\t\t\t\n      KECCAK256 \t\t\t\n      PUSH 0\t\t\t\n      CALLER \t\t\t\n      PUSH FFFFFFFFFFFFFFFFFFFFFFFFFFFFFFFFFFFFFFFF\t\t\t\n      AND \t\t\t\n      PUSH FFFFFFFFFFFFFFFFFFFFFFFFFFFFFFFFFFFFFFFF\t\t\t\n      AND \t\t\t\n      DUP2 \t\t\t\n      MSTORE \t\t\t\n      PUSH 20\t\t\t\n      ADD \t\t\t\n      SWAP1 \t\t\t\n      DUP2 \t\t\t\n      MSTORE \t\t\t\n      PUSH 20\t\t\t\n      ADD \t\t\t\n      PUSH 0\t\t\t\n      KECCAK256 \t\t\t\n      PUSH 0\t\t\t\n      SWAP1 \t\t\t\n      SLOAD \t\t\t\n      SWAP1 \t\t\t\n      PUSH 100\t\t\t\n      EXP \t\t\t\n      SWAP1 \t\t\t\n      DIV \t\t\t\n      PUSH FF\t\t\t\n      AND \t\t\t\n    tag 110\t\t\t\n      JUMPDEST \t\t\t\n      PUSH 40\t\t\t\n      MLOAD \t\t\t\n      DUP1 \t\t\t\n      PUSH 40\t\t\t\n      ADD \t\t\t\n      PUSH 40\t\t\t\n      MSTORE \t\t\t\n      DUP1 \t\t\t\n      PUSH 6\t\t\t\n      DUP2 \t\t\t\n      MSTORE \t\t\t\n      PUSH 20\t\t\t\n      ADD \t\t\t\n      PUSH 3030333030330000000000000000000000000000000000000000000000000000\t\t\t\n      DUP2 \t\t\t\n      MSTORE \t\t\t\n      POP \t\t\t\n      SWAP1 \t\t\t\n      PUSH [tag] 111\t\t\t\n      JUMPI \t\t\t\n      PUSH 40\t\t\t\n      MLOAD \t\t\t\n      PUSH 8C379A000000000000000000000000000000000000000000000000000000000\t\t\t\n      DUP2 \t\t\t\n      MSTORE \t\t\t\n      PUSH 4\t\t\t\n      ADD \t\t\t\n      PUSH [tag] 112\t\t\t\n      SWAP2 \t\t\t\n      SWAP1 \t\t\t\n      PUSH [tag] 33\t\t\t\n      JUMP \t\t\t\n    tag 112\t\t\t\n      JUMPDEST \t\t\t\n      PUSH 40\t\t\t\n      MLOAD \t\t\t\n      DUP1 \t\t\t\n      SWAP2 \t\t\t\n      SUB \t\t\t\n      SWAP1 \t\t\t\n      REVERT \t\t\t\n    tag 111\t\t\t\n      JUMPDEST \t\t\t\n      POP \t\t\t\n      DUP3 \t\t\t\n      PUSH 0\t\t\t\n      PUSH FFFFFFFFFFFFFFFFFFFFFFFFFFFFFFFFFFFFFFFF\t\t\t\n      AND \t\t\t\n      PUSH 1\t\t\t\n      PUSH 0\t\t\t\n      DUP4 \t\t\t\n      DUP2 \t\t\t\n      MSTORE \t\t\t\n      PUSH 20\t\t\t\n      ADD \t\t\t\n      SWAP1 \t\t\t\n      DUP2 \t\t\t\n      MSTORE \t\t\t\n      PUSH 20\t\t\t\n      ADD \t\t\t\n      PUSH 0\t\t\t\n      KECCAK256 \t\t\t\n      PUSH 0\t\t\t\n      SWAP1 \t\t\t\n      SLOAD \t\t\t\n      SWAP1 \t\t\t\n      PUSH 100\t\t\t\n      EXP \t\t\t\n      SWAP1 \t\t\t\n      DIV \t\t\t\n      PUSH FFFFFFFFFFFFFFFFFFFFFFFFFFFFFFFFFFFFFFFF\t\t\t\n      AND \t\t\t\n      PUSH FFFFFFFFFFFFFFFFFFFFFFFFFFFFFFFFFFFFFFFF\t\t\t\n      AND \t\t\t\n      EQ \t\t\t\n      ISZERO \t\t\t\n      PUSH 40\t\t\t\n      MLOAD \t\t\t\n      DUP1 \t\t\t\n      PUSH 40\t\t\t\n      ADD \t\t\t\n      PUSH 40\t\t\t\n      MSTORE \t\t\t\n      DUP1 \t\t\t\n      PUSH 6\t\t\t\n      DUP2 \t\t\t\n      MSTORE \t\t\t\n      PUSH 20\t\t\t\n      ADD \t\t\t\n      PUSH 3030333030320000000000000000000000000000000000000000000000000000\t\t\t\n      DUP2 \t\t\t\n      MSTORE \t\t\t\n      POP \t\t\t\n      SWAP1 \t\t\t\n      PUSH [tag] 114\t\t\t\n      JUMPI \t\t\t\n      PUSH 40\t\t\t\n      MLOAD \t\t\t\n      PUSH 8C379A000000000000000000000000000000000000000000000000000000000\t\t\t\n      DUP2 \t\t\t\n      MSTORE \t\t\t\n      PUSH 4\t\t\t\n      ADD \t\t\t\n      PUSH [tag] 115\t\t\t\n      SWAP2 \t\t\t\n      SWAP1 \t\t\t\n      PUSH [tag] 33\t\t\t\n      JUMP \t\t\t\n    tag 115\t\t\t\n      JUMPDEST \t\t\t\n      PUSH 40\t\t\t\n      MLOAD \t\t\t\n      DUP1 \t\t\t\n      SWAP2 \t\t\t\n      SUB \t\t\t\n      SWAP1 \t\t\t\n      REVERT \t\t\t\n    tag 114\t\t\t\n      JUMPDEST \t\t\t\n      POP \t\t\t\n      PUSH 0\t\t\t\n      PUSH 1\t\t\t\n      PUSH 0\t\t\t\n      DUP7 \t\t\t\n      DUP2 \t\t\t\n      MSTORE \t\t\t\n      PUSH 20\t\t\t\n      ADD \t\t\t\n      SWAP1 \t\t\t\n      DUP2 \t\t\t\n      MSTORE \t\t\t\n      PUSH 20\t\t\t\n      ADD \t\t\t\n      PUSH 0\t\t\t\n      KECCAK256 \t\t\t\n      PUSH 0\t\t\t\n      SWAP1 \t\t\t\n      SLOAD \t\t\t\n      SWAP1 \t\t\t\n      PUSH 100\t\t\t\n      EXP \t\t\t\n      SWAP1 \t\t\t\n      DIV \t\t\t\n      PUSH FFFFFFFFFFFFFFFFFFFFFFFFFFFFFFFFFFFFFFFF\t\t\t\n      AND \t\t\t\n      SWAP1 \t\t\t\n      POP \t\t\t\n      DUP1 \t\t\t\n      PUSH FFFFFFFFFFFFFFFFFFFFFFFFFFFFFFFFFFFFFFFF\t\t\t\n      AND \t\t\t\n      DUP7 \t\t\t\n      PUSH FFFFFFFFFFFFFFFFFFFFFFFFFFFFFFFFFFFFFFFF\t\t\t\n      AND \t\t\t\n      EQ \t\t\t\n      ISZERO \t\t\t\n      PUSH 40\t\t\t\n      MLOAD \t\t\t\n      DUP1 \t\t\t\n      PUSH 40\t\t\t\n      ADD \t\t\t\n      PUSH 40\t\t\t\n      MSTORE \t\t\t\n      DUP1 \t\t\t\n      PUSH 6\t\t\t\n      DUP2 \t\t\t\n      MSTORE \t\t\t\n      PUSH 20\t\t\t\n      ADD \t\t\t\n      PUSH 3030333030380000000000000000000000000000000000000000000000000000\t\t\t\n      DUP2 \t\t\t\n      MSTORE \t\t\t\n      POP \t\t\t\n      SWAP1 \t\t\t\n      PUSH [tag] 117\t\t\t\n      JUMPI \t\t\t\n      PUSH 40\t\t\t\n      MLOAD \t\t\t\n      PUSH 8C379A000000000000000000000000000000000000000000000000000000000\t\t\t\n      DUP2 \t\t\t\n      MSTORE \t\t\t\n      PUSH 4\t\t\t\n      ADD \t\t\t\n      PUSH [tag] 118\t\t\t\n      SWAP2 \t\t\t\n      SWAP1 \t\t\t\n      PUSH [tag] 33\t\t\t\n      JUMP \t\t\t\n    tag 118\t\t\t\n      JUMPDEST \t\t\t\n      PUSH 40\t\t\t\n      MLOAD \t\t\t\n      DUP1 \t\t\t\n      SWAP2 \t\t\t\n      SUB \t\t\t\n      SWAP1 \t\t\t\n      REVERT \t\t\t\n    tag 117\t\t\t\n      JUMPDEST \t\t\t\n      POP \t\t\t\n      DUP6 \t\t\t\n      PUSH 2\t\t\t\n      PUSH 0\t\t\t\n      DUP8 \t\t\t\n      DUP2 \t\t\t\n      MSTORE \t\t\t\n      PUSH 20\t\t\t\n      ADD \t\t\t\n      SWAP1 \t\t\t\n      DUP2 \t\t\t\n      MSTORE \t\t\t\n      PUSH 20\t\t\t\n      ADD \t\t\t\n      PUSH 0\t\t\t\n      KECCAK256 \t\t\t\n      PUSH 0\t\t\t\n      PUSH 100\t\t\t\n      EXP \t\t\t\n      DUP2 \t\t\t\n      SLOAD \t\t\t\n      DUP2 \t\t\t\n      PUSH FFFFFFFFFFFFFFFFFFFFFFFFFFFFFFFFFFFFFFFF\t\t\t\n      MUL \t\t\t\n      NOT \t\t\t\n      AND \t\t\t\n      SWAP1 \t\t\t\n      DUP4 \t\t\t\n      PUSH FFFFFFFFFFFFFFFFFFFFFFFFFFFFFFFFFFFFFFFF\t\t\t\n      AND \t\t\t\n      MUL \t\t\t\n      OR \t\t\t\n      SWAP1 \t\t\t\n      SSTORE \t\t\t\n      POP \t\t\t\n      DUP5 \t\t\t\n      DUP7 \t\t\t\n      PUSH FFFFFFFFFFFFFFFFFFFFFFFFFFFFFFFFFFFFFFFF\t\t\t\n      AND \t\t\t\n      DUP3 \t\t\t\n      PUSH FFFFFFFFFFFFFFFFFFFFFFFFFFFFFFFFFFFFFFFF\t\t\t\n      AND \t\t\t\n      PUSH 8C5BE1E5EBEC7D5BD14F71427D1E84F3DD0314C0F7B2291E5B200AC8C7C3B925\t\t\t\n      PUSH 40\t\t\t\n      MLOAD \t\t\t\n      PUSH 40\t\t\t\n      MLOAD \t\t\t\n      DUP1 \t\t\t\n      SWAP2 \t\t\t\n      SUB \t\t\t\n      SWAP1 \t\t\t\n      LOG4 \t\t\t\n      POP \t\t\t\n      POP \t\t\t\n      POP \t\t\t\n      POP \t\t\t\n      POP \t\t\t\n      POP \t\t\t\n      JUMP \t\t\t\n    tag 47\t\t\t\n      JUMPDEST \t\t\t\n      DUP1 \t\t\t\n      PUSH 0\t\t\t\n      PUSH 1\t\t\t\n      PUSH 0\t\t\t\n      DUP4 \t\t\t\n      DUP2 \t\t\t\n      MSTORE \t\t\t\n      PUSH 20\t\t\t\n      ADD \t\t\t\n      SWAP1 \t\t\t\n      DUP2 \t\t\t\n      MSTORE \t\t\t\n      PUSH 20\t\t\t\n      ADD \t\t\t\n      PUSH 0\t\t\t\n      KECCAK256 \t\t\t\n      PUSH 0\t\t\t\n      SWAP1 \t\t\t\n      SLOAD \t\t\t\n      SWAP1 \t\t\t\n      PUSH 100\t\t\t\n      EXP \t\t\t\n      SWAP1 \t\t\t\n      DIV \t\t\t\n      PUSH FFFFFFFFFFFFFFFFFFFFFFFFFFFFFFFFFFFFFFFF\t\t\t\n      AND \t\t\t\n      SWAP1 \t\t\t\n      POP \t\t\t\n      CALLER \t\t\t\n      PUSH FFFFFFFFFFFFFFFFFFFFFFFFFFFFFFFFFFFFFFFF\t\t\t\n      AND \t\t\t\n      DUP2 \t\t\t\n      PUSH FFFFFFFFFFFFFFFFFFFFFFFFFFFFFFFFFFFFFFFF\t\t\t\n      AND \t\t\t\n      EQ \t\t\t\n      DUP1 \t\t\t\n      PUSH [tag] 120\t\t\t\n      JUMPI \t\t\t\n      POP \t\t\t\n      CALLER \t\t\t\n      PUSH FFFFFFFFFFFFFFFFFFFFFFFFFFFFFFFFFFFFFFFF\t\t\t\n      AND \t\t\t\n      PUSH 2\t\t\t\n      PUSH 0\t\t\t\n      DUP5 \t\t\t\n      DUP2 \t\t\t\n      MSTORE \t\t\t\n      PUSH 20\t\t\t\n      ADD \t\t\t\n      SWAP1 \t\t\t\n      DUP2 \t\t\t\n      MSTORE \t\t\t\n      PUSH 20\t\t\t\n      ADD \t\t\t\n      PUSH 0\t\t\t\n      KECCAK256 \t\t\t\n      PUSH 0\t\t\t\n      SWAP1 \t\t\t\n      SLOAD \t\t\t\n      SWAP1 \t\t\t\n      PUSH 100\t\t\t\n      EXP \t\t\t\n      SWAP1 \t\t\t\n      DIV \t\t\t\n      PUSH FFFFFFFFFFFFFFFFFFFFFFFFFFFFFFFFFFFFFFFF\t\t\t\n      AND \t\t\t\n      PUSH FFFFFFFFFFFFFFFFFFFFFFFFFFFFFFFFFFFFFFFF\t\t\t\n      AND \t\t\t\n      EQ \t\t\t\n    tag 120\t\t\t\n      JUMPDEST \t\t\t\n      DUP1 \t\t\t\n      PUSH [tag] 121\t\t\t\n      JUMPI \t\t\t\n      POP \t\t\t\n      PUSH 4\t\t\t\n      PUSH 0\t\t\t\n      DUP3 \t\t\t\n      PUSH FFFFFFFFFFFFFFFFFFFFFFFFFFFFFFFFFFFFFFFF\t\t\t\n      AND \t\t\t\n      PUSH FFFFFFFFFFFFFFFFFFFFFFFFFFFFFFFFFFFFFFFF\t\t\t\n      AND \t\t\t\n      DUP2 \t\t\t\n      MSTORE \t\t\t\n      PUSH 20\t\t\t\n      ADD \t\t\t\n      SWAP1 \t\t\t\n      DUP2 \t\t\t\n      MSTORE \t\t\t\n      PUSH 20\t\t\t\n      ADD \t\t\t\n      PUSH 0\t\t\t\n      KECCAK256 \t\t\t\n      PUSH 0\t\t\t\n      CALLER \t\t\t\n      PUSH FFFFFFFFFFFFFFFFFFFFFFFFFFFFFFFFFFFFFFFF\t\t\t\n      AND \t\t\t\n      PUSH FFFFFFFFFFFFFFFFFFFFFFFFFFFFFFFFFFFFFFFF\t\t\t\n      AND \t\t\t\n      DUP2 \t\t\t\n      MSTORE \t\t\t\n      PUSH 20\t\t\t\n      ADD \t\t\t\n      SWAP1 \t\t\t\n      DUP2 \t\t\t\n      MSTORE \t\t\t\n      PUSH 20\t\t\t\n      ADD \t\t\t\n      PUSH 0\t\t\t\n      KECCAK256 \t\t\t\n      PUSH 0\t\t\t\n      SWAP1 \t\t\t\n      SLOAD \t\t\t\n      SWAP1 \t\t\t\n      PUSH 100\t\t\t\n      EXP \t\t\t\n      SWAP1 \t\t\t\n      DIV \t\t\t\n      PUSH FF\t\t\t\n      AND \t\t\t\n    tag 121\t\t\t\n      JUMPDEST \t\t\t\n      PUSH 40\t\t\t\n      MLOAD \t\t\t\n      DUP1 \t\t\t\n      PUSH 40\t\t\t\n      ADD \t\t\t\n      PUSH 40\t\t\t\n      MSTORE \t\t\t\n      DUP1 \t\t\t\n      PUSH 6\t\t\t\n      DUP2 \t\t\t\n      MSTORE \t\t\t\n      PUSH 20\t\t\t\n      ADD \t\t\t\n      PUSH 3030333030340000000000000000000000000000000000000000000000000000\t\t\t\n      DUP2 \t\t\t\n      MSTORE \t\t\t\n      POP \t\t\t\n      SWAP1 \t\t\t\n      PUSH [tag] 122\t\t\t\n      JUMPI \t\t\t\n      PUSH 40\t\t\t\n      MLOAD \t\t\t\n      PUSH 8C379A000000000000000000000000000000000000000000000000000000000\t\t\t\n      DUP2 \t\t\t\n      MSTORE \t\t\t\n      PUSH 4\t\t\t\n      ADD \t\t\t\n      PUSH [tag] 123\t\t\t\n      SWAP2 \t\t\t\n      SWAP1 \t\t\t\n      PUSH [tag] 33\t\t\t\n      JUMP \t\t\t\n    tag 123\t\t\t\n      JUMPDEST \t\t\t\n      PUSH 40\t\t\t\n      MLOAD \t\t\t\n      DUP1 \t\t\t\n      SWAP2 \t\t\t\n      SUB \t\t\t\n      SWAP1 \t\t\t\n      REVERT \t\t\t\n    tag 122\t\t\t\n      JUMPDEST \t\t\t\n      POP \t\t\t\n      DUP3 \t\t\t\n      PUSH 0\t\t\t\n      PUSH FFFFFFFFFFFFFFFFFFFFFFFFFFFFFFFFFFFFFFFF\t\t\t\n      AND \t\t\t\n      PUSH 1\t\t\t\n      PUSH 0\t\t\t\n      DUP4 \t\t\t\n      DUP2 \t\t\t\n      MSTORE \t\t\t\n      PUSH 20\t\t\t\n      ADD \t\t\t\n      SWAP1 \t\t\t\n      DUP2 \t\t\t\n      MSTORE \t\t\t\n      PUSH 20\t\t\t\n      ADD \t\t\t\n      PUSH 0\t\t\t\n      KECCAK256 \t\t\t\n      PUSH 0\t\t\t\n      SWAP1 \t\t\t\n      SLOAD \t\t\t\n      SWAP1 \t\t\t\n      PUSH 100\t\t\t\n      EXP \t\t\t\n      SWAP1 \t\t\t\n      DIV \t\t\t\n      PUSH FFFFFFFFFFFFFFFFFFFFFFFFFFFFFFFFFFFFFFFF\t\t\t\n      AND \t\t\t\n      PUSH FFFFFFFFFFFFFFFFFFFFFFFFFFFFFFFFFFFFFFFF\t\t\t\n      AND \t\t\t\n      EQ \t\t\t\n      ISZERO \t\t\t\n      PUSH 40\t\t\t\n      MLOAD \t\t\t\n      DUP1 \t\t\t\n      PUSH 40\t\t\t\n      ADD \t\t\t\n      PUSH 40\t\t\t\n      MSTORE \t\t\t\n      DUP1 \t\t\t\n      PUSH 6\t\t\t\n      DUP2 \t\t\t\n      MSTORE \t\t\t\n      PUSH 20\t\t\t\n      ADD \t\t\t\n      PUSH 3030333030320000000000000000000000000000000000000000000000000000\t\t\t\n      DUP2 \t\t\t\n      MSTORE \t\t\t\n      POP \t\t\t\n      SWAP1 \t\t\t\n      PUSH [tag] 125\t\t\t\n      JUMPI \t\t\t\n      PUSH 40\t\t\t\n      MLOAD \t\t\t\n      PUSH 8C379A000000000000000000000000000000000000000000000000000000000\t\t\t\n      DUP2 \t\t\t\n      MSTORE \t\t\t\n      PUSH 4\t\t\t\n      ADD \t\t\t\n      PUSH [tag] 126\t\t\t\n      SWAP2 \t\t\t\n      SWAP1 \t\t\t\n      PUSH [tag] 33\t\t\t\n      JUMP \t\t\t\n    tag 126\t\t\t\n      JUMPDEST \t\t\t\n      PUSH 40\t\t\t\n      MLOAD \t\t\t\n      DUP1 \t\t\t\n      SWAP2 \t\t\t\n      SUB \t\t\t\n      SWAP1 \t\t\t\n      REVERT \t\t\t\n    tag 125\t\t\t\n      JUMPDEST \t\t\t\n      POP \t\t\t\n      PUSH 0\t\t\t\n      PUSH 1\t\t\t\n      PUSH 0\t\t\t\n      DUP7 \t\t\t\n      DUP2 \t\t\t\n      MSTORE \t\t\t\n      PUSH 20\t\t\t\n      ADD \t\t\t\n      SWAP1 \t\t\t\n      DUP2 \t\t\t\n      MSTORE \t\t\t\n      PUSH 20\t\t\t\n      ADD \t\t\t\n      PUSH 0\t\t\t\n      KECCAK256 \t\t\t\n      PUSH 0\t\t\t\n      SWAP1 \t\t\t\n      SLOAD \t\t\t\n      SWAP1 \t\t\t\n      PUSH 100\t\t\t\n      EXP \t\t\t\n      SWAP1 \t\t\t\n      DIV \t\t\t\n      PUSH FFFFFFFFFFFFFFFFFFFFFFFFFFFFFFFFFFFFFFFF\t\t\t\n      AND \t\t\t\n      SWAP1 \t\t\t\n      POP \t\t\t\n      DUP7 \t\t\t\n      PUSH FFFFFFFFFFFFFFFFFFFFFFFFFFFFFFFFFFFFFFFF\t\t\t\n      AND \t\t\t\n      DUP2 \t\t\t\n      PUSH FFFFFFFFFFFFFFFFFFFFFFFFFFFFFFFFFFFFFFFF\t\t\t\n      AND \t\t\t\n      EQ \t\t\t\n      PUSH 40\t\t\t\n      MLOAD \t\t\t\n      DUP1 \t\t\t\n      PUSH 40\t\t\t\n      ADD \t\t\t\n      PUSH 40\t\t\t\n      MSTORE \t\t\t\n      DUP1 \t\t\t\n      PUSH 6\t\t\t\n      DUP2 \t\t\t\n      MSTORE \t\t\t\n      PUSH 20\t\t\t\n      ADD \t\t\t\n      PUSH 3030333030370000000000000000000000000000000000000000000000000000\t\t\t\n      DUP2 \t\t\t\n      MSTORE \t\t\t\n      POP \t\t\t\n      SWAP1 \t\t\t\n      PUSH [tag] 128\t\t\t\n      JUMPI \t\t\t\n      PUSH 40\t\t\t\n      MLOAD \t\t\t\n      PUSH 8C379A000000000000000000000000000000000000000000000000000000000\t\t\t\n      DUP2 \t\t\t\n      MSTORE \t\t\t\n      PUSH 4\t\t\t\n      ADD \t\t\t\n      PUSH [tag] 129\t\t\t\n      SWAP2 \t\t\t\n      SWAP1 \t\t\t\n      PUSH [tag] 33\t\t\t\n      JUMP \t\t\t\n    tag 129\t\t\t\n      JUMPDEST \t\t\t\n      PUSH 40\t\t\t\n      MLOAD \t\t\t\n      DUP1 \t\t\t\n      SWAP2 \t\t\t\n      SUB \t\t\t\n      SWAP1 \t\t\t\n      REVERT \t\t\t\n    tag 128\t\t\t\n      JUMPDEST \t\t\t\n      POP \t\t\t\n      PUSH 0\t\t\t\n      PUSH FFFFFFFFFFFFFFFFFFFFFFFFFFFFFFFFFFFFFFFF\t\t\t\n      AND \t\t\t\n      DUP7 \t\t\t\n      PUSH FFFFFFFFFFFFFFFFFFFFFFFFFFFFFFFFFFFFFFFF\t\t\t\n      AND \t\t\t\n      EQ \t\t\t\n      ISZERO \t\t\t\n      PUSH 40\t\t\t\n      MLOAD \t\t\t\n      DUP1 \t\t\t\n      PUSH 40\t\t\t\n      ADD \t\t\t\n      PUSH 40\t\t\t\n      MSTORE \t\t\t\n      DUP1 \t\t\t\n      PUSH 6\t\t\t\n      DUP2 \t\t\t\n      MSTORE \t\t\t\n      PUSH 20\t\t\t\n      ADD \t\t\t\n      PUSH 3030333030310000000000000000000000000000000000000000000000000000\t\t\t\n      DUP2 \t\t\t\n      MSTORE \t\t\t\n      POP \t\t\t\n      SWAP1 \t\t\t\n      PUSH [tag] 130\t\t\t\n      JUMPI \t\t\t\n      PUSH 40\t\t\t\n      MLOAD \t\t\t\n      PUSH 8C379A000000000000000000000000000000000000000000000000000000000\t\t\t\n      DUP2 \t\t\t\n      MSTORE \t\t\t\n      PUSH 4\t\t\t\n      ADD \t\t\t\n      PUSH [tag] 131\t\t\t\n      SWAP2 \t\t\t\n      SWAP1 \t\t\t\n      PUSH [tag] 33\t\t\t\n      JUMP \t\t\t\n    tag 131\t\t\t\n      JUMPDEST \t\t\t\n      PUSH 40\t\t\t\n      MLOAD \t\t\t\n      DUP1 \t\t\t\n      SWAP2 \t\t\t\n      SUB \t\t\t\n      SWAP1 \t\t\t\n      REVERT \t\t\t\n    tag 130\t\t\t\n      JUMPDEST \t\t\t\n      POP \t\t\t\n      PUSH [tag] 132\t\t\t\n      DUP7 \t\t\t\n      DUP7 \t\t\t\n      PUSH [tag] 133\t\t\t\n      JUMP \t\t\t\n    tag 132\t\t\t\n      JUMPDEST \t\t\t\n      POP \t\t\t\n      POP \t\t\t\n      POP \t\t\t\n      POP \t\t\t\n      POP \t\t\t\n      POP \t\t\t\n      POP \t\t\t\n      JUMP \t\t\t\n    tag 50\t\t\t\n      JUMPDEST \t\t\t\n      PUSH [tag] 135\t\t\t\n      DUP4 \t\t\t\n      DUP4 \t\t\t\n      DUP4 \t\t\t\n      PUSH 40\t\t\t\n      MLOAD \t\t\t\n      DUP1 \t\t\t\n      PUSH 20\t\t\t\n      ADD \t\t\t\n      PUSH 40\t\t\t\n      MSTORE \t\t\t\n      DUP1 \t\t\t\n      PUSH 0\t\t\t\n      DUP2 \t\t\t\n      MSTORE \t\t\t\n      POP \t\t\t\n      PUSH [tag] 136\t\t\t\n      JUMP \t\t\t\n    tag 135\t\t\t\n      JUMPDEST \t\t\t\n      POP \t\t\t\n      POP \t\t\t\n      POP \t\t\t\n      JUMP \t\t\t\n    tag 53\t\t\t\n      JUMPDEST \t\t\t\n      PUSH 0\t\t\t\n      PUSH 1\t\t\t\n      PUSH 0\t\t\t\n      DUP4 \t\t\t\n      DUP2 \t\t\t\n      MSTORE \t\t\t\n      PUSH 20\t\t\t\n      ADD \t\t\t\n      SWAP1 \t\t\t\n      DUP2 \t\t\t\n      MSTORE \t\t\t\n      PUSH 20\t\t\t\n      ADD \t\t\t\n      PUSH 0\t\t\t\n      KECCAK256 \t\t\t\n      PUSH 0\t\t\t\n      SWAP1 \t\t\t\n      SLOAD \t\t\t\n      SWAP1 \t\t\t\n      PUSH 100\t\t\t\n      EXP \t\t\t\n      SWAP1 \t\t\t\n      DIV \t\t\t\n      PUSH FFFFFFFFFFFFFFFFFFFFFFFFFFFFFFFFFFFFFFFF\t\t\t\n      AND \t\t\t\n      SWAP1 \t\t\t\n      POP \t\t\t\n      PUSH 0\t\t\t\n      PUSH FFFFFFFFFFFFFFFFFFFFFFFFFFFFFFFFFFFFFFFF\t\t\t\n      AND \t\t\t\n      DUP2 \t\t\t\n      PUSH FFFFFFFFFFFFFFFFFFFFFFFFFFFFFFFFFFFFFFFF\t\t\t\n      AND \t\t\t\n      EQ \t\t\t\n      ISZERO \t\t\t\n      PUSH 40\t\t\t\n      MLOAD \t\t\t\n      DUP1 \t\t\t\n      PUSH 40\t\t\t\n      ADD \t\t\t\n      PUSH 40\t\t\t\n      MSTORE \t\t\t\n      DUP1 \t\t\t\n      PUSH 6\t\t\t\n      DUP2 \t\t\t\n      MSTORE \t\t\t\n      PUSH 20\t\t\t\n      ADD \t\t\t\n      PUSH 3030333030320000000000000000000000000000000000000000000000000000\t\t\t\n      DUP2 \t\t\t\n      MSTORE \t\t\t\n      POP \t\t\t\n      SWAP1 \t\t\t\n      PUSH [tag] 138\t\t\t\n      JUMPI \t\t\t\n      PUSH 40\t\t\t\n      MLOAD \t\t\t\n      PUSH 8C379A000000000000000000000000000000000000000000000000000000000\t\t\t\n      DUP2 \t\t\t\n      MSTORE \t\t\t\n      PUSH 4\t\t\t\n      ADD \t\t\t\n      PUSH [tag] 139\t\t\t\n      SWAP2 \t\t\t\n      SWAP1 \t\t\t\n      PUSH [tag] 33\t\t\t\n      JUMP \t\t\t\n    tag 139\t\t\t\n      JUMPDEST \t\t\t\n      PUSH 40\t\t\t\n      MLOAD \t\t\t\n      DUP1 \t\t\t\n      SWAP2 \t\t\t\n      SUB \t\t\t\n      SWAP1 \t\t\t\n      REVERT \t\t\t\n    tag 138\t\t\t\n      JUMPDEST \t\t\t\n      POP \t\t\t\n      SWAP2 \t\t\t\n      SWAP1 \t\t\t\n      POP \t\t\t\n      JUMP \t\t\t\n    tag 58\t\t\t\n      JUMPDEST \t\t\t\n      PUSH 0\t\t\t\n      DUP1 \t\t\t\n      PUSH FFFFFFFFFFFFFFFFFFFFFFFFFFFFFFFFFFFFFFFF\t\t\t\n      AND \t\t\t\n      DUP3 \t\t\t\n      PUSH FFFFFFFFFFFFFFFFFFFFFFFFFFFFFFFFFFFFFFFF\t\t\t\n      AND \t\t\t\n      EQ \t\t\t\n      ISZERO \t\t\t\n      PUSH 40\t\t\t\n      MLOAD \t\t\t\n      DUP1 \t\t\t\n      PUSH 40\t\t\t\n      ADD \t\t\t\n      PUSH 40\t\t\t\n      MSTORE \t\t\t\n      DUP1 \t\t\t\n      PUSH 6\t\t\t\n      DUP2 \t\t\t\n      MSTORE \t\t\t\n      PUSH 20\t\t\t\n      ADD \t\t\t\n      PUSH 3030333030310000000000000000000000000000000000000000000000000000\t\t\t\n      DUP2 \t\t\t\n      MSTORE \t\t\t\n      POP \t\t\t\n      SWAP1 \t\t\t\n      PUSH [tag] 141\t\t\t\n      JUMPI \t\t\t\n      PUSH 40\t\t\t\n      MLOAD \t\t\t\n      PUSH 8C379A000000000000000000000000000000000000000000000000000000000\t\t\t\n      DUP2 \t\t\t\n      MSTORE \t\t\t\n      PUSH 4\t\t\t\n      ADD \t\t\t\n      PUSH [tag] 142\t\t\t\n      SWAP2 \t\t\t\n      SWAP1 \t\t\t\n      PUSH [tag] 33\t\t\t\n      JUMP \t\t\t\n    tag 142\t\t\t\n      JUMPDEST \t\t\t\n      PUSH 40\t\t\t\n      MLOAD \t\t\t\n      DUP1 \t\t\t\n      SWAP2 \t\t\t\n      SUB \t\t\t\n      SWAP1 \t\t\t\n      REVERT \t\t\t\n    tag 141\t\t\t\n      JUMPDEST \t\t\t\n      POP \t\t\t\n      PUSH [tag] 143\t\t\t\n      DUP3 \t\t\t\n      PUSH [tag] 144\t\t\t\n      JUMP \t\t\t\n    tag 143\t\t\t\n      JUMPDEST \t\t\t\n      SWAP1 \t\t\t\n      POP \t\t\t\n      SWAP2 \t\t\t\n      SWAP1 \t\t\t\n      POP \t\t\t\n      JUMP \t\t\t\n    tag 62\t\t\tr() {\\n    nftName = \"fcs_clas...\n      JUMPDEST \t\t\tr() {\\n    nftName = \"fcs_clas...\n      PUSH 40\t\t\tr() {\\n    nftName = \"fcs_clas...\n      MLOAD \t\t\tr() {\\n    nftName = \"fcs_clas...\n      DUP1 \t\t\tr() {\\n    nftName = \"fcs_clas...\n      PUSH 40\t\t\tr() {\\n    nftName = \"fcs_clas...\n      ADD \t\t\tr() {\\n    nftName = \"fcs_clas...\n      PUSH 40\t\t\tr() {\\n    nftName = \"fcs_clas...\n      MSTORE \t\t\tr() {\\n    nftName = \"fcs_clas...\n      DUP1 \t\t\tr() {\\n    nftName = \"fcs_clas...\n      PUSH 6\t\t\tr() {\\n    nftName = \"fcs_clas...\n      DUP2 \t\t\tr() {\\n    nftName = \"fcs_clas...\n      MSTORE \t\t\tr() {\\n    nftName = \"fcs_clas...\n      PUSH 20\t\t\tr() {\\n    nftName = \"fcs_clas...\n      ADD \t\t\tr() {\\n    nftName = \"fcs_clas...\n      PUSH 3031383030320000000000000000000000000000000000000000000000000000\t\t\tr() {\\n    nftName = \"fcs_clas...\n      DUP2 \t\t\tr() {\\n    nftName = \"fcs_clas...\n      MSTORE \t\t\tr() {\\n    nftName = \"fcs_clas...\n      POP \t\t\tr() {\\n    nftName = \"fcs_clas...\n      DUP2 \t\t\tr() {\\n    nftName = \"fcs_clas...\n      JUMP \t\t\tr() {\\n    nftName = \"fcs_clas...\n    tag 65\t\t\tID, string calldata \n      JUMPDEST \t\t\tID, string calldata \n      PUSH 8\t\t\tID, string calldata \n      PUSH 0\t\t\tID, string calldata \n      SWAP1 \t\t\tID, string calldata \n      SLOAD \t\t\tID, string calldata \n      SWAP1 \t\t\tID, string calldata \n      PUSH 100\t\t\tID, string calldata \n      EXP \t\t\tID, string calldata \n      SWAP1 \t\t\tID, string calldata \n      DIV \t\t\tID, string calldata \n      PUSH FFFFFFFFFFFFFFFFFFFFFFFFFFFFFFFFFFFFFFFF\t\t\tID, string calldata \n      AND \t\t\tID, string calldata \n      DUP2 \t\t\tID, string calldata \n      JUMP \t\t\tID, string calldata \n    tag 68\t\t\t\n      JUMPDEST \t\t\t\n      PUSH 60\t\t\t\n      PUSH 6\t\t\t\n      DUP1 \t\t\t\n      SLOAD \t\t\t\n      PUSH [tag] 146\t\t\t\n      SWAP1 \t\t\t\n      PUSH [tag] 100\t\t\t\n      JUMP \t\t\t\n    tag 146\t\t\t\n      JUMPDEST \t\t\t\n      DUP1 \t\t\t\n      PUSH 1F\t\t\t\n      ADD \t\t\t\n      PUSH 20\t\t\t\n      DUP1 \t\t\t\n      SWAP2 \t\t\t\n      DIV \t\t\t\n      MUL \t\t\t\n      PUSH 20\t\t\t\n      ADD \t\t\t\n      PUSH 40\t\t\t\n      MLOAD \t\t\t\n      SWAP1 \t\t\t\n      DUP2 \t\t\t\n      ADD \t\t\t\n      PUSH 40\t\t\t\n      MSTORE \t\t\t\n      DUP1 \t\t\t\n      SWAP3 \t\t\t\n      SWAP2 \t\t\t\n      SWAP1 \t\t\t\n      DUP2 \t\t\t\n      DUP2 \t\t\t\n      MSTORE \t\t\t\n      PUSH 20\t\t\t\n      ADD \t\t\t\n      DUP3 \t\t\t\n      DUP1 \t\t\t\n      SLOAD \t\t\t\n      PUSH [tag] 147\t\t\t\n      SWAP1 \t\t\t\n      PUSH [tag] 100\t\t\t\n      JUMP \t\t\t\n    tag 147\t\t\t\n      JUMPDEST \t\t\t\n      DUP1 \t\t\t\n      ISZERO \t\t\t\n      PUSH [tag] 148\t\t\t\n      JUMPI \t\t\t\n      DUP1 \t\t\t\n      PUSH 1F\t\t\t\n      LT \t\t\t\n      PUSH [tag] 149\t\t\t\n      JUMPI \t\t\t\n      PUSH 100\t\t\t\n      DUP1 \t\t\t\n      DUP4 \t\t\t\n      SLOAD \t\t\t\n      DIV \t\t\t\n      MUL \t\t\t\n      DUP4 \t\t\t\n      MSTORE \t\t\t\n      SWAP2 \t\t\t\n      PUSH 20\t\t\t\n      ADD \t\t\t\n      SWAP2 \t\t\t\n      PUSH [tag] 148\t\t\t\n      JUMP \t\t\t\n    tag 149\t\t\t\n      JUMPDEST \t\t\t\n      DUP3 \t\t\t\n      ADD \t\t\t\n      SWAP2 \t\t\t\n      SWAP1 \t\t\t\n      PUSH 0\t\t\t\n      MSTORE \t\t\t\n      PUSH 20\t\t\t\n      PUSH 0\t\t\t\n      KECCAK256 \t\t\t\n      SWAP1 \t\t\t\n    tag 150\t\t\t\n      JUMPDEST \t\t\t\n      DUP2 \t\t\t\n      SLOAD \t\t\t\n      DUP2 \t\t\t\n      MSTORE \t\t\t\n      SWAP1 \t\t\t\n      PUSH 1\t\t\t\n      ADD \t\t\t\n      SWAP1 \t\t\t\n      PUSH 20\t\t\t\n      ADD \t\t\t\n      DUP1 \t\t\t\n      DUP4 \t\t\t\n      GT \t\t\t\n      PUSH [tag] 150\t\t\t\n      JUMPI \t\t\t\n      DUP3 \t\t\t\n      SWAP1 \t\t\t\n      SUB \t\t\t\n      PUSH 1F\t\t\t\n      AND \t\t\t\n      DUP3 \t\t\t\n      ADD \t\t\t\n      SWAP2 \t\t\t\n    tag 148\t\t\t\n      JUMPDEST \t\t\t\n      POP \t\t\t\n      POP \t\t\t\n      POP \t\t\t\n      POP \t\t\t\n      POP \t\t\t\n      SWAP1 \t\t\t\n      POP \t\t\t\n      SWAP1 \t\t\t\n      JUMP \t\t\t\n    tag 73\t\t\t\n      JUMPDEST \t\t\t\n      DUP1 \t\t\t\n      PUSH 4\t\t\t\n      PUSH 0\t\t\t\n      CALLER \t\t\t\n      PUSH FFFFFFFFFFFFFFFFFFFFFFFFFFFFFFFFFFFFFFFF\t\t\t\n      AND \t\t\t\n      PUSH FFFFFFFFFFFFFFFFFFFFFFFFFFFFFFFFFFFFFFFF\t\t\t\n      AND \t\t\t\n      DUP2 \t\t\t\n      MSTORE \t\t\t\n      PUSH 20\t\t\t\n      ADD \t\t\t\n      SWAP1 \t\t\t\n      DUP2 \t\t\t\n      MSTORE \t\t\t\n      PUSH 20\t\t\t\n      ADD \t\t\t\n      PUSH 0\t\t\t\n      KECCAK256 \t\t\t\n      PUSH 0\t\t\t\n      DUP5 \t\t\t\n      PUSH FFFFFFFFFFFFFFFFFFFFFFFFFFFFFFFFFFFFFFFF\t\t\t\n      AND \t\t\t\n      PUSH FFFFFFFFFFFFFFFFFFFFFFFFFFFFFFFFFFFFFFFF\t\t\t\n      AND \t\t\t\n      DUP2 \t\t\t\n      MSTORE \t\t\t\n      PUSH 20\t\t\t\n      ADD \t\t\t\n      SWAP1 \t\t\t\n      DUP2 \t\t\t\n      MSTORE \t\t\t\n      PUSH 20\t\t\t\n      ADD \t\t\t\n      PUSH 0\t\t\t\n      KECCAK256 \t\t\t\n      PUSH 0\t\t\t\n      PUSH 100\t\t\t\n      EXP \t\t\t\n      DUP2 \t\t\t\n      SLOAD \t\t\t\n      DUP2 \t\t\t\n      PUSH FF\t\t\t\n      MUL \t\t\t\n      NOT \t\t\t\n      AND \t\t\t\n      SWAP1 \t\t\t\n      DUP4 \t\t\t\n      ISZERO \t\t\t\n      ISZERO \t\t\t\n      MUL \t\t\t\n      OR \t\t\t\n      SWAP1 \t\t\t\n      SSTORE \t\t\t\n      POP \t\t\t\n      DUP2 \t\t\t\n      PUSH FFFFFFFFFFFFFFFFFFFFFFFFFFFFFFFFFFFFFFFF\t\t\t\n      AND \t\t\t\n      CALLER \t\t\t\n      PUSH FFFFFFFFFFFFFFFFFFFFFFFFFFFFFFFFFFFFFFFF\t\t\t\n      AND \t\t\t\n      PUSH 17307EAB39AB6107E8899845AD3D59BD9653F200F220920489CA2B5937696C31\t\t\t\n      DUP4 \t\t\t\n      PUSH 40\t\t\t\n      MLOAD \t\t\t\n      PUSH [tag] 152\t\t\t\n      SWAP2 \t\t\t\n      SWAP1 \t\t\t\n      PUSH [tag] 29\t\t\t\n      JUMP \t\t\t\n    tag 152\t\t\t\n      JUMPDEST \t\t\t\n      PUSH 40\t\t\t\n      MLOAD \t\t\t\n      DUP1 \t\t\t\n      SWAP2 \t\t\t\n      SUB \t\t\t\n      SWAP1 \t\t\t\n      LOG3 \t\t\t\n      POP \t\t\t\n      POP \t\t\t\n      JUMP \t\t\t\n    tag 77\t\t\t\n      JUMPDEST \t\t\t\n      PUSH [tag] 154\t\t\t\n      DUP6 \t\t\t\n      DUP6 \t\t\t\n      DUP6 \t\t\t\n      DUP6 \t\t\t\n      DUP6 \t\t\t\n      DUP1 \t\t\t\n      DUP1 \t\t\t\n      PUSH 1F\t\t\t\n      ADD \t\t\t\n      PUSH 20\t\t\t\n      DUP1 \t\t\t\n      SWAP2 \t\t\t\n      DIV \t\t\t\n      MUL \t\t\t\n      PUSH 20\t\t\t\n      ADD \t\t\t\n      PUSH 40\t\t\t\n      MLOAD \t\t\t\n      SWAP1 \t\t\t\n      DUP2 \t\t\t\n      ADD \t\t\t\n      PUSH 40\t\t\t\n      MSTORE \t\t\t\n      DUP1 \t\t\t\n      SWAP4 \t\t\t\n      SWAP3 \t\t\t\n      SWAP2 \t\t\t\n      SWAP1 \t\t\t\n      DUP2 \t\t\t\n      DUP2 \t\t\t\n      MSTORE \t\t\t\n      PUSH 20\t\t\t\n      ADD \t\t\t\n      DUP4 \t\t\t\n      DUP4 \t\t\t\n      DUP1 \t\t\t\n      DUP3 \t\t\t\n      DUP5 \t\t\t\n      CALLDATACOPY \t\t\t\n      PUSH 0\t\t\t\n      DUP2 \t\t\t\n      DUP5 \t\t\t\n      ADD \t\t\t\n      MSTORE \t\t\t\n      PUSH 1F\t\t\t\n      NOT \t\t\t\n      PUSH 1F\t\t\t\n      DUP3 \t\t\t\n      ADD \t\t\t\n      AND \t\t\t\n      SWAP1 \t\t\t\n      POP \t\t\t\n      DUP1 \t\t\t\n      DUP4 \t\t\t\n      ADD \t\t\t\n      SWAP3 \t\t\t\n      POP \t\t\t\n      POP \t\t\t\n      POP \t\t\t\n      POP \t\t\t\n      POP \t\t\t\n      POP \t\t\t\n      POP \t\t\t\n      PUSH [tag] 136\t\t\t\n      JUMP \t\t\t\n    tag 154\t\t\t\n      JUMPDEST \t\t\t\n      POP \t\t\t\n      POP \t\t\t\n      POP \t\t\t\n      POP \t\t\t\n      POP \t\t\t\n      JUMP \t\t\t\n    tag 80\t\t\t\n      JUMPDEST \t\t\t\n      PUSH 60\t\t\t\n      DUP2 \t\t\t\n      PUSH 0\t\t\t\n      PUSH FFFFFFFFFFFFFFFFFFFFFFFFFFFFFFFFFFFFFFFF\t\t\t\n      AND \t\t\t\n      PUSH 1\t\t\t\n      PUSH 0\t\t\t\n      DUP4 \t\t\t\n      DUP2 \t\t\t\n      MSTORE \t\t\t\n      PUSH 20\t\t\t\n      ADD \t\t\t\n      SWAP1 \t\t\t\n      DUP2 \t\t\t\n      MSTORE \t\t\t\n      PUSH 20\t\t\t\n      ADD \t\t\t\n      PUSH 0\t\t\t\n      KECCAK256 \t\t\t\n      PUSH 0\t\t\t\n      SWAP1 \t\t\t\n      SLOAD \t\t\t\n      SWAP1 \t\t\t\n      PUSH 100\t\t\t\n      EXP \t\t\t\n      SWAP1 \t\t\t\n      DIV \t\t\t\n      PUSH FFFFFFFFFFFFFFFFFFFFFFFFFFFFFFFFFFFFFFFF\t\t\t\n      AND \t\t\t\n      PUSH FFFFFFFFFFFFFFFFFFFFFFFFFFFFFFFFFFFFFFFF\t\t\t\n      AND \t\t\t\n      EQ \t\t\t\n      ISZERO \t\t\t\n      PUSH 40\t\t\t\n      MLOAD \t\t\t\n      DUP1 \t\t\t\n      PUSH 40\t\t\t\n      ADD \t\t\t\n      PUSH 40\t\t\t\n      MSTORE \t\t\t\n      DUP1 \t\t\t\n      PUSH 6\t\t\t\n      DUP2 \t\t\t\n      MSTORE \t\t\t\n      PUSH 20\t\t\t\n      ADD \t\t\t\n      PUSH 3030333030320000000000000000000000000000000000000000000000000000\t\t\t\n      DUP2 \t\t\t\n      MSTORE \t\t\t\n      POP \t\t\t\n      SWAP1 \t\t\t\n      PUSH [tag] 156\t\t\t\n      JUMPI \t\t\t\n      PUSH 40\t\t\t\n      MLOAD \t\t\t\n      PUSH 8C379A000000000000000000000000000000000000000000000000000000000\t\t\t\n      DUP2 \t\t\t\n      MSTORE \t\t\t\n      PUSH 4\t\t\t\n      ADD \t\t\t\n      PUSH [tag] 157\t\t\t\n      SWAP2 \t\t\t\n      SWAP1 \t\t\t\n      PUSH [tag] 33\t\t\t\n      JUMP \t\t\t\n    tag 157\t\t\t\n      JUMPDEST \t\t\t\n      PUSH 40\t\t\t\n      MLOAD \t\t\t\n      DUP1 \t\t\t\n      SWAP2 \t\t\t\n      SUB \t\t\t\n      SWAP1 \t\t\t\n      REVERT \t\t\t\n    tag 156\t\t\t\n      JUMPDEST \t\t\t\n      POP \t\t\t\n      PUSH [tag] 159\t\t\t\n      DUP4 \t\t\t\n      PUSH [tag] 160\t\t\t\n      JUMP \t\t\t\n    tag 159\t\t\t\n      JUMPDEST \t\t\t\n      SWAP2 \t\t\t\n      POP \t\t\t\n      POP \t\t\t\n      SWAP2 \t\t\t\n      SWAP1 \t\t\t\n      POP \t\t\t\n      JUMP \t\t\t\n    tag 85\t\t\t\n      JUMPDEST \t\t\t\n      PUSH 0\t\t\t\n      PUSH 4\t\t\t\n      PUSH 0\t\t\t\n      DUP5 \t\t\t\n      PUSH FFFFFFFFFFFFFFFFFFFFFFFFFFFFFFFFFFFFFFFF\t\t\t\n      AND \t\t\t\n      PUSH FFFFFFFFFFFFFFFFFFFFFFFFFFFFFFFFFFFFFFFF\t\t\t\n      AND \t\t\t\n      DUP2 \t\t\t\n      MSTORE \t\t\t\n      PUSH 20\t\t\t\n      ADD \t\t\t\n      SWAP1 \t\t\t\n      DUP2 \t\t\t\n      MSTORE \t\t\t\n      PUSH 20\t\t\t\n      ADD \t\t\t\n      PUSH 0\t\t\t\n      KECCAK256 \t\t\t\n      PUSH 0\t\t\t\n      DUP4 \t\t\t\n      PUSH FFFFFFFFFFFFFFFFFFFFFFFFFFFFFFFFFFFFFFFF\t\t\t\n      AND \t\t\t\n      PUSH FFFFFFFFFFFFFFFFFFFFFFFFFFFFFFFFFFFFFFFF\t\t\t\n      AND \t\t\t\n      DUP2 \t\t\t\n      MSTORE \t\t\t\n      PUSH 20\t\t\t\n      ADD \t\t\t\n      SWAP1 \t\t\t\n      DUP2 \t\t\t\n      MSTORE \t\t\t\n      PUSH 20\t\t\t\n      ADD \t\t\t\n      PUSH 0\t\t\t\n      KECCAK256 \t\t\t\n      PUSH 0\t\t\t\n      SWAP1 \t\t\t\n      SLOAD \t\t\t\n      SWAP1 \t\t\t\n      PUSH 100\t\t\t\n      EXP \t\t\t\n      SWAP1 \t\t\t\n      DIV \t\t\t\n      PUSH FF\t\t\t\n      AND \t\t\t\n      SWAP1 \t\t\t\n      POP \t\t\t\n      SWAP3 \t\t\t\n      SWAP2 \t\t\t\n      POP \t\t\t\n      POP \t\t\t\n      JUMP \t\t\t\n    tag 89\t\t\t\n      JUMPDEST \t\t\t\n      PUSH 8\t\t\t\n      PUSH 0\t\t\t\n      SWAP1 \t\t\t\n      SLOAD \t\t\t\n      SWAP1 \t\t\t\n      PUSH 100\t\t\t\n      EXP \t\t\t\n      SWAP1 \t\t\t\n      DIV \t\t\t\n      PUSH FFFFFFFFFFFFFFFFFFFFFFFFFFFFFFFFFFFFFFFF\t\t\t\n      AND \t\t\t\n      PUSH FFFFFFFFFFFFFFFFFFFFFFFFFFFFFFFFFFFFFFFF\t\t\t\n      AND \t\t\t\n      CALLER \t\t\t\n      PUSH FFFFFFFFFFFFFFFFFFFFFFFFFFFFFFFFFFFFFFFF\t\t\t\n      AND \t\t\t\n      EQ \t\t\t\n      PUSH 40\t\t\t\n      MLOAD \t\t\t\n      DUP1 \t\t\t\n      PUSH 40\t\t\t\n      ADD \t\t\t\n      PUSH 40\t\t\t\n      MSTORE \t\t\t\n      DUP1 \t\t\t\n      PUSH 6\t\t\t\n      DUP2 \t\t\t\n      MSTORE \t\t\t\n      PUSH 20\t\t\t\n      ADD \t\t\t\n      PUSH 3031383030310000000000000000000000000000000000000000000000000000\t\t\t\n      DUP2 \t\t\t\n      MSTORE \t\t\t\n      POP \t\t\t\n      SWAP1 \t\t\t\n      PUSH [tag] 163\t\t\t\n      JUMPI \t\t\t\n      PUSH 40\t\t\t\n      MLOAD \t\t\t\n      PUSH 8C379A000000000000000000000000000000000000000000000000000000000\t\t\t\n      DUP2 \t\t\t\n      MSTORE \t\t\t\n      PUSH 4\t\t\t\n      ADD \t\t\t\n      PUSH [tag] 164\t\t\t\n      SWAP2 \t\t\t\n      SWAP1 \t\t\t\n      PUSH [tag] 33\t\t\t\n      JUMP \t\t\t\n    tag 164\t\t\t\n      JUMPDEST \t\t\t\n      PUSH 40\t\t\t\n      MLOAD \t\t\t\n      DUP1 \t\t\t\n      SWAP2 \t\t\t\n      SUB \t\t\t\n      SWAP1 \t\t\t\n      REVERT \t\t\t\n    tag 163\t\t\t\n      JUMPDEST \t\t\t\n      POP \t\t\t\n      PUSH 0\t\t\t\n      PUSH FFFFFFFFFFFFFFFFFFFFFFFFFFFFFFFFFFFFFFFF\t\t\t\n      AND \t\t\t\n      DUP2 \t\t\t\n      PUSH FFFFFFFFFFFFFFFFFFFFFFFFFFFFFFFFFFFFFFFF\t\t\t\n      AND \t\t\t\n      EQ \t\t\t\n      ISZERO \t\t\t\n      PUSH 40\t\t\t\n      MLOAD \t\t\t\n      DUP1 \t\t\t\n      PUSH 40\t\t\t\n      ADD \t\t\t\n      PUSH 40\t\t\t\n      MSTORE \t\t\t\n      DUP1 \t\t\t\n      PUSH 6\t\t\t\n      DUP2 \t\t\t\n      MSTORE \t\t\t\n      PUSH 20\t\t\t\n      ADD \t\t\t\n      PUSH 3031383030320000000000000000000000000000000000000000000000000000\t\t\t\n      DUP2 \t\t\t\n      MSTORE \t\t\t\n      POP \t\t\t\n      SWAP1 \t\t\t\n      PUSH [tag] 166\t\t\t\n      JUMPI \t\t\t\n      PUSH 40\t\t\t\n      MLOAD \t\t\t\n      PUSH 8C379A000000000000000000000000000000000000000000000000000000000\t\t\t\n      DUP2 \t\t\t\n      MSTORE \t\t\t\n      PUSH 4\t\t\t\n      ADD \t\t\t\n      PUSH [tag] 167\t\t\t\n      SWAP2 \t\t\t\n      SWAP1 \t\t\t\n      PUSH [tag] 33\t\t\t\n      JUMP \t\t\t\n    tag 167\t\t\t\n      JUMPDEST \t\t\t\n      PUSH 40\t\t\t\n      MLOAD \t\t\t\n      DUP1 \t\t\t\n      SWAP2 \t\t\t\n      SUB \t\t\t\n      SWAP1 \t\t\t\n      REVERT \t\t\t\n    tag 166\t\t\t\n      JUMPDEST \t\t\t\n      POP \t\t\t\n      DUP1 \t\t\t\n      PUSH FFFFFFFFFFFFFFFFFFFFFFFFFFFFFFFFFFFFFFFF\t\t\t\n      AND \t\t\t\n      PUSH 8\t\t\t\n      PUSH 0\t\t\t\n      SWAP1 \t\t\t\n      SLOAD \t\t\t\n      SWAP1 \t\t\t\n      PUSH 100\t\t\t\n      EXP \t\t\t\n      SWAP1 \t\t\t\n      DIV \t\t\t\n      PUSH FFFFFFFFFFFFFFFFFFFFFFFFFFFFFFFFFFFFFFFF\t\t\t\n      AND \t\t\t\n      PUSH FFFFFFFFFFFFFFFFFFFFFFFFFFFFFFFFFFFFFFFF\t\t\t\n      AND \t\t\t\n      PUSH 8BE0079C531659141344CD1FD0A4F28419497F9722A3DAAFE3B4186F6B6457E0\t\t\t\n      PUSH 40\t\t\t\n      MLOAD \t\t\t\n      PUSH 40\t\t\t\n      MLOAD \t\t\t\n      DUP1 \t\t\t\n      SWAP2 \t\t\t\n      SUB \t\t\t\n      SWAP1 \t\t\t\n      LOG3 \t\t\t\n      DUP1 \t\t\t\n      PUSH 8\t\t\t\n      PUSH 0\t\t\t\n      PUSH 100\t\t\t\n      EXP \t\t\t\n      DUP2 \t\t\t\n      SLOAD \t\t\t\n      DUP2 \t\t\t\n      PUSH FFFFFFFFFFFFFFFFFFFFFFFFFFFFFFFFFFFFFFFF\t\t\t\n      MUL \t\t\t\n      NOT \t\t\t\n      AND \t\t\t\n      SWAP1 \t\t\t\n      DUP4 \t\t\t\n      PUSH FFFFFFFFFFFFFFFFFFFFFFFFFFFFFFFFFFFFFFFF\t\t\t\n      AND \t\t\t\n      MUL \t\t\t\n      OR \t\t\t\n      SWAP1 \t\t\t\n      SSTORE \t\t\t\n      POP \t\t\t\n      POP \t\t\t\n      JUMP \t\t\t\n    tag 93\t\t\tfunction metamask(address myad...\n      JUMPDEST \t\t\tfunction metamask(address myad...\n      PUSH 8\t\t\t\n      PUSH 0\t\t\t\n      SWAP1 \t\t\t\n      SLOAD \t\t\t\n      SWAP1 \t\t\t\n      PUSH 100\t\t\t\n      EXP \t\t\t\n      SWAP1 \t\t\t\n      DIV \t\t\t\n      PUSH FFFFFFFFFFFFFFFFFFFFFFFFFFFFFFFFFFFFFFFF\t\t\t\n      AND \t\t\t\n      PUSH FFFFFFFFFFFFFFFFFFFFFFFFFFFFFFFFFFFFFFFF\t\t\t\n      AND \t\t\t\n      CALLER \t\t\t\n      PUSH FFFFFFFFFFFFFFFFFFFFFFFFFFFFFFFFFFFFFFFF\t\t\t\n      AND \t\t\t\n      EQ \t\t\t\n      PUSH 40\t\t\t\n      MLOAD \t\t\t\n      DUP1 \t\t\t\n      PUSH 40\t\t\t\n      ADD \t\t\t\n      PUSH 40\t\t\t\n      MSTORE \t\t\t\n      DUP1 \t\t\t\n      PUSH 6\t\t\t\n      DUP2 \t\t\t\n      MSTORE \t\t\t\n      PUSH 20\t\t\t\n      ADD \t\t\t\n      PUSH 3031383030310000000000000000000000000000000000000000000000000000\t\t\t\n      DUP2 \t\t\t\n      MSTORE \t\t\t\n      POP \t\t\t\n      SWAP1 \t\t\t\n      PUSH [tag] 169\t\t\t\n      JUMPI \t\t\t\n      PUSH 40\t\t\t\n      MLOAD \t\t\t\n      PUSH 8C379A000000000000000000000000000000000000000000000000000000000\t\t\t\n      DUP2 \t\t\t\n      MSTORE \t\t\t\n      PUSH 4\t\t\t\n      ADD \t\t\t\n      PUSH [tag] 170\t\t\t\n      SWAP2 \t\t\t\n      SWAP1 \t\t\t\n      PUSH [tag] 33\t\t\t\n      JUMP \t\t\t\n    tag 170\t\t\t\n      JUMPDEST \t\t\t\n      PUSH 40\t\t\t\n      MLOAD \t\t\t\n      DUP1 \t\t\t\n      SWAP2 \t\t\t\n      SUB \t\t\t\n      SWAP1 \t\t\t\n      REVERT \t\t\t\n    tag 169\t\t\t\n      JUMPDEST \t\t\t\n      POP \t\t\t\n      PUSH [tag] 172\t\t\tsuper._mint(myaddress, tokenID...\n      DUP5 \t\t\tmyaddress\n      DUP5 \t\t\ttokenID\n      PUSH [tag] 173\t\t\tsuper._mint\n      JUMP \t\t\tsuper._mint(myaddress, tokenID...\n    tag 172\t\t\tsuper._mint(myaddress, tokenID...\n      JUMPDEST \t\t\tsuper._mint(myaddress, tokenID...\n      PUSH [tag] 174\t\t\tsuper._setTokenUri(tokenID, ur...\n      DUP4 \t\t\ttokenID\n      DUP4 \t\t\turi\n      DUP4 \t\t\turi\n      DUP1 \t\t\tsuper._setTokenUri(tokenID, ur...\n      DUP1 \t\t\tsuper._setTokenUri(tokenID, ur...\n      PUSH 1F\t\t\tsuper._setTokenUri(tokenID, ur...\n      ADD \t\t\tsuper._setTokenUri(tokenID, ur...\n      PUSH 20\t\t\tsuper._setTokenUri(tokenID, ur...\n      DUP1 \t\t\tsuper._setTokenUri(tokenID, ur...\n      SWAP2 \t\t\tsuper._setTokenUri(tokenID, ur...\n      DIV \t\t\tsuper._setTokenUri(tokenID, ur...\n      MUL \t\t\tsuper._setTokenUri(tokenID, ur...\n      PUSH 20\t\t\tsuper._setTokenUri(tokenID, ur...\n      ADD \t\t\tsuper._setTokenUri(tokenID, ur...\n      PUSH 40\t\t\tsuper._setTokenUri(tokenID, ur...\n      MLOAD \t\t\tsuper._setTokenUri(tokenID, ur...\n      SWAP1 \t\t\tsuper._setTokenUri(tokenID, ur...\n      DUP2 \t\t\tsuper._setTokenUri(tokenID, ur...\n      ADD \t\t\tsuper._setTokenUri(tokenID, ur...\n      PUSH 40\t\t\tsuper._setTokenUri(tokenID, ur...\n      MSTORE \t\t\tsuper._setTokenUri(tokenID, ur...\n      DUP1 \t\t\tsuper._setTokenUri(tokenID, ur...\n      SWAP4 \t\t\tsuper._setTokenUri(tokenID, ur...\n      SWAP3 \t\t\tsuper._setTokenUri(tokenID, ur...\n      SWAP2 \t\t\tsuper._setTokenUri(tokenID, ur...\n      SWAP1 \t\t\tsuper._setTokenUri(tokenID, ur...\n      DUP2 \t\t\tsuper._setTokenUri(tokenID, ur...\n      DUP2 \t\t\tsuper._setTokenUri(tokenID, ur...\n      MSTORE \t\t\tsuper._setTokenUri(tokenID, ur...\n      PUSH 20\t\t\tsuper._setTokenUri(tokenID, ur...\n      ADD \t\t\tsuper._setTokenUri(tokenID, ur...\n      DUP4 \t\t\tsuper._setTokenUri(tokenID, ur...\n      DUP4 \t\t\tsuper._setTokenUri(tokenID, ur...\n      DUP1 \t\t\tsuper._setTokenUri(tokenID, ur...\n      DUP3 \t\t\tsuper._setTokenUri(tokenID, ur...\n      DUP5 \t\t\tsuper._setTokenUri(tokenID, ur...\n      CALLDATACOPY \t\t\tsuper._setTokenUri(tokenID, ur...\n      PUSH 0\t\t\tsuper._setTokenUri(tokenID, ur...\n      DUP2 \t\t\tsuper._setTokenUri(tokenID, ur...\n      DUP5 \t\t\tsuper._setTokenUri(tokenID, ur...\n      ADD \t\t\tsuper._setTokenUri(tokenID, ur...\n      MSTORE \t\t\tsuper._setTokenUri(tokenID, ur...\n      PUSH 1F\t\t\tsuper._setTokenUri(tokenID, ur...\n      NOT \t\t\tsuper._setTokenUri(tokenID, ur...\n      PUSH 1F\t\t\tsuper._setTokenUri(tokenID, ur...\n      DUP3 \t\t\tsuper._setTokenUri(tokenID, ur...\n      ADD \t\t\tsuper._setTokenUri(tokenID, ur...\n      AND \t\t\tsuper._setTokenUri(tokenID, ur...\n      SWAP1 \t\t\tsuper._setTokenUri(tokenID, ur...\n      POP \t\t\tsuper._setTokenUri(tokenID, ur...\n      DUP1 \t\t\tsuper._setTokenUri(tokenID, ur...\n      DUP4 \t\t\tsuper._setTokenUri(tokenID, ur...\n      ADD \t\t\tsuper._setTokenUri(tokenID, ur...\n      SWAP3 \t\t\tsuper._setTokenUri(tokenID, ur...\n      POP \t\t\tsuper._setTokenUri(tokenID, ur...\n      POP \t\t\tsuper._setTokenUri(tokenID, ur...\n      POP \t\t\tsuper._setTokenUri(tokenID, ur...\n      POP \t\t\tsuper._setTokenUri(tokenID, ur...\n      POP \t\t\tsuper._setTokenUri(tokenID, ur...\n      POP \t\t\tsuper._setTokenUri(tokenID, ur...\n      POP \t\t\tsuper._setTokenUri(tokenID, ur...\n      PUSH [tag] 175\t\t\tsuper._setTokenUri\n      JUMP \t\t\tsuper._setTokenUri(tokenID, ur...\n    tag 174\t\t\tsuper._setTokenUri(tokenID, ur...\n      JUMPDEST \t\t\tsuper._setTokenUri(tokenID, ur...\n      POP \t\t\tfunction metamask(address myad...\n      POP \t\t\tfunction metamask(address myad...\n      POP \t\t\tfunction metamask(address myad...\n      POP \t\t\tfunction metamask(address myad...\n      JUMP \t\t\tfunction metamask(address myad...\n    tag 95\t\t\tdata extension `name` and `sym...\n      JUMPDEST \t\t\tdata extension `name` and `sym...\n      PUSH 40\t\t\tdata extension `name` and `sym...\n      MLOAD \t\t\tdata extension `name` and `sym...\n      DUP1 \t\t\tdata extension `name` and `sym...\n      PUSH 40\t\t\tdata extension `name` and `sym...\n      ADD \t\t\tdata extension `name` and `sym...\n      PUSH 40\t\t\tdata extension `name` and `sym...\n      MSTORE \t\t\tdata extension `name` and `sym...\n      DUP1 \t\t\tdata extension `name` and `sym...\n      PUSH 6\t\t\tdata extension `name` and `sym...\n      DUP2 \t\t\tdata extension `name` and `sym...\n      MSTORE \t\t\tdata extension `name` and `sym...\n      PUSH 20\t\t\tdata extension `name` and `sym...\n      ADD \t\t\tdata extension `name` and `sym...\n      PUSH 3031383030310000000000000000000000000000000000000000000000000000\t\t\tdata extension `name` and `sym...\n      DUP2 \t\t\tdata extension `name` and `sym...\n      MSTORE \t\t\tdata extension `name` and `sym...\n      POP \t\t\tdata extension `name` and `sym...\n      DUP2 \t\t\tdata extension `name` and `sym...\n      JUMP \t\t\tdata extension `name` and `sym...\n    tag 133\t\t\t\n      JUMPDEST \t\t\t\n      PUSH 0\t\t\t\n      PUSH 1\t\t\t\n      PUSH 0\t\t\t\n      DUP4 \t\t\t\n      DUP2 \t\t\t\n      MSTORE \t\t\t\n      PUSH 20\t\t\t\n      ADD \t\t\t\n      SWAP1 \t\t\t\n      DUP2 \t\t\t\n      MSTORE \t\t\t\n      PUSH 20\t\t\t\n      ADD \t\t\t\n      PUSH 0\t\t\t\n      KECCAK256 \t\t\t\n      PUSH 0\t\t\t\n      SWAP1 \t\t\t\n      SLOAD \t\t\t\n      SWAP1 \t\t\t\n      PUSH 100\t\t\t\n      EXP \t\t\t\n      SWAP1 \t\t\t\n      DIV \t\t\t\n      PUSH FFFFFFFFFFFFFFFFFFFFFFFFFFFFFFFFFFFFFFFF\t\t\t\n      AND \t\t\t\n      SWAP1 \t\t\t\n      POP \t\t\t\n      PUSH [tag] 177\t\t\t\n      DUP3 \t\t\t\n      PUSH [tag] 178\t\t\t\n      JUMP \t\t\t\n    tag 177\t\t\t\n      JUMPDEST \t\t\t\n      PUSH [tag] 179\t\t\t\n      DUP2 \t\t\t\n      DUP4 \t\t\t\n      PUSH [tag] 180\t\t\t\n      JUMP \t\t\t\n    tag 179\t\t\t\n      JUMPDEST \t\t\t\n      PUSH [tag] 181\t\t\t\n      DUP4 \t\t\t\n      DUP4 \t\t\t\n      PUSH [tag] 182\t\t\t\n      JUMP \t\t\t\n    tag 181\t\t\t\n      JUMPDEST \t\t\t\n      DUP2 \t\t\t\n      DUP4 \t\t\t\n      PUSH FFFFFFFFFFFFFFFFFFFFFFFFFFFFFFFFFFFFFFFF\t\t\t\n      AND \t\t\t\n      DUP3 \t\t\t\n      PUSH FFFFFFFFFFFFFFFFFFFFFFFFFFFFFFFFFFFFFFFF\t\t\t\n      AND \t\t\t\n      PUSH DDF252AD1BE2C89B69C2B068FC378DAA952BA7F163C4A11628F55A4DF523B3EF\t\t\t\n      PUSH 40\t\t\t\n      MLOAD \t\t\t\n      PUSH 40\t\t\t\n      MLOAD \t\t\t\n      DUP1 \t\t\t\n      SWAP2 \t\t\t\n      SUB \t\t\t\n      SWAP1 \t\t\t\n      LOG4 \t\t\t\n      POP \t\t\t\n      POP \t\t\t\n      POP \t\t\t\n      JUMP \t\t\t\n    tag 136\t\t\t\n      JUMPDEST \t\t\t\n      DUP2 \t\t\t\n      PUSH 0\t\t\t\n      PUSH 1\t\t\t\n      PUSH 0\t\t\t\n      DUP4 \t\t\t\n      DUP2 \t\t\t\n      MSTORE \t\t\t\n      PUSH 20\t\t\t\n      ADD \t\t\t\n      SWAP1 \t\t\t\n      DUP2 \t\t\t\n      MSTORE \t\t\t\n      PUSH 20\t\t\t\n      ADD \t\t\t\n      PUSH 0\t\t\t\n      KECCAK256 \t\t\t\n      PUSH 0\t\t\t\n      SWAP1 \t\t\t\n      SLOAD \t\t\t\n      SWAP1 \t\t\t\n      PUSH 100\t\t\t\n      EXP \t\t\t\n      SWAP1 \t\t\t\n      DIV \t\t\t\n      PUSH FFFFFFFFFFFFFFFFFFFFFFFFFFFFFFFFFFFFFFFF\t\t\t\n      AND \t\t\t\n      SWAP1 \t\t\t\n      POP \t\t\t\n      CALLER \t\t\t\n      PUSH FFFFFFFFFFFFFFFFFFFFFFFFFFFFFFFFFFFFFFFF\t\t\t\n      AND \t\t\t\n      DUP2 \t\t\t\n      PUSH FFFFFFFFFFFFFFFFFFFFFFFFFFFFFFFFFFFFFFFF\t\t\t\n      AND \t\t\t\n      EQ \t\t\t\n      DUP1 \t\t\t\n      PUSH [tag] 184\t\t\t\n      JUMPI \t\t\t\n      POP \t\t\t\n      CALLER \t\t\t\n      PUSH FFFFFFFFFFFFFFFFFFFFFFFFFFFFFFFFFFFFFFFF\t\t\t\n      AND \t\t\t\n      PUSH 2\t\t\t\n      PUSH 0\t\t\t\n      DUP5 \t\t\t\n      DUP2 \t\t\t\n      MSTORE \t\t\t\n      PUSH 20\t\t\t\n      ADD \t\t\t\n      SWAP1 \t\t\t\n      DUP2 \t\t\t\n      MSTORE \t\t\t\n      PUSH 20\t\t\t\n      ADD \t\t\t\n      PUSH 0\t\t\t\n      KECCAK256 \t\t\t\n      PUSH 0\t\t\t\n      SWAP1 \t\t\t\n      SLOAD \t\t\t\n      SWAP1 \t\t\t\n      PUSH 100\t\t\t\n      EXP \t\t\t\n      SWAP1 \t\t\t\n      DIV \t\t\t\n      PUSH FFFFFFFFFFFFFFFFFFFFFFFFFFFFFFFFFFFFFFFF\t\t\t\n      AND \t\t\t\n      PUSH FFFFFFFFFFFFFFFFFFFFFFFFFFFFFFFFFFFFFFFF\t\t\t\n      AND \t\t\t\n      EQ \t\t\t\n    tag 184\t\t\t\n      JUMPDEST \t\t\t\n      DUP1 \t\t\t\n      PUSH [tag] 185\t\t\t\n      JUMPI \t\t\t\n      POP \t\t\t\n      PUSH 4\t\t\t\n      PUSH 0\t\t\t\n      DUP3 \t\t\t\n      PUSH FFFFFFFFFFFFFFFFFFFFFFFFFFFFFFFFFFFFFFFF\t\t\t\n      AND \t\t\t\n      PUSH FFFFFFFFFFFFFFFFFFFFFFFFFFFFFFFFFFFFFFFF\t\t\t\n      AND \t\t\t\n      DUP2 \t\t\t\n      MSTORE \t\t\t\n      PUSH 20\t\t\t\n      ADD \t\t\t\n      SWAP1 \t\t\t\n      DUP2 \t\t\t\n      MSTORE \t\t\t\n      PUSH 20\t\t\t\n      ADD \t\t\t\n      PUSH 0\t\t\t\n      KECCAK256 \t\t\t\n      PUSH 0\t\t\t\n      CALLER \t\t\t\n      PUSH FFFFFFFFFFFFFFFFFFFFFFFFFFFFFFFFFFFFFFFF\t\t\t\n      AND \t\t\t\n      PUSH FFFFFFFFFFFFFFFFFFFFFFFFFFFFFFFFFFFFFFFF\t\t\t\n      AND \t\t\t\n      DUP2 \t\t\t\n      MSTORE \t\t\t\n      PUSH 20\t\t\t\n      ADD \t\t\t\n      SWAP1 \t\t\t\n      DUP2 \t\t\t\n      MSTORE \t\t\t\n      PUSH 20\t\t\t\n      ADD \t\t\t\n      PUSH 0\t\t\t\n      KECCAK256 \t\t\t\n      PUSH 0\t\t\t\n      SWAP1 \t\t\t\n      SLOAD \t\t\t\n      SWAP1 \t\t\t\n      PUSH 100\t\t\t\n      EXP \t\t\t\n      SWAP1 \t\t\t\n      DIV \t\t\t\n      PUSH FF\t\t\t\n      AND \t\t\t\n    tag 185\t\t\t\n      JUMPDEST \t\t\t\n      PUSH 40\t\t\t\n      MLOAD \t\t\t\n      DUP1 \t\t\t\n      PUSH 40\t\t\t\n      ADD \t\t\t\n      PUSH 40\t\t\t\n      MSTORE \t\t\t\n      DUP1 \t\t\t\n      PUSH 6\t\t\t\n      DUP2 \t\t\t\n      MSTORE \t\t\t\n      PUSH 20\t\t\t\n      ADD \t\t\t\n      PUSH 3030333030340000000000000000000000000000000000000000000000000000\t\t\t\n      DUP2 \t\t\t\n      MSTORE \t\t\t\n      POP \t\t\t\n      SWAP1 \t\t\t\n      PUSH [tag] 186\t\t\t\n      JUMPI \t\t\t\n      PUSH 40\t\t\t\n      MLOAD \t\t\t\n      PUSH 8C379A000000000000000000000000000000000000000000000000000000000\t\t\t\n      DUP2 \t\t\t\n      MSTORE \t\t\t\n      PUSH 4\t\t\t\n      ADD \t\t\t\n      PUSH [tag] 187\t\t\t\n      SWAP2 \t\t\t\n      SWAP1 \t\t\t\n      PUSH [tag] 33\t\t\t\n      JUMP \t\t\t\n    tag 187\t\t\t\n      JUMPDEST \t\t\t\n      PUSH 40\t\t\t\n      MLOAD \t\t\t\n      DUP1 \t\t\t\n      SWAP2 \t\t\t\n      SUB \t\t\t\n      SWAP1 \t\t\t\n      REVERT \t\t\t\n    tag 186\t\t\t\n      JUMPDEST \t\t\t\n      POP \t\t\t\n      DUP4 \t\t\t\n      PUSH 0\t\t\t\n      PUSH FFFFFFFFFFFFFFFFFFFFFFFFFFFFFFFFFFFFFFFF\t\t\t\n      AND \t\t\t\n      PUSH 1\t\t\t\n      PUSH 0\t\t\t\n      DUP4 \t\t\t\n      DUP2 \t\t\t\n      MSTORE \t\t\t\n      PUSH 20\t\t\t\n      ADD \t\t\t\n      SWAP1 \t\t\t\n      DUP2 \t\t\t\n      MSTORE \t\t\t\n      PUSH 20\t\t\t\n      ADD \t\t\t\n      PUSH 0\t\t\t\n      KECCAK256 \t\t\t\n      PUSH 0\t\t\t\n      SWAP1 \t\t\t\n      SLOAD \t\t\t\n      SWAP1 \t\t\t\n      PUSH 100\t\t\t\n      EXP \t\t\t\n      SWAP1 \t\t\t\n      DIV \t\t\t\n      PUSH FFFFFFFFFFFFFFFFFFFFFFFFFFFFFFFFFFFFFFFF\t\t\t\n      AND \t\t\t\n      PUSH FFFFFFFFFFFFFFFFFFFFFFFFFFFFFFFFFFFFFFFF\t\t\t\n      AND \t\t\t\n      EQ \t\t\t\n      ISZERO \t\t\t\n      PUSH 40\t\t\t\n      MLOAD \t\t\t\n      DUP1 \t\t\t\n      PUSH 40\t\t\t\n      ADD \t\t\t\n      PUSH 40\t\t\t\n      MSTORE \t\t\t\n      DUP1 \t\t\t\n      PUSH 6\t\t\t\n      DUP2 \t\t\t\n      MSTORE \t\t\t\n      PUSH 20\t\t\t\n      ADD \t\t\t\n      PUSH 3030333030320000000000000000000000000000000000000000000000000000\t\t\t\n      DUP2 \t\t\t\n      MSTORE \t\t\t\n      POP \t\t\t\n      SWAP1 \t\t\t\n      PUSH [tag] 189\t\t\t\n      JUMPI \t\t\t\n      PUSH 40\t\t\t\n      MLOAD \t\t\t\n      PUSH 8C379A000000000000000000000000000000000000000000000000000000000\t\t\t\n      DUP2 \t\t\t\n      MSTORE \t\t\t\n      PUSH 4\t\t\t\n      ADD \t\t\t\n      PUSH [tag] 190\t\t\t\n      SWAP2 \t\t\t\n      SWAP1 \t\t\t\n      PUSH [tag] 33\t\t\t\n      JUMP \t\t\t\n    tag 190\t\t\t\n      JUMPDEST \t\t\t\n      PUSH 40\t\t\t\n      MLOAD \t\t\t\n      DUP1 \t\t\t\n      SWAP2 \t\t\t\n      SUB \t\t\t\n      SWAP1 \t\t\t\n      REVERT \t\t\t\n    tag 189\t\t\t\n      JUMPDEST \t\t\t\n      POP \t\t\t\n      PUSH 0\t\t\t\n      PUSH 1\t\t\t\n      PUSH 0\t\t\t\n      DUP8 \t\t\t\n      DUP2 \t\t\t\n      MSTORE \t\t\t\n      PUSH 20\t\t\t\n      ADD \t\t\t\n      SWAP1 \t\t\t\n      DUP2 \t\t\t\n      MSTORE \t\t\t\n      PUSH 20\t\t\t\n      ADD \t\t\t\n      PUSH 0\t\t\t\n      KECCAK256 \t\t\t\n      PUSH 0\t\t\t\n      SWAP1 \t\t\t\n      SLOAD \t\t\t\n      SWAP1 \t\t\t\n      PUSH 100\t\t\t\n      EXP \t\t\t\n      SWAP1 \t\t\t\n      DIV \t\t\t\n      PUSH FFFFFFFFFFFFFFFFFFFFFFFFFFFFFFFFFFFFFFFF\t\t\t\n      AND \t\t\t\n      SWAP1 \t\t\t\n      POP \t\t\t\n      DUP8 \t\t\t\n      PUSH FFFFFFFFFFFFFFFFFFFFFFFFFFFFFFFFFFFFFFFF\t\t\t\n      AND \t\t\t\n      DUP2 \t\t\t\n      PUSH FFFFFFFFFFFFFFFFFFFFFFFFFFFFFFFFFFFFFFFF\t\t\t\n      AND \t\t\t\n      EQ \t\t\t\n      PUSH 40\t\t\t\n      MLOAD \t\t\t\n      DUP1 \t\t\t\n      PUSH 40\t\t\t\n      ADD \t\t\t\n      PUSH 40\t\t\t\n      MSTORE \t\t\t\n      DUP1 \t\t\t\n      PUSH 6\t\t\t\n      DUP2 \t\t\t\n      MSTORE \t\t\t\n      PUSH 20\t\t\t\n      ADD \t\t\t\n      PUSH 3030333030370000000000000000000000000000000000000000000000000000\t\t\t\n      DUP2 \t\t\t\n      MSTORE \t\t\t\n      POP \t\t\t\n      SWAP1 \t\t\t\n      PUSH [tag] 192\t\t\t\n      JUMPI \t\t\t\n      PUSH 40\t\t\t\n      MLOAD \t\t\t\n      PUSH 8C379A000000000000000000000000000000000000000000000000000000000\t\t\t\n      DUP2 \t\t\t\n      MSTORE \t\t\t\n      PUSH 4\t\t\t\n      ADD \t\t\t\n      PUSH [tag] 193\t\t\t\n      SWAP2 \t\t\t\n      SWAP1 \t\t\t\n      PUSH [tag] 33\t\t\t\n      JUMP \t\t\t\n    tag 193\t\t\t\n      JUMPDEST \t\t\t\n      PUSH 40\t\t\t\n      MLOAD \t\t\t\n      DUP1 \t\t\t\n      SWAP2 \t\t\t\n      SUB \t\t\t\n      SWAP1 \t\t\t\n      REVERT \t\t\t\n    tag 192\t\t\t\n      JUMPDEST \t\t\t\n      POP \t\t\t\n      PUSH 0\t\t\t\n      PUSH FFFFFFFFFFFFFFFFFFFFFFFFFFFFFFFFFFFFFFFF\t\t\t\n      AND \t\t\t\n      DUP8 \t\t\t\n      PUSH FFFFFFFFFFFFFFFFFFFFFFFFFFFFFFFFFFFFFFFF\t\t\t\n      AND \t\t\t\n      EQ \t\t\t\n      ISZERO \t\t\t\n      PUSH 40\t\t\t\n      MLOAD \t\t\t\n      DUP1 \t\t\t\n      PUSH 40\t\t\t\n      ADD \t\t\t\n      PUSH 40\t\t\t\n      MSTORE \t\t\t\n      DUP1 \t\t\t\n      PUSH 6\t\t\t\n      DUP2 \t\t\t\n      MSTORE \t\t\t\n      PUSH 20\t\t\t\n      ADD \t\t\t\n      PUSH 3030333030310000000000000000000000000000000000000000000000000000\t\t\t\n      DUP2 \t\t\t\n      MSTORE \t\t\t\n      POP \t\t\t\n      SWAP1 \t\t\t\n      PUSH [tag] 194\t\t\t\n      JUMPI \t\t\t\n      PUSH 40\t\t\t\n      MLOAD \t\t\t\n      PUSH 8C379A000000000000000000000000000000000000000000000000000000000\t\t\t\n      DUP2 \t\t\t\n      MSTORE \t\t\t\n      PUSH 4\t\t\t\n      ADD \t\t\t\n      PUSH [tag] 195\t\t\t\n      SWAP2 \t\t\t\n      SWAP1 \t\t\t\n      PUSH [tag] 33\t\t\t\n      JUMP \t\t\t\n    tag 195\t\t\t\n      JUMPDEST \t\t\t\n      PUSH 40\t\t\t\n      MLOAD \t\t\t\n      DUP1 \t\t\t\n      SWAP2 \t\t\t\n      SUB \t\t\t\n      SWAP1 \t\t\t\n      REVERT \t\t\t\n    tag 194\t\t\t\n      JUMPDEST \t\t\t\n      POP \t\t\t\n      PUSH [tag] 196\t\t\t\n      DUP8 \t\t\t\n      DUP8 \t\t\t\n      PUSH [tag] 133\t\t\t\n      JUMP \t\t\t\n    tag 196\t\t\t\n      JUMPDEST \t\t\t\n      PUSH [tag] 197\t\t\t\n      DUP8 \t\t\t\n      PUSH FFFFFFFFFFFFFFFFFFFFFFFFFFFFFFFFFFFFFFFF\t\t\t\n      AND \t\t\t\n      PUSH [tag] 198\t\t\t\n      JUMP \t\t\t\n    tag 197\t\t\t\n      JUMPDEST \t\t\t\n      ISZERO \t\t\t\n      PUSH [tag] 199\t\t\t\n      JUMPI \t\t\t\n      PUSH 0\t\t\t\n      DUP8 \t\t\t\n      PUSH FFFFFFFFFFFFFFFFFFFFFFFFFFFFFFFFFFFFFFFF\t\t\t\n      AND \t\t\t\n      PUSH 150B7A02\t\t\t\n      CALLER \t\t\t\n      DUP12 \t\t\t\n      DUP11 \t\t\t\n      DUP11 \t\t\t\n      PUSH 40\t\t\t\n      MLOAD \t\t\t\n      DUP6 \t\t\t\n      PUSH FFFFFFFF\t\t\t\n      AND \t\t\t\n      PUSH E0\t\t\t\n      SHL \t\t\t\n      DUP2 \t\t\t\n      MSTORE \t\t\t\n      PUSH 4\t\t\t\n      ADD \t\t\t\n      PUSH [tag] 200\t\t\t\n      SWAP5 \t\t\t\n      SWAP4 \t\t\t\n      SWAP3 \t\t\t\n      SWAP2 \t\t\t\n      SWAP1 \t\t\t\n      PUSH [tag] 201\t\t\t\n      JUMP \t\t\t\n    tag 200\t\t\t\n      JUMPDEST \t\t\t\n      PUSH 20\t\t\t\n      PUSH 40\t\t\t\n      MLOAD \t\t\t\n      DUP1 \t\t\t\n      DUP4 \t\t\t\n      SUB \t\t\t\n      DUP2 \t\t\t\n      PUSH 0\t\t\t\n      DUP8 \t\t\t\n      GAS \t\t\t\n      CALL \t\t\t\n      ISZERO \t\t\t\n      DUP1 \t\t\t\n      ISZERO \t\t\t\n      PUSH [tag] 203\t\t\t\n      JUMPI \t\t\t\n      RETURNDATASIZE \t\t\t\n      PUSH 0\t\t\t\n      DUP1 \t\t\t\n      RETURNDATACOPY \t\t\t\n      RETURNDATASIZE \t\t\t\n      PUSH 0\t\t\t\n      REVERT \t\t\t\n    tag 203\t\t\t\n      JUMPDEST \t\t\t\n      POP \t\t\t\n      POP \t\t\t\n      POP \t\t\t\n      POP \t\t\t\n      PUSH 40\t\t\t\n      MLOAD \t\t\t\n      RETURNDATASIZE \t\t\t\n      PUSH 1F\t\t\t\n      NOT \t\t\t\n      PUSH 1F\t\t\t\n      DUP3 \t\t\t\n      ADD \t\t\t\n      AND \t\t\t\n      DUP3 \t\t\t\n      ADD \t\t\t\n      DUP1 \t\t\t\n      PUSH 40\t\t\t\n      MSTORE \t\t\t\n      POP \t\t\t\n      DUP2 \t\t\t\n      ADD \t\t\t\n      SWAP1 \t\t\t\n      PUSH [tag] 204\t\t\t\n      SWAP2 \t\t\t\n      SWAP1 \t\t\t\n      PUSH [tag] 205\t\t\t\n      JUMP \t\t\t\n    tag 204\t\t\t\n      JUMPDEST \t\t\t\n      SWAP1 \t\t\t\n      POP \t\t\t\n      PUSH 150B7A02\t\t\t\n      PUSH E0\t\t\t\n      SHL \t\t\t\n      PUSH FFFFFFFFFFFFFFFFFFFFFFFFFFFFFFFFFFFFFFFFFFFFFFFFFFFFFFFF\t\t\t\n      NOT \t\t\t\n      AND \t\t\t\n      DUP2 \t\t\t\n      PUSH FFFFFFFFFFFFFFFFFFFFFFFFFFFFFFFFFFFFFFFFFFFFFFFFFFFFFFFF\t\t\t\n      NOT \t\t\t\n      AND \t\t\t\n      EQ \t\t\t\n      PUSH 40\t\t\t\n      MLOAD \t\t\t\n      DUP1 \t\t\t\n      PUSH 40\t\t\t\n      ADD \t\t\t\n      PUSH 40\t\t\t\n      MSTORE \t\t\t\n      DUP1 \t\t\t\n      PUSH 6\t\t\t\n      DUP2 \t\t\t\n      MSTORE \t\t\t\n      PUSH 20\t\t\t\n      ADD \t\t\t\n      PUSH 3030333030350000000000000000000000000000000000000000000000000000\t\t\t\n      DUP2 \t\t\t\n      MSTORE \t\t\t\n      POP \t\t\t\n      SWAP1 \t\t\t\n      PUSH [tag] 206\t\t\t\n      JUMPI \t\t\t\n      PUSH 40\t\t\t\n      MLOAD \t\t\t\n      PUSH 8C379A000000000000000000000000000000000000000000000000000000000\t\t\t\n      DUP2 \t\t\t\n      MSTORE \t\t\t\n      PUSH 4\t\t\t\n      ADD \t\t\t\n      PUSH [tag] 207\t\t\t\n      SWAP2 \t\t\t\n      SWAP1 \t\t\t\n      PUSH [tag] 33\t\t\t\n      JUMP \t\t\t\n    tag 207\t\t\t\n      JUMPDEST \t\t\t\n      PUSH 40\t\t\t\n      MLOAD \t\t\t\n      DUP1 \t\t\t\n      SWAP2 \t\t\t\n      SUB \t\t\t\n      SWAP1 \t\t\t\n      REVERT \t\t\t\n    tag 206\t\t\t\n      JUMPDEST \t\t\t\n      POP \t\t\t\n      POP \t\t\t\n    tag 199\t\t\t\n      JUMPDEST \t\t\t\n      POP \t\t\t\n      POP \t\t\t\n      POP \t\t\t\n      POP \t\t\t\n      POP \t\t\t\n      POP \t\t\t\n      POP \t\t\t\n      POP \t\t\t\n      JUMP \t\t\t\n    tag 144\t\t\t\n      JUMPDEST \t\t\t\n      PUSH 0\t\t\t\n      PUSH 3\t\t\t\n      PUSH 0\t\t\t\n      DUP4 \t\t\t\n      PUSH FFFFFFFFFFFFFFFFFFFFFFFFFFFFFFFFFFFFFFFF\t\t\t\n      AND \t\t\t\n      PUSH FFFFFFFFFFFFFFFFFFFFFFFFFFFFFFFFFFFFFFFF\t\t\t\n      AND \t\t\t\n      DUP2 \t\t\t\n      MSTORE \t\t\t\n      PUSH 20\t\t\t\n      ADD \t\t\t\n      SWAP1 \t\t\t\n      DUP2 \t\t\t\n      MSTORE \t\t\t\n      PUSH 20\t\t\t\n      ADD \t\t\t\n      PUSH 0\t\t\t\n      KECCAK256 \t\t\t\n      SLOAD \t\t\t\n      SWAP1 \t\t\t\n      POP \t\t\t\n      SWAP2 \t\t\t\n      SWAP1 \t\t\t\n      POP \t\t\t\n      JUMP \t\t\t\n    tag 160\t\t\t\n      JUMPDEST \t\t\t\n      PUSH 60\t\t\t\n      PUSH 7\t\t\t\n      PUSH 0\t\t\t\n      DUP4 \t\t\t\n      DUP2 \t\t\t\n      MSTORE \t\t\t\n      PUSH 20\t\t\t\n      ADD \t\t\t\n      SWAP1 \t\t\t\n      DUP2 \t\t\t\n      MSTORE \t\t\t\n      PUSH 20\t\t\t\n      ADD \t\t\t\n      PUSH 0\t\t\t\n      KECCAK256 \t\t\t\n      DUP1 \t\t\t\n      SLOAD \t\t\t\n      PUSH [tag] 210\t\t\t\n      SWAP1 \t\t\t\n      PUSH [tag] 100\t\t\t\n      JUMP \t\t\t\n    tag 210\t\t\t\n      JUMPDEST \t\t\t\n      DUP1 \t\t\t\n      PUSH 1F\t\t\t\n      ADD \t\t\t\n      PUSH 20\t\t\t\n      DUP1 \t\t\t\n      SWAP2 \t\t\t\n      DIV \t\t\t\n      MUL \t\t\t\n      PUSH 20\t\t\t\n      ADD \t\t\t\n      PUSH 40\t\t\t\n      MLOAD \t\t\t\n      SWAP1 \t\t\t\n      DUP2 \t\t\t\n      ADD \t\t\t\n      PUSH 40\t\t\t\n      MSTORE \t\t\t\n      DUP1 \t\t\t\n      SWAP3 \t\t\t\n      SWAP2 \t\t\t\n      SWAP1 \t\t\t\n      DUP2 \t\t\t\n      DUP2 \t\t\t\n      MSTORE \t\t\t\n      PUSH 20\t\t\t\n      ADD \t\t\t\n      DUP3 \t\t\t\n      DUP1 \t\t\t\n      SLOAD \t\t\t\n      PUSH [tag] 211\t\t\t\n      SWAP1 \t\t\t\n      PUSH [tag] 100\t\t\t\n      JUMP \t\t\t\n    tag 211\t\t\t\n      JUMPDEST \t\t\t\n      DUP1 \t\t\t\n      ISZERO \t\t\t\n      PUSH [tag] 212\t\t\t\n      JUMPI \t\t\t\n      DUP1 \t\t\t\n      PUSH 1F\t\t\t\n      LT \t\t\t\n      PUSH [tag] 213\t\t\t\n      JUMPI \t\t\t\n      PUSH 100\t\t\t\n      DUP1 \t\t\t\n      DUP4 \t\t\t\n      SLOAD \t\t\t\n      DIV \t\t\t\n      MUL \t\t\t\n      DUP4 \t\t\t\n      MSTORE \t\t\t\n      SWAP2 \t\t\t\n      PUSH 20\t\t\t\n      ADD \t\t\t\n      SWAP2 \t\t\t\n      PUSH [tag] 212\t\t\t\n      JUMP \t\t\t\n    tag 213\t\t\t\n      JUMPDEST \t\t\t\n      DUP3 \t\t\t\n      ADD \t\t\t\n      SWAP2 \t\t\t\n      SWAP1 \t\t\t\n      PUSH 0\t\t\t\n      MSTORE \t\t\t\n      PUSH 20\t\t\t\n      PUSH 0\t\t\t\n      KECCAK256 \t\t\t\n      SWAP1 \t\t\t\n    tag 214\t\t\t\n      JUMPDEST \t\t\t\n      DUP2 \t\t\t\n      SLOAD \t\t\t\n      DUP2 \t\t\t\n      MSTORE \t\t\t\n      SWAP1 \t\t\t\n      PUSH 1\t\t\t\n      ADD \t\t\t\n      SWAP1 \t\t\t\n      PUSH 20\t\t\t\n      ADD \t\t\t\n      DUP1 \t\t\t\n      DUP4 \t\t\t\n      GT \t\t\t\n      PUSH [tag] 214\t\t\t\n      JUMPI \t\t\t\n      DUP3 \t\t\t\n      SWAP1 \t\t\t\n      SUB \t\t\t\n      PUSH 1F\t\t\t\n      AND \t\t\t\n      DUP3 \t\t\t\n      ADD \t\t\t\n      SWAP2 \t\t\t\n    tag 212\t\t\t\n      JUMPDEST \t\t\t\n      POP \t\t\t\n      POP \t\t\t\n      POP \t\t\t\n      POP \t\t\t\n      POP \t\t\t\n      SWAP1 \t\t\t\n      POP \t\t\t\n      SWAP2 \t\t\t\n      SWAP1 \t\t\t\n      POP \t\t\t\n      JUMP \t\t\t\n    tag 173\t\t\t\n      JUMPDEST \t\t\t\n      PUSH 0\t\t\t\n      PUSH FFFFFFFFFFFFFFFFFFFFFFFFFFFFFFFFFFFFFFFF\t\t\t\n      AND \t\t\t\n      DUP3 \t\t\t\n      PUSH FFFFFFFFFFFFFFFFFFFFFFFFFFFFFFFFFFFFFFFF\t\t\t\n      AND \t\t\t\n      EQ \t\t\t\n      ISZERO \t\t\t\n      PUSH 40\t\t\t\n      MLOAD \t\t\t\n      DUP1 \t\t\t\n      PUSH 40\t\t\t\n      ADD \t\t\t\n      PUSH 40\t\t\t\n      MSTORE \t\t\t\n      DUP1 \t\t\t\n      PUSH 6\t\t\t\n      DUP2 \t\t\t\n      MSTORE \t\t\t\n      PUSH 20\t\t\t\n      ADD \t\t\t\n      PUSH 3030333030310000000000000000000000000000000000000000000000000000\t\t\t\n      DUP2 \t\t\t\n      MSTORE \t\t\t\n      POP \t\t\t\n      SWAP1 \t\t\t\n      PUSH [tag] 216\t\t\t\n      JUMPI \t\t\t\n      PUSH 40\t\t\t\n      MLOAD \t\t\t\n      PUSH 8C379A000000000000000000000000000000000000000000000000000000000\t\t\t\n      DUP2 \t\t\t\n      MSTORE \t\t\t\n      PUSH 4\t\t\t\n      ADD \t\t\t\n      PUSH [tag] 217\t\t\t\n      SWAP2 \t\t\t\n      SWAP1 \t\t\t\n      PUSH [tag] 33\t\t\t\n      JUMP \t\t\t\n    tag 217\t\t\t\n      JUMPDEST \t\t\t\n      PUSH 40\t\t\t\n      MLOAD \t\t\t\n      DUP1 \t\t\t\n      SWAP2 \t\t\t\n      SUB \t\t\t\n      SWAP1 \t\t\t\n      REVERT \t\t\t\n    tag 216\t\t\t\n      JUMPDEST \t\t\t\n      POP \t\t\t\n      PUSH 0\t\t\t\n      PUSH FFFFFFFFFFFFFFFFFFFFFFFFFFFFFFFFFFFFFFFF\t\t\t\n      AND \t\t\t\n      PUSH 1\t\t\t\n      PUSH 0\t\t\t\n      DUP4 \t\t\t\n      DUP2 \t\t\t\n      MSTORE \t\t\t\n      PUSH 20\t\t\t\n      ADD \t\t\t\n      SWAP1 \t\t\t\n      DUP2 \t\t\t\n      MSTORE \t\t\t\n      PUSH 20\t\t\t\n      ADD \t\t\t\n      PUSH 0\t\t\t\n      KECCAK256 \t\t\t\n      PUSH 0\t\t\t\n      SWAP1 \t\t\t\n      SLOAD \t\t\t\n      SWAP1 \t\t\t\n      PUSH 100\t\t\t\n      EXP \t\t\t\n      SWAP1 \t\t\t\n      DIV \t\t\t\n      PUSH FFFFFFFFFFFFFFFFFFFFFFFFFFFFFFFFFFFFFFFF\t\t\t\n      AND \t\t\t\n      PUSH FFFFFFFFFFFFFFFFFFFFFFFFFFFFFFFFFFFFFFFF\t\t\t\n      AND \t\t\t\n      EQ \t\t\t\n      PUSH 40\t\t\t\n      MLOAD \t\t\t\n      DUP1 \t\t\t\n      PUSH 40\t\t\t\n      ADD \t\t\t\n      PUSH 40\t\t\t\n      MSTORE \t\t\t\n      DUP1 \t\t\t\n      PUSH 6\t\t\t\n      DUP2 \t\t\t\n      MSTORE \t\t\t\n      PUSH 20\t\t\t\n      ADD \t\t\t\n      PUSH 3030333030360000000000000000000000000000000000000000000000000000\t\t\t\n      DUP2 \t\t\t\n      MSTORE \t\t\t\n      POP \t\t\t\n      SWAP1 \t\t\t\n      PUSH [tag] 218\t\t\t\n      JUMPI \t\t\t\n      PUSH 40\t\t\t\n      MLOAD \t\t\t\n      PUSH 8C379A000000000000000000000000000000000000000000000000000000000\t\t\t\n      DUP2 \t\t\t\n      MSTORE \t\t\t\n      PUSH 4\t\t\t\n      ADD \t\t\t\n      PUSH [tag] 219\t\t\t\n      SWAP2 \t\t\t\n      SWAP1 \t\t\t\n      PUSH [tag] 33\t\t\t\n      JUMP \t\t\t\n    tag 219\t\t\t\n      JUMPDEST \t\t\t\n      PUSH 40\t\t\t\n      MLOAD \t\t\t\n      DUP1 \t\t\t\n      SWAP2 \t\t\t\n      SUB \t\t\t\n      SWAP1 \t\t\t\n      REVERT \t\t\t\n    tag 218\t\t\t\n      JUMPDEST \t\t\t\n      POP \t\t\t\n      PUSH [tag] 220\t\t\t\n      DUP3 \t\t\t\n      DUP3 \t\t\t\n      PUSH [tag] 182\t\t\t\n      JUMP \t\t\t\n    tag 220\t\t\t\n      JUMPDEST \t\t\t\n      DUP1 \t\t\t\n      DUP3 \t\t\t\n      PUSH FFFFFFFFFFFFFFFFFFFFFFFFFFFFFFFFFFFFFFFF\t\t\t\n      AND \t\t\t\n      PUSH 0\t\t\t\n      PUSH FFFFFFFFFFFFFFFFFFFFFFFFFFFFFFFFFFFFFFFF\t\t\t\n      AND \t\t\t\n      PUSH DDF252AD1BE2C89B69C2B068FC378DAA952BA7F163C4A11628F55A4DF523B3EF\t\t\t\n      PUSH 40\t\t\t\n      MLOAD \t\t\t\n      PUSH 40\t\t\t\n      MLOAD \t\t\t\n      DUP1 \t\t\t\n      SWAP2 \t\t\t\n      SUB \t\t\t\n      SWAP1 \t\t\t\n      LOG4 \t\t\t\n      POP \t\t\t\n      POP \t\t\t\n      JUMP \t\t\t\n    tag 175\t\t\t\n      JUMPDEST \t\t\t\n      DUP2 \t\t\t\n      PUSH 0\t\t\t\n      PUSH FFFFFFFFFFFFFFFFFFFFFFFFFFFFFFFFFFFFFFFF\t\t\t\n      AND \t\t\t\n      PUSH 1\t\t\t\n      PUSH 0\t\t\t\n      DUP4 \t\t\t\n      DUP2 \t\t\t\n      MSTORE \t\t\t\n      PUSH 20\t\t\t\n      ADD \t\t\t\n      SWAP1 \t\t\t\n      DUP2 \t\t\t\n      MSTORE \t\t\t\n      PUSH 20\t\t\t\n      ADD \t\t\t\n      PUSH 0\t\t\t\n      KECCAK256 \t\t\t\n      PUSH 0\t\t\t\n      SWAP1 \t\t\t\n      SLOAD \t\t\t\n      SWAP1 \t\t\t\n      PUSH 100\t\t\t\n      EXP \t\t\t\n      SWAP1 \t\t\t\n      DIV \t\t\t\n      PUSH FFFFFFFFFFFFFFFFFFFFFFFFFFFFFFFFFFFFFFFF\t\t\t\n      AND \t\t\t\n      PUSH FFFFFFFFFFFFFFFFFFFFFFFFFFFFFFFFFFFFFFFF\t\t\t\n      AND \t\t\t\n      EQ \t\t\t\n      ISZERO \t\t\t\n      PUSH 40\t\t\t\n      MLOAD \t\t\t\n      DUP1 \t\t\t\n      PUSH 40\t\t\t\n      ADD \t\t\t\n      PUSH 40\t\t\t\n      MSTORE \t\t\t\n      DUP1 \t\t\t\n      PUSH 6\t\t\t\n      DUP2 \t\t\t\n      MSTORE \t\t\t\n      PUSH 20\t\t\t\n      ADD \t\t\t\n      PUSH 3030333030320000000000000000000000000000000000000000000000000000\t\t\t\n      DUP2 \t\t\t\n      MSTORE \t\t\t\n      POP \t\t\t\n      SWAP1 \t\t\t\n      PUSH [tag] 222\t\t\t\n      JUMPI \t\t\t\n      PUSH 40\t\t\t\n      MLOAD \t\t\t\n      PUSH 8C379A000000000000000000000000000000000000000000000000000000000\t\t\t\n      DUP2 \t\t\t\n      MSTORE \t\t\t\n      PUSH 4\t\t\t\n      ADD \t\t\t\n      PUSH [tag] 223\t\t\t\n      SWAP2 \t\t\t\n      SWAP1 \t\t\t\n      PUSH [tag] 33\t\t\t\n      JUMP \t\t\t\n    tag 223\t\t\t\n      JUMPDEST \t\t\t\n      PUSH 40\t\t\t\n      MLOAD \t\t\t\n      DUP1 \t\t\t\n      SWAP2 \t\t\t\n      SUB \t\t\t\n      SWAP1 \t\t\t\n      REVERT \t\t\t\n    tag 222\t\t\t\n      JUMPDEST \t\t\t\n      POP \t\t\t\n      DUP2 \t\t\t\n      PUSH 7\t\t\t\n      PUSH 0\t\t\t\n      DUP6 \t\t\t\n      DUP2 \t\t\t\n      MSTORE \t\t\t\n      PUSH 20\t\t\t\n      ADD \t\t\t\n      SWAP1 \t\t\t\n      DUP2 \t\t\t\n      MSTORE \t\t\t\n      PUSH 20\t\t\t\n      ADD \t\t\t\n      PUSH 0\t\t\t\n      KECCAK256 \t\t\t\n      SWAP1 \t\t\t\n      DUP2 \t\t\t\n      PUSH [tag] 225\t\t\t\n      SWAP2 \t\t\t\n      SWAP1 \t\t\t\n      PUSH [tag] 226\t\t\t\n      JUMP \t\t\t\n    tag 225\t\t\t\n      JUMPDEST \t\t\t\n      POP \t\t\t\n      POP \t\t\t\n      POP \t\t\t\n      POP \t\t\t\n      JUMP \t\t\t\n    tag 178\t\t\t\n      JUMPDEST \t\t\t\n      PUSH 2\t\t\t\n      PUSH 0\t\t\t\n      DUP3 \t\t\t\n      DUP2 \t\t\t\n      MSTORE \t\t\t\n      PUSH 20\t\t\t\n      ADD \t\t\t\n      SWAP1 \t\t\t\n      DUP2 \t\t\t\n      MSTORE \t\t\t\n      PUSH 20\t\t\t\n      ADD \t\t\t\n      PUSH 0\t\t\t\n      KECCAK256 \t\t\t\n      PUSH 0\t\t\t\n      PUSH 100\t\t\t\n      EXP \t\t\t\n      DUP2 \t\t\t\n      SLOAD \t\t\t\n      SWAP1 \t\t\t\n      PUSH FFFFFFFFFFFFFFFFFFFFFFFFFFFFFFFFFFFFFFFF\t\t\t\n      MUL \t\t\t\n      NOT \t\t\t\n      AND \t\t\t\n      SWAP1 \t\t\t\n      SSTORE \t\t\t\n      POP \t\t\t\n      JUMP \t\t\t\n    tag 180\t\t\t\n      JUMPDEST \t\t\t\n      DUP2 \t\t\t\n      PUSH FFFFFFFFFFFFFFFFFFFFFFFFFFFFFFFFFFFFFFFF\t\t\t\n      AND \t\t\t\n      PUSH 1\t\t\t\n      PUSH 0\t\t\t\n      DUP4 \t\t\t\n      DUP2 \t\t\t\n      MSTORE \t\t\t\n      PUSH 20\t\t\t\n      ADD \t\t\t\n      SWAP1 \t\t\t\n      DUP2 \t\t\t\n      MSTORE \t\t\t\n      PUSH 20\t\t\t\n      ADD \t\t\t\n      PUSH 0\t\t\t\n      KECCAK256 \t\t\t\n      PUSH 0\t\t\t\n      SWAP1 \t\t\t\n      SLOAD \t\t\t\n      SWAP1 \t\t\t\n      PUSH 100\t\t\t\n      EXP \t\t\t\n      SWAP1 \t\t\t\n      DIV \t\t\t\n      PUSH FFFFFFFFFFFFFFFFFFFFFFFFFFFFFFFFFFFFFFFF\t\t\t\n      AND \t\t\t\n      PUSH FFFFFFFFFFFFFFFFFFFFFFFFFFFFFFFFFFFFFFFF\t\t\t\n      AND \t\t\t\n      EQ \t\t\t\n      PUSH 40\t\t\t\n      MLOAD \t\t\t\n      DUP1 \t\t\t\n      PUSH 40\t\t\t\n      ADD \t\t\t\n      PUSH 40\t\t\t\n      MSTORE \t\t\t\n      DUP1 \t\t\t\n      PUSH 6\t\t\t\n      DUP2 \t\t\t\n      MSTORE \t\t\t\n      PUSH 20\t\t\t\n      ADD \t\t\t\n      PUSH 3030333030370000000000000000000000000000000000000000000000000000\t\t\t\n      DUP2 \t\t\t\n      MSTORE \t\t\t\n      POP \t\t\t\n      SWAP1 \t\t\t\n      PUSH [tag] 229\t\t\t\n      JUMPI \t\t\t\n      PUSH 40\t\t\t\n      MLOAD \t\t\t\n      PUSH 8C379A000000000000000000000000000000000000000000000000000000000\t\t\t\n      DUP2 \t\t\t\n      MSTORE \t\t\t\n      PUSH 4\t\t\t\n      ADD \t\t\t\n      PUSH [tag] 230\t\t\t\n      SWAP2 \t\t\t\n      SWAP1 \t\t\t\n      PUSH [tag] 33\t\t\t\n      JUMP \t\t\t\n    tag 230\t\t\t\n      JUMPDEST \t\t\t\n      PUSH 40\t\t\t\n      MLOAD \t\t\t\n      DUP1 \t\t\t\n      SWAP2 \t\t\t\n      SUB \t\t\t\n      SWAP1 \t\t\t\n      REVERT \t\t\t\n    tag 229\t\t\t\n      JUMPDEST \t\t\t\n      POP \t\t\t\n      PUSH 1\t\t\t\n      PUSH 3\t\t\t\n      PUSH 0\t\t\t\n      DUP5 \t\t\t\n      PUSH FFFFFFFFFFFFFFFFFFFFFFFFFFFFFFFFFFFFFFFF\t\t\t\n      AND \t\t\t\n      PUSH FFFFFFFFFFFFFFFFFFFFFFFFFFFFFFFFFFFFFFFF\t\t\t\n      AND \t\t\t\n      DUP2 \t\t\t\n      MSTORE \t\t\t\n      PUSH 20\t\t\t\n      ADD \t\t\t\n      SWAP1 \t\t\t\n      DUP2 \t\t\t\n      MSTORE \t\t\t\n      PUSH 20\t\t\t\n      ADD \t\t\t\n      PUSH 0\t\t\t\n      KECCAK256 \t\t\t\n      PUSH 0\t\t\t\n      DUP3 \t\t\t\n      DUP3 \t\t\t\n      SLOAD \t\t\t\n      PUSH [tag] 231\t\t\t\n      SWAP2 \t\t\t\n      SWAP1 \t\t\t\n      PUSH [tag] 232\t\t\t\n      JUMP \t\t\t\n    tag 231\t\t\t\n      JUMPDEST \t\t\t\n      SWAP3 \t\t\t\n      POP \t\t\t\n      POP \t\t\t\n      DUP2 \t\t\t\n      SWAP1 \t\t\t\n      SSTORE \t\t\t\n      POP \t\t\t\n      PUSH 1\t\t\t\n      PUSH 0\t\t\t\n      DUP3 \t\t\t\n      DUP2 \t\t\t\n      MSTORE \t\t\t\n      PUSH 20\t\t\t\n      ADD \t\t\t\n      SWAP1 \t\t\t\n      DUP2 \t\t\t\n      MSTORE \t\t\t\n      PUSH 20\t\t\t\n      ADD \t\t\t\n      PUSH 0\t\t\t\n      KECCAK256 \t\t\t\n      PUSH 0\t\t\t\n      PUSH 100\t\t\t\n      EXP \t\t\t\n      DUP2 \t\t\t\n      SLOAD \t\t\t\n      SWAP1 \t\t\t\n      PUSH FFFFFFFFFFFFFFFFFFFFFFFFFFFFFFFFFFFFFFFF\t\t\t\n      MUL \t\t\t\n      NOT \t\t\t\n      AND \t\t\t\n      SWAP1 \t\t\t\n      SSTORE \t\t\t\n      POP \t\t\t\n      POP \t\t\t\n      JUMP \t\t\t\n    tag 182\t\t\t\n      JUMPDEST \t\t\t\n      PUSH 0\t\t\t\n      PUSH FFFFFFFFFFFFFFFFFFFFFFFFFFFFFFFFFFFFFFFF\t\t\t\n      AND \t\t\t\n      PUSH 1\t\t\t\n      PUSH 0\t\t\t\n      DUP4 \t\t\t\n      DUP2 \t\t\t\n      MSTORE \t\t\t\n      PUSH 20\t\t\t\n      ADD \t\t\t\n      SWAP1 \t\t\t\n      DUP2 \t\t\t\n      MSTORE \t\t\t\n      PUSH 20\t\t\t\n      ADD \t\t\t\n      PUSH 0\t\t\t\n      KECCAK256 \t\t\t\n      PUSH 0\t\t\t\n      SWAP1 \t\t\t\n      SLOAD \t\t\t\n      SWAP1 \t\t\t\n      PUSH 100\t\t\t\n      EXP \t\t\t\n      SWAP1 \t\t\t\n      DIV \t\t\t\n      PUSH FFFFFFFFFFFFFFFFFFFFFFFFFFFFFFFFFFFFFFFF\t\t\t\n      AND \t\t\t\n      PUSH FFFFFFFFFFFFFFFFFFFFFFFFFFFFFFFFFFFFFFFF\t\t\t\n      AND \t\t\t\n      EQ \t\t\t\n      PUSH 40\t\t\t\n      MLOAD \t\t\t\n      DUP1 \t\t\t\n      PUSH 40\t\t\t\n      ADD \t\t\t\n      PUSH 40\t\t\t\n      MSTORE \t\t\t\n      DUP1 \t\t\t\n      PUSH 6\t\t\t\n      DUP2 \t\t\t\n      MSTORE \t\t\t\n      PUSH 20\t\t\t\n      ADD \t\t\t\n      PUSH 3030333030360000000000000000000000000000000000000000000000000000\t\t\t\n      DUP2 \t\t\t\n      MSTORE \t\t\t\n      POP \t\t\t\n      SWAP1 \t\t\t\n      PUSH [tag] 234\t\t\t\n      JUMPI \t\t\t\n      PUSH 40\t\t\t\n      MLOAD \t\t\t\n      PUSH 8C379A000000000000000000000000000000000000000000000000000000000\t\t\t\n      DUP2 \t\t\t\n      MSTORE \t\t\t\n      PUSH 4\t\t\t\n      ADD \t\t\t\n      PUSH [tag] 235\t\t\t\n      SWAP2 \t\t\t\n      SWAP1 \t\t\t\n      PUSH [tag] 33\t\t\t\n      JUMP \t\t\t\n    tag 235\t\t\t\n      JUMPDEST \t\t\t\n      PUSH 40\t\t\t\n      MLOAD \t\t\t\n      DUP1 \t\t\t\n      SWAP2 \t\t\t\n      SUB \t\t\t\n      SWAP1 \t\t\t\n      REVERT \t\t\t\n    tag 234\t\t\t\n      JUMPDEST \t\t\t\n      POP \t\t\t\n      DUP2 \t\t\t\n      PUSH 1\t\t\t\n      PUSH 0\t\t\t\n      DUP4 \t\t\t\n      DUP2 \t\t\t\n      MSTORE \t\t\t\n      PUSH 20\t\t\t\n      ADD \t\t\t\n      SWAP1 \t\t\t\n      DUP2 \t\t\t\n      MSTORE \t\t\t\n      PUSH 20\t\t\t\n      ADD \t\t\t\n      PUSH 0\t\t\t\n      KECCAK256 \t\t\t\n      PUSH 0\t\t\t\n      PUSH 100\t\t\t\n      EXP \t\t\t\n      DUP2 \t\t\t\n      SLOAD \t\t\t\n      DUP2 \t\t\t\n      PUSH FFFFFFFFFFFFFFFFFFFFFFFFFFFFFFFFFFFFFFFF\t\t\t\n      MUL \t\t\t\n      NOT \t\t\t\n      AND \t\t\t\n      SWAP1 \t\t\t\n      DUP4 \t\t\t\n      PUSH FFFFFFFFFFFFFFFFFFFFFFFFFFFFFFFFFFFFFFFF\t\t\t\n      AND \t\t\t\n      MUL \t\t\t\n      OR \t\t\t\n      SWAP1 \t\t\t\n      SSTORE \t\t\t\n      POP \t\t\t\n      PUSH 1\t\t\t\n      PUSH 3\t\t\t\n      PUSH 0\t\t\t\n      DUP5 \t\t\t\n      PUSH FFFFFFFFFFFFFFFFFFFFFFFFFFFFFFFFFFFFFFFF\t\t\t\n      AND \t\t\t\n      PUSH FFFFFFFFFFFFFFFFFFFFFFFFFFFFFFFFFFFFFFFF\t\t\t\n      AND \t\t\t\n      DUP2 \t\t\t\n      MSTORE \t\t\t\n      PUSH 20\t\t\t\n      ADD \t\t\t\n      SWAP1 \t\t\t\n      DUP2 \t\t\t\n      MSTORE \t\t\t\n      PUSH 20\t\t\t\n      ADD \t\t\t\n      PUSH 0\t\t\t\n      KECCAK256 \t\t\t\n      PUSH 0\t\t\t\n      DUP3 \t\t\t\n      DUP3 \t\t\t\n      SLOAD \t\t\t\n      PUSH [tag] 236\t\t\t\n      SWAP2 \t\t\t\n      SWAP1 \t\t\t\n      PUSH [tag] 237\t\t\t\n      JUMP \t\t\t\n    tag 236\t\t\t\n      JUMPDEST \t\t\t\n      SWAP3 \t\t\t\n      POP \t\t\t\n      POP \t\t\t\n      DUP2 \t\t\t\n      SWAP1 \t\t\t\n      SSTORE \t\t\t\n      POP \t\t\t\n      POP \t\t\t\n      POP \t\t\t\n      JUMP \t\t\t\n    tag 198\t\t\ttructor() {\\n    nftName = \"fc...\n      JUMPDEST \t\t\ttructor() {\\n    nftName = \"fc...\n      PUSH 0\t\t\tn metamask(addres\n      DUP1 \t\t\t\n      PUSH 0\t\t\t\n      PUSH C5D2460186F7233C927E7DB2DCC703C0E500B653CA82273B7BFAD8045D85A470\t\t\t\n      PUSH 0\t\t\t\n      SHL \t\t\t\n      SWAP1 \t\t\t\n      POP \t\t\t\n      DUP4 \t\t\t\n      EXTCODEHASH \t\t\t\n      SWAP2 \t\t\t\n      POP \t\t\t\n      PUSH 0\t\t\t\n      DUP1 \t\t\t\n      SHL \t\t\t\n      DUP3 \t\t\t\n      EQ \t\t\t\n      ISZERO \t\t\t\n      DUP1 \t\t\t\n      ISZERO \t\t\t\n      PUSH [tag] 239\t\t\t\n      JUMPI \t\t\t\n      POP \t\t\t\n      DUP1 \t\t\t\n      DUP3 \t\t\t\n      EQ \t\t\t\n      ISZERO \t\t\t\n    tag 239\t\t\t\n      JUMPDEST \t\t\t\n      SWAP3 \t\t\t\n      POP \t\t\t\n      POP \t\t\taddress, uint256 tokenID, stri...\n      POP \t\t\taddress, uint256 tokenID, stri...\n      SWAP2 \t\t\ttructor() {\\n    nftName = \"fc...\n      SWAP1 \t\t\ttructor() {\\n    nftName = \"fc...\n      POP \t\t\ttructor() {\\n    nftName = \"fc...\n      JUMP \t\t\ttructor() {\\n    nftName = \"fc...\n    tag 241\t\t\tithub.com/nibbstack/erc721/tre...\n      JUMPDEST \t\t\tithub.com/nibbstack/erc721/tre...\n      PUSH 0\t\t\t/\n      DUP1 \t\t\te\n      REVERT \t\t\tcts/tokens/n\n    tag 242\t\t\tdata.sol\";\\nimport \"https://gi...\n      JUMPDEST \t\t\tdata.sol\";\\nimport \"https://gi...\n      PUSH 0\t\t\tt\n      DUP1 \t\t\tr\n      REVERT \t\t\t\\n\\n\\ncontract \n    tag 243\t\t\t   NFTokenMetadata, \\n    Owna...\n      JUMPDEST \t\t\t   NFTokenMetadata, \\n    Owna...\n      PUSH 0\t\t\t\\n  /**\\n\n      PUSH FFFFFFFF00000000000000000000000000000000000000000000000000000000\t\t\tets metadata extension `name` ...\n      DUP3 \t\t\tctor.\n      AND \t\t\tstructor. Sets metadata extens...\n      SWAP1 \t\t\tontract constructor. Sets meta...\n      POP \t\t\tontract constructor. Sets meta...\n      SWAP2 \t\t\t   NFTokenMetadata, \\n    Owna...\n      SWAP1 \t\t\t   NFTokenMetadata, \\n    Owna...\n      POP \t\t\t   NFTokenMetadata, \\n    Owna...\n      JUMP \t\t\t   NFTokenMetadata, \\n    Owna...\n    tag 244\t\t\te = \"fcs_class\";\\n    nftSymbo...\n      JUMPDEST \t\t\te = \"fcs_class\";\\n    nftSymbo...\n      PUSH [tag] 297\t\t\tss myaddress, uint256 t\n      DUP2 \t\t\tt256 \n      PUSH [tag] 243\t\t\tss myaddress, uint256 t\n      JUMP \t\t\tss myaddress, uint256 t\n    tag 297\t\t\tss myaddress, uint256 t\n      JUMPDEST \t\t\tss myaddress, uint256 t\n      DUP2 \t\t\tk(add\n      EQ \t\t\tmask(address myaddress, uint25...\n      PUSH [tag] 298\t\t\tction metamask(address myaddre...\n      JUMPI \t\t\tction metamask(address myaddre...\n      PUSH 0\t\t\tc\n      DUP1 \t\t\tn\n      REVERT \t\t\tD, string ca\n    tag 298\t\t\tction metamask(address myaddre...\n      JUMPDEST \t\t\tction metamask(address myaddre...\n      POP \t\t\te = \"fcs_class\";\\n    nftSymbo...\n      JUMP \t\t\te = \"fcs_class\";\\n    nftSymbo...\n    tag 245\t\t\tternal onlyOwner {\\n    super....\n      JUMPDEST \t\t\tternal onlyOwner {\\n    super....\n      PUSH 0\t\t\t toke\n      DUP2 \t\t\tnID, u\n      CALLDATALOAD \t\t\tTokenUri(tokenID, ur\n      SWAP1 \t\t\tuper._setTokenUri(tokenID, ur\n      POP \t\t\tuper._setTokenUri(tokenID, ur\n      PUSH [tag] 300\t\t\t}\\n\n      DUP2 \t\t\t\n      PUSH [tag] 244\t\t\t}\\n\n      JUMP \t\t\t}\\n\n    tag 300\t\t\t}\\n\n      JUMPDEST \t\t\t}\\n\n      SWAP3 \t\t\tternal onlyOwner {\\n    super....\n      SWAP2 \t\t\tternal onlyOwner {\\n    super....\n      POP \t\t\tternal onlyOwner {\\n    super....\n      POP \t\t\tternal onlyOwner {\\n    super....\n      JUMP \t\t\tternal onlyOwner {\\n    super....\n    tag 26\t\t\t\n      JUMPDEST \t\t\t\n      PUSH 0\t\t\t\n      PUSH 20\t\t\t\n      DUP3 \t\t\t\n      DUP5 \t\t\t\n      SUB \t\t\t\n      SLT \t\t\t\n      ISZERO \t\t\t\n      PUSH [tag] 302\t\t\t\n      JUMPI \t\t\t\n      PUSH [tag] 303\t\t\t\n      PUSH [tag] 241\t\t\t\n      JUMP \t\t\t\n    tag 303\t\t\t\n      JUMPDEST \t\t\t\n    tag 302\t\t\t\n      JUMPDEST \t\t\t\n      PUSH 0\t\t\t\n      PUSH [tag] 304\t\t\t\n      DUP5 \t\t\t\n      DUP3 \t\t\t\n      DUP6 \t\t\t\n      ADD \t\t\t\n      PUSH [tag] 245\t\t\t\n      JUMP \t\t\t\n    tag 304\t\t\t\n      JUMPDEST \t\t\t\n      SWAP2 \t\t\t\n      POP \t\t\t\n      POP \t\t\t\n      SWAP3 \t\t\t\n      SWAP2 \t\t\t\n      POP \t\t\t\n      POP \t\t\t\n      JUMP \t\t\t\n    tag 246\t\t\t\n      JUMPDEST \t\t\t\n      PUSH 0\t\t\t\n      DUP2 \t\t\t\n      ISZERO \t\t\t\n      ISZERO \t\t\t\n      SWAP1 \t\t\t\n      POP \t\t\t\n      SWAP2 \t\t\t\n      SWAP1 \t\t\t\n      POP \t\t\t\n      JUMP \t\t\t\n    tag 247\t\t\t\n      JUMPDEST \t\t\t\n      PUSH [tag] 307\t\t\t\n      DUP2 \t\t\t\n      PUSH [tag] 246\t\t\t\n      JUMP \t\t\t\n    tag 307\t\t\t\n      JUMPDEST \t\t\t\n      DUP3 \t\t\t\n      MSTORE \t\t\t\n      POP \t\t\t\n      POP \t\t\t\n      JUMP \t\t\t\n    tag 29\t\t\t\n      JUMPDEST \t\t\t\n      PUSH 0\t\t\t\n      PUSH 20\t\t\t\n      DUP3 \t\t\t\n      ADD \t\t\t\n      SWAP1 \t\t\t\n      POP \t\t\t\n      PUSH [tag] 309\t\t\t\n      PUSH 0\t\t\t\n      DUP4 \t\t\t\n      ADD \t\t\t\n      DUP5 \t\t\t\n      PUSH [tag] 247\t\t\t\n      JUMP \t\t\t\n    tag 309\t\t\t\n      JUMPDEST \t\t\t\n      SWAP3 \t\t\t\n      SWAP2 \t\t\t\n      POP \t\t\t\n      POP \t\t\t\n      JUMP \t\t\t\n    tag 248\t\t\t\n      JUMPDEST \t\t\t\n      PUSH 0\t\t\t\n      DUP2 \t\t\t\n      MLOAD \t\t\t\n      SWAP1 \t\t\t\n      POP \t\t\t\n      SWAP2 \t\t\t\n      SWAP1 \t\t\t\n      POP \t\t\t\n      JUMP \t\t\t\n    tag 249\t\t\t\n      JUMPDEST \t\t\t\n      PUSH 0\t\t\t\n      DUP3 \t\t\t\n      DUP3 \t\t\t\n      MSTORE \t\t\t\n      PUSH 20\t\t\t\n      DUP3 \t\t\t\n      ADD \t\t\t\n      SWAP1 \t\t\t\n      POP \t\t\t\n      SWAP3 \t\t\t\n      SWAP2 \t\t\t\n      POP \t\t\t\n      POP \t\t\t\n      JUMP \t\t\t\n    tag 250\t\t\t\n      JUMPDEST \t\t\t\n      PUSH 0\t\t\t\n    tag 313\t\t\t\n      JUMPDEST \t\t\t\n      DUP4 \t\t\t\n      DUP2 \t\t\t\n      LT \t\t\t\n      ISZERO \t\t\t\n      PUSH [tag] 315\t\t\t\n      JUMPI \t\t\t\n      DUP1 \t\t\t\n      DUP3 \t\t\t\n      ADD \t\t\t\n      MLOAD \t\t\t\n      DUP2 \t\t\t\n      DUP5 \t\t\t\n      ADD \t\t\t\n      MSTORE \t\t\t\n      PUSH 20\t\t\t\n      DUP2 \t\t\t\n      ADD \t\t\t\n      SWAP1 \t\t\t\n      POP \t\t\t\n      PUSH [tag] 313\t\t\t\n      JUMP \t\t\t\n    tag 315\t\t\t\n      JUMPDEST \t\t\t\n      PUSH 0\t\t\t\n      DUP5 \t\t\t\n      DUP5 \t\t\t\n      ADD \t\t\t\n      MSTORE \t\t\t\n      POP \t\t\t\n      POP \t\t\t\n      POP \t\t\t\n      POP \t\t\t\n      JUMP \t\t\t\n    tag 251\t\t\t\n      JUMPDEST \t\t\t\n      PUSH 0\t\t\t\n      PUSH 1F\t\t\t\n      NOT \t\t\t\n      PUSH 1F\t\t\t\n      DUP4 \t\t\t\n      ADD \t\t\t\n      AND \t\t\t\n      SWAP1 \t\t\t\n      POP \t\t\t\n      SWAP2 \t\t\t\n      SWAP1 \t\t\t\n      POP \t\t\t\n      JUMP \t\t\t\n    tag 252\t\t\t\n      JUMPDEST \t\t\t\n      PUSH 0\t\t\t\n      PUSH [tag] 318\t\t\t\n      DUP3 \t\t\t\n      PUSH [tag] 248\t\t\t\n      JUMP \t\t\t\n    tag 318\t\t\t\n      JUMPDEST \t\t\t\n      PUSH [tag] 319\t\t\t\n      DUP2 \t\t\t\n      DUP6 \t\t\t\n      PUSH [tag] 249\t\t\t\n      JUMP \t\t\t\n    tag 319\t\t\t\n      JUMPDEST \t\t\t\n      SWAP4 \t\t\t\n      POP \t\t\t\n      PUSH [tag] 320\t\t\t\n      DUP2 \t\t\t\n      DUP6 \t\t\t\n      PUSH 20\t\t\t\n      DUP7 \t\t\t\n      ADD \t\t\t\n      PUSH [tag] 250\t\t\t\n      JUMP \t\t\t\n    tag 320\t\t\t\n      JUMPDEST \t\t\t\n      PUSH [tag] 321\t\t\t\n      DUP2 \t\t\t\n      PUSH [tag] 251\t\t\t\n      JUMP \t\t\t\n    tag 321\t\t\t\n      JUMPDEST \t\t\t\n      DUP5 \t\t\t\n      ADD \t\t\t\n      SWAP2 \t\t\t\n      POP \t\t\t\n      POP \t\t\t\n      SWAP3 \t\t\t\n      SWAP2 \t\t\t\n      POP \t\t\t\n      POP \t\t\t\n      JUMP \t\t\t\n    tag 33\t\t\t\n      JUMPDEST \t\t\t\n      PUSH 0\t\t\t\n      PUSH 20\t\t\t\n      DUP3 \t\t\t\n      ADD \t\t\t\n      SWAP1 \t\t\t\n      POP \t\t\t\n      DUP2 \t\t\t\n      DUP2 \t\t\t\n      SUB \t\t\t\n      PUSH 0\t\t\t\n      DUP4 \t\t\t\n      ADD \t\t\t\n      MSTORE \t\t\t\n      PUSH [tag] 323\t\t\t\n      DUP2 \t\t\t\n      DUP5 \t\t\t\n      PUSH [tag] 252\t\t\t\n      JUMP \t\t\t\n    tag 323\t\t\t\n      JUMPDEST \t\t\t\n      SWAP1 \t\t\t\n      POP \t\t\t\n      SWAP3 \t\t\t\n      SWAP2 \t\t\t\n      POP \t\t\t\n      POP \t\t\t\n      JUMP \t\t\t\n    tag 253\t\t\t\n      JUMPDEST \t\t\t\n      PUSH 0\t\t\t\n      DUP2 \t\t\t\n      SWAP1 \t\t\t\n      POP \t\t\t\n      SWAP2 \t\t\t\n      SWAP1 \t\t\t\n      POP \t\t\t\n      JUMP \t\t\t\n    tag 254\t\t\t\n      JUMPDEST \t\t\t\n      PUSH [tag] 326\t\t\t\n      DUP2 \t\t\t\n      PUSH [tag] 253\t\t\t\n      JUMP \t\t\t\n    tag 326\t\t\t\n      JUMPDEST \t\t\t\n      DUP2 \t\t\t\n      EQ \t\t\t\n      PUSH [tag] 327\t\t\t\n      JUMPI \t\t\t\n      PUSH 0\t\t\t\n      DUP1 \t\t\t\n      REVERT \t\t\t\n    tag 327\t\t\t\n      JUMPDEST \t\t\t\n      POP \t\t\t\n      JUMP \t\t\t\n    tag 255\t\t\t\n      JUMPDEST \t\t\t\n      PUSH 0\t\t\t\n      DUP2 \t\t\t\n      CALLDATALOAD \t\t\t\n      SWAP1 \t\t\t\n      POP \t\t\t\n      PUSH [tag] 329\t\t\t\n      DUP2 \t\t\t\n      PUSH [tag] 254\t\t\t\n      JUMP \t\t\t\n    tag 329\t\t\t\n      JUMPDEST \t\t\t\n      SWAP3 \t\t\t\n      SWAP2 \t\t\t\n      POP \t\t\t\n      POP \t\t\t\n      JUMP \t\t\t\n    tag 36\t\t\t\n      JUMPDEST \t\t\t\n      PUSH 0\t\t\t\n      PUSH 20\t\t\t\n      DUP3 \t\t\t\n      DUP5 \t\t\t\n      SUB \t\t\t\n      SLT \t\t\t\n      ISZERO \t\t\t\n      PUSH [tag] 331\t\t\t\n      JUMPI \t\t\t\n      PUSH [tag] 332\t\t\t\n      PUSH [tag] 241\t\t\t\n      JUMP \t\t\t\n    tag 332\t\t\t\n      JUMPDEST \t\t\t\n    tag 331\t\t\t\n      JUMPDEST \t\t\t\n      PUSH 0\t\t\t\n      PUSH [tag] 333\t\t\t\n      DUP5 \t\t\t\n      DUP3 \t\t\t\n      DUP6 \t\t\t\n      ADD \t\t\t\n      PUSH [tag] 255\t\t\t\n      JUMP \t\t\t\n    tag 333\t\t\t\n      JUMPDEST \t\t\t\n      SWAP2 \t\t\t\n      POP \t\t\t\n      POP \t\t\t\n      SWAP3 \t\t\t\n      SWAP2 \t\t\t\n      POP \t\t\t\n      POP \t\t\t\n      JUMP \t\t\t\n    tag 256\t\t\t\n      JUMPDEST \t\t\t\n      PUSH 0\t\t\t\n      PUSH FFFFFFFFFFFFFFFFFFFFFFFFFFFFFFFFFFFFFFFF\t\t\t\n      DUP3 \t\t\t\n      AND \t\t\t\n      SWAP1 \t\t\t\n      POP \t\t\t\n      SWAP2 \t\t\t\n      SWAP1 \t\t\t\n      POP \t\t\t\n      JUMP \t\t\t\n    tag 257\t\t\t\n      JUMPDEST \t\t\t\n      PUSH 0\t\t\t\n      PUSH [tag] 336\t\t\t\n      DUP3 \t\t\t\n      PUSH [tag] 256\t\t\t\n      JUMP \t\t\t\n    tag 336\t\t\t\n      JUMPDEST \t\t\t\n      SWAP1 \t\t\t\n      POP \t\t\t\n      SWAP2 \t\t\t\n      SWAP1 \t\t\t\n      POP \t\t\t\n      JUMP \t\t\t\n    tag 258\t\t\t\n      JUMPDEST \t\t\t\n      PUSH [tag] 338\t\t\t\n      DUP2 \t\t\t\n      PUSH [tag] 257\t\t\t\n      JUMP \t\t\t\n    tag 338\t\t\t\n      JUMPDEST \t\t\t\n      DUP3 \t\t\t\n      MSTORE \t\t\t\n      POP \t\t\t\n      POP \t\t\t\n      JUMP \t\t\t\n    tag 39\t\t\t\n      JUMPDEST \t\t\t\n      PUSH 0\t\t\t\n      PUSH 20\t\t\t\n      DUP3 \t\t\t\n      ADD \t\t\t\n      SWAP1 \t\t\t\n      POP \t\t\t\n      PUSH [tag] 340\t\t\t\n      PUSH 0\t\t\t\n      DUP4 \t\t\t\n      ADD \t\t\t\n      DUP5 \t\t\t\n      PUSH [tag] 258\t\t\t\n      JUMP \t\t\t\n    tag 340\t\t\t\n      JUMPDEST \t\t\t\n      SWAP3 \t\t\t\n      SWAP2 \t\t\t\n      POP \t\t\t\n      POP \t\t\t\n      JUMP \t\t\t\n    tag 259\t\t\t\n      JUMPDEST \t\t\t\n      PUSH [tag] 342\t\t\t\n      DUP2 \t\t\t\n      PUSH [tag] 257\t\t\t\n      JUMP \t\t\t\n    tag 342\t\t\t\n      JUMPDEST \t\t\t\n      DUP2 \t\t\t\n      EQ \t\t\t\n      PUSH [tag] 343\t\t\t\n      JUMPI \t\t\t\n      PUSH 0\t\t\t\n      DUP1 \t\t\t\n      REVERT \t\t\t\n    tag 343\t\t\t\n      JUMPDEST \t\t\t\n      POP \t\t\t\n      JUMP \t\t\t\n    tag 260\t\t\t\n      JUMPDEST \t\t\t\n      PUSH 0\t\t\t\n      DUP2 \t\t\t\n      CALLDATALOAD \t\t\t\n      SWAP1 \t\t\t\n      POP \t\t\t\n      PUSH [tag] 345\t\t\t\n      DUP2 \t\t\t\n      PUSH [tag] 259\t\t\t\n      JUMP \t\t\t\n    tag 345\t\t\t\n      JUMPDEST \t\t\t\n      SWAP3 \t\t\t\n      SWAP2 \t\t\t\n      POP \t\t\t\n      POP \t\t\t\n      JUMP \t\t\t\n    tag 42\t\t\t\n      JUMPDEST \t\t\t\n      PUSH 0\t\t\t\n      DUP1 \t\t\t\n      PUSH 40\t\t\t\n      DUP4 \t\t\t\n      DUP6 \t\t\t\n      SUB \t\t\t\n      SLT \t\t\t\n      ISZERO \t\t\t\n      PUSH [tag] 347\t\t\t\n      JUMPI \t\t\t\n      PUSH [tag] 348\t\t\t\n      PUSH [tag] 241\t\t\t\n      JUMP \t\t\t\n    tag 348\t\t\t\n      JUMPDEST \t\t\t\n    tag 347\t\t\t\n      JUMPDEST \t\t\t\n      PUSH 0\t\t\t\n      PUSH [tag] 349\t\t\t\n      DUP6 \t\t\t\n      DUP3 \t\t\t\n      DUP7 \t\t\t\n      ADD \t\t\t\n      PUSH [tag] 260\t\t\t\n      JUMP \t\t\t\n    tag 349\t\t\t\n      JUMPDEST \t\t\t\n      SWAP3 \t\t\t\n      POP \t\t\t\n      POP \t\t\t\n      PUSH 20\t\t\t\n      PUSH [tag] 350\t\t\t\n      DUP6 \t\t\t\n      DUP3 \t\t\t\n      DUP7 \t\t\t\n      ADD \t\t\t\n      PUSH [tag] 255\t\t\t\n      JUMP \t\t\t\n    tag 350\t\t\t\n      JUMPDEST \t\t\t\n      SWAP2 \t\t\t\n      POP \t\t\t\n      POP \t\t\t\n      SWAP3 \t\t\t\n      POP \t\t\t\n      SWAP3 \t\t\t\n      SWAP1 \t\t\t\n      POP \t\t\t\n      JUMP \t\t\t\n    tag 46\t\t\t\n      JUMPDEST \t\t\t\n      PUSH 0\t\t\t\n      DUP1 \t\t\t\n      PUSH 0\t\t\t\n      PUSH 60\t\t\t\n      DUP5 \t\t\t\n      DUP7 \t\t\t\n      SUB \t\t\t\n      SLT \t\t\t\n      ISZERO \t\t\t\n      PUSH [tag] 352\t\t\t\n      JUMPI \t\t\t\n      PUSH [tag] 353\t\t\t\n      PUSH [tag] 241\t\t\t\n      JUMP \t\t\t\n    tag 353\t\t\t\n      JUMPDEST \t\t\t\n    tag 352\t\t\t\n      JUMPDEST \t\t\t\n      PUSH 0\t\t\t\n      PUSH [tag] 354\t\t\t\n      DUP7 \t\t\t\n      DUP3 \t\t\t\n      DUP8 \t\t\t\n      ADD \t\t\t\n      PUSH [tag] 260\t\t\t\n      JUMP \t\t\t\n    tag 354\t\t\t\n      JUMPDEST \t\t\t\n      SWAP4 \t\t\t\n      POP \t\t\t\n      POP \t\t\t\n      PUSH 20\t\t\t\n      PUSH [tag] 355\t\t\t\n      DUP7 \t\t\t\n      DUP3 \t\t\t\n      DUP8 \t\t\t\n      ADD \t\t\t\n      PUSH [tag] 260\t\t\t\n      JUMP \t\t\t\n    tag 355\t\t\t\n      JUMPDEST \t\t\t\n      SWAP3 \t\t\t\n      POP \t\t\t\n      POP \t\t\t\n      PUSH 40\t\t\t\n      PUSH [tag] 356\t\t\t\n      DUP7 \t\t\t\n      DUP3 \t\t\t\n      DUP8 \t\t\t\n      ADD \t\t\t\n      PUSH [tag] 255\t\t\t\n      JUMP \t\t\t\n    tag 356\t\t\t\n      JUMPDEST \t\t\t\n      SWAP2 \t\t\t\n      POP \t\t\t\n      POP \t\t\t\n      SWAP3 \t\t\t\n      POP \t\t\t\n      SWAP3 \t\t\t\n      POP \t\t\t\n      SWAP3 \t\t\t\n      JUMP \t\t\t\n    tag 57\t\t\t\n      JUMPDEST \t\t\t\n      PUSH 0\t\t\t\n      PUSH 20\t\t\t\n      DUP3 \t\t\t\n      DUP5 \t\t\t\n      SUB \t\t\t\n      SLT \t\t\t\n      ISZERO \t\t\t\n      PUSH [tag] 358\t\t\t\n      JUMPI \t\t\t\n      PUSH [tag] 359\t\t\t\n      PUSH [tag] 241\t\t\t\n      JUMP \t\t\t\n    tag 359\t\t\t\n      JUMPDEST \t\t\t\n    tag 358\t\t\t\n      JUMPDEST \t\t\t\n      PUSH 0\t\t\t\n      PUSH [tag] 360\t\t\t\n      DUP5 \t\t\t\n      DUP3 \t\t\t\n      DUP6 \t\t\t\n      ADD \t\t\t\n      PUSH [tag] 260\t\t\t\n      JUMP \t\t\t\n    tag 360\t\t\t\n      JUMPDEST \t\t\t\n      SWAP2 \t\t\t\n      POP \t\t\t\n      POP \t\t\t\n      SWAP3 \t\t\t\n      SWAP2 \t\t\t\n      POP \t\t\t\n      POP \t\t\t\n      JUMP \t\t\t\n    tag 261\t\t\t\n      JUMPDEST \t\t\t\n      PUSH [tag] 362\t\t\t\n      DUP2 \t\t\t\n      PUSH [tag] 253\t\t\t\n      JUMP \t\t\t\n    tag 362\t\t\t\n      JUMPDEST \t\t\t\n      DUP3 \t\t\t\n      MSTORE \t\t\t\n      POP \t\t\t\n      POP \t\t\t\n      JUMP \t\t\t\n    tag 60\t\t\t\n      JUMPDEST \t\t\t\n      PUSH 0\t\t\t\n      PUSH 20\t\t\t\n      DUP3 \t\t\t\n      ADD \t\t\t\n      SWAP1 \t\t\t\n      POP \t\t\t\n      PUSH [tag] 364\t\t\t\n      PUSH 0\t\t\t\n      DUP4 \t\t\t\n      ADD \t\t\t\n      DUP5 \t\t\t\n      PUSH [tag] 261\t\t\t\n      JUMP \t\t\t\n    tag 364\t\t\t\n      JUMPDEST \t\t\t\n      SWAP3 \t\t\t\n      SWAP2 \t\t\t\n      POP \t\t\t\n      POP \t\t\t\n      JUMP \t\t\t\n    tag 262\t\t\t\n      JUMPDEST \t\t\t\n      PUSH [tag] 366\t\t\t\n      DUP2 \t\t\t\n      PUSH [tag] 246\t\t\t\n      JUMP \t\t\t\n    tag 366\t\t\t\n      JUMPDEST \t\t\t\n      DUP2 \t\t\t\n      EQ \t\t\t\n      PUSH [tag] 367\t\t\t\n      JUMPI \t\t\t\n      PUSH 0\t\t\t\n      DUP1 \t\t\t\n      REVERT \t\t\t\n    tag 367\t\t\t\n      JUMPDEST \t\t\t\n      POP \t\t\t\n      JUMP \t\t\t\n    tag 263\t\t\t\n      JUMPDEST \t\t\t\n      PUSH 0\t\t\t\n      DUP2 \t\t\t\n      CALLDATALOAD \t\t\t\n      SWAP1 \t\t\t\n      POP \t\t\t\n      PUSH [tag] 369\t\t\t\n      DUP2 \t\t\t\n      PUSH [tag] 262\t\t\t\n      JUMP \t\t\t\n    tag 369\t\t\t\n      JUMPDEST \t\t\t\n      SWAP3 \t\t\t\n      SWAP2 \t\t\t\n      POP \t\t\t\n      POP \t\t\t\n      JUMP \t\t\t\n    tag 72\t\t\t\n      JUMPDEST \t\t\t\n      PUSH 0\t\t\t\n      DUP1 \t\t\t\n      PUSH 40\t\t\t\n      DUP4 \t\t\t\n      DUP6 \t\t\t\n      SUB \t\t\t\n      SLT \t\t\t\n      ISZERO \t\t\t\n      PUSH [tag] 371\t\t\t\n      JUMPI \t\t\t\n      PUSH [tag] 372\t\t\t\n      PUSH [tag] 241\t\t\t\n      JUMP \t\t\t\n    tag 372\t\t\t\n      JUMPDEST \t\t\t\n    tag 371\t\t\t\n      JUMPDEST \t\t\t\n      PUSH 0\t\t\t\n      PUSH [tag] 373\t\t\t\n      DUP6 \t\t\t\n      DUP3 \t\t\t\n      DUP7 \t\t\t\n      ADD \t\t\t\n      PUSH [tag] 260\t\t\t\n      JUMP \t\t\t\n    tag 373\t\t\t\n      JUMPDEST \t\t\t\n      SWAP3 \t\t\t\n      POP \t\t\t\n      POP \t\t\t\n      PUSH 20\t\t\t\n      PUSH [tag] 374\t\t\t\n      DUP6 \t\t\t\n      DUP3 \t\t\t\n      DUP7 \t\t\t\n      ADD \t\t\t\n      PUSH [tag] 263\t\t\t\n      JUMP \t\t\t\n    tag 374\t\t\t\n      JUMPDEST \t\t\t\n      SWAP2 \t\t\t\n      POP \t\t\t\n      POP \t\t\t\n      SWAP3 \t\t\t\n      POP \t\t\t\n      SWAP3 \t\t\t\n      SWAP1 \t\t\t\n      POP \t\t\t\n      JUMP \t\t\t\n    tag 264\t\t\t\n      JUMPDEST \t\t\t\n      PUSH 0\t\t\t\n      DUP1 \t\t\t\n      REVERT \t\t\t\n    tag 265\t\t\t\n      JUMPDEST \t\t\t\n      PUSH 0\t\t\t\n      DUP1 \t\t\t\n      REVERT \t\t\t\n    tag 266\t\t\t\n      JUMPDEST \t\t\t\n      PUSH 0\t\t\t\n      DUP1 \t\t\t\n      REVERT \t\t\t\n    tag 267\t\t\t\n      JUMPDEST \t\t\t\n      PUSH 0\t\t\t\n      DUP1 \t\t\t\n      DUP4 \t\t\t\n      PUSH 1F\t\t\t\n      DUP5 \t\t\t\n      ADD \t\t\t\n      SLT \t\t\t\n      PUSH [tag] 379\t\t\t\n      JUMPI \t\t\t\n      PUSH [tag] 380\t\t\t\n      PUSH [tag] 264\t\t\t\n      JUMP \t\t\t\n    tag 380\t\t\t\n      JUMPDEST \t\t\t\n    tag 379\t\t\t\n      JUMPDEST \t\t\t\n      DUP3 \t\t\t\n      CALLDATALOAD \t\t\t\n      SWAP1 \t\t\t\n      POP \t\t\t\n      PUSH FFFFFFFFFFFFFFFF\t\t\t\n      DUP2 \t\t\t\n      GT \t\t\t\n      ISZERO \t\t\t\n      PUSH [tag] 381\t\t\t\n      JUMPI \t\t\t\n      PUSH [tag] 382\t\t\t\n      PUSH [tag] 265\t\t\t\n      JUMP \t\t\t\n    tag 382\t\t\t\n      JUMPDEST \t\t\t\n    tag 381\t\t\t\n      JUMPDEST \t\t\t\n      PUSH 20\t\t\t\n      DUP4 \t\t\t\n      ADD \t\t\t\n      SWAP2 \t\t\t\n      POP \t\t\t\n      DUP4 \t\t\t\n      PUSH 1\t\t\t\n      DUP3 \t\t\t\n      MUL \t\t\t\n      DUP4 \t\t\t\n      ADD \t\t\t\n      GT \t\t\t\n      ISZERO \t\t\t\n      PUSH [tag] 383\t\t\t\n      JUMPI \t\t\t\n      PUSH [tag] 384\t\t\t\n      PUSH [tag] 266\t\t\t\n      JUMP \t\t\t\n    tag 384\t\t\t\n      JUMPDEST \t\t\t\n    tag 383\t\t\t\n      JUMPDEST \t\t\t\n      SWAP3 \t\t\t\n      POP \t\t\t\n      SWAP3 \t\t\t\n      SWAP1 \t\t\t\n      POP \t\t\t\n      JUMP \t\t\t\n    tag 76\t\t\t\n      JUMPDEST \t\t\t\n      PUSH 0\t\t\t\n      DUP1 \t\t\t\n      PUSH 0\t\t\t\n      DUP1 \t\t\t\n      PUSH 0\t\t\t\n      PUSH 80\t\t\t\n      DUP7 \t\t\t\n      DUP9 \t\t\t\n      SUB \t\t\t\n      SLT \t\t\t\n      ISZERO \t\t\t\n      PUSH [tag] 386\t\t\t\n      JUMPI \t\t\t\n      PUSH [tag] 387\t\t\t\n      PUSH [tag] 241\t\t\t\n      JUMP \t\t\t\n    tag 387\t\t\t\n      JUMPDEST \t\t\t\n    tag 386\t\t\t\n      JUMPDEST \t\t\t\n      PUSH 0\t\t\t\n      PUSH [tag] 388\t\t\t\n      DUP9 \t\t\t\n      DUP3 \t\t\t\n      DUP10 \t\t\t\n      ADD \t\t\t\n      PUSH [tag] 260\t\t\t\n      JUMP \t\t\t\n    tag 388\t\t\t\n      JUMPDEST \t\t\t\n      SWAP6 \t\t\t\n      POP \t\t\t\n      POP \t\t\t\n      PUSH 20\t\t\t\n      PUSH [tag] 389\t\t\t\n      DUP9 \t\t\t\n      DUP3 \t\t\t\n      DUP10 \t\t\t\n      ADD \t\t\t\n      PUSH [tag] 260\t\t\t\n      JUMP \t\t\t\n    tag 389\t\t\t\n      JUMPDEST \t\t\t\n      SWAP5 \t\t\t\n      POP \t\t\t\n      POP \t\t\t\n      PUSH 40\t\t\t\n      PUSH [tag] 390\t\t\t\n      DUP9 \t\t\t\n      DUP3 \t\t\t\n      DUP10 \t\t\t\n      ADD \t\t\t\n      PUSH [tag] 255\t\t\t\n      JUMP \t\t\t\n    tag 390\t\t\t\n      JUMPDEST \t\t\t\n      SWAP4 \t\t\t\n      POP \t\t\t\n      POP \t\t\t\n      PUSH 60\t\t\t\n      DUP7 \t\t\t\n      ADD \t\t\t\n      CALLDATALOAD \t\t\t\n      PUSH FFFFFFFFFFFFFFFF\t\t\t\n      DUP2 \t\t\t\n      GT \t\t\t\n      ISZERO \t\t\t\n      PUSH [tag] 391\t\t\t\n      JUMPI \t\t\t\n      PUSH [tag] 392\t\t\t\n      PUSH [tag] 242\t\t\t\n      JUMP \t\t\t\n    tag 392\t\t\t\n      JUMPDEST \t\t\t\n    tag 391\t\t\t\n      JUMPDEST \t\t\t\n      PUSH [tag] 393\t\t\t\n      DUP9 \t\t\t\n      DUP3 \t\t\t\n      DUP10 \t\t\t\n      ADD \t\t\t\n      PUSH [tag] 267\t\t\t\n      JUMP \t\t\t\n    tag 393\t\t\t\n      JUMPDEST \t\t\t\n      SWAP3 \t\t\t\n      POP \t\t\t\n      SWAP3 \t\t\t\n      POP \t\t\t\n      POP \t\t\t\n      SWAP3 \t\t\t\n      SWAP6 \t\t\t\n      POP \t\t\t\n      SWAP3 \t\t\t\n      SWAP6 \t\t\t\n      SWAP1 \t\t\t\n      SWAP4 \t\t\t\n      POP \t\t\t\n      JUMP \t\t\t\n    tag 84\t\t\t\n      JUMPDEST \t\t\t\n      PUSH 0\t\t\t\n      DUP1 \t\t\t\n      PUSH 40\t\t\t\n      DUP4 \t\t\t\n      DUP6 \t\t\t\n      SUB \t\t\t\n      SLT \t\t\t\n      ISZERO \t\t\t\n      PUSH [tag] 395\t\t\t\n      JUMPI \t\t\t\n      PUSH [tag] 396\t\t\t\n      PUSH [tag] 241\t\t\t\n      JUMP \t\t\t\n    tag 396\t\t\t\n      JUMPDEST \t\t\t\n    tag 395\t\t\t\n      JUMPDEST \t\t\t\n      PUSH 0\t\t\t\n      PUSH [tag] 397\t\t\t\n      DUP6 \t\t\t\n      DUP3 \t\t\t\n      DUP7 \t\t\t\n      ADD \t\t\t\n      PUSH [tag] 260\t\t\t\n      JUMP \t\t\t\n    tag 397\t\t\t\n      JUMPDEST \t\t\t\n      SWAP3 \t\t\t\n      POP \t\t\t\n      POP \t\t\t\n      PUSH 20\t\t\t\n      PUSH [tag] 398\t\t\t\n      DUP6 \t\t\t\n      DUP3 \t\t\t\n      DUP7 \t\t\t\n      ADD \t\t\t\n      PUSH [tag] 260\t\t\t\n      JUMP \t\t\t\n    tag 398\t\t\t\n      JUMPDEST \t\t\t\n      SWAP2 \t\t\t\n      POP \t\t\t\n      POP \t\t\t\n      SWAP3 \t\t\t\n      POP \t\t\t\n      SWAP3 \t\t\t\n      SWAP1 \t\t\t\n      POP \t\t\t\n      JUMP \t\t\t\n    tag 268\t\t\t\n      JUMPDEST \t\t\t\n      PUSH 0\t\t\t\n      DUP1 \t\t\t\n      DUP4 \t\t\t\n      PUSH 1F\t\t\t\n      DUP5 \t\t\t\n      ADD \t\t\t\n      SLT \t\t\t\n      PUSH [tag] 400\t\t\t\n      JUMPI \t\t\t\n      PUSH [tag] 401\t\t\t\n      PUSH [tag] 264\t\t\t\n      JUMP \t\t\t\n    tag 401\t\t\t\n      JUMPDEST \t\t\t\n    tag 400\t\t\t\n      JUMPDEST \t\t\t\n      DUP3 \t\t\t\n      CALLDATALOAD \t\t\t\n      SWAP1 \t\t\t\n      POP \t\t\t\n      PUSH FFFFFFFFFFFFFFFF\t\t\t\n      DUP2 \t\t\t\n      GT \t\t\t\n      ISZERO \t\t\t\n      PUSH [tag] 402\t\t\t\n      JUMPI \t\t\t\n      PUSH [tag] 403\t\t\t\n      PUSH [tag] 265\t\t\t\n      JUMP \t\t\t\n    tag 403\t\t\t\n      JUMPDEST \t\t\t\n    tag 402\t\t\t\n      JUMPDEST \t\t\t\n      PUSH 20\t\t\t\n      DUP4 \t\t\t\n      ADD \t\t\t\n      SWAP2 \t\t\t\n      POP \t\t\t\n      DUP4 \t\t\t\n      PUSH 1\t\t\t\n      DUP3 \t\t\t\n      MUL \t\t\t\n      DUP4 \t\t\t\n      ADD \t\t\t\n      GT \t\t\t\n      ISZERO \t\t\t\n      PUSH [tag] 404\t\t\t\n      JUMPI \t\t\t\n      PUSH [tag] 405\t\t\t\n      PUSH [tag] 266\t\t\t\n      JUMP \t\t\t\n    tag 405\t\t\t\n      JUMPDEST \t\t\t\n    tag 404\t\t\t\n      JUMPDEST \t\t\t\n      SWAP3 \t\t\t\n      POP \t\t\t\n      SWAP3 \t\t\t\n      SWAP1 \t\t\t\n      POP \t\t\t\n      JUMP \t\t\t\n    tag 92\t\t\t\n      JUMPDEST \t\t\t\n      PUSH 0\t\t\t\n      DUP1 \t\t\t\n      PUSH 0\t\t\t\n      DUP1 \t\t\t\n      PUSH 60\t\t\t\n      DUP6 \t\t\t\n      DUP8 \t\t\t\n      SUB \t\t\t\n      SLT \t\t\t\n      ISZERO \t\t\t\n      PUSH [tag] 407\t\t\t\n      JUMPI \t\t\t\n      PUSH [tag] 408\t\t\t\n      PUSH [tag] 241\t\t\t\n      JUMP \t\t\t\n    tag 408\t\t\t\n      JUMPDEST \t\t\t\n    tag 407\t\t\t\n      JUMPDEST \t\t\t\n      PUSH 0\t\t\t\n      PUSH [tag] 409\t\t\t\n      DUP8 \t\t\t\n      DUP3 \t\t\t\n      DUP9 \t\t\t\n      ADD \t\t\t\n      PUSH [tag] 260\t\t\t\n      JUMP \t\t\t\n    tag 409\t\t\t\n      JUMPDEST \t\t\t\n      SWAP5 \t\t\t\n      POP \t\t\t\n      POP \t\t\t\n      PUSH 20\t\t\t\n      PUSH [tag] 410\t\t\t\n      DUP8 \t\t\t\n      DUP3 \t\t\t\n      DUP9 \t\t\t\n      ADD \t\t\t\n      PUSH [tag] 255\t\t\t\n      JUMP \t\t\t\n    tag 410\t\t\t\n      JUMPDEST \t\t\t\n      SWAP4 \t\t\t\n      POP \t\t\t\n      POP \t\t\t\n      PUSH 40\t\t\t\n      DUP6 \t\t\t\n      ADD \t\t\t\n      CALLDATALOAD \t\t\t\n      PUSH FFFFFFFFFFFFFFFF\t\t\t\n      DUP2 \t\t\t\n      GT \t\t\t\n      ISZERO \t\t\t\n      PUSH [tag] 411\t\t\t\n      JUMPI \t\t\t\n      PUSH [tag] 412\t\t\t\n      PUSH [tag] 242\t\t\t\n      JUMP \t\t\t\n    tag 412\t\t\t\n      JUMPDEST \t\t\t\n    tag 411\t\t\t\n      JUMPDEST \t\t\t\n      PUSH [tag] 413\t\t\t\n      DUP8 \t\t\t\n      DUP3 \t\t\t\n      DUP9 \t\t\t\n      ADD \t\t\t\n      PUSH [tag] 268\t\t\t\n      JUMP \t\t\t\n    tag 413\t\t\t\n      JUMPDEST \t\t\t\n      SWAP3 \t\t\t\n      POP \t\t\t\n      SWAP3 \t\t\t\n      POP \t\t\t\n      POP \t\t\t\n      SWAP3 \t\t\t\n      SWAP6 \t\t\t\n      SWAP2 \t\t\t\n      SWAP5 \t\t\t\n      POP \t\t\t\n      SWAP3 \t\t\t\n      POP \t\t\t\n      JUMP \t\t\t\n    tag 269\t\t\t\n      JUMPDEST \t\t\t\n      PUSH 4E487B7100000000000000000000000000000000000000000000000000000000\t\t\t\n      PUSH 0\t\t\t\n      MSTORE \t\t\t\n      PUSH 22\t\t\t\n      PUSH 4\t\t\t\n      MSTORE \t\t\t\n      PUSH 24\t\t\t\n      PUSH 0\t\t\t\n      REVERT \t\t\t\n    tag 100\t\t\t\n      JUMPDEST \t\t\t\n      PUSH 0\t\t\t\n      PUSH 2\t\t\t\n      DUP3 \t\t\t\n      DIV \t\t\t\n      SWAP1 \t\t\t\n      POP \t\t\t\n      PUSH 1\t\t\t\n      DUP3 \t\t\t\n      AND \t\t\t\n      DUP1 \t\t\t\n      PUSH [tag] 416\t\t\t\n      JUMPI \t\t\t\n      PUSH 7F\t\t\t\n      DUP3 \t\t\t\n      AND \t\t\t\n      SWAP2 \t\t\t\n      POP \t\t\t\n    tag 416\t\t\t\n      JUMPDEST \t\t\t\n      PUSH 20\t\t\t\n      DUP3 \t\t\t\n      LT \t\t\t\n      DUP2 \t\t\t\n      SUB \t\t\t\n      PUSH [tag] 417\t\t\t\n      JUMPI \t\t\t\n      PUSH [tag] 418\t\t\t\n      PUSH [tag] 269\t\t\t\n      JUMP \t\t\t\n    tag 418\t\t\t\n      JUMPDEST \t\t\t\n    tag 417\t\t\t\n      JUMPDEST \t\t\t\n      POP \t\t\t\n      SWAP2 \t\t\t\n      SWAP1 \t\t\t\n      POP \t\t\t\n      JUMP \t\t\t\n    tag 270\t\t\t\n      JUMPDEST \t\t\t\n      PUSH 0\t\t\t\n      DUP2 \t\t\t\n      MLOAD \t\t\t\n      SWAP1 \t\t\t\n      POP \t\t\t\n      SWAP2 \t\t\t\n      SWAP1 \t\t\t\n      POP \t\t\t\n      JUMP \t\t\t\n    tag 271\t\t\t\n      JUMPDEST \t\t\t\n      PUSH 0\t\t\t\n      DUP3 \t\t\t\n      DUP3 \t\t\t\n      MSTORE \t\t\t\n      PUSH 20\t\t\t\n      DUP3 \t\t\t\n      ADD \t\t\t\n      SWAP1 \t\t\t\n      POP \t\t\t\n      SWAP3 \t\t\t\n      SWAP2 \t\t\t\n      POP \t\t\t\n      POP \t\t\t\n      JUMP \t\t\t\n    tag 272\t\t\t\n      JUMPDEST \t\t\t\n      PUSH 0\t\t\t\n      PUSH [tag] 422\t\t\t\n      DUP3 \t\t\t\n      PUSH [tag] 270\t\t\t\n      JUMP \t\t\t\n    tag 422\t\t\t\n      JUMPDEST \t\t\t\n      PUSH [tag] 423\t\t\t\n      DUP2 \t\t\t\n      DUP6 \t\t\t\n      PUSH [tag] 271\t\t\t\n      JUMP \t\t\t\n    tag 423\t\t\t\n      JUMPDEST \t\t\t\n      SWAP4 \t\t\t\n      POP \t\t\t\n      PUSH [tag] 424\t\t\t\n      DUP2 \t\t\t\n      DUP6 \t\t\t\n      PUSH 20\t\t\t\n      DUP7 \t\t\t\n      ADD \t\t\t\n      PUSH [tag] 250\t\t\t\n      JUMP \t\t\t\n    tag 424\t\t\t\n      JUMPDEST \t\t\t\n      PUSH [tag] 425\t\t\t\n      DUP2 \t\t\t\n      PUSH [tag] 251\t\t\t\n      JUMP \t\t\t\n    tag 425\t\t\t\n      JUMPDEST \t\t\t\n      DUP5 \t\t\t\n      ADD \t\t\t\n      SWAP2 \t\t\t\n      POP \t\t\t\n      POP \t\t\t\n      SWAP3 \t\t\t\n      SWAP2 \t\t\t\n      POP \t\t\t\n      POP \t\t\t\n      JUMP \t\t\t\n    tag 201\t\t\t\n      JUMPDEST \t\t\t\n      PUSH 0\t\t\t\n      PUSH 80\t\t\t\n      DUP3 \t\t\t\n      ADD \t\t\t\n      SWAP1 \t\t\t\n      POP \t\t\t\n      PUSH [tag] 427\t\t\t\n      PUSH 0\t\t\t\n      DUP4 \t\t\t\n      ADD \t\t\t\n      DUP8 \t\t\t\n      PUSH [tag] 258\t\t\t\n      JUMP \t\t\t\n    tag 427\t\t\t\n      JUMPDEST \t\t\t\n      PUSH [tag] 428\t\t\t\n      PUSH 20\t\t\t\n      DUP4 \t\t\t\n      ADD \t\t\t\n      DUP7 \t\t\t\n      PUSH [tag] 258\t\t\t\n      JUMP \t\t\t\n    tag 428\t\t\t\n      JUMPDEST \t\t\t\n      PUSH [tag] 429\t\t\t\n      PUSH 40\t\t\t\n      DUP4 \t\t\t\n      ADD \t\t\t\n      DUP6 \t\t\t\n      PUSH [tag] 261\t\t\t\n      JUMP \t\t\t\n    tag 429\t\t\t\n      JUMPDEST \t\t\t\n      DUP2 \t\t\t\n      DUP2 \t\t\t\n      SUB \t\t\t\n      PUSH 60\t\t\t\n      DUP4 \t\t\t\n      ADD \t\t\t\n      MSTORE \t\t\t\n      PUSH [tag] 430\t\t\t\n      DUP2 \t\t\t\n      DUP5 \t\t\t\n      PUSH [tag] 272\t\t\t\n      JUMP \t\t\t\n    tag 430\t\t\t\n      JUMPDEST \t\t\t\n      SWAP1 \t\t\t\n      POP \t\t\t\n      SWAP6 \t\t\t\n      SWAP5 \t\t\t\n      POP \t\t\t\n      POP \t\t\t\n      POP \t\t\t\n      POP \t\t\t\n      POP \t\t\t\n      JUMP \t\t\t\n    tag 273\t\t\t\n      JUMPDEST \t\t\t\n      PUSH 0\t\t\t\n      DUP2 \t\t\t\n      MLOAD \t\t\t\n      SWAP1 \t\t\t\n      POP \t\t\t\n      PUSH [tag] 432\t\t\t\n      DUP2 \t\t\t\n      PUSH [tag] 244\t\t\t\n      JUMP \t\t\t\n    tag 432\t\t\t\n      JUMPDEST \t\t\t\n      SWAP3 \t\t\t\n      SWAP2 \t\t\t\n      POP \t\t\t\n      POP \t\t\t\n      JUMP \t\t\t\n    tag 205\t\t\t\n      JUMPDEST \t\t\t\n      PUSH 0\t\t\t\n      PUSH 20\t\t\t\n      DUP3 \t\t\t\n      DUP5 \t\t\t\n      SUB \t\t\t\n      SLT \t\t\t\n      ISZERO \t\t\t\n      PUSH [tag] 434\t\t\t\n      JUMPI \t\t\t\n      PUSH [tag] 435\t\t\t\n      PUSH [tag] 241\t\t\t\n      JUMP \t\t\t\n    tag 435\t\t\t\n      JUMPDEST \t\t\t\n    tag 434\t\t\t\n      JUMPDEST \t\t\t\n      PUSH 0\t\t\t\n      PUSH [tag] 436\t\t\t\n      DUP5 \t\t\t\n      DUP3 \t\t\t\n      DUP6 \t\t\t\n      ADD \t\t\t\n      PUSH [tag] 273\t\t\t\n      JUMP \t\t\t\n    tag 436\t\t\t\n      JUMPDEST \t\t\t\n      SWAP2 \t\t\t\n      POP \t\t\t\n      POP \t\t\t\n      SWAP3 \t\t\t\n      SWAP2 \t\t\t\n      POP \t\t\t\n      POP \t\t\t\n      JUMP \t\t\t\n    tag 274\t\t\t\n      JUMPDEST \t\t\t\n      PUSH 4E487B7100000000000000000000000000000000000000000000000000000000\t\t\t\n      PUSH 0\t\t\t\n      MSTORE \t\t\t\n      PUSH 41\t\t\t\n      PUSH 4\t\t\t\n      MSTORE \t\t\t\n      PUSH 24\t\t\t\n      PUSH 0\t\t\t\n      REVERT \t\t\t\n    tag 275\t\t\t\n      JUMPDEST \t\t\t\n      PUSH 0\t\t\t\n      DUP2 \t\t\t\n      SWAP1 \t\t\t\n      POP \t\t\t\n      DUP2 \t\t\t\n      PUSH 0\t\t\t\n      MSTORE \t\t\t\n      PUSH 20\t\t\t\n      PUSH 0\t\t\t\n      KECCAK256 \t\t\t\n      SWAP1 \t\t\t\n      POP \t\t\t\n      SWAP2 \t\t\t\n      SWAP1 \t\t\t\n      POP \t\t\t\n      JUMP \t\t\t\n    tag 276\t\t\t\n      JUMPDEST \t\t\t\n      PUSH 0\t\t\t\n      PUSH 20\t\t\t\n      PUSH 1F\t\t\t\n      DUP4 \t\t\t\n      ADD \t\t\t\n      DIV \t\t\t\n      SWAP1 \t\t\t\n      POP \t\t\t\n      SWAP2 \t\t\t\n      SWAP1 \t\t\t\n      POP \t\t\t\n      JUMP \t\t\t\n    tag 277\t\t\t\n      JUMPDEST \t\t\t\n      PUSH 0\t\t\t\n      DUP3 \t\t\t\n      DUP3 \t\t\t\n      SHL \t\t\t\n      SWAP1 \t\t\t\n      POP \t\t\t\n      SWAP3 \t\t\t\n      SWAP2 \t\t\t\n      POP \t\t\t\n      POP \t\t\t\n      JUMP \t\t\t\n    tag 278\t\t\t\n      JUMPDEST \t\t\t\n      PUSH 0\t\t\t\n      PUSH 8\t\t\t\n      DUP4 \t\t\t\n      MUL \t\t\t\n      PUSH [tag] 442\t\t\t\n      PUSH FFFFFFFFFFFFFFFFFFFFFFFFFFFFFFFFFFFFFFFFFFFFFFFFFFFFFFFFFFFFFFFF\t\t\t\n      DUP3 \t\t\t\n      PUSH [tag] 277\t\t\t\n      JUMP \t\t\t\n    tag 442\t\t\t\n      JUMPDEST \t\t\t\n      PUSH [tag] 443\t\t\t\n      DUP7 \t\t\t\n      DUP4 \t\t\t\n      PUSH [tag] 277\t\t\t\n      JUMP \t\t\t\n    tag 443\t\t\t\n      JUMPDEST \t\t\t\n      SWAP6 \t\t\t\n      POP \t\t\t\n      DUP1 \t\t\t\n      NOT \t\t\t\n      DUP5 \t\t\t\n      AND \t\t\t\n      SWAP4 \t\t\t\n      POP \t\t\t\n      DUP1 \t\t\t\n      DUP7 \t\t\t\n      AND \t\t\t\n      DUP5 \t\t\t\n      OR \t\t\t\n      SWAP3 \t\t\t\n      POP \t\t\t\n      POP \t\t\t\n      POP \t\t\t\n      SWAP4 \t\t\t\n      SWAP3 \t\t\t\n      POP \t\t\t\n      POP \t\t\t\n      POP \t\t\t\n      JUMP \t\t\t\n    tag 279\t\t\t\n      JUMPDEST \t\t\t\n      PUSH 0\t\t\t\n      DUP2 \t\t\t\n      SWAP1 \t\t\t\n      POP \t\t\t\n      SWAP2 \t\t\t\n      SWAP1 \t\t\t\n      POP \t\t\t\n      JUMP \t\t\t\n    tag 280\t\t\t\n      JUMPDEST \t\t\t\n      PUSH 0\t\t\t\n      PUSH [tag] 446\t\t\t\n      PUSH [tag] 447\t\t\t\n      PUSH [tag] 448\t\t\t\n      DUP5 \t\t\t\n      PUSH [tag] 253\t\t\t\n      JUMP \t\t\t\n    tag 448\t\t\t\n      JUMPDEST \t\t\t\n      PUSH [tag] 279\t\t\t\n      JUMP \t\t\t\n    tag 447\t\t\t\n      JUMPDEST \t\t\t\n      PUSH [tag] 253\t\t\t\n      JUMP \t\t\t\n    tag 446\t\t\t\n      JUMPDEST \t\t\t\n      SWAP1 \t\t\t\n      POP \t\t\t\n      SWAP2 \t\t\t\n      SWAP1 \t\t\t\n      POP \t\t\t\n      JUMP \t\t\t\n    tag 281\t\t\t\n      JUMPDEST \t\t\t\n      PUSH 0\t\t\t\n      DUP2 \t\t\t\n      SWAP1 \t\t\t\n      POP \t\t\t\n      SWAP2 \t\t\t\n      SWAP1 \t\t\t\n      POP \t\t\t\n      JUMP \t\t\t\n    tag 282\t\t\t\n      JUMPDEST \t\t\t\n      PUSH [tag] 451\t\t\t\n      DUP4 \t\t\t\n      PUSH [tag] 280\t\t\t\n      JUMP \t\t\t\n    tag 451\t\t\t\n      JUMPDEST \t\t\t\n      PUSH [tag] 452\t\t\t\n      PUSH [tag] 453\t\t\t\n      DUP3 \t\t\t\n      PUSH [tag] 281\t\t\t\n      JUMP \t\t\t\n    tag 453\t\t\t\n      JUMPDEST \t\t\t\n      DUP5 \t\t\t\n      DUP5 \t\t\t\n      SLOAD \t\t\t\n      PUSH [tag] 278\t\t\t\n      JUMP \t\t\t\n    tag 452\t\t\t\n      JUMPDEST \t\t\t\n      DUP3 \t\t\t\n      SSTORE \t\t\t\n      POP \t\t\t\n      POP \t\t\t\n      POP \t\t\t\n      POP \t\t\t\n      JUMP \t\t\t\n    tag 283\t\t\t\n      JUMPDEST \t\t\t\n      PUSH 0\t\t\t\n      SWAP1 \t\t\t\n      JUMP \t\t\t\n    tag 284\t\t\t\n      JUMPDEST \t\t\t\n      PUSH [tag] 456\t\t\t\n      PUSH [tag] 283\t\t\t\n      JUMP \t\t\t\n    tag 456\t\t\t\n      JUMPDEST \t\t\t\n      PUSH [tag] 457\t\t\t\n      DUP2 \t\t\t\n      DUP5 \t\t\t\n      DUP5 \t\t\t\n      PUSH [tag] 282\t\t\t\n      JUMP \t\t\t\n    tag 457\t\t\t\n      JUMPDEST \t\t\t\n      POP \t\t\t\n      POP \t\t\t\n      POP \t\t\t\n      JUMP \t\t\t\n    tag 285\t\t\t\n      JUMPDEST \t\t\t\n    tag 459\t\t\t\n      JUMPDEST \t\t\t\n      DUP2 \t\t\t\n      DUP2 \t\t\t\n      LT \t\t\t\n      ISZERO \t\t\t\n      PUSH [tag] 461\t\t\t\n      JUMPI \t\t\t\n      PUSH [tag] 462\t\t\t\n      PUSH 0\t\t\t\n      DUP3 \t\t\t\n      PUSH [tag] 284\t\t\t\n      JUMP \t\t\t\n    tag 462\t\t\t\n      JUMPDEST \t\t\t\n      PUSH 1\t\t\t\n      DUP2 \t\t\t\n      ADD \t\t\t\n      SWAP1 \t\t\t\n      POP \t\t\t\n      PUSH [tag] 459\t\t\t\n      JUMP \t\t\t\n    tag 461\t\t\t\n      JUMPDEST \t\t\t\n      POP \t\t\t\n      POP \t\t\t\n      JUMP \t\t\t\n    tag 286\t\t\t\n      JUMPDEST \t\t\t\n      PUSH 1F\t\t\t\n      DUP3 \t\t\t\n      GT \t\t\t\n      ISZERO \t\t\t\n      PUSH [tag] 464\t\t\t\n      JUMPI \t\t\t\n      PUSH [tag] 465\t\t\t\n      DUP2 \t\t\t\n      PUSH [tag] 275\t\t\t\n      JUMP \t\t\t\n    tag 465\t\t\t\n      JUMPDEST \t\t\t\n      PUSH [tag] 466\t\t\t\n      DUP5 \t\t\t\n      PUSH [tag] 276\t\t\t\n      JUMP \t\t\t\n    tag 466\t\t\t\n      JUMPDEST \t\t\t\n      DUP2 \t\t\t\n      ADD \t\t\t\n      PUSH 20\t\t\t\n      DUP6 \t\t\t\n      LT \t\t\t\n      ISZERO \t\t\t\n      PUSH [tag] 467\t\t\t\n      JUMPI \t\t\t\n      DUP2 \t\t\t\n      SWAP1 \t\t\t\n      POP \t\t\t\n    tag 467\t\t\t\n      JUMPDEST \t\t\t\n      PUSH [tag] 468\t\t\t\n      PUSH [tag] 469\t\t\t\n      DUP6 \t\t\t\n      PUSH [tag] 276\t\t\t\n      JUMP \t\t\t\n    tag 469\t\t\t\n      JUMPDEST \t\t\t\n      DUP4 \t\t\t\n      ADD \t\t\t\n      DUP3 \t\t\t\n      PUSH [tag] 285\t\t\t\n      JUMP \t\t\t\n    tag 468\t\t\t\n      JUMPDEST \t\t\t\n      POP \t\t\t\n      POP \t\t\t\n    tag 464\t\t\t\n      JUMPDEST \t\t\t\n      POP \t\t\t\n      POP \t\t\t\n      POP \t\t\t\n      JUMP \t\t\t\n    tag 287\t\t\t\n      JUMPDEST \t\t\t\n      PUSH 0\t\t\t\n      DUP3 \t\t\t\n      DUP3 \t\t\t\n      SHR \t\t\t\n      SWAP1 \t\t\t\n      POP \t\t\t\n      SWAP3 \t\t\t\n      SWAP2 \t\t\t\n      POP \t\t\t\n      POP \t\t\t\n      JUMP \t\t\t\n    tag 288\t\t\t\n      JUMPDEST \t\t\t\n      PUSH 0\t\t\t\n      PUSH [tag] 472\t\t\t\n      PUSH 0\t\t\t\n      NOT \t\t\t\n      DUP5 \t\t\t\n      PUSH 8\t\t\t\n      MUL \t\t\t\n      PUSH [tag] 287\t\t\t\n      JUMP \t\t\t\n    tag 472\t\t\t\n      JUMPDEST \t\t\t\n      NOT \t\t\t\n      DUP1 \t\t\t\n      DUP4 \t\t\t\n      AND \t\t\t\n      SWAP2 \t\t\t\n      POP \t\t\t\n      POP \t\t\t\n      SWAP3 \t\t\t\n      SWAP2 \t\t\t\n      POP \t\t\t\n      POP \t\t\t\n      JUMP \t\t\t\n    tag 289\t\t\t\n      JUMPDEST \t\t\t\n      PUSH 0\t\t\t\n      PUSH [tag] 474\t\t\t\n      DUP4 \t\t\t\n      DUP4 \t\t\t\n      PUSH [tag] 288\t\t\t\n      JUMP \t\t\t\n    tag 474\t\t\t\n      JUMPDEST \t\t\t\n      SWAP2 \t\t\t\n      POP \t\t\t\n      DUP3 \t\t\t\n      PUSH 2\t\t\t\n      MUL \t\t\t\n      DUP3 \t\t\t\n      OR \t\t\t\n      SWAP1 \t\t\t\n      POP \t\t\t\n      SWAP3 \t\t\t\n      SWAP2 \t\t\t\n      POP \t\t\t\n      POP \t\t\t\n      JUMP \t\t\t\n    tag 226\t\t\t\n      JUMPDEST \t\t\t\n      PUSH [tag] 476\t\t\t\n      DUP3 \t\t\t\n      PUSH [tag] 248\t\t\t\n      JUMP \t\t\t\n    tag 476\t\t\t\n      JUMPDEST \t\t\t\n      PUSH FFFFFFFFFFFFFFFF\t\t\t\n      DUP2 \t\t\t\n      GT \t\t\t\n      ISZERO \t\t\t\n      PUSH [tag] 477\t\t\t\n      JUMPI \t\t\t\n      PUSH [tag] 478\t\t\t\n      PUSH [tag] 274\t\t\t\n      JUMP \t\t\t\n    tag 478\t\t\t\n      JUMPDEST \t\t\t\n    tag 477\t\t\t\n      JUMPDEST \t\t\t\n      PUSH [tag] 479\t\t\t\n      DUP3 \t\t\t\n      SLOAD \t\t\t\n      PUSH [tag] 100\t\t\t\n      JUMP \t\t\t\n    tag 479\t\t\t\n      JUMPDEST \t\t\t\n      PUSH [tag] 480\t\t\t\n      DUP3 \t\t\t\n      DUP3 \t\t\t\n      DUP6 \t\t\t\n      PUSH [tag] 286\t\t\t\n      JUMP \t\t\t\n    tag 480\t\t\t\n      JUMPDEST \t\t\t\n      PUSH 0\t\t\t\n      PUSH 20\t\t\t\n      SWAP1 \t\t\t\n      POP \t\t\t\n      PUSH 1F\t\t\t\n      DUP4 \t\t\t\n      GT \t\t\t\n      PUSH 1\t\t\t\n      DUP2 \t\t\t\n      EQ \t\t\t\n      PUSH [tag] 482\t\t\t\n      JUMPI \t\t\t\n      PUSH 0\t\t\t\n      DUP5 \t\t\t\n      ISZERO \t\t\t\n      PUSH [tag] 483\t\t\t\n      JUMPI \t\t\t\n      DUP3 \t\t\t\n      DUP8 \t\t\t\n      ADD \t\t\t\n      MLOAD \t\t\t\n      SWAP1 \t\t\t\n      POP \t\t\t\n    tag 483\t\t\t\n      JUMPDEST \t\t\t\n      PUSH [tag] 484\t\t\t\n      DUP6 \t\t\t\n      DUP3 \t\t\t\n      PUSH [tag] 289\t\t\t\n      JUMP \t\t\t\n    tag 484\t\t\t\n      JUMPDEST \t\t\t\n      DUP7 \t\t\t\n      SSTORE \t\t\t\n      POP \t\t\t\n      PUSH [tag] 481\t\t\t\n      JUMP \t\t\t\n    tag 482\t\t\t\n      JUMPDEST \t\t\t\n      PUSH 1F\t\t\t\n      NOT \t\t\t\n      DUP5 \t\t\t\n      AND \t\t\t\n      PUSH [tag] 485\t\t\t\n      DUP7 \t\t\t\n      PUSH [tag] 275\t\t\t\n      JUMP \t\t\t\n    tag 485\t\t\t\n      JUMPDEST \t\t\t\n      PUSH 0\t\t\t\n    tag 486\t\t\t\n      JUMPDEST \t\t\t\n      DUP3 \t\t\t\n      DUP2 \t\t\t\n      LT \t\t\t\n      ISZERO \t\t\t\n      PUSH [tag] 488\t\t\t\n      JUMPI \t\t\t\n      DUP5 \t\t\t\n      DUP10 \t\t\t\n      ADD \t\t\t\n      MLOAD \t\t\t\n      DUP3 \t\t\t\n      SSTORE \t\t\t\n      PUSH 1\t\t\t\n      DUP3 \t\t\t\n      ADD \t\t\t\n      SWAP2 \t\t\t\n      POP \t\t\t\n      PUSH 20\t\t\t\n      DUP6 \t\t\t\n      ADD \t\t\t\n      SWAP5 \t\t\t\n      POP \t\t\t\n      PUSH 20\t\t\t\n      DUP2 \t\t\t\n      ADD \t\t\t\n      SWAP1 \t\t\t\n      POP \t\t\t\n      PUSH [tag] 486\t\t\t\n      JUMP \t\t\t\n    tag 488\t\t\t\n      JUMPDEST \t\t\t\n      DUP7 \t\t\t\n      DUP4 \t\t\t\n      LT \t\t\t\n      ISZERO \t\t\t\n      PUSH [tag] 489\t\t\t\n      JUMPI \t\t\t\n      DUP5 \t\t\t\n      DUP10 \t\t\t\n      ADD \t\t\t\n      MLOAD \t\t\t\n      PUSH [tag] 490\t\t\t\n      PUSH 1F\t\t\t\n      DUP10 \t\t\t\n      AND \t\t\t\n      DUP3 \t\t\t\n      PUSH [tag] 288\t\t\t\n      JUMP \t\t\t\n    tag 490\t\t\t\n      JUMPDEST \t\t\t\n      DUP4 \t\t\t\n      SSTORE \t\t\t\n      POP \t\t\t\n    tag 489\t\t\t\n      JUMPDEST \t\t\t\n      PUSH 1\t\t\t\n      PUSH 2\t\t\t\n      DUP9 \t\t\t\n      MUL \t\t\t\n      ADD \t\t\t\n      DUP9 \t\t\t\n      SSTORE \t\t\t\n      POP \t\t\t\n      POP \t\t\t\n      POP \t\t\t\n    tag 481\t\t\t\n      JUMPDEST \t\t\t\n      POP \t\t\t\n      POP \t\t\t\n      POP \t\t\t\n      POP \t\t\t\n      POP \t\t\t\n      POP \t\t\t\n      JUMP \t\t\t\n    tag 290\t\t\t\n      JUMPDEST \t\t\t\n      PUSH 4E487B7100000000000000000000000000000000000000000000000000000000\t\t\t\n      PUSH 0\t\t\t\n      MSTORE \t\t\t\n      PUSH 11\t\t\t\n      PUSH 4\t\t\t\n      MSTORE \t\t\t\n      PUSH 24\t\t\t\n      PUSH 0\t\t\t\n      REVERT \t\t\t\n    tag 232\t\t\t\n      JUMPDEST \t\t\t\n      PUSH 0\t\t\t\n      PUSH [tag] 493\t\t\t\n      DUP3 \t\t\t\n      PUSH [tag] 253\t\t\t\n      JUMP \t\t\t\n    tag 493\t\t\t\n      JUMPDEST \t\t\t\n      SWAP2 \t\t\t\n      POP \t\t\t\n      PUSH [tag] 494\t\t\t\n      DUP4 \t\t\t\n      PUSH [tag] 253\t\t\t\n      JUMP \t\t\t\n    tag 494\t\t\t\n      JUMPDEST \t\t\t\n      SWAP3 \t\t\t\n      POP \t\t\t\n      DUP3 \t\t\t\n      DUP3 \t\t\t\n      SUB \t\t\t\n      SWAP1 \t\t\t\n      POP \t\t\t\n      DUP2 \t\t\t\n      DUP2 \t\t\t\n      GT \t\t\t\n      ISZERO \t\t\t\n      PUSH [tag] 495\t\t\t\n      JUMPI \t\t\t\n      PUSH [tag] 496\t\t\t\n      PUSH [tag] 290\t\t\t\n      JUMP \t\t\t\n    tag 496\t\t\t\n      JUMPDEST \t\t\t\n    tag 495\t\t\t\n      JUMPDEST \t\t\t\n      SWAP3 \t\t\t\n      SWAP2 \t\t\t\n      POP \t\t\t\n      POP \t\t\t\n      JUMP \t\t\t\n    tag 237\t\t\t\n      JUMPDEST \t\t\t\n      PUSH 0\t\t\t\n      PUSH [tag] 498\t\t\t\n      DUP3 \t\t\t\n      PUSH [tag] 253\t\t\t\n      JUMP \t\t\t\n    tag 498\t\t\t\n      JUMPDEST \t\t\t\n      SWAP2 \t\t\t\n      POP \t\t\t\n      PUSH [tag] 499\t\t\t\n      DUP4 \t\t\t\n      PUSH [tag] 253\t\t\t\n      JUMP \t\t\t\n    tag 499\t\t\t\n      JUMPDEST \t\t\t\n      SWAP3 \t\t\t\n      POP \t\t\t\n      DUP3 \t\t\t\n      DUP3 \t\t\t\n      ADD \t\t\t\n      SWAP1 \t\t\t\n      POP \t\t\t\n      DUP1 \t\t\t\n      DUP3 \t\t\t\n      GT \t\t\t\n      ISZERO \t\t\t\n      PUSH [tag] 500\t\t\t\n      JUMPI \t\t\t\n      PUSH [tag] 501\t\t\t\n      PUSH [tag] 290\t\t\t\n      JUMP \t\t\t\n    tag 501\t\t\t\n      JUMPDEST \t\t\t\n    tag 500\t\t\t\n      JUMPDEST \t\t\t\n      SWAP3 \t\t\t\n      SWAP2 \t\t\t\n      POP \t\t\t\n      POP \t\t\t\n      JUMP \t\t\t\n    .data\n"
}